{
	"BasicProgram/SimpleCounter.sol": {
		"counter": {
			"abi": [
				{
					"inputs": [],
					"name": "count",
					"outputs": [
						{
							"internalType": "uint256",
							"name": "",
							"type": "uint256"
						}
					],
					"stateMutability": "view",
					"type": "function"
				},
				{
					"inputs": [],
					"name": "decrement",
					"outputs": [],
					"stateMutability": "nonpayable",
					"type": "function"
				},
				{
					"inputs": [],
					"name": "increment",
					"outputs": [],
					"stateMutability": "nonpayable",
					"type": "function"
				},
				{
					"inputs": [
						{
							"internalType": "uint256",
							"name": "value",
							"type": "uint256"
						}
					],
					"name": "setcount",
					"outputs": [],
					"stateMutability": "nonpayable",
					"type": "function"
				}
			],
			"devdoc": {
				"kind": "dev",
				"methods": {},
				"version": 1
			},
			"evm": {
				"assembly": "    /* \"BasicProgram/SimpleCounter.sol\":82:394  contract counter{... */\n  mstore(0x40, 0x80)\n  callvalue\n  dup1\n  iszero\n  tag_1\n  jumpi\n  revert(0x00, 0x00)\ntag_1:\n  pop\n  dataSize(sub_0)\n  dup1\n  dataOffset(sub_0)\n  0x00\n  codecopy\n  0x00\n  return\nstop\n\nsub_0: assembly {\n        /* \"BasicProgram/SimpleCounter.sol\":82:394  contract counter{... */\n      mstore(0x40, 0x80)\n      callvalue\n      dup1\n      iszero\n      tag_1\n      jumpi\n      revert(0x00, 0x00)\n    tag_1:\n      pop\n      jumpi(tag_2, lt(calldatasize, 0x04))\n      shr(0xe0, calldataload(0x00))\n      dup1\n      0x06661abd\n      eq\n      tag_3\n      jumpi\n      dup1\n      0x2baeceb7\n      eq\n      tag_4\n      jumpi\n      dup1\n      0xd09de08a\n      eq\n      tag_5\n      jumpi\n      dup1\n      0xf6ad6b0a\n      eq\n      tag_6\n      jumpi\n    tag_2:\n      revert(0x00, 0x00)\n        /* \"BasicProgram/SimpleCounter.sol\":105:122  uint public count */\n    tag_3:\n      tag_7\n      tag_8\n      jump\t// in\n    tag_7:\n      mload(0x40)\n      tag_9\n      swap2\n      swap1\n      tag_10\n      jump\t// in\n    tag_9:\n      mload(0x40)\n      dup1\n      swap2\n      sub\n      swap1\n      return\n        /* \"BasicProgram/SimpleCounter.sol\":264:391  function decrement() public{... */\n    tag_4:\n      tag_11\n      tag_12\n      jump\t// in\n    tag_11:\n      stop\n        /* \"BasicProgram/SimpleCounter.sol\":203:258  function increment() public{... */\n    tag_5:\n      tag_13\n      tag_14\n      jump\t// in\n    tag_13:\n      stop\n        /* \"BasicProgram/SimpleCounter.sol\":129:197  function setcount(uint value) public{... */\n    tag_6:\n      tag_15\n      0x04\n      dup1\n      calldatasize\n      sub\n      dup2\n      add\n      swap1\n      tag_16\n      swap2\n      swap1\n      tag_17\n      jump\t// in\n    tag_16:\n      tag_18\n      jump\t// in\n    tag_15:\n      stop\n        /* \"BasicProgram/SimpleCounter.sol\":105:122  uint public count */\n    tag_8:\n      sload(0x00)\n      dup2\n      jump\t// out\n        /* \"BasicProgram/SimpleCounter.sol\":264:391  function decrement() public{... */\n    tag_12:\n        /* \"BasicProgram/SimpleCounter.sol\":316:317  0 */\n      0x00\n        /* \"BasicProgram/SimpleCounter.sol\":310:315  count */\n      sload(0x00)\n        /* \"BasicProgram/SimpleCounter.sol\":310:317  count>0 */\n      gt\n        /* \"BasicProgram/SimpleCounter.sol\":302:363  require(count>0,\"counter: cannot decrement value below zero\") */\n      tag_20\n      jumpi\n      mload(0x40)\n      0x08c379a000000000000000000000000000000000000000000000000000000000\n      dup2\n      mstore\n      0x04\n      add\n      tag_21\n      swap1\n      tag_22\n      jump\t// in\n    tag_21:\n      mload(0x40)\n      dup1\n      swap2\n      sub\n      swap1\n      revert\n    tag_20:\n        /* \"BasicProgram/SimpleCounter.sol\":382:383  1 */\n      0x01\n        /* \"BasicProgram/SimpleCounter.sol\":374:379  count */\n      0x00\n      0x00\n        /* \"BasicProgram/SimpleCounter.sol\":374:383  count -=1 */\n      dup3\n      dup3\n      sload\n      tag_23\n      swap2\n      swap1\n      tag_24\n      jump\t// in\n    tag_23:\n      swap3\n      pop\n      pop\n      dup2\n      swap1\n      sstore\n      pop\n        /* \"BasicProgram/SimpleCounter.sol\":264:391  function decrement() public{... */\n      jump\t// out\n        /* \"BasicProgram/SimpleCounter.sol\":203:258  function increment() public{... */\n    tag_14:\n        /* \"BasicProgram/SimpleCounter.sol\":249:250  1 */\n      0x01\n        /* \"BasicProgram/SimpleCounter.sol\":241:246  count */\n      0x00\n      0x00\n        /* \"BasicProgram/SimpleCounter.sol\":241:250  count +=1 */\n      dup3\n      dup3\n      sload\n      tag_26\n      swap2\n      swap1\n      tag_27\n      jump\t// in\n    tag_26:\n      swap3\n      pop\n      pop\n      dup2\n      swap1\n      sstore\n      pop\n        /* \"BasicProgram/SimpleCounter.sol\":203:258  function increment() public{... */\n      jump\t// out\n        /* \"BasicProgram/SimpleCounter.sol\":129:197  function setcount(uint value) public{... */\n    tag_18:\n        /* \"BasicProgram/SimpleCounter.sol\":184:189  value */\n      dup1\n        /* \"BasicProgram/SimpleCounter.sol\":176:181  count */\n      0x00\n        /* \"BasicProgram/SimpleCounter.sol\":176:189  count = value */\n      dup2\n      swap1\n      sstore\n      pop\n        /* \"BasicProgram/SimpleCounter.sol\":129:197  function setcount(uint value) public{... */\n      pop\n      jump\t// out\n        /* \"#utility.yul\":7:84   */\n    tag_29:\n        /* \"#utility.yul\":44:51   */\n      0x00\n        /* \"#utility.yul\":73:78   */\n      dup2\n        /* \"#utility.yul\":62:78   */\n      swap1\n      pop\n        /* \"#utility.yul\":7:84   */\n      swap2\n      swap1\n      pop\n      jump\t// out\n        /* \"#utility.yul\":90:208   */\n    tag_30:\n        /* \"#utility.yul\":177:201   */\n      tag_43\n        /* \"#utility.yul\":195:200   */\n      dup2\n        /* \"#utility.yul\":177:201   */\n      tag_29\n      jump\t// in\n    tag_43:\n        /* \"#utility.yul\":172:175   */\n      dup3\n        /* \"#utility.yul\":165:202   */\n      mstore\n        /* \"#utility.yul\":90:208   */\n      pop\n      pop\n      jump\t// out\n        /* \"#utility.yul\":214:436   */\n    tag_10:\n        /* \"#utility.yul\":307:311   */\n      0x00\n        /* \"#utility.yul\":345:347   */\n      0x20\n        /* \"#utility.yul\":334:343   */\n      dup3\n        /* \"#utility.yul\":330:348   */\n      add\n        /* \"#utility.yul\":322:348   */\n      swap1\n      pop\n        /* \"#utility.yul\":358:429   */\n      tag_45\n        /* \"#utility.yul\":426:427   */\n      0x00\n        /* \"#utility.yul\":415:424   */\n      dup4\n        /* \"#utility.yul\":411:428   */\n      add\n        /* \"#utility.yul\":402:408   */\n      dup5\n        /* \"#utility.yul\":358:429   */\n      tag_30\n      jump\t// in\n    tag_45:\n        /* \"#utility.yul\":214:436   */\n      swap3\n      swap2\n      pop\n      pop\n      jump\t// out\n        /* \"#utility.yul\":523:640   */\n    tag_32:\n        /* \"#utility.yul\":632:633   */\n      0x00\n        /* \"#utility.yul\":629:630   */\n      0x00\n        /* \"#utility.yul\":622:634   */\n      revert\n        /* \"#utility.yul\":769:891   */\n    tag_34:\n        /* \"#utility.yul\":842:866   */\n      tag_50\n        /* \"#utility.yul\":860:865   */\n      dup2\n        /* \"#utility.yul\":842:866   */\n      tag_29\n      jump\t// in\n    tag_50:\n        /* \"#utility.yul\":835:840   */\n      dup2\n        /* \"#utility.yul\":832:867   */\n      eq\n        /* \"#utility.yul\":822:885   */\n      tag_51\n      jumpi\n        /* \"#utility.yul\":881:882   */\n      0x00\n        /* \"#utility.yul\":878:879   */\n      0x00\n        /* \"#utility.yul\":871:883   */\n      revert\n        /* \"#utility.yul\":822:885   */\n    tag_51:\n        /* \"#utility.yul\":769:891   */\n      pop\n      jump\t// out\n        /* \"#utility.yul\":897:1036   */\n    tag_35:\n        /* \"#utility.yul\":943:948   */\n      0x00\n        /* \"#utility.yul\":981:987   */\n      dup2\n        /* \"#utility.yul\":968:988   */\n      calldataload\n        /* \"#utility.yul\":959:988   */\n      swap1\n      pop\n        /* \"#utility.yul\":997:1030   */\n      tag_53\n        /* \"#utility.yul\":1024:1029   */\n      dup2\n        /* \"#utility.yul\":997:1030   */\n      tag_34\n      jump\t// in\n    tag_53:\n        /* \"#utility.yul\":897:1036   */\n      swap3\n      swap2\n      pop\n      pop\n      jump\t// out\n        /* \"#utility.yul\":1042:1371   */\n    tag_17:\n        /* \"#utility.yul\":1101:1107   */\n      0x00\n        /* \"#utility.yul\":1150:1152   */\n      0x20\n        /* \"#utility.yul\":1138:1147   */\n      dup3\n        /* \"#utility.yul\":1129:1136   */\n      dup5\n        /* \"#utility.yul\":1125:1148   */\n      sub\n        /* \"#utility.yul\":1121:1153   */\n      slt\n        /* \"#utility.yul\":1118:1237   */\n      iszero\n      tag_55\n      jumpi\n        /* \"#utility.yul\":1156:1235   */\n      tag_56\n      tag_32\n      jump\t// in\n    tag_56:\n        /* \"#utility.yul\":1118:1237   */\n    tag_55:\n        /* \"#utility.yul\":1276:1277   */\n      0x00\n        /* \"#utility.yul\":1301:1354   */\n      tag_57\n        /* \"#utility.yul\":1346:1353   */\n      dup5\n        /* \"#utility.yul\":1337:1343   */\n      dup3\n        /* \"#utility.yul\":1326:1335   */\n      dup6\n        /* \"#utility.yul\":1322:1344   */\n      add\n        /* \"#utility.yul\":1301:1354   */\n      tag_35\n      jump\t// in\n    tag_57:\n        /* \"#utility.yul\":1291:1354   */\n      swap2\n      pop\n        /* \"#utility.yul\":1247:1364   */\n      pop\n        /* \"#utility.yul\":1042:1371   */\n      swap3\n      swap2\n      pop\n      pop\n      jump\t// out\n        /* \"#utility.yul\":1377:1546   */\n    tag_36:\n        /* \"#utility.yul\":1461:1472   */\n      0x00\n        /* \"#utility.yul\":1495:1501   */\n      dup3\n        /* \"#utility.yul\":1490:1493   */\n      dup3\n        /* \"#utility.yul\":1483:1502   */\n      mstore\n        /* \"#utility.yul\":1535:1539   */\n      0x20\n        /* \"#utility.yul\":1530:1533   */\n      dup3\n        /* \"#utility.yul\":1526:1540   */\n      add\n        /* \"#utility.yul\":1511:1540   */\n      swap1\n      pop\n        /* \"#utility.yul\":1377:1546   */\n      swap3\n      swap2\n      pop\n      pop\n      jump\t// out\n        /* \"#utility.yul\":1552:1781   */\n    tag_37:\n        /* \"#utility.yul\":1692:1726   */\n      0x636f756e7465723a2063616e6e6f742064656372656d656e742076616c756520\n        /* \"#utility.yul\":1688:1689   */\n      0x00\n        /* \"#utility.yul\":1680:1686   */\n      dup3\n        /* \"#utility.yul\":1676:1690   */\n      add\n        /* \"#utility.yul\":1669:1727   */\n      mstore\n        /* \"#utility.yul\":1761:1773   */\n      0x62656c6f77207a65726f00000000000000000000000000000000000000000000\n        /* \"#utility.yul\":1756:1758   */\n      0x20\n        /* \"#utility.yul\":1748:1754   */\n      dup3\n        /* \"#utility.yul\":1744:1759   */\n      add\n        /* \"#utility.yul\":1737:1774   */\n      mstore\n        /* \"#utility.yul\":1552:1781   */\n      pop\n      jump\t// out\n        /* \"#utility.yul\":1787:2153   */\n    tag_38:\n        /* \"#utility.yul\":1929:1932   */\n      0x00\n        /* \"#utility.yul\":1950:2017   */\n      tag_61\n        /* \"#utility.yul\":2014:2016   */\n      0x2a\n        /* \"#utility.yul\":2009:2012   */\n      dup4\n        /* \"#utility.yul\":1950:2017   */\n      tag_36\n      jump\t// in\n    tag_61:\n        /* \"#utility.yul\":1943:2017   */\n      swap2\n      pop\n        /* \"#utility.yul\":2026:2119   */\n      tag_62\n        /* \"#utility.yul\":2115:2118   */\n      dup3\n        /* \"#utility.yul\":2026:2119   */\n      tag_37\n      jump\t// in\n    tag_62:\n        /* \"#utility.yul\":2144:2146   */\n      0x40\n        /* \"#utility.yul\":2139:2142   */\n      dup3\n        /* \"#utility.yul\":2135:2147   */\n      add\n        /* \"#utility.yul\":2128:2147   */\n      swap1\n      pop\n        /* \"#utility.yul\":1787:2153   */\n      swap2\n      swap1\n      pop\n      jump\t// out\n        /* \"#utility.yul\":2159:2578   */\n    tag_22:\n        /* \"#utility.yul\":2325:2329   */\n      0x00\n        /* \"#utility.yul\":2363:2365   */\n      0x20\n        /* \"#utility.yul\":2352:2361   */\n      dup3\n        /* \"#utility.yul\":2348:2366   */\n      add\n        /* \"#utility.yul\":2340:2366   */\n      swap1\n      pop\n        /* \"#utility.yul\":2412:2421   */\n      dup2\n        /* \"#utility.yul\":2406:2410   */\n      dup2\n        /* \"#utility.yul\":2402:2422   */\n      sub\n        /* \"#utility.yul\":2398:2399   */\n      0x00\n        /* \"#utility.yul\":2387:2396   */\n      dup4\n        /* \"#utility.yul\":2383:2400   */\n      add\n        /* \"#utility.yul\":2376:2423   */\n      mstore\n        /* \"#utility.yul\":2440:2571   */\n      tag_64\n        /* \"#utility.yul\":2566:2570   */\n      dup2\n        /* \"#utility.yul\":2440:2571   */\n      tag_38\n      jump\t// in\n    tag_64:\n        /* \"#utility.yul\":2432:2571   */\n      swap1\n      pop\n        /* \"#utility.yul\":2159:2578   */\n      swap2\n      swap1\n      pop\n      jump\t// out\n        /* \"#utility.yul\":2584:2764   */\n    tag_39:\n        /* \"#utility.yul\":2632:2709   */\n      0x4e487b7100000000000000000000000000000000000000000000000000000000\n        /* \"#utility.yul\":2629:2630   */\n      0x00\n        /* \"#utility.yul\":2622:2710   */\n      mstore\n        /* \"#utility.yul\":2729:2733   */\n      0x11\n        /* \"#utility.yul\":2726:2727   */\n      0x04\n        /* \"#utility.yul\":2719:2734   */\n      mstore\n        /* \"#utility.yul\":2753:2757   */\n      0x24\n        /* \"#utility.yul\":2750:2751   */\n      0x00\n        /* \"#utility.yul\":2743:2758   */\n      revert\n        /* \"#utility.yul\":2770:2964   */\n    tag_24:\n        /* \"#utility.yul\":2810:2814   */\n      0x00\n        /* \"#utility.yul\":2830:2850   */\n      tag_67\n        /* \"#utility.yul\":2848:2849   */\n      dup3\n        /* \"#utility.yul\":2830:2850   */\n      tag_29\n      jump\t// in\n    tag_67:\n        /* \"#utility.yul\":2825:2850   */\n      swap2\n      pop\n        /* \"#utility.yul\":2864:2884   */\n      tag_68\n        /* \"#utility.yul\":2882:2883   */\n      dup4\n        /* \"#utility.yul\":2864:2884   */\n      tag_29\n      jump\t// in\n    tag_68:\n        /* \"#utility.yul\":2859:2884   */\n      swap3\n      pop\n        /* \"#utility.yul\":2908:2909   */\n      dup3\n        /* \"#utility.yul\":2905:2906   */\n      dup3\n        /* \"#utility.yul\":2901:2910   */\n      sub\n        /* \"#utility.yul\":2893:2910   */\n      swap1\n      pop\n        /* \"#utility.yul\":2932:2933   */\n      dup2\n        /* \"#utility.yul\":2926:2930   */\n      dup2\n        /* \"#utility.yul\":2923:2934   */\n      gt\n        /* \"#utility.yul\":2920:2957   */\n      iszero\n      tag_69\n      jumpi\n        /* \"#utility.yul\":2937:2955   */\n      tag_70\n      tag_39\n      jump\t// in\n    tag_70:\n        /* \"#utility.yul\":2920:2957   */\n    tag_69:\n        /* \"#utility.yul\":2770:2964   */\n      swap3\n      swap2\n      pop\n      pop\n      jump\t// out\n        /* \"#utility.yul\":2970:3161   */\n    tag_27:\n        /* \"#utility.yul\":3010:3013   */\n      0x00\n        /* \"#utility.yul\":3029:3049   */\n      tag_72\n        /* \"#utility.yul\":3047:3048   */\n      dup3\n        /* \"#utility.yul\":3029:3049   */\n      tag_29\n      jump\t// in\n    tag_72:\n        /* \"#utility.yul\":3024:3049   */\n      swap2\n      pop\n        /* \"#utility.yul\":3063:3083   */\n      tag_73\n        /* \"#utility.yul\":3081:3082   */\n      dup4\n        /* \"#utility.yul\":3063:3083   */\n      tag_29\n      jump\t// in\n    tag_73:\n        /* \"#utility.yul\":3058:3083   */\n      swap3\n      pop\n        /* \"#utility.yul\":3106:3107   */\n      dup3\n        /* \"#utility.yul\":3103:3104   */\n      dup3\n        /* \"#utility.yul\":3099:3108   */\n      add\n        /* \"#utility.yul\":3092:3108   */\n      swap1\n      pop\n        /* \"#utility.yul\":3127:3130   */\n      dup1\n        /* \"#utility.yul\":3124:3125   */\n      dup3\n        /* \"#utility.yul\":3121:3131   */\n      gt\n        /* \"#utility.yul\":3118:3154   */\n      iszero\n      tag_74\n      jumpi\n        /* \"#utility.yul\":3134:3152   */\n      tag_75\n      tag_39\n      jump\t// in\n    tag_75:\n        /* \"#utility.yul\":3118:3154   */\n    tag_74:\n        /* \"#utility.yul\":2970:3161   */\n      swap3\n      swap2\n      pop\n      pop\n      jump\t// out\n\n    auxdata: 0xa2646970667358221220e04ee5466e1f7789143c0e6d60697f1b94119de6dfadf83cbd43a637115705be64736f6c634300081f0033\n}\n",
				"bytecode": {
					"linkReferences": {},
					"object": "6080604052348015600e575f5ffd5b506103128061001c5f395ff3fe608060405234801561000f575f5ffd5b506004361061004a575f3560e01c806306661abd1461004e5780632baeceb71461006c578063d09de08a14610076578063f6ad6b0a14610080575b5f5ffd5b61005661009c565b6040516100639190610139565b60405180910390f35b6100746100a1565b005b61007e6100fe565b005b61009a60048036038101906100959190610180565b610118565b005b5f5481565b5f5f54116100e4576040517f08c379a00000000000000000000000000000000000000000000000000000000081526004016100db9061022b565b60405180910390fd5b60015f5f8282546100f59190610276565b92505081905550565b60015f5f82825461010f91906102a9565b92505081905550565b805f8190555050565b5f819050919050565b61013381610121565b82525050565b5f60208201905061014c5f83018461012a565b92915050565b5f5ffd5b61015f81610121565b8114610169575f5ffd5b50565b5f8135905061017a81610156565b92915050565b5f6020828403121561019557610194610152565b5b5f6101a28482850161016c565b91505092915050565b5f82825260208201905092915050565b7f636f756e7465723a2063616e6e6f742064656372656d656e742076616c7565205f8201527f62656c6f77207a65726f00000000000000000000000000000000000000000000602082015250565b5f610215602a836101ab565b9150610220826101bb565b604082019050919050565b5f6020820190508181035f83015261024281610209565b9050919050565b7f4e487b71000000000000000000000000000000000000000000000000000000005f52601160045260245ffd5b5f61028082610121565b915061028b83610121565b92508282039050818111156102a3576102a2610249565b5b92915050565b5f6102b382610121565b91506102be83610121565b92508282019050808211156102d6576102d5610249565b5b9291505056fea2646970667358221220e04ee5466e1f7789143c0e6d60697f1b94119de6dfadf83cbd43a637115705be64736f6c634300081f0033",
					"opcodes": "PUSH1 0x80 PUSH1 0x40 MSTORE CALLVALUE DUP1 ISZERO PUSH1 0xE JUMPI PUSH0 PUSH0 REVERT JUMPDEST POP PUSH2 0x312 DUP1 PUSH2 0x1C PUSH0 CODECOPY PUSH0 RETURN INVALID PUSH1 0x80 PUSH1 0x40 MSTORE CALLVALUE DUP1 ISZERO PUSH2 0xF JUMPI PUSH0 PUSH0 REVERT JUMPDEST POP PUSH1 0x4 CALLDATASIZE LT PUSH2 0x4A JUMPI PUSH0 CALLDATALOAD PUSH1 0xE0 SHR DUP1 PUSH4 0x6661ABD EQ PUSH2 0x4E JUMPI DUP1 PUSH4 0x2BAECEB7 EQ PUSH2 0x6C JUMPI DUP1 PUSH4 0xD09DE08A EQ PUSH2 0x76 JUMPI DUP1 PUSH4 0xF6AD6B0A EQ PUSH2 0x80 JUMPI JUMPDEST PUSH0 PUSH0 REVERT JUMPDEST PUSH2 0x56 PUSH2 0x9C JUMP JUMPDEST PUSH1 0x40 MLOAD PUSH2 0x63 SWAP2 SWAP1 PUSH2 0x139 JUMP JUMPDEST PUSH1 0x40 MLOAD DUP1 SWAP2 SUB SWAP1 RETURN JUMPDEST PUSH2 0x74 PUSH2 0xA1 JUMP JUMPDEST STOP JUMPDEST PUSH2 0x7E PUSH2 0xFE JUMP JUMPDEST STOP JUMPDEST PUSH2 0x9A PUSH1 0x4 DUP1 CALLDATASIZE SUB DUP2 ADD SWAP1 PUSH2 0x95 SWAP2 SWAP1 PUSH2 0x180 JUMP JUMPDEST PUSH2 0x118 JUMP JUMPDEST STOP JUMPDEST PUSH0 SLOAD DUP2 JUMP JUMPDEST PUSH0 PUSH0 SLOAD GT PUSH2 0xE4 JUMPI PUSH1 0x40 MLOAD PUSH32 0x8C379A000000000000000000000000000000000000000000000000000000000 DUP2 MSTORE PUSH1 0x4 ADD PUSH2 0xDB SWAP1 PUSH2 0x22B JUMP JUMPDEST PUSH1 0x40 MLOAD DUP1 SWAP2 SUB SWAP1 REVERT JUMPDEST PUSH1 0x1 PUSH0 PUSH0 DUP3 DUP3 SLOAD PUSH2 0xF5 SWAP2 SWAP1 PUSH2 0x276 JUMP JUMPDEST SWAP3 POP POP DUP2 SWAP1 SSTORE POP JUMP JUMPDEST PUSH1 0x1 PUSH0 PUSH0 DUP3 DUP3 SLOAD PUSH2 0x10F SWAP2 SWAP1 PUSH2 0x2A9 JUMP JUMPDEST SWAP3 POP POP DUP2 SWAP1 SSTORE POP JUMP JUMPDEST DUP1 PUSH0 DUP2 SWAP1 SSTORE POP POP JUMP JUMPDEST PUSH0 DUP2 SWAP1 POP SWAP2 SWAP1 POP JUMP JUMPDEST PUSH2 0x133 DUP2 PUSH2 0x121 JUMP JUMPDEST DUP3 MSTORE POP POP JUMP JUMPDEST PUSH0 PUSH1 0x20 DUP3 ADD SWAP1 POP PUSH2 0x14C PUSH0 DUP4 ADD DUP5 PUSH2 0x12A JUMP JUMPDEST SWAP3 SWAP2 POP POP JUMP JUMPDEST PUSH0 PUSH0 REVERT JUMPDEST PUSH2 0x15F DUP2 PUSH2 0x121 JUMP JUMPDEST DUP2 EQ PUSH2 0x169 JUMPI PUSH0 PUSH0 REVERT JUMPDEST POP JUMP JUMPDEST PUSH0 DUP2 CALLDATALOAD SWAP1 POP PUSH2 0x17A DUP2 PUSH2 0x156 JUMP JUMPDEST SWAP3 SWAP2 POP POP JUMP JUMPDEST PUSH0 PUSH1 0x20 DUP3 DUP5 SUB SLT ISZERO PUSH2 0x195 JUMPI PUSH2 0x194 PUSH2 0x152 JUMP JUMPDEST JUMPDEST PUSH0 PUSH2 0x1A2 DUP5 DUP3 DUP6 ADD PUSH2 0x16C JUMP JUMPDEST SWAP2 POP POP SWAP3 SWAP2 POP POP JUMP JUMPDEST PUSH0 DUP3 DUP3 MSTORE PUSH1 0x20 DUP3 ADD SWAP1 POP SWAP3 SWAP2 POP POP JUMP JUMPDEST PUSH32 0x636F756E7465723A2063616E6E6F742064656372656D656E742076616C756520 PUSH0 DUP3 ADD MSTORE PUSH32 0x62656C6F77207A65726F00000000000000000000000000000000000000000000 PUSH1 0x20 DUP3 ADD MSTORE POP JUMP JUMPDEST PUSH0 PUSH2 0x215 PUSH1 0x2A DUP4 PUSH2 0x1AB JUMP JUMPDEST SWAP2 POP PUSH2 0x220 DUP3 PUSH2 0x1BB JUMP JUMPDEST PUSH1 0x40 DUP3 ADD SWAP1 POP SWAP2 SWAP1 POP JUMP JUMPDEST PUSH0 PUSH1 0x20 DUP3 ADD SWAP1 POP DUP2 DUP2 SUB PUSH0 DUP4 ADD MSTORE PUSH2 0x242 DUP2 PUSH2 0x209 JUMP JUMPDEST SWAP1 POP SWAP2 SWAP1 POP JUMP JUMPDEST PUSH32 0x4E487B7100000000000000000000000000000000000000000000000000000000 PUSH0 MSTORE PUSH1 0x11 PUSH1 0x4 MSTORE PUSH1 0x24 PUSH0 REVERT JUMPDEST PUSH0 PUSH2 0x280 DUP3 PUSH2 0x121 JUMP JUMPDEST SWAP2 POP PUSH2 0x28B DUP4 PUSH2 0x121 JUMP JUMPDEST SWAP3 POP DUP3 DUP3 SUB SWAP1 POP DUP2 DUP2 GT ISZERO PUSH2 0x2A3 JUMPI PUSH2 0x2A2 PUSH2 0x249 JUMP JUMPDEST JUMPDEST SWAP3 SWAP2 POP POP JUMP JUMPDEST PUSH0 PUSH2 0x2B3 DUP3 PUSH2 0x121 JUMP JUMPDEST SWAP2 POP PUSH2 0x2BE DUP4 PUSH2 0x121 JUMP JUMPDEST SWAP3 POP DUP3 DUP3 ADD SWAP1 POP DUP1 DUP3 GT ISZERO PUSH2 0x2D6 JUMPI PUSH2 0x2D5 PUSH2 0x249 JUMP JUMPDEST JUMPDEST SWAP3 SWAP2 POP POP JUMP INVALID LOG2 PUSH5 0x6970667358 0x22 SLT KECCAK256 RJUMP 0x4EE5 CHAINID PUSH15 0x1F7789143C0E6D60697F1B94119DE6 0xDF 0xAD EXTCALL EXTCODECOPY 0xBD NUMBER 0xA6 CALLDATACOPY GT JUMPI SDIV 0xBE PUSH5 0x736F6C6343 STOP ADDMOD 0x1F STOP CALLER "
				},
				"gasEstimates": {
					"creation": {
						"codeDepositCost": "157200",
						"executionCost": "200",
						"totalCost": "157400"
					},
					"external": {
						"count()": "2402",
						"decrement()": "infinite",
						"increment()": "infinite",
						"setcount(uint256)": "22558"
					}
				},
				"methodIdentifiers": {
					"count()": "06661abd",
					"decrement()": "2baeceb7",
					"increment()": "d09de08a",
					"setcount(uint256)": "f6ad6b0a"
				}
			},
			"storageLayout": {
				"storage": [
					{
						"astId": 3,
						"contract": "BasicProgram/SimpleCounter.sol:counter",
						"label": "count",
						"offset": 0,
						"slot": "0",
						"type": "t_uint256"
					}
				],
				"types": {
					"t_uint256": {
						"encoding": "inplace",
						"label": "uint256",
						"numberOfBytes": "32"
					}
				}
			},
			"userdoc": {
				"kind": "user",
				"methods": {},
				"version": 1
			}
		}
	}
}