{
	"Assignments_model/6.AddressPayable.sol": {
		"AddressPay": {
			"abi": [
				{
					"inputs": [],
					"name": "deposit",
					"outputs": [],
					"stateMutability": "payable",
					"type": "function"
				},
				{
					"inputs": [],
					"name": "getBalance",
					"outputs": [
						{
							"internalType": "uint256",
							"name": "",
							"type": "uint256"
						}
					],
					"stateMutability": "view",
					"type": "function"
				},
				{
					"inputs": [
						{
							"internalType": "address payable",
							"name": "receiver",
							"type": "address"
						},
						{
							"internalType": "uint256",
							"name": "amount",
							"type": "uint256"
						}
					],
					"name": "sentEther",
					"outputs": [],
					"stateMutability": "nonpayable",
					"type": "function"
				},
				{
					"stateMutability": "payable",
					"type": "receive"
				}
			],
			"devdoc": {
				"kind": "dev",
				"methods": {},
				"version": 1
			},
			"evm": {
				"assembly": "    /* \"Assignments_model/6.AddressPayable.sol\":60:526  contract AddressPay{... */\n  mstore(0x40, 0x80)\n  callvalue\n  dup1\n  iszero\n  tag_1\n  jumpi\n  revert(0x00, 0x00)\ntag_1:\n  pop\n  dataSize(sub_0)\n  dup1\n  dataOffset(sub_0)\n  0x00\n  codecopy\n  0x00\n  return\nstop\n\nsub_0: assembly {\n        /* \"Assignments_model/6.AddressPayable.sol\":60:526  contract AddressPay{... */\n      mstore(0x40, 0x80)\n      jumpi(tag_1, lt(calldatasize, 0x04))\n      shr(0xe0, calldataload(0x00))\n      dup1\n      0x12065fe0\n      eq\n      tag_3\n      jumpi\n      dup1\n      0xba6b746b\n      eq\n      tag_4\n      jumpi\n      dup1\n      0xd0e30db0\n      eq\n      tag_5\n      jumpi\n      jump(tag_2)\n    tag_1:\n      jumpi(tag_2, calldatasize)\n      stop\n    tag_2:\n      revert(0x00, 0x00)\n        /* \"Assignments_model/6.AddressPayable.sol\":171:265  function getBalance() public view returns(uint){... */\n    tag_3:\n      callvalue\n      dup1\n      iszero\n      tag_8\n      jumpi\n      revert(0x00, 0x00)\n    tag_8:\n      pop\n      tag_9\n      tag_10\n      jump\t// in\n    tag_9:\n      mload(0x40)\n      tag_11\n      swap2\n      swap1\n      tag_12\n      jump\t// in\n    tag_11:\n      mload(0x40)\n      dup1\n      swap2\n      sub\n      swap1\n      return\n        /* \"Assignments_model/6.AddressPayable.sol\":271:522  function sentEther(address payable receiver, uint amount) public{... */\n    tag_4:\n      callvalue\n      dup1\n      iszero\n      tag_13\n      jumpi\n      revert(0x00, 0x00)\n    tag_13:\n      pop\n      tag_14\n      0x04\n      dup1\n      calldatasize\n      sub\n      dup2\n      add\n      swap1\n      tag_15\n      swap2\n      swap1\n      tag_16\n      jump\t// in\n    tag_15:\n      tag_17\n      jump\t// in\n    tag_14:\n      stop\n        /* \"Assignments_model/6.AddressPayable.sol\":128:163  function deposit() public payable{} */\n    tag_5:\n      tag_18\n      tag_19\n      jump\t// in\n    tag_18:\n      stop\n        /* \"Assignments_model/6.AddressPayable.sol\":171:265  function getBalance() public view returns(uint){... */\n    tag_10:\n        /* \"Assignments_model/6.AddressPayable.sol\":213:217  uint */\n      0x00\n        /* \"Assignments_model/6.AddressPayable.sol\":236:257  address(this).balance */\n      selfbalance\n        /* \"Assignments_model/6.AddressPayable.sol\":229:257  return address(this).balance */\n      swap1\n      pop\n        /* \"Assignments_model/6.AddressPayable.sol\":171:265  function getBalance() public view returns(uint){... */\n      swap1\n      jump\t// out\n        /* \"Assignments_model/6.AddressPayable.sol\":271:522  function sentEther(address payable receiver, uint amount) public{... */\n    tag_17:\n        /* \"Assignments_model/6.AddressPayable.sol\":379:385  amount */\n      dup1\n        /* \"Assignments_model/6.AddressPayable.sol\":354:375  address(this).balance */\n      selfbalance\n        /* \"Assignments_model/6.AddressPayable.sol\":354:385  address(this).balance >= amount */\n      lt\n      iszero\n        /* \"Assignments_model/6.AddressPayable.sol\":346:408  require(address(this).balance >= amount,\" Insufficent Amount\") */\n      tag_22\n      jumpi\n      mload(0x40)\n      0x08c379a000000000000000000000000000000000000000000000000000000000\n      dup2\n      mstore\n      0x04\n      add\n      tag_23\n      swap1\n      tag_24\n      jump\t// in\n    tag_23:\n      mload(0x40)\n      dup1\n      swap2\n      sub\n      swap1\n      revert\n    tag_22:\n        /* \"Assignments_model/6.AddressPayable.sol\":420:432  bool success */\n      0x00\n        /* \"Assignments_model/6.AddressPayable.sol\":437:445  receiver */\n      dup3\n        /* \"Assignments_model/6.AddressPayable.sol\":437:450  receiver.call */\n      0xffffffffffffffffffffffffffffffffffffffff\n      and\n        /* \"Assignments_model/6.AddressPayable.sol\":457:463  amount */\n      dup3\n        /* \"Assignments_model/6.AddressPayable.sol\":437:468  receiver.call{value:amount}('') */\n      mload(0x40)\n      tag_25\n      swap1\n      tag_26\n      jump\t// in\n    tag_25:\n      0x00\n      mload(0x40)\n      dup1\n      dup4\n      sub\n      dup2\n      dup6\n      dup8\n      gas\n      call\n      swap3\n      pop\n      pop\n      pop\n      returndatasize\n      dup1\n      0x00\n      dup2\n      eq\n      tag_29\n      jumpi\n      mload(0x40)\n      swap2\n      pop\n      and(add(returndatasize, 0x3f), not(0x1f))\n      dup3\n      add\n      0x40\n      mstore\n      returndatasize\n      dup3\n      mstore\n      returndatasize\n      0x00\n      0x20\n      dup5\n      add\n      returndatacopy\n      jump(tag_28)\n    tag_29:\n      0x60\n      swap2\n      pop\n    tag_28:\n      pop\n        /* \"Assignments_model/6.AddressPayable.sol\":419:468  (bool success,) = receiver.call{value:amount}('') */\n      pop\n      swap1\n      pop\n        /* \"Assignments_model/6.AddressPayable.sol\":487:494  success */\n      dup1\n        /* \"Assignments_model/6.AddressPayable.sol\":479:512  require(success,\"transfer  fail\") */\n      tag_30\n      jumpi\n      mload(0x40)\n      0x08c379a000000000000000000000000000000000000000000000000000000000\n      dup2\n      mstore\n      0x04\n      add\n      tag_31\n      swap1\n      tag_32\n      jump\t// in\n    tag_31:\n      mload(0x40)\n      dup1\n      swap2\n      sub\n      swap1\n      revert\n    tag_30:\n        /* \"Assignments_model/6.AddressPayable.sol\":335:522  {... */\n      pop\n        /* \"Assignments_model/6.AddressPayable.sol\":271:522  function sentEther(address payable receiver, uint amount) public{... */\n      pop\n      pop\n      jump\t// out\n        /* \"Assignments_model/6.AddressPayable.sol\":128:163  function deposit() public payable{} */\n    tag_19:\n      jump\t// out\n        /* \"#utility.yul\":7:84   */\n    tag_34:\n        /* \"#utility.yul\":44:51   */\n      0x00\n        /* \"#utility.yul\":73:78   */\n      dup2\n        /* \"#utility.yul\":62:78   */\n      swap1\n      pop\n        /* \"#utility.yul\":7:84   */\n      swap2\n      swap1\n      pop\n      jump\t// out\n        /* \"#utility.yul\":90:208   */\n    tag_35:\n        /* \"#utility.yul\":177:201   */\n      tag_56\n        /* \"#utility.yul\":195:200   */\n      dup2\n        /* \"#utility.yul\":177:201   */\n      tag_34\n      jump\t// in\n    tag_56:\n        /* \"#utility.yul\":172:175   */\n      dup3\n        /* \"#utility.yul\":165:202   */\n      mstore\n        /* \"#utility.yul\":90:208   */\n      pop\n      pop\n      jump\t// out\n        /* \"#utility.yul\":214:436   */\n    tag_12:\n        /* \"#utility.yul\":307:311   */\n      0x00\n        /* \"#utility.yul\":345:347   */\n      0x20\n        /* \"#utility.yul\":334:343   */\n      dup3\n        /* \"#utility.yul\":330:348   */\n      add\n        /* \"#utility.yul\":322:348   */\n      swap1\n      pop\n        /* \"#utility.yul\":358:429   */\n      tag_58\n        /* \"#utility.yul\":426:427   */\n      0x00\n        /* \"#utility.yul\":415:424   */\n      dup4\n        /* \"#utility.yul\":411:428   */\n      add\n        /* \"#utility.yul\":402:408   */\n      dup5\n        /* \"#utility.yul\":358:429   */\n      tag_35\n      jump\t// in\n    tag_58:\n        /* \"#utility.yul\":214:436   */\n      swap3\n      swap2\n      pop\n      pop\n      jump\t// out\n        /* \"#utility.yul\":523:640   */\n    tag_37:\n        /* \"#utility.yul\":632:633   */\n      0x00\n        /* \"#utility.yul\":629:630   */\n      0x00\n        /* \"#utility.yul\":622:634   */\n      revert\n        /* \"#utility.yul\":769:895   */\n    tag_39:\n        /* \"#utility.yul\":806:813   */\n      0x00\n        /* \"#utility.yul\":846:888   */\n      0xffffffffffffffffffffffffffffffffffffffff\n        /* \"#utility.yul\":839:844   */\n      dup3\n        /* \"#utility.yul\":835:889   */\n      and\n        /* \"#utility.yul\":824:889   */\n      swap1\n      pop\n        /* \"#utility.yul\":769:895   */\n      swap2\n      swap1\n      pop\n      jump\t// out\n        /* \"#utility.yul\":901:1005   */\n    tag_40:\n        /* \"#utility.yul\":946:953   */\n      0x00\n        /* \"#utility.yul\":975:999   */\n      tag_64\n        /* \"#utility.yul\":993:998   */\n      dup3\n        /* \"#utility.yul\":975:999   */\n      tag_39\n      jump\t// in\n    tag_64:\n        /* \"#utility.yul\":964:999   */\n      swap1\n      pop\n        /* \"#utility.yul\":901:1005   */\n      swap2\n      swap1\n      pop\n      jump\t// out\n        /* \"#utility.yul\":1011:1149   */\n    tag_41:\n        /* \"#utility.yul\":1092:1124   */\n      tag_66\n        /* \"#utility.yul\":1118:1123   */\n      dup2\n        /* \"#utility.yul\":1092:1124   */\n      tag_40\n      jump\t// in\n    tag_66:\n        /* \"#utility.yul\":1085:1090   */\n      dup2\n        /* \"#utility.yul\":1082:1125   */\n      eq\n        /* \"#utility.yul\":1072:1143   */\n      tag_67\n      jumpi\n        /* \"#utility.yul\":1139:1140   */\n      0x00\n        /* \"#utility.yul\":1136:1137   */\n      0x00\n        /* \"#utility.yul\":1129:1141   */\n      revert\n        /* \"#utility.yul\":1072:1143   */\n    tag_67:\n        /* \"#utility.yul\":1011:1149   */\n      pop\n      jump\t// out\n        /* \"#utility.yul\":1155:1310   */\n    tag_42:\n        /* \"#utility.yul\":1209:1214   */\n      0x00\n        /* \"#utility.yul\":1247:1253   */\n      dup2\n        /* \"#utility.yul\":1234:1254   */\n      calldataload\n        /* \"#utility.yul\":1225:1254   */\n      swap1\n      pop\n        /* \"#utility.yul\":1263:1304   */\n      tag_69\n        /* \"#utility.yul\":1298:1303   */\n      dup2\n        /* \"#utility.yul\":1263:1304   */\n      tag_41\n      jump\t// in\n    tag_69:\n        /* \"#utility.yul\":1155:1310   */\n      swap3\n      swap2\n      pop\n      pop\n      jump\t// out\n        /* \"#utility.yul\":1316:1438   */\n    tag_43:\n        /* \"#utility.yul\":1389:1413   */\n      tag_71\n        /* \"#utility.yul\":1407:1412   */\n      dup2\n        /* \"#utility.yul\":1389:1413   */\n      tag_34\n      jump\t// in\n    tag_71:\n        /* \"#utility.yul\":1382:1387   */\n      dup2\n        /* \"#utility.yul\":1379:1414   */\n      eq\n        /* \"#utility.yul\":1369:1432   */\n      tag_72\n      jumpi\n        /* \"#utility.yul\":1428:1429   */\n      0x00\n        /* \"#utility.yul\":1425:1426   */\n      0x00\n        /* \"#utility.yul\":1418:1430   */\n      revert\n        /* \"#utility.yul\":1369:1432   */\n    tag_72:\n        /* \"#utility.yul\":1316:1438   */\n      pop\n      jump\t// out\n        /* \"#utility.yul\":1444:1583   */\n    tag_44:\n        /* \"#utility.yul\":1490:1495   */\n      0x00\n        /* \"#utility.yul\":1528:1534   */\n      dup2\n        /* \"#utility.yul\":1515:1535   */\n      calldataload\n        /* \"#utility.yul\":1506:1535   */\n      swap1\n      pop\n        /* \"#utility.yul\":1544:1577   */\n      tag_74\n        /* \"#utility.yul\":1571:1576   */\n      dup2\n        /* \"#utility.yul\":1544:1577   */\n      tag_43\n      jump\t// in\n    tag_74:\n        /* \"#utility.yul\":1444:1583   */\n      swap3\n      swap2\n      pop\n      pop\n      jump\t// out\n        /* \"#utility.yul\":1589:2079   */\n    tag_16:\n        /* \"#utility.yul\":1665:1671   */\n      0x00\n        /* \"#utility.yul\":1673:1679   */\n      0x00\n        /* \"#utility.yul\":1722:1724   */\n      0x40\n        /* \"#utility.yul\":1710:1719   */\n      dup4\n        /* \"#utility.yul\":1701:1708   */\n      dup6\n        /* \"#utility.yul\":1697:1720   */\n      sub\n        /* \"#utility.yul\":1693:1725   */\n      slt\n        /* \"#utility.yul\":1690:1809   */\n      iszero\n      tag_76\n      jumpi\n        /* \"#utility.yul\":1728:1807   */\n      tag_77\n      tag_37\n      jump\t// in\n    tag_77:\n        /* \"#utility.yul\":1690:1809   */\n    tag_76:\n        /* \"#utility.yul\":1848:1849   */\n      0x00\n        /* \"#utility.yul\":1873:1934   */\n      tag_78\n        /* \"#utility.yul\":1926:1933   */\n      dup6\n        /* \"#utility.yul\":1917:1923   */\n      dup3\n        /* \"#utility.yul\":1906:1915   */\n      dup7\n        /* \"#utility.yul\":1902:1924   */\n      add\n        /* \"#utility.yul\":1873:1934   */\n      tag_42\n      jump\t// in\n    tag_78:\n        /* \"#utility.yul\":1863:1934   */\n      swap3\n      pop\n        /* \"#utility.yul\":1819:1944   */\n      pop\n        /* \"#utility.yul\":1983:1985   */\n      0x20\n        /* \"#utility.yul\":2009:2062   */\n      tag_79\n        /* \"#utility.yul\":2054:2061   */\n      dup6\n        /* \"#utility.yul\":2045:2051   */\n      dup3\n        /* \"#utility.yul\":2034:2043   */\n      dup7\n        /* \"#utility.yul\":2030:2052   */\n      add\n        /* \"#utility.yul\":2009:2062   */\n      tag_44\n      jump\t// in\n    tag_79:\n        /* \"#utility.yul\":1999:2062   */\n      swap2\n      pop\n        /* \"#utility.yul\":1954:2072   */\n      pop\n        /* \"#utility.yul\":1589:2079   */\n      swap3\n      pop\n      swap3\n      swap1\n      pop\n      jump\t// out\n        /* \"#utility.yul\":2085:2254   */\n    tag_45:\n        /* \"#utility.yul\":2169:2180   */\n      0x00\n        /* \"#utility.yul\":2203:2209   */\n      dup3\n        /* \"#utility.yul\":2198:2201   */\n      dup3\n        /* \"#utility.yul\":2191:2210   */\n      mstore\n        /* \"#utility.yul\":2243:2247   */\n      0x20\n        /* \"#utility.yul\":2238:2241   */\n      dup3\n        /* \"#utility.yul\":2234:2248   */\n      add\n        /* \"#utility.yul\":2219:2248   */\n      swap1\n      pop\n        /* \"#utility.yul\":2085:2254   */\n      swap3\n      swap2\n      pop\n      pop\n      jump\t// out\n        /* \"#utility.yul\":2260:2429   */\n    tag_46:\n        /* \"#utility.yul\":2400:2421   */\n      0x20496e737566666963656e7420416d6f756e7400000000000000000000000000\n        /* \"#utility.yul\":2396:2397   */\n      0x00\n        /* \"#utility.yul\":2388:2394   */\n      dup3\n        /* \"#utility.yul\":2384:2398   */\n      add\n        /* \"#utility.yul\":2377:2422   */\n      mstore\n        /* \"#utility.yul\":2260:2429   */\n      pop\n      jump\t// out\n        /* \"#utility.yul\":2435:2801   */\n    tag_47:\n        /* \"#utility.yul\":2577:2580   */\n      0x00\n        /* \"#utility.yul\":2598:2665   */\n      tag_83\n        /* \"#utility.yul\":2662:2664   */\n      0x13\n        /* \"#utility.yul\":2657:2660   */\n      dup4\n        /* \"#utility.yul\":2598:2665   */\n      tag_45\n      jump\t// in\n    tag_83:\n        /* \"#utility.yul\":2591:2665   */\n      swap2\n      pop\n        /* \"#utility.yul\":2674:2767   */\n      tag_84\n        /* \"#utility.yul\":2763:2766   */\n      dup3\n        /* \"#utility.yul\":2674:2767   */\n      tag_46\n      jump\t// in\n    tag_84:\n        /* \"#utility.yul\":2792:2794   */\n      0x20\n        /* \"#utility.yul\":2787:2790   */\n      dup3\n        /* \"#utility.yul\":2783:2795   */\n      add\n        /* \"#utility.yul\":2776:2795   */\n      swap1\n      pop\n        /* \"#utility.yul\":2435:2801   */\n      swap2\n      swap1\n      pop\n      jump\t// out\n        /* \"#utility.yul\":2807:3226   */\n    tag_24:\n        /* \"#utility.yul\":2973:2977   */\n      0x00\n        /* \"#utility.yul\":3011:3013   */\n      0x20\n        /* \"#utility.yul\":3000:3009   */\n      dup3\n        /* \"#utility.yul\":2996:3014   */\n      add\n        /* \"#utility.yul\":2988:3014   */\n      swap1\n      pop\n        /* \"#utility.yul\":3060:3069   */\n      dup2\n        /* \"#utility.yul\":3054:3058   */\n      dup2\n        /* \"#utility.yul\":3050:3070   */\n      sub\n        /* \"#utility.yul\":3046:3047   */\n      0x00\n        /* \"#utility.yul\":3035:3044   */\n      dup4\n        /* \"#utility.yul\":3031:3048   */\n      add\n        /* \"#utility.yul\":3024:3071   */\n      mstore\n        /* \"#utility.yul\":3088:3219   */\n      tag_86\n        /* \"#utility.yul\":3214:3218   */\n      dup2\n        /* \"#utility.yul\":3088:3219   */\n      tag_47\n      jump\t// in\n    tag_86:\n        /* \"#utility.yul\":3080:3219   */\n      swap1\n      pop\n        /* \"#utility.yul\":2807:3226   */\n      swap2\n      swap1\n      pop\n      jump\t// out\n        /* \"#utility.yul\":3232:3379   */\n    tag_48:\n        /* \"#utility.yul\":3333:3344   */\n      0x00\n        /* \"#utility.yul\":3370:3373   */\n      dup2\n        /* \"#utility.yul\":3355:3373   */\n      swap1\n      pop\n        /* \"#utility.yul\":3232:3379   */\n      swap3\n      swap2\n      pop\n      pop\n      jump\t// out\n        /* \"#utility.yul\":3385:3499   */\n    tag_49:\n      pop\n      jump\t// out\n        /* \"#utility.yul\":3505:3903   */\n    tag_50:\n        /* \"#utility.yul\":3664:3667   */\n      0x00\n        /* \"#utility.yul\":3685:3768   */\n      tag_90\n        /* \"#utility.yul\":3766:3767   */\n      0x00\n        /* \"#utility.yul\":3761:3764   */\n      dup4\n        /* \"#utility.yul\":3685:3768   */\n      tag_48\n      jump\t// in\n    tag_90:\n        /* \"#utility.yul\":3678:3768   */\n      swap2\n      pop\n        /* \"#utility.yul\":3777:3870   */\n      tag_91\n        /* \"#utility.yul\":3866:3869   */\n      dup3\n        /* \"#utility.yul\":3777:3870   */\n      tag_49\n      jump\t// in\n    tag_91:\n        /* \"#utility.yul\":3895:3896   */\n      0x00\n        /* \"#utility.yul\":3890:3893   */\n      dup3\n        /* \"#utility.yul\":3886:3897   */\n      add\n        /* \"#utility.yul\":3879:3897   */\n      swap1\n      pop\n        /* \"#utility.yul\":3505:3903   */\n      swap2\n      swap1\n      pop\n      jump\t// out\n        /* \"#utility.yul\":3909:4288   */\n    tag_26:\n        /* \"#utility.yul\":4093:4096   */\n      0x00\n        /* \"#utility.yul\":4115:4262   */\n      tag_93\n        /* \"#utility.yul\":4258:4261   */\n      dup3\n        /* \"#utility.yul\":4115:4262   */\n      tag_50\n      jump\t// in\n    tag_93:\n        /* \"#utility.yul\":4108:4262   */\n      swap2\n      pop\n        /* \"#utility.yul\":4279:4282   */\n      dup2\n        /* \"#utility.yul\":4272:4282   */\n      swap1\n      pop\n        /* \"#utility.yul\":3909:4288   */\n      swap2\n      swap1\n      pop\n      jump\t// out\n        /* \"#utility.yul\":4294:4458   */\n    tag_51:\n        /* \"#utility.yul\":4434:4450   */\n      0x7472616e7366657220206661696c000000000000000000000000000000000000\n        /* \"#utility.yul\":4430:4431   */\n      0x00\n        /* \"#utility.yul\":4422:4428   */\n      dup3\n        /* \"#utility.yul\":4418:4432   */\n      add\n        /* \"#utility.yul\":4411:4451   */\n      mstore\n        /* \"#utility.yul\":4294:4458   */\n      pop\n      jump\t// out\n        /* \"#utility.yul\":4464:4830   */\n    tag_52:\n        /* \"#utility.yul\":4606:4609   */\n      0x00\n        /* \"#utility.yul\":4627:4694   */\n      tag_96\n        /* \"#utility.yul\":4691:4693   */\n      0x0e\n        /* \"#utility.yul\":4686:4689   */\n      dup4\n        /* \"#utility.yul\":4627:4694   */\n      tag_45\n      jump\t// in\n    tag_96:\n        /* \"#utility.yul\":4620:4694   */\n      swap2\n      pop\n        /* \"#utility.yul\":4703:4796   */\n      tag_97\n        /* \"#utility.yul\":4792:4795   */\n      dup3\n        /* \"#utility.yul\":4703:4796   */\n      tag_51\n      jump\t// in\n    tag_97:\n        /* \"#utility.yul\":4821:4823   */\n      0x20\n        /* \"#utility.yul\":4816:4819   */\n      dup3\n        /* \"#utility.yul\":4812:4824   */\n      add\n        /* \"#utility.yul\":4805:4824   */\n      swap1\n      pop\n        /* \"#utility.yul\":4464:4830   */\n      swap2\n      swap1\n      pop\n      jump\t// out\n        /* \"#utility.yul\":4836:5255   */\n    tag_32:\n        /* \"#utility.yul\":5002:5006   */\n      0x00\n        /* \"#utility.yul\":5040:5042   */\n      0x20\n        /* \"#utility.yul\":5029:5038   */\n      dup3\n        /* \"#utility.yul\":5025:5043   */\n      add\n        /* \"#utility.yul\":5017:5043   */\n      swap1\n      pop\n        /* \"#utility.yul\":5089:5098   */\n      dup2\n        /* \"#utility.yul\":5083:5087   */\n      dup2\n        /* \"#utility.yul\":5079:5099   */\n      sub\n        /* \"#utility.yul\":5075:5076   */\n      0x00\n        /* \"#utility.yul\":5064:5073   */\n      dup4\n        /* \"#utility.yul\":5060:5077   */\n      add\n        /* \"#utility.yul\":5053:5100   */\n      mstore\n        /* \"#utility.yul\":5117:5248   */\n      tag_99\n        /* \"#utility.yul\":5243:5247   */\n      dup2\n        /* \"#utility.yul\":5117:5248   */\n      tag_52\n      jump\t// in\n    tag_99:\n        /* \"#utility.yul\":5109:5248   */\n      swap1\n      pop\n        /* \"#utility.yul\":4836:5255   */\n      swap2\n      swap1\n      pop\n      jump\t// out\n\n    auxdata: 0xa26469706673582212200cfda95792b729500524e9a05aff6c111c51939155672ef2570fab3a92934d6264736f6c634300081f0033\n}\n",
				"bytecode": {
					"linkReferences": {},
					"object": "6080604052348015600e575f5ffd5b506103e58061001c5f395ff3fe608060405260043610610037575f3560e01c806312065fe014610042578063ba6b746b1461006c578063d0e30db0146100945761003e565b3661003e57005b5f5ffd5b34801561004d575f5ffd5b5061005661009e565b60405161006391906101af565b60405180910390f35b348015610077575f5ffd5b50610092600480360381019061008d9190610250565b6100a5565b005b61009c610195565b005b5f47905090565b804710156100e8576040517f08c379a00000000000000000000000000000000000000000000000000000000081526004016100df906102e8565b60405180910390fd5b5f8273ffffffffffffffffffffffffffffffffffffffff168260405161010d90610333565b5f6040518083038185875af1925050503d805f8114610147576040519150601f19603f3d011682016040523d82523d5f602084013e61014c565b606091505b5050905080610190576040517f08c379a000000000000000000000000000000000000000000000000000000000815260040161018790610391565b60405180910390fd5b505050565b565b5f819050919050565b6101a981610197565b82525050565b5f6020820190506101c25f8301846101a0565b92915050565b5f5ffd5b5f73ffffffffffffffffffffffffffffffffffffffff82169050919050565b5f6101f5826101cc565b9050919050565b610205816101eb565b811461020f575f5ffd5b50565b5f81359050610220816101fc565b92915050565b61022f81610197565b8114610239575f5ffd5b50565b5f8135905061024a81610226565b92915050565b5f5f60408385031215610266576102656101c8565b5b5f61027385828601610212565b92505060206102848582860161023c565b9150509250929050565b5f82825260208201905092915050565b7f20496e737566666963656e7420416d6f756e74000000000000000000000000005f82015250565b5f6102d260138361028e565b91506102dd8261029e565b602082019050919050565b5f6020820190508181035f8301526102ff816102c6565b9050919050565b5f81905092915050565b50565b5f61031e5f83610306565b915061032982610310565b5f82019050919050565b5f61033d82610313565b9150819050919050565b7f7472616e7366657220206661696c0000000000000000000000000000000000005f82015250565b5f61037b600e8361028e565b915061038682610347565b602082019050919050565b5f6020820190508181035f8301526103a88161036f565b905091905056fea26469706673582212200cfda95792b729500524e9a05aff6c111c51939155672ef2570fab3a92934d6264736f6c634300081f0033",
					"opcodes": "PUSH1 0x80 PUSH1 0x40 MSTORE CALLVALUE DUP1 ISZERO PUSH1 0xE JUMPI PUSH0 PUSH0 REVERT JUMPDEST POP PUSH2 0x3E5 DUP1 PUSH2 0x1C PUSH0 CODECOPY PUSH0 RETURN INVALID PUSH1 0x80 PUSH1 0x40 MSTORE PUSH1 0x4 CALLDATASIZE LT PUSH2 0x37 JUMPI PUSH0 CALLDATALOAD PUSH1 0xE0 SHR DUP1 PUSH4 0x12065FE0 EQ PUSH2 0x42 JUMPI DUP1 PUSH4 0xBA6B746B EQ PUSH2 0x6C JUMPI DUP1 PUSH4 0xD0E30DB0 EQ PUSH2 0x94 JUMPI PUSH2 0x3E JUMP JUMPDEST CALLDATASIZE PUSH2 0x3E JUMPI STOP JUMPDEST PUSH0 PUSH0 REVERT JUMPDEST CALLVALUE DUP1 ISZERO PUSH2 0x4D JUMPI PUSH0 PUSH0 REVERT JUMPDEST POP PUSH2 0x56 PUSH2 0x9E JUMP JUMPDEST PUSH1 0x40 MLOAD PUSH2 0x63 SWAP2 SWAP1 PUSH2 0x1AF JUMP JUMPDEST PUSH1 0x40 MLOAD DUP1 SWAP2 SUB SWAP1 RETURN JUMPDEST CALLVALUE DUP1 ISZERO PUSH2 0x77 JUMPI PUSH0 PUSH0 REVERT JUMPDEST POP PUSH2 0x92 PUSH1 0x4 DUP1 CALLDATASIZE SUB DUP2 ADD SWAP1 PUSH2 0x8D SWAP2 SWAP1 PUSH2 0x250 JUMP JUMPDEST PUSH2 0xA5 JUMP JUMPDEST STOP JUMPDEST PUSH2 0x9C PUSH2 0x195 JUMP JUMPDEST STOP JUMPDEST PUSH0 SELFBALANCE SWAP1 POP SWAP1 JUMP JUMPDEST DUP1 SELFBALANCE LT ISZERO PUSH2 0xE8 JUMPI PUSH1 0x40 MLOAD PUSH32 0x8C379A000000000000000000000000000000000000000000000000000000000 DUP2 MSTORE PUSH1 0x4 ADD PUSH2 0xDF SWAP1 PUSH2 0x2E8 JUMP JUMPDEST PUSH1 0x40 MLOAD DUP1 SWAP2 SUB SWAP1 REVERT JUMPDEST PUSH0 DUP3 PUSH20 0xFFFFFFFFFFFFFFFFFFFFFFFFFFFFFFFFFFFFFFFF AND DUP3 PUSH1 0x40 MLOAD PUSH2 0x10D SWAP1 PUSH2 0x333 JUMP JUMPDEST PUSH0 PUSH1 0x40 MLOAD DUP1 DUP4 SUB DUP2 DUP6 DUP8 GAS CALL SWAP3 POP POP POP RETURNDATASIZE DUP1 PUSH0 DUP2 EQ PUSH2 0x147 JUMPI PUSH1 0x40 MLOAD SWAP2 POP PUSH1 0x1F NOT PUSH1 0x3F RETURNDATASIZE ADD AND DUP3 ADD PUSH1 0x40 MSTORE RETURNDATASIZE DUP3 MSTORE RETURNDATASIZE PUSH0 PUSH1 0x20 DUP5 ADD RETURNDATACOPY PUSH2 0x14C JUMP JUMPDEST PUSH1 0x60 SWAP2 POP JUMPDEST POP POP SWAP1 POP DUP1 PUSH2 0x190 JUMPI PUSH1 0x40 MLOAD PUSH32 0x8C379A000000000000000000000000000000000000000000000000000000000 DUP2 MSTORE PUSH1 0x4 ADD PUSH2 0x187 SWAP1 PUSH2 0x391 JUMP JUMPDEST PUSH1 0x40 MLOAD DUP1 SWAP2 SUB SWAP1 REVERT JUMPDEST POP POP POP JUMP JUMPDEST JUMP JUMPDEST PUSH0 DUP2 SWAP1 POP SWAP2 SWAP1 POP JUMP JUMPDEST PUSH2 0x1A9 DUP2 PUSH2 0x197 JUMP JUMPDEST DUP3 MSTORE POP POP JUMP JUMPDEST PUSH0 PUSH1 0x20 DUP3 ADD SWAP1 POP PUSH2 0x1C2 PUSH0 DUP4 ADD DUP5 PUSH2 0x1A0 JUMP JUMPDEST SWAP3 SWAP2 POP POP JUMP JUMPDEST PUSH0 PUSH0 REVERT JUMPDEST PUSH0 PUSH20 0xFFFFFFFFFFFFFFFFFFFFFFFFFFFFFFFFFFFFFFFF DUP3 AND SWAP1 POP SWAP2 SWAP1 POP JUMP JUMPDEST PUSH0 PUSH2 0x1F5 DUP3 PUSH2 0x1CC JUMP JUMPDEST SWAP1 POP SWAP2 SWAP1 POP JUMP JUMPDEST PUSH2 0x205 DUP2 PUSH2 0x1EB JUMP JUMPDEST DUP2 EQ PUSH2 0x20F JUMPI PUSH0 PUSH0 REVERT JUMPDEST POP JUMP JUMPDEST PUSH0 DUP2 CALLDATALOAD SWAP1 POP PUSH2 0x220 DUP2 PUSH2 0x1FC JUMP JUMPDEST SWAP3 SWAP2 POP POP JUMP JUMPDEST PUSH2 0x22F DUP2 PUSH2 0x197 JUMP JUMPDEST DUP2 EQ PUSH2 0x239 JUMPI PUSH0 PUSH0 REVERT JUMPDEST POP JUMP JUMPDEST PUSH0 DUP2 CALLDATALOAD SWAP1 POP PUSH2 0x24A DUP2 PUSH2 0x226 JUMP JUMPDEST SWAP3 SWAP2 POP POP JUMP JUMPDEST PUSH0 PUSH0 PUSH1 0x40 DUP4 DUP6 SUB SLT ISZERO PUSH2 0x266 JUMPI PUSH2 0x265 PUSH2 0x1C8 JUMP JUMPDEST JUMPDEST PUSH0 PUSH2 0x273 DUP6 DUP3 DUP7 ADD PUSH2 0x212 JUMP JUMPDEST SWAP3 POP POP PUSH1 0x20 PUSH2 0x284 DUP6 DUP3 DUP7 ADD PUSH2 0x23C JUMP JUMPDEST SWAP2 POP POP SWAP3 POP SWAP3 SWAP1 POP JUMP JUMPDEST PUSH0 DUP3 DUP3 MSTORE PUSH1 0x20 DUP3 ADD SWAP1 POP SWAP3 SWAP2 POP POP JUMP JUMPDEST PUSH32 0x20496E737566666963656E7420416D6F756E7400000000000000000000000000 PUSH0 DUP3 ADD MSTORE POP JUMP JUMPDEST PUSH0 PUSH2 0x2D2 PUSH1 0x13 DUP4 PUSH2 0x28E JUMP JUMPDEST SWAP2 POP PUSH2 0x2DD DUP3 PUSH2 0x29E JUMP JUMPDEST PUSH1 0x20 DUP3 ADD SWAP1 POP SWAP2 SWAP1 POP JUMP JUMPDEST PUSH0 PUSH1 0x20 DUP3 ADD SWAP1 POP DUP2 DUP2 SUB PUSH0 DUP4 ADD MSTORE PUSH2 0x2FF DUP2 PUSH2 0x2C6 JUMP JUMPDEST SWAP1 POP SWAP2 SWAP1 POP JUMP JUMPDEST PUSH0 DUP2 SWAP1 POP SWAP3 SWAP2 POP POP JUMP JUMPDEST POP JUMP JUMPDEST PUSH0 PUSH2 0x31E PUSH0 DUP4 PUSH2 0x306 JUMP JUMPDEST SWAP2 POP PUSH2 0x329 DUP3 PUSH2 0x310 JUMP JUMPDEST PUSH0 DUP3 ADD SWAP1 POP SWAP2 SWAP1 POP JUMP JUMPDEST PUSH0 PUSH2 0x33D DUP3 PUSH2 0x313 JUMP JUMPDEST SWAP2 POP DUP2 SWAP1 POP SWAP2 SWAP1 POP JUMP JUMPDEST PUSH32 0x7472616E7366657220206661696C000000000000000000000000000000000000 PUSH0 DUP3 ADD MSTORE POP JUMP JUMPDEST PUSH0 PUSH2 0x37B PUSH1 0xE DUP4 PUSH2 0x28E JUMP JUMPDEST SWAP2 POP PUSH2 0x386 DUP3 PUSH2 0x347 JUMP JUMPDEST PUSH1 0x20 DUP3 ADD SWAP1 POP SWAP2 SWAP1 POP JUMP JUMPDEST PUSH0 PUSH1 0x20 DUP3 ADD SWAP1 POP DUP2 DUP2 SUB PUSH0 DUP4 ADD MSTORE PUSH2 0x3A8 DUP2 PUSH2 0x36F JUMP JUMPDEST SWAP1 POP SWAP2 SWAP1 POP JUMP INVALID LOG2 PUSH5 0x6970667358 0x22 SLT KECCAK256 0xC REVERT 0xA9 JUMPI SWAP3 0xB7 0x29 POP SDIV 0x24 0xE9 LOG0 GAS SELFDESTRUCT PUSH13 0x111C51939155672EF2570FAB3A SWAP3 SWAP4 0x4D PUSH3 0x64736F PUSH13 0x634300081F0033000000000000 "
				},
				"gasEstimates": {
					"creation": {
						"codeDepositCost": "199400",
						"executionCost": "243",
						"totalCost": "199643"
					},
					"external": {
						"deposit()": "141",
						"getBalance()": "312",
						"sentEther(address,uint256)": "infinite"
					}
				},
				"methodIdentifiers": {
					"deposit()": "d0e30db0",
					"getBalance()": "12065fe0",
					"sentEther(address,uint256)": "ba6b746b"
				}
			},
			"storageLayout": {
				"storage": [],
				"types": null
			},
			"userdoc": {
				"kind": "user",
				"methods": {},
				"version": 1
			}
		}
	}
}