{
	"Assignments_model/CapstonePro.sol": {
		"capstonePro": {
			"abi": [
				{
					"inputs": [],
					"stateMutability": "nonpayable",
					"type": "constructor"
				},
				{
					"anonymous": false,
					"inputs": [
						{
							"indexed": false,
							"internalType": "address",
							"name": "user",
							"type": "address"
						},
						{
							"indexed": false,
							"internalType": "enum capstonePro.OrderStatus",
							"name": "status",
							"type": "uint8"
						}
					],
					"name": "changeStatus",
					"type": "event"
				},
				{
					"anonymous": false,
					"inputs": [
						{
							"indexed": false,
							"internalType": "address",
							"name": "user",
							"type": "address"
						},
						{
							"indexed": false,
							"internalType": "uint256",
							"name": "amount",
							"type": "uint256"
						}
					],
					"name": "sentEther",
					"type": "event"
				},
				{
					"anonymous": false,
					"inputs": [
						{
							"indexed": false,
							"internalType": "address",
							"name": "user",
							"type": "address"
						},
						{
							"indexed": false,
							"internalType": "uint256",
							"name": "id",
							"type": "uint256"
						},
						{
							"indexed": false,
							"internalType": "string",
							"name": "name",
							"type": "string"
						}
					],
					"name": "userAdd",
					"type": "event"
				},
				{
					"anonymous": false,
					"inputs": [
						{
							"indexed": false,
							"internalType": "address",
							"name": "user",
							"type": "address"
						},
						{
							"indexed": false,
							"internalType": "string",
							"name": "name",
							"type": "string"
						}
					],
					"name": "userUpdate",
					"type": "event"
				},
				{
					"inputs": [
						{
							"internalType": "uint256",
							"name": "_id",
							"type": "uint256"
						},
						{
							"internalType": "string",
							"name": "_name",
							"type": "string"
						}
					],
					"name": "addUser",
					"outputs": [],
					"stateMutability": "nonpayable",
					"type": "function"
				},
				{
					"inputs": [],
					"name": "getBalance",
					"outputs": [
						{
							"internalType": "uint256",
							"name": "",
							"type": "uint256"
						}
					],
					"stateMutability": "view",
					"type": "function"
				},
				{
					"inputs": [
						{
							"internalType": "address",
							"name": "_user",
							"type": "address"
						},
						{
							"internalType": "bool",
							"name": "_approve",
							"type": "bool"
						}
					],
					"name": "updateStatus",
					"outputs": [],
					"stateMutability": "nonpayable",
					"type": "function"
				},
				{
					"inputs": [
						{
							"internalType": "string",
							"name": "_name",
							"type": "string"
						}
					],
					"name": "updateUser",
					"outputs": [],
					"stateMutability": "nonpayable",
					"type": "function"
				}
			],
			"devdoc": {
				"kind": "dev",
				"methods": {},
				"version": 1
			},
			"evm": {
				"assembly": "    /* \"Assignments_model/CapstonePro.sol\":60:2489  contract capstonePro{... */\n  mstore(0x40, 0x80)\n    /* \"Assignments_model/CapstonePro.sol\":107:158  constructor (){... */\n  callvalue\n  dup1\n  iszero\n  tag_1\n  jumpi\n  revert(0x00, 0x00)\ntag_1:\n  pop\n    /* \"Assignments_model/CapstonePro.sol\":140:150  msg.sender */\n  caller\n    /* \"Assignments_model/CapstonePro.sol\":132:137  owner */\n  0x00\n  0x00\n    /* \"Assignments_model/CapstonePro.sol\":132:150  owner = msg.sender */\n  0x0100\n  exp\n  dup2\n  sload\n  dup2\n  0xffffffffffffffffffffffffffffffffffffffff\n  mul\n  not\n  and\n  swap1\n  dup4\n  0xffffffffffffffffffffffffffffffffffffffff\n  and\n  mul\n  or\n  swap1\n  sstore\n  pop\n    /* \"Assignments_model/CapstonePro.sol\":60:2489  contract capstonePro{... */\n  dataSize(sub_0)\n  dup1\n  dataOffset(sub_0)\n  0x00\n  codecopy\n  0x00\n  return\nstop\n\nsub_0: assembly {\n        /* \"Assignments_model/CapstonePro.sol\":60:2489  contract capstonePro{... */\n      mstore(0x40, 0x80)\n      callvalue\n      dup1\n      iszero\n      tag_1\n      jumpi\n      revert(0x00, 0x00)\n    tag_1:\n      pop\n      jumpi(tag_2, lt(calldatasize, 0x04))\n      shr(0xe0, calldataload(0x00))\n      dup1\n      0x0b4f12f6\n      eq\n      tag_3\n      jumpi\n      dup1\n      0x12065fe0\n      eq\n      tag_4\n      jumpi\n      dup1\n      0x7444144b\n      eq\n      tag_5\n      jumpi\n      dup1\n      0xd51af2bf\n      eq\n      tag_6\n      jumpi\n    tag_2:\n      revert(0x00, 0x00)\n        /* \"Assignments_model/CapstonePro.sol\":1222:1419  function updateUser(string memory _name) public {... */\n    tag_3:\n      tag_7\n      0x04\n      dup1\n      calldatasize\n      sub\n      dup2\n      add\n      swap1\n      tag_8\n      swap2\n      swap1\n      tag_9\n      jump\t// in\n    tag_8:\n      tag_10\n      jump\t// in\n    tag_7:\n      stop\n        /* \"Assignments_model/CapstonePro.sol\":2392:2486  function getBalance() public view returns(uint){... */\n    tag_4:\n      tag_11\n      tag_12\n      jump\t// in\n    tag_11:\n      mload(0x40)\n      tag_13\n      swap2\n      swap1\n      tag_14\n      jump\t// in\n    tag_13:\n      mload(0x40)\n      dup1\n      swap2\n      sub\n      swap1\n      return\n        /* \"Assignments_model/CapstonePro.sol\":1458:1825  function updateStatus(address _user, bool _approve) public onlyOwner{... */\n    tag_5:\n      tag_15\n      0x04\n      dup1\n      calldatasize\n      sub\n      dup2\n      add\n      swap1\n      tag_16\n      swap2\n      swap1\n      tag_17\n      jump\t// in\n    tag_16:\n      tag_18\n      jump\t// in\n    tag_15:\n      stop\n        /* \"Assignments_model/CapstonePro.sol\":802:1194  function addUser(uint _id, string memory _name) public {... */\n    tag_6:\n      tag_19\n      0x04\n      dup1\n      calldatasize\n      sub\n      dup2\n      add\n      swap1\n      tag_20\n      swap2\n      swap1\n      tag_21\n      jump\t// in\n    tag_20:\n      tag_22\n      jump\t// in\n    tag_19:\n      stop\n        /* \"Assignments_model/CapstonePro.sol\":1222:1419  function updateUser(string memory _name) public {... */\n    tag_10:\n        /* \"Assignments_model/CapstonePro.sol\":1289:1295  exists */\n      0x02\n        /* \"Assignments_model/CapstonePro.sol\":1289:1307  exists[msg.sender] */\n      0x00\n        /* \"Assignments_model/CapstonePro.sol\":1296:1306  msg.sender */\n      caller\n        /* \"Assignments_model/CapstonePro.sol\":1289:1307  exists[msg.sender] */\n      0xffffffffffffffffffffffffffffffffffffffff\n      and\n      0xffffffffffffffffffffffffffffffffffffffff\n      and\n      dup2\n      mstore\n      0x20\n      add\n      swap1\n      dup2\n      mstore\n      0x20\n      add\n      0x00\n      keccak256\n      0x00\n      swap1\n      sload\n      swap1\n      0x0100\n      exp\n      swap1\n      div\n      0xff\n      and\n        /* \"Assignments_model/CapstonePro.sol\":1281:1326  require(exists[msg.sender], \"user not found\") */\n      tag_24\n      jumpi\n      mload(0x40)\n      0x08c379a000000000000000000000000000000000000000000000000000000000\n      dup2\n      mstore\n      0x04\n      add\n      tag_25\n      swap1\n      tag_26\n      jump\t// in\n    tag_25:\n      mload(0x40)\n      dup1\n      swap2\n      sub\n      swap1\n      revert\n    tag_24:\n        /* \"Assignments_model/CapstonePro.sol\":1361:1366  _name */\n      dup1\n        /* \"Assignments_model/CapstonePro.sol\":1337:1341  user */\n      0x01\n        /* \"Assignments_model/CapstonePro.sol\":1337:1353  user[msg.sender] */\n      0x00\n        /* \"Assignments_model/CapstonePro.sol\":1342:1352  msg.sender */\n      caller\n        /* \"Assignments_model/CapstonePro.sol\":1337:1353  user[msg.sender] */\n      0xffffffffffffffffffffffffffffffffffffffff\n      and\n      0xffffffffffffffffffffffffffffffffffffffff\n      and\n      dup2\n      mstore\n      0x20\n      add\n      swap1\n      dup2\n      mstore\n      0x20\n      add\n      0x00\n      keccak256\n        /* \"Assignments_model/CapstonePro.sol\":1337:1358  user[msg.sender].name */\n      0x01\n      add\n        /* \"Assignments_model/CapstonePro.sol\":1337:1366  user[msg.sender].name = _name */\n      swap1\n      dup2\n      tag_27\n      swap2\n      swap1\n      tag_28\n      jump\t// in\n    tag_27:\n      pop\n        /* \"Assignments_model/CapstonePro.sol\":1382:1411  userUpdate(msg.sender, _name) */\n      0xc0e7f7eebb6ca89e1f6a471cd34bd13814915d40b1a55011c90c9157054753bd\n        /* \"Assignments_model/CapstonePro.sol\":1393:1403  msg.sender */\n      caller\n        /* \"Assignments_model/CapstonePro.sol\":1405:1410  _name */\n      dup3\n        /* \"Assignments_model/CapstonePro.sol\":1382:1411  userUpdate(msg.sender, _name) */\n      mload(0x40)\n      tag_29\n      swap3\n      swap2\n      swap1\n      tag_30\n      jump\t// in\n    tag_29:\n      mload(0x40)\n      dup1\n      swap2\n      sub\n      swap1\n      log1\n        /* \"Assignments_model/CapstonePro.sol\":1222:1419  function updateUser(string memory _name) public {... */\n      pop\n      jump\t// out\n        /* \"Assignments_model/CapstonePro.sol\":2392:2486  function getBalance() public view returns(uint){... */\n    tag_12:\n        /* \"Assignments_model/CapstonePro.sol\":2434:2438  uint */\n      0x00\n        /* \"Assignments_model/CapstonePro.sol\":2457:2478  address(this).balance */\n      selfbalance\n        /* \"Assignments_model/CapstonePro.sol\":2450:2478  return address(this).balance */\n      swap1\n      pop\n        /* \"Assignments_model/CapstonePro.sol\":2392:2486  function getBalance() public view returns(uint){... */\n      swap1\n      jump\t// out\n        /* \"Assignments_model/CapstonePro.sol\":1458:1825  function updateStatus(address _user, bool _approve) public onlyOwner{... */\n    tag_18:\n        /* \"Assignments_model/CapstonePro.sol\":217:222  owner */\n      0x00\n      0x00\n      swap1\n      sload\n      swap1\n      0x0100\n      exp\n      swap1\n      div\n      0xffffffffffffffffffffffffffffffffffffffff\n      and\n        /* \"Assignments_model/CapstonePro.sol\":203:222  msg.sender == owner */\n      0xffffffffffffffffffffffffffffffffffffffff\n      and\n        /* \"Assignments_model/CapstonePro.sol\":203:213  msg.sender */\n      caller\n        /* \"Assignments_model/CapstonePro.sol\":203:222  msg.sender == owner */\n      0xffffffffffffffffffffffffffffffffffffffff\n      and\n      eq\n        /* \"Assignments_model/CapstonePro.sol\":195:247  require(msg.sender == owner,'Only Owner is allowed') */\n      tag_33\n      jumpi\n      mload(0x40)\n      0x08c379a000000000000000000000000000000000000000000000000000000000\n      dup2\n      mstore\n      0x04\n      add\n      tag_34\n      swap1\n      tag_35\n      jump\t// in\n    tag_34:\n      mload(0x40)\n      dup1\n      swap2\n      sub\n      swap1\n      revert\n    tag_33:\n        /* \"Assignments_model/CapstonePro.sol\":1545:1551  exists */\n      0x02\n        /* \"Assignments_model/CapstonePro.sol\":1545:1563  exists[msg.sender] */\n      0x00\n        /* \"Assignments_model/CapstonePro.sol\":1552:1562  msg.sender */\n      caller\n        /* \"Assignments_model/CapstonePro.sol\":1545:1563  exists[msg.sender] */\n      0xffffffffffffffffffffffffffffffffffffffff\n      and\n      0xffffffffffffffffffffffffffffffffffffffff\n      and\n      dup2\n      mstore\n      0x20\n      add\n      swap1\n      dup2\n      mstore\n      0x20\n      add\n      0x00\n      keccak256\n      0x00\n      swap1\n      sload\n      swap1\n      0x0100\n      exp\n      swap1\n      div\n      0xff\n      and\n        /* \"Assignments_model/CapstonePro.sol\":1537:1581  require(exists[msg.sender],'User not found') */\n      tag_37\n      jumpi\n      mload(0x40)\n      0x08c379a000000000000000000000000000000000000000000000000000000000\n      dup2\n      mstore\n      0x04\n      add\n      tag_38\n      swap1\n      tag_39\n      jump\t// in\n    tag_38:\n      mload(0x40)\n      dup1\n      swap2\n      sub\n      swap1\n      revert\n    tag_37:\n        /* \"Assignments_model/CapstonePro.sol\":1608:1612  true */\n      0x01\n        /* \"Assignments_model/CapstonePro.sol\":1596:1612  _approve == true */\n      iszero\n      iszero\n        /* \"Assignments_model/CapstonePro.sol\":1596:1604  _approve */\n      dup2\n        /* \"Assignments_model/CapstonePro.sol\":1596:1612  _approve == true */\n      iszero\n      iszero\n      sub\n        /* \"Assignments_model/CapstonePro.sol\":1592:1763  if (_approve == true){... */\n      tag_40\n      jumpi\n        /* \"Assignments_model/CapstonePro.sol\":1649:1669  OrderStatus.Approved */\n      0x01\n        /* \"Assignments_model/CapstonePro.sol\":1628:1632  user */\n      dup1\n        /* \"Assignments_model/CapstonePro.sol\":1628:1639  user[_user] */\n      0x00\n        /* \"Assignments_model/CapstonePro.sol\":1633:1638  _user */\n      dup5\n        /* \"Assignments_model/CapstonePro.sol\":1628:1639  user[_user] */\n      0xffffffffffffffffffffffffffffffffffffffff\n      and\n      0xffffffffffffffffffffffffffffffffffffffff\n      and\n      dup2\n      mstore\n      0x20\n      add\n      swap1\n      dup2\n      mstore\n      0x20\n      add\n      0x00\n      keccak256\n        /* \"Assignments_model/CapstonePro.sol\":1628:1646  user[_user].status */\n      0x02\n      add\n      0x14\n        /* \"Assignments_model/CapstonePro.sol\":1628:1669  user[_user].status = OrderStatus.Approved */\n      0x0100\n      exp\n      dup2\n      sload\n      dup2\n      0xff\n      mul\n      not\n      and\n      swap1\n      dup4\n      0x02\n      dup2\n      gt\n      iszero\n      tag_41\n      jumpi\n      tag_42\n      tag_43\n      jump\t// in\n    tag_42:\n    tag_41:\n      mul\n      or\n      swap1\n      sstore\n      pop\n        /* \"Assignments_model/CapstonePro.sol\":1592:1763  if (_approve == true){... */\n      jump(tag_44)\n    tag_40:\n        /* \"Assignments_model/CapstonePro.sol\":1731:1751  OrderStatus.Rejected */\n      0x02\n        /* \"Assignments_model/CapstonePro.sol\":1710:1714  user */\n      0x01\n        /* \"Assignments_model/CapstonePro.sol\":1710:1721  user[_user] */\n      0x00\n        /* \"Assignments_model/CapstonePro.sol\":1715:1720  _user */\n      dup5\n        /* \"Assignments_model/CapstonePro.sol\":1710:1721  user[_user] */\n      0xffffffffffffffffffffffffffffffffffffffff\n      and\n      0xffffffffffffffffffffffffffffffffffffffff\n      and\n      dup2\n      mstore\n      0x20\n      add\n      swap1\n      dup2\n      mstore\n      0x20\n      add\n      0x00\n      keccak256\n        /* \"Assignments_model/CapstonePro.sol\":1710:1728  user[_user].status */\n      0x02\n      add\n      0x14\n        /* \"Assignments_model/CapstonePro.sol\":1710:1751  user[_user].status = OrderStatus.Rejected */\n      0x0100\n      exp\n      dup2\n      sload\n      dup2\n      0xff\n      mul\n      not\n      and\n      swap1\n      dup4\n      0x02\n      dup2\n      gt\n      iszero\n      tag_45\n      jumpi\n      tag_46\n      tag_43\n      jump\t// in\n    tag_46:\n    tag_45:\n      mul\n      or\n      swap1\n      sstore\n      pop\n        /* \"Assignments_model/CapstonePro.sol\":1592:1763  if (_approve == true){... */\n    tag_44:\n        /* \"Assignments_model/CapstonePro.sol\":1778:1817  changeStatus(_user, user[_user].status) */\n      0xff63e7a8542301248e2fce1e678bd1316e2e708bc00d4eee011e978dd84ebd06\n        /* \"Assignments_model/CapstonePro.sol\":1791:1796  _user */\n      dup3\n        /* \"Assignments_model/CapstonePro.sol\":1798:1802  user */\n      0x01\n        /* \"Assignments_model/CapstonePro.sol\":1798:1809  user[_user] */\n      0x00\n        /* \"Assignments_model/CapstonePro.sol\":1803:1808  _user */\n      dup6\n        /* \"Assignments_model/CapstonePro.sol\":1798:1809  user[_user] */\n      0xffffffffffffffffffffffffffffffffffffffff\n      and\n      0xffffffffffffffffffffffffffffffffffffffff\n      and\n      dup2\n      mstore\n      0x20\n      add\n      swap1\n      dup2\n      mstore\n      0x20\n      add\n      0x00\n      keccak256\n        /* \"Assignments_model/CapstonePro.sol\":1798:1816  user[_user].status */\n      0x02\n      add\n      0x14\n      swap1\n      sload\n      swap1\n      0x0100\n      exp\n      swap1\n      div\n      0xff\n      and\n        /* \"Assignments_model/CapstonePro.sol\":1778:1817  changeStatus(_user, user[_user].status) */\n      mload(0x40)\n      tag_47\n      swap3\n      swap2\n      swap1\n      tag_48\n      jump\t// in\n    tag_47:\n      mload(0x40)\n      dup1\n      swap2\n      sub\n      swap1\n      log1\n        /* \"Assignments_model/CapstonePro.sol\":1458:1825  function updateStatus(address _user, bool _approve) public onlyOwner{... */\n      pop\n      pop\n      jump\t// out\n        /* \"Assignments_model/CapstonePro.sol\":802:1194  function addUser(uint _id, string memory _name) public {... */\n    tag_22:\n        /* \"Assignments_model/CapstonePro.sol\":894:898  true */\n      0x01\n        /* \"Assignments_model/CapstonePro.sol\":872:898  exists[msg.sender] == true */\n      iszero\n      iszero\n        /* \"Assignments_model/CapstonePro.sol\":872:878  exists */\n      0x02\n        /* \"Assignments_model/CapstonePro.sol\":872:890  exists[msg.sender] */\n      0x00\n        /* \"Assignments_model/CapstonePro.sol\":879:889  msg.sender */\n      caller\n        /* \"Assignments_model/CapstonePro.sol\":872:890  exists[msg.sender] */\n      0xffffffffffffffffffffffffffffffffffffffff\n      and\n      0xffffffffffffffffffffffffffffffffffffffff\n      and\n      dup2\n      mstore\n      0x20\n      add\n      swap1\n      dup2\n      mstore\n      0x20\n      add\n      0x00\n      keccak256\n      0x00\n      swap1\n      sload\n      swap1\n      0x0100\n      exp\n      swap1\n      div\n      0xff\n      and\n        /* \"Assignments_model/CapstonePro.sol\":872:898  exists[msg.sender] == true */\n      iszero\n      iszero\n      sub\n        /* \"Assignments_model/CapstonePro.sol\":868:1187  if (exists[msg.sender] == true ){... */\n      tag_50\n      jumpi\n        /* \"Assignments_model/CapstonePro.sol\":915:943  revert(\"user already exits\") */\n      mload(0x40)\n      0x08c379a000000000000000000000000000000000000000000000000000000000\n      dup2\n      mstore\n      0x04\n      add\n      tag_51\n      swap1\n      tag_52\n      jump\t// in\n    tag_51:\n      mload(0x40)\n      dup1\n      swap2\n      sub\n      swap1\n      revert\n        /* \"Assignments_model/CapstonePro.sol\":868:1187  if (exists[msg.sender] == true ){... */\n    tag_50:\n        /* \"Assignments_model/CapstonePro.sol\":1003:1084  User({id : _id, name : _name, wallet : msg.sender, status : OrderStatus.Pending}) */\n      mload(0x40)\n      dup1\n      0x80\n      add\n      0x40\n      mstore\n      dup1\n        /* \"Assignments_model/CapstonePro.sol\":1014:1017  _id */\n      dup4\n        /* \"Assignments_model/CapstonePro.sol\":1003:1084  User({id : _id, name : _name, wallet : msg.sender, status : OrderStatus.Pending}) */\n      dup2\n      mstore\n      0x20\n      add\n        /* \"Assignments_model/CapstonePro.sol\":1026:1031  _name */\n      dup3\n        /* \"Assignments_model/CapstonePro.sol\":1003:1084  User({id : _id, name : _name, wallet : msg.sender, status : OrderStatus.Pending}) */\n      dup2\n      mstore\n      0x20\n      add\n        /* \"Assignments_model/CapstonePro.sol\":1042:1052  msg.sender */\n      caller\n        /* \"Assignments_model/CapstonePro.sol\":1003:1084  User({id : _id, name : _name, wallet : msg.sender, status : OrderStatus.Pending}) */\n      0xffffffffffffffffffffffffffffffffffffffff\n      and\n      dup2\n      mstore\n      0x20\n      add\n        /* \"Assignments_model/CapstonePro.sol\":1063:1082  OrderStatus.Pending */\n      0x00\n        /* \"Assignments_model/CapstonePro.sol\":1003:1084  User({id : _id, name : _name, wallet : msg.sender, status : OrderStatus.Pending}) */\n      0x02\n      dup2\n      gt\n      iszero\n      tag_54\n      jumpi\n      tag_55\n      tag_43\n      jump\t// in\n    tag_55:\n    tag_54:\n      dup2\n      mstore\n      pop\n        /* \"Assignments_model/CapstonePro.sol\":984:988  user */\n      0x01\n        /* \"Assignments_model/CapstonePro.sol\":984:1000  user[msg.sender] */\n      0x00\n        /* \"Assignments_model/CapstonePro.sol\":989:999  msg.sender */\n      caller\n        /* \"Assignments_model/CapstonePro.sol\":984:1000  user[msg.sender] */\n      0xffffffffffffffffffffffffffffffffffffffff\n      and\n      0xffffffffffffffffffffffffffffffffffffffff\n      and\n      dup2\n      mstore\n      0x20\n      add\n      swap1\n      dup2\n      mstore\n      0x20\n      add\n      0x00\n      keccak256\n        /* \"Assignments_model/CapstonePro.sol\":984:1084  user[msg.sender] = User({id : _id, name : _name, wallet : msg.sender, status : OrderStatus.Pending}) */\n      0x00\n      dup3\n      add\n      mload\n      dup2\n      0x00\n      add\n      sstore\n      0x20\n      dup3\n      add\n      mload\n      dup2\n      0x01\n      add\n      swap1\n      dup2\n      tag_56\n      swap2\n      swap1\n      tag_28\n      jump\t// in\n    tag_56:\n      pop\n      0x40\n      dup3\n      add\n      mload\n      dup2\n      0x02\n      add\n      exp(0x0100, 0x00)\n      dup2\n      sload\n      dup2\n      0xffffffffffffffffffffffffffffffffffffffff\n      mul\n      not\n      and\n      swap1\n      dup4\n      0xffffffffffffffffffffffffffffffffffffffff\n      and\n      mul\n      or\n      swap1\n      sstore\n      pop\n      0x60\n      dup3\n      add\n      mload\n      dup2\n      0x02\n      add\n      exp(0x0100, 0x14)\n      dup2\n      sload\n      dup2\n      0xff\n      mul\n      not\n      and\n      swap1\n      dup4\n      0x02\n      dup2\n      gt\n      iszero\n      tag_57\n      jumpi\n      tag_58\n      tag_43\n      jump\t// in\n    tag_58:\n    tag_57:\n      mul\n      or\n      swap1\n      sstore\n      pop\n      swap1\n      pop\n      pop\n        /* \"Assignments_model/CapstonePro.sol\":1120:1124  true */\n      0x01\n        /* \"Assignments_model/CapstonePro.sol\":1099:1105  exists */\n      0x02\n        /* \"Assignments_model/CapstonePro.sol\":1099:1117  exists[msg.sender] */\n      0x00\n        /* \"Assignments_model/CapstonePro.sol\":1106:1116  msg.sender */\n      caller\n        /* \"Assignments_model/CapstonePro.sol\":1099:1117  exists[msg.sender] */\n      0xffffffffffffffffffffffffffffffffffffffff\n      and\n      0xffffffffffffffffffffffffffffffffffffffff\n      and\n      dup2\n      mstore\n      0x20\n      add\n      swap1\n      dup2\n      mstore\n      0x20\n      add\n      0x00\n      keccak256\n      0x00\n        /* \"Assignments_model/CapstonePro.sol\":1099:1124  exists[msg.sender] = true */\n      0x0100\n      exp\n      dup2\n      sload\n      dup2\n      0xff\n      mul\n      not\n      and\n      swap1\n      dup4\n      iszero\n      iszero\n      mul\n      or\n      swap1\n      sstore\n      pop\n        /* \"Assignments_model/CapstonePro.sol\":1144:1175  userAdd(msg.sender, _id, _name) */\n      0xf193d23a73141bedb2f741fb47b8a1c94464dc45008d414759dedcb284e15910\n        /* \"Assignments_model/CapstonePro.sol\":1152:1162  msg.sender */\n      caller\n        /* \"Assignments_model/CapstonePro.sol\":1164:1167  _id */\n      dup4\n        /* \"Assignments_model/CapstonePro.sol\":1169:1174  _name */\n      dup4\n        /* \"Assignments_model/CapstonePro.sol\":1144:1175  userAdd(msg.sender, _id, _name) */\n      mload(0x40)\n      tag_59\n      swap4\n      swap3\n      swap2\n      swap1\n      tag_60\n      jump\t// in\n    tag_59:\n      mload(0x40)\n      dup1\n      swap2\n      sub\n      swap1\n      log1\n        /* \"Assignments_model/CapstonePro.sol\":802:1194  function addUser(uint _id, string memory _name) public {... */\n      pop\n      pop\n      jump\t// out\n        /* \"#utility.yul\":7:82   */\n    tag_61:\n        /* \"#utility.yul\":40:46   */\n      0x00\n        /* \"#utility.yul\":73:75   */\n      0x40\n        /* \"#utility.yul\":67:76   */\n      mload\n        /* \"#utility.yul\":57:76   */\n      swap1\n      pop\n        /* \"#utility.yul\":7:82   */\n      swap1\n      jump\t// out\n        /* \"#utility.yul\":88:205   */\n    tag_62:\n        /* \"#utility.yul\":197:198   */\n      0x00\n        /* \"#utility.yul\":194:195   */\n      0x00\n        /* \"#utility.yul\":187:199   */\n      revert\n        /* \"#utility.yul\":211:328   */\n    tag_63:\n        /* \"#utility.yul\":320:321   */\n      0x00\n        /* \"#utility.yul\":317:318   */\n      0x00\n        /* \"#utility.yul\":310:322   */\n      revert\n        /* \"#utility.yul\":334:451   */\n    tag_64:\n        /* \"#utility.yul\":443:444   */\n      0x00\n        /* \"#utility.yul\":440:441   */\n      0x00\n        /* \"#utility.yul\":433:445   */\n      revert\n        /* \"#utility.yul\":457:574   */\n    tag_65:\n        /* \"#utility.yul\":566:567   */\n      0x00\n        /* \"#utility.yul\":563:564   */\n      0x00\n        /* \"#utility.yul\":556:568   */\n      revert\n        /* \"#utility.yul\":580:682   */\n    tag_66:\n        /* \"#utility.yul\":621:627   */\n      0x00\n        /* \"#utility.yul\":672:674   */\n      0x1f\n        /* \"#utility.yul\":668:675   */\n      not\n        /* \"#utility.yul\":663:665   */\n      0x1f\n        /* \"#utility.yul\":656:661   */\n      dup4\n        /* \"#utility.yul\":652:666   */\n      add\n        /* \"#utility.yul\":648:676   */\n      and\n        /* \"#utility.yul\":638:676   */\n      swap1\n      pop\n        /* \"#utility.yul\":580:682   */\n      swap2\n      swap1\n      pop\n      jump\t// out\n        /* \"#utility.yul\":688:868   */\n    tag_67:\n        /* \"#utility.yul\":736:813   */\n      0x4e487b7100000000000000000000000000000000000000000000000000000000\n        /* \"#utility.yul\":733:734   */\n      0x00\n        /* \"#utility.yul\":726:814   */\n      mstore\n        /* \"#utility.yul\":833:837   */\n      0x41\n        /* \"#utility.yul\":830:831   */\n      0x04\n        /* \"#utility.yul\":823:838   */\n      mstore\n        /* \"#utility.yul\":857:861   */\n      0x24\n        /* \"#utility.yul\":854:855   */\n      0x00\n        /* \"#utility.yul\":847:862   */\n      revert\n        /* \"#utility.yul\":874:1155   */\n    tag_68:\n        /* \"#utility.yul\":957:984   */\n      tag_128\n        /* \"#utility.yul\":979:983   */\n      dup3\n        /* \"#utility.yul\":957:984   */\n      tag_66\n      jump\t// in\n    tag_128:\n        /* \"#utility.yul\":949:955   */\n      dup2\n        /* \"#utility.yul\":945:985   */\n      add\n        /* \"#utility.yul\":1087:1093   */\n      dup2\n        /* \"#utility.yul\":1075:1085   */\n      dup2\n        /* \"#utility.yul\":1072:1094   */\n      lt\n        /* \"#utility.yul\":1051:1069   */\n      0xffffffffffffffff\n        /* \"#utility.yul\":1039:1049   */\n      dup3\n        /* \"#utility.yul\":1036:1070   */\n      gt\n        /* \"#utility.yul\":1033:1095   */\n      or\n        /* \"#utility.yul\":1030:1118   */\n      iszero\n      tag_129\n      jumpi\n        /* \"#utility.yul\":1098:1116   */\n      tag_130\n      tag_67\n      jump\t// in\n    tag_130:\n        /* \"#utility.yul\":1030:1118   */\n    tag_129:\n        /* \"#utility.yul\":1138:1148   */\n      dup1\n        /* \"#utility.yul\":1134:1136   */\n      0x40\n        /* \"#utility.yul\":1127:1149   */\n      mstore\n        /* \"#utility.yul\":917:1155   */\n      pop\n        /* \"#utility.yul\":874:1155   */\n      pop\n      pop\n      jump\t// out\n        /* \"#utility.yul\":1161:1290   */\n    tag_69:\n        /* \"#utility.yul\":1195:1201   */\n      0x00\n        /* \"#utility.yul\":1222:1242   */\n      tag_132\n      tag_61\n      jump\t// in\n    tag_132:\n        /* \"#utility.yul\":1212:1242   */\n      swap1\n      pop\n        /* \"#utility.yul\":1251:1284   */\n      tag_133\n        /* \"#utility.yul\":1279:1283   */\n      dup3\n        /* \"#utility.yul\":1271:1277   */\n      dup3\n        /* \"#utility.yul\":1251:1284   */\n      tag_68\n      jump\t// in\n    tag_133:\n        /* \"#utility.yul\":1161:1290   */\n      swap2\n      swap1\n      pop\n      jump\t// out\n        /* \"#utility.yul\":1296:1604   */\n    tag_70:\n        /* \"#utility.yul\":1358:1362   */\n      0x00\n        /* \"#utility.yul\":1448:1466   */\n      0xffffffffffffffff\n        /* \"#utility.yul\":1440:1446   */\n      dup3\n        /* \"#utility.yul\":1437:1467   */\n      gt\n        /* \"#utility.yul\":1434:1490   */\n      iszero\n      tag_135\n      jumpi\n        /* \"#utility.yul\":1470:1488   */\n      tag_136\n      tag_67\n      jump\t// in\n    tag_136:\n        /* \"#utility.yul\":1434:1490   */\n    tag_135:\n        /* \"#utility.yul\":1508:1537   */\n      tag_137\n        /* \"#utility.yul\":1530:1536   */\n      dup3\n        /* \"#utility.yul\":1508:1537   */\n      tag_66\n      jump\t// in\n    tag_137:\n        /* \"#utility.yul\":1500:1537   */\n      swap1\n      pop\n        /* \"#utility.yul\":1592:1596   */\n      0x20\n        /* \"#utility.yul\":1586:1590   */\n      dup2\n        /* \"#utility.yul\":1582:1597   */\n      add\n        /* \"#utility.yul\":1574:1597   */\n      swap1\n      pop\n        /* \"#utility.yul\":1296:1604   */\n      swap2\n      swap1\n      pop\n      jump\t// out\n        /* \"#utility.yul\":1610:1758   */\n    tag_71:\n        /* \"#utility.yul\":1708:1714   */\n      dup3\n        /* \"#utility.yul\":1703:1706   */\n      dup2\n        /* \"#utility.yul\":1698:1701   */\n      dup4\n        /* \"#utility.yul\":1685:1715   */\n      calldatacopy\n        /* \"#utility.yul\":1749:1750   */\n      0x00\n        /* \"#utility.yul\":1740:1746   */\n      dup4\n        /* \"#utility.yul\":1735:1738   */\n      dup4\n        /* \"#utility.yul\":1731:1747   */\n      add\n        /* \"#utility.yul\":1724:1751   */\n      mstore\n        /* \"#utility.yul\":1610:1758   */\n      pop\n      pop\n      pop\n      jump\t// out\n        /* \"#utility.yul\":1764:2189   */\n    tag_72:\n        /* \"#utility.yul\":1842:1847   */\n      0x00\n        /* \"#utility.yul\":1867:1933   */\n      tag_140\n        /* \"#utility.yul\":1883:1932   */\n      tag_141\n        /* \"#utility.yul\":1925:1931   */\n      dup5\n        /* \"#utility.yul\":1883:1932   */\n      tag_70\n      jump\t// in\n    tag_141:\n        /* \"#utility.yul\":1867:1933   */\n      tag_69\n      jump\t// in\n    tag_140:\n        /* \"#utility.yul\":1858:1933   */\n      swap1\n      pop\n        /* \"#utility.yul\":1956:1962   */\n      dup3\n        /* \"#utility.yul\":1949:1954   */\n      dup2\n        /* \"#utility.yul\":1942:1963   */\n      mstore\n        /* \"#utility.yul\":1994:1998   */\n      0x20\n        /* \"#utility.yul\":1987:1992   */\n      dup2\n        /* \"#utility.yul\":1983:1999   */\n      add\n        /* \"#utility.yul\":2032:2035   */\n      dup5\n        /* \"#utility.yul\":2023:2029   */\n      dup5\n        /* \"#utility.yul\":2018:2021   */\n      dup5\n        /* \"#utility.yul\":2014:2030   */\n      add\n        /* \"#utility.yul\":2011:2036   */\n      gt\n        /* \"#utility.yul\":2008:2120   */\n      iszero\n      tag_142\n      jumpi\n        /* \"#utility.yul\":2039:2118   */\n      tag_143\n      tag_65\n      jump\t// in\n    tag_143:\n        /* \"#utility.yul\":2008:2120   */\n    tag_142:\n        /* \"#utility.yul\":2129:2183   */\n      tag_144\n        /* \"#utility.yul\":2176:2182   */\n      dup5\n        /* \"#utility.yul\":2171:2174   */\n      dup3\n        /* \"#utility.yul\":2166:2169   */\n      dup6\n        /* \"#utility.yul\":2129:2183   */\n      tag_71\n      jump\t// in\n    tag_144:\n        /* \"#utility.yul\":1848:2189   */\n      pop\n        /* \"#utility.yul\":1764:2189   */\n      swap4\n      swap3\n      pop\n      pop\n      pop\n      jump\t// out\n        /* \"#utility.yul\":2209:2549   */\n    tag_73:\n        /* \"#utility.yul\":2265:2270   */\n      0x00\n        /* \"#utility.yul\":2314:2317   */\n      dup3\n        /* \"#utility.yul\":2307:2311   */\n      0x1f\n        /* \"#utility.yul\":2299:2305   */\n      dup4\n        /* \"#utility.yul\":2295:2312   */\n      add\n        /* \"#utility.yul\":2291:2318   */\n      slt\n        /* \"#utility.yul\":2281:2403   */\n      tag_146\n      jumpi\n        /* \"#utility.yul\":2322:2401   */\n      tag_147\n      tag_64\n      jump\t// in\n    tag_147:\n        /* \"#utility.yul\":2281:2403   */\n    tag_146:\n        /* \"#utility.yul\":2439:2445   */\n      dup2\n        /* \"#utility.yul\":2426:2446   */\n      calldataload\n        /* \"#utility.yul\":2464:2543   */\n      tag_148\n        /* \"#utility.yul\":2539:2542   */\n      dup5\n        /* \"#utility.yul\":2531:2537   */\n      dup3\n        /* \"#utility.yul\":2524:2528   */\n      0x20\n        /* \"#utility.yul\":2516:2522   */\n      dup7\n        /* \"#utility.yul\":2512:2529   */\n      add\n        /* \"#utility.yul\":2464:2543   */\n      tag_72\n      jump\t// in\n    tag_148:\n        /* \"#utility.yul\":2455:2543   */\n      swap2\n      pop\n        /* \"#utility.yul\":2271:2549   */\n      pop\n        /* \"#utility.yul\":2209:2549   */\n      swap3\n      swap2\n      pop\n      pop\n      jump\t// out\n        /* \"#utility.yul\":2555:3064   */\n    tag_9:\n        /* \"#utility.yul\":2624:2630   */\n      0x00\n        /* \"#utility.yul\":2673:2675   */\n      0x20\n        /* \"#utility.yul\":2661:2670   */\n      dup3\n        /* \"#utility.yul\":2652:2659   */\n      dup5\n        /* \"#utility.yul\":2648:2671   */\n      sub\n        /* \"#utility.yul\":2644:2676   */\n      slt\n        /* \"#utility.yul\":2641:2760   */\n      iszero\n      tag_150\n      jumpi\n        /* \"#utility.yul\":2679:2758   */\n      tag_151\n      tag_62\n      jump\t// in\n    tag_151:\n        /* \"#utility.yul\":2641:2760   */\n    tag_150:\n        /* \"#utility.yul\":2827:2828   */\n      0x00\n        /* \"#utility.yul\":2816:2825   */\n      dup3\n        /* \"#utility.yul\":2812:2829   */\n      add\n        /* \"#utility.yul\":2799:2830   */\n      calldataload\n        /* \"#utility.yul\":2857:2875   */\n      0xffffffffffffffff\n        /* \"#utility.yul\":2849:2855   */\n      dup2\n        /* \"#utility.yul\":2846:2876   */\n      gt\n        /* \"#utility.yul\":2843:2960   */\n      iszero\n      tag_152\n      jumpi\n        /* \"#utility.yul\":2879:2958   */\n      tag_153\n      tag_63\n      jump\t// in\n    tag_153:\n        /* \"#utility.yul\":2843:2960   */\n    tag_152:\n        /* \"#utility.yul\":2984:3047   */\n      tag_154\n        /* \"#utility.yul\":3039:3046   */\n      dup5\n        /* \"#utility.yul\":3030:3036   */\n      dup3\n        /* \"#utility.yul\":3019:3028   */\n      dup6\n        /* \"#utility.yul\":3015:3037   */\n      add\n        /* \"#utility.yul\":2984:3047   */\n      tag_73\n      jump\t// in\n    tag_154:\n        /* \"#utility.yul\":2974:3047   */\n      swap2\n      pop\n        /* \"#utility.yul\":2770:3057   */\n      pop\n        /* \"#utility.yul\":2555:3064   */\n      swap3\n      swap2\n      pop\n      pop\n      jump\t// out\n        /* \"#utility.yul\":3070:3147   */\n    tag_74:\n        /* \"#utility.yul\":3107:3114   */\n      0x00\n        /* \"#utility.yul\":3136:3141   */\n      dup2\n        /* \"#utility.yul\":3125:3141   */\n      swap1\n      pop\n        /* \"#utility.yul\":3070:3147   */\n      swap2\n      swap1\n      pop\n      jump\t// out\n        /* \"#utility.yul\":3153:3271   */\n    tag_75:\n        /* \"#utility.yul\":3240:3264   */\n      tag_157\n        /* \"#utility.yul\":3258:3263   */\n      dup2\n        /* \"#utility.yul\":3240:3264   */\n      tag_74\n      jump\t// in\n    tag_157:\n        /* \"#utility.yul\":3235:3238   */\n      dup3\n        /* \"#utility.yul\":3228:3265   */\n      mstore\n        /* \"#utility.yul\":3153:3271   */\n      pop\n      pop\n      jump\t// out\n        /* \"#utility.yul\":3277:3499   */\n    tag_14:\n        /* \"#utility.yul\":3370:3374   */\n      0x00\n        /* \"#utility.yul\":3408:3410   */\n      0x20\n        /* \"#utility.yul\":3397:3406   */\n      dup3\n        /* \"#utility.yul\":3393:3411   */\n      add\n        /* \"#utility.yul\":3385:3411   */\n      swap1\n      pop\n        /* \"#utility.yul\":3421:3492   */\n      tag_159\n        /* \"#utility.yul\":3489:3490   */\n      0x00\n        /* \"#utility.yul\":3478:3487   */\n      dup4\n        /* \"#utility.yul\":3474:3491   */\n      add\n        /* \"#utility.yul\":3465:3471   */\n      dup5\n        /* \"#utility.yul\":3421:3492   */\n      tag_75\n      jump\t// in\n    tag_159:\n        /* \"#utility.yul\":3277:3499   */\n      swap3\n      swap2\n      pop\n      pop\n      jump\t// out\n        /* \"#utility.yul\":3505:3631   */\n    tag_76:\n        /* \"#utility.yul\":3542:3549   */\n      0x00\n        /* \"#utility.yul\":3582:3624   */\n      0xffffffffffffffffffffffffffffffffffffffff\n        /* \"#utility.yul\":3575:3580   */\n      dup3\n        /* \"#utility.yul\":3571:3625   */\n      and\n        /* \"#utility.yul\":3560:3625   */\n      swap1\n      pop\n        /* \"#utility.yul\":3505:3631   */\n      swap2\n      swap1\n      pop\n      jump\t// out\n        /* \"#utility.yul\":3637:3733   */\n    tag_77:\n        /* \"#utility.yul\":3674:3681   */\n      0x00\n        /* \"#utility.yul\":3703:3727   */\n      tag_162\n        /* \"#utility.yul\":3721:3726   */\n      dup3\n        /* \"#utility.yul\":3703:3727   */\n      tag_76\n      jump\t// in\n    tag_162:\n        /* \"#utility.yul\":3692:3727   */\n      swap1\n      pop\n        /* \"#utility.yul\":3637:3733   */\n      swap2\n      swap1\n      pop\n      jump\t// out\n        /* \"#utility.yul\":3739:3861   */\n    tag_78:\n        /* \"#utility.yul\":3812:3836   */\n      tag_164\n        /* \"#utility.yul\":3830:3835   */\n      dup2\n        /* \"#utility.yul\":3812:3836   */\n      tag_77\n      jump\t// in\n    tag_164:\n        /* \"#utility.yul\":3805:3810   */\n      dup2\n        /* \"#utility.yul\":3802:3837   */\n      eq\n        /* \"#utility.yul\":3792:3855   */\n      tag_165\n      jumpi\n        /* \"#utility.yul\":3851:3852   */\n      0x00\n        /* \"#utility.yul\":3848:3849   */\n      0x00\n        /* \"#utility.yul\":3841:3853   */\n      revert\n        /* \"#utility.yul\":3792:3855   */\n    tag_165:\n        /* \"#utility.yul\":3739:3861   */\n      pop\n      jump\t// out\n        /* \"#utility.yul\":3867:4006   */\n    tag_79:\n        /* \"#utility.yul\":3913:3918   */\n      0x00\n        /* \"#utility.yul\":3951:3957   */\n      dup2\n        /* \"#utility.yul\":3938:3958   */\n      calldataload\n        /* \"#utility.yul\":3929:3958   */\n      swap1\n      pop\n        /* \"#utility.yul\":3967:4000   */\n      tag_167\n        /* \"#utility.yul\":3994:3999   */\n      dup2\n        /* \"#utility.yul\":3967:4000   */\n      tag_78\n      jump\t// in\n    tag_167:\n        /* \"#utility.yul\":3867:4006   */\n      swap3\n      swap2\n      pop\n      pop\n      jump\t// out\n        /* \"#utility.yul\":4012:4102   */\n    tag_80:\n        /* \"#utility.yul\":4046:4053   */\n      0x00\n        /* \"#utility.yul\":4089:4094   */\n      dup2\n        /* \"#utility.yul\":4082:4095   */\n      iszero\n        /* \"#utility.yul\":4075:4096   */\n      iszero\n        /* \"#utility.yul\":4064:4096   */\n      swap1\n      pop\n        /* \"#utility.yul\":4012:4102   */\n      swap2\n      swap1\n      pop\n      jump\t// out\n        /* \"#utility.yul\":4108:4224   */\n    tag_81:\n        /* \"#utility.yul\":4178:4199   */\n      tag_170\n        /* \"#utility.yul\":4193:4198   */\n      dup2\n        /* \"#utility.yul\":4178:4199   */\n      tag_80\n      jump\t// in\n    tag_170:\n        /* \"#utility.yul\":4171:4176   */\n      dup2\n        /* \"#utility.yul\":4168:4200   */\n      eq\n        /* \"#utility.yul\":4158:4218   */\n      tag_171\n      jumpi\n        /* \"#utility.yul\":4214:4215   */\n      0x00\n        /* \"#utility.yul\":4211:4212   */\n      0x00\n        /* \"#utility.yul\":4204:4216   */\n      revert\n        /* \"#utility.yul\":4158:4218   */\n    tag_171:\n        /* \"#utility.yul\":4108:4224   */\n      pop\n      jump\t// out\n        /* \"#utility.yul\":4230:4363   */\n    tag_82:\n        /* \"#utility.yul\":4273:4278   */\n      0x00\n        /* \"#utility.yul\":4311:4317   */\n      dup2\n        /* \"#utility.yul\":4298:4318   */\n      calldataload\n        /* \"#utility.yul\":4289:4318   */\n      swap1\n      pop\n        /* \"#utility.yul\":4327:4357   */\n      tag_173\n        /* \"#utility.yul\":4351:4356   */\n      dup2\n        /* \"#utility.yul\":4327:4357   */\n      tag_81\n      jump\t// in\n    tag_173:\n        /* \"#utility.yul\":4230:4363   */\n      swap3\n      swap2\n      pop\n      pop\n      jump\t// out\n        /* \"#utility.yul\":4369:4837   */\n    tag_17:\n        /* \"#utility.yul\":4434:4440   */\n      0x00\n        /* \"#utility.yul\":4442:4448   */\n      0x00\n        /* \"#utility.yul\":4491:4493   */\n      0x40\n        /* \"#utility.yul\":4479:4488   */\n      dup4\n        /* \"#utility.yul\":4470:4477   */\n      dup6\n        /* \"#utility.yul\":4466:4489   */\n      sub\n        /* \"#utility.yul\":4462:4494   */\n      slt\n        /* \"#utility.yul\":4459:4578   */\n      iszero\n      tag_175\n      jumpi\n        /* \"#utility.yul\":4497:4576   */\n      tag_176\n      tag_62\n      jump\t// in\n    tag_176:\n        /* \"#utility.yul\":4459:4578   */\n    tag_175:\n        /* \"#utility.yul\":4617:4618   */\n      0x00\n        /* \"#utility.yul\":4642:4695   */\n      tag_177\n        /* \"#utility.yul\":4687:4694   */\n      dup6\n        /* \"#utility.yul\":4678:4684   */\n      dup3\n        /* \"#utility.yul\":4667:4676   */\n      dup7\n        /* \"#utility.yul\":4663:4685   */\n      add\n        /* \"#utility.yul\":4642:4695   */\n      tag_79\n      jump\t// in\n    tag_177:\n        /* \"#utility.yul\":4632:4695   */\n      swap3\n      pop\n        /* \"#utility.yul\":4588:4705   */\n      pop\n        /* \"#utility.yul\":4744:4746   */\n      0x20\n        /* \"#utility.yul\":4770:4820   */\n      tag_178\n        /* \"#utility.yul\":4812:4819   */\n      dup6\n        /* \"#utility.yul\":4803:4809   */\n      dup3\n        /* \"#utility.yul\":4792:4801   */\n      dup7\n        /* \"#utility.yul\":4788:4810   */\n      add\n        /* \"#utility.yul\":4770:4820   */\n      tag_82\n      jump\t// in\n    tag_178:\n        /* \"#utility.yul\":4760:4820   */\n      swap2\n      pop\n        /* \"#utility.yul\":4715:4830   */\n      pop\n        /* \"#utility.yul\":4369:4837   */\n      swap3\n      pop\n      swap3\n      swap1\n      pop\n      jump\t// out\n        /* \"#utility.yul\":4843:4965   */\n    tag_83:\n        /* \"#utility.yul\":4916:4940   */\n      tag_180\n        /* \"#utility.yul\":4934:4939   */\n      dup2\n        /* \"#utility.yul\":4916:4940   */\n      tag_74\n      jump\t// in\n    tag_180:\n        /* \"#utility.yul\":4909:4914   */\n      dup2\n        /* \"#utility.yul\":4906:4941   */\n      eq\n        /* \"#utility.yul\":4896:4959   */\n      tag_181\n      jumpi\n        /* \"#utility.yul\":4955:4956   */\n      0x00\n        /* \"#utility.yul\":4952:4953   */\n      0x00\n        /* \"#utility.yul\":4945:4957   */\n      revert\n        /* \"#utility.yul\":4896:4959   */\n    tag_181:\n        /* \"#utility.yul\":4843:4965   */\n      pop\n      jump\t// out\n        /* \"#utility.yul\":4971:5110   */\n    tag_84:\n        /* \"#utility.yul\":5017:5022   */\n      0x00\n        /* \"#utility.yul\":5055:5061   */\n      dup2\n        /* \"#utility.yul\":5042:5062   */\n      calldataload\n        /* \"#utility.yul\":5033:5062   */\n      swap1\n      pop\n        /* \"#utility.yul\":5071:5104   */\n      tag_183\n        /* \"#utility.yul\":5098:5103   */\n      dup2\n        /* \"#utility.yul\":5071:5104   */\n      tag_83\n      jump\t// in\n    tag_183:\n        /* \"#utility.yul\":4971:5110   */\n      swap3\n      swap2\n      pop\n      pop\n      jump\t// out\n        /* \"#utility.yul\":5116:5770   */\n    tag_21:\n        /* \"#utility.yul\":5194:5200   */\n      0x00\n        /* \"#utility.yul\":5202:5208   */\n      0x00\n        /* \"#utility.yul\":5251:5253   */\n      0x40\n        /* \"#utility.yul\":5239:5248   */\n      dup4\n        /* \"#utility.yul\":5230:5237   */\n      dup6\n        /* \"#utility.yul\":5226:5249   */\n      sub\n        /* \"#utility.yul\":5222:5254   */\n      slt\n        /* \"#utility.yul\":5219:5338   */\n      iszero\n      tag_185\n      jumpi\n        /* \"#utility.yul\":5257:5336   */\n      tag_186\n      tag_62\n      jump\t// in\n    tag_186:\n        /* \"#utility.yul\":5219:5338   */\n    tag_185:\n        /* \"#utility.yul\":5377:5378   */\n      0x00\n        /* \"#utility.yul\":5402:5455   */\n      tag_187\n        /* \"#utility.yul\":5447:5454   */\n      dup6\n        /* \"#utility.yul\":5438:5444   */\n      dup3\n        /* \"#utility.yul\":5427:5436   */\n      dup7\n        /* \"#utility.yul\":5423:5445   */\n      add\n        /* \"#utility.yul\":5402:5455   */\n      tag_84\n      jump\t// in\n    tag_187:\n        /* \"#utility.yul\":5392:5455   */\n      swap3\n      pop\n        /* \"#utility.yul\":5348:5465   */\n      pop\n        /* \"#utility.yul\":5532:5534   */\n      0x20\n        /* \"#utility.yul\":5521:5530   */\n      dup4\n        /* \"#utility.yul\":5517:5535   */\n      add\n        /* \"#utility.yul\":5504:5536   */\n      calldataload\n        /* \"#utility.yul\":5563:5581   */\n      0xffffffffffffffff\n        /* \"#utility.yul\":5555:5561   */\n      dup2\n        /* \"#utility.yul\":5552:5582   */\n      gt\n        /* \"#utility.yul\":5549:5666   */\n      iszero\n      tag_188\n      jumpi\n        /* \"#utility.yul\":5585:5664   */\n      tag_189\n      tag_63\n      jump\t// in\n    tag_189:\n        /* \"#utility.yul\":5549:5666   */\n    tag_188:\n        /* \"#utility.yul\":5690:5753   */\n      tag_190\n        /* \"#utility.yul\":5745:5752   */\n      dup6\n        /* \"#utility.yul\":5736:5742   */\n      dup3\n        /* \"#utility.yul\":5725:5734   */\n      dup7\n        /* \"#utility.yul\":5721:5743   */\n      add\n        /* \"#utility.yul\":5690:5753   */\n      tag_73\n      jump\t// in\n    tag_190:\n        /* \"#utility.yul\":5680:5753   */\n      swap2\n      pop\n        /* \"#utility.yul\":5475:5763   */\n      pop\n        /* \"#utility.yul\":5116:5770   */\n      swap3\n      pop\n      swap3\n      swap1\n      pop\n      jump\t// out\n        /* \"#utility.yul\":5776:5945   */\n    tag_85:\n        /* \"#utility.yul\":5860:5871   */\n      0x00\n        /* \"#utility.yul\":5894:5900   */\n      dup3\n        /* \"#utility.yul\":5889:5892   */\n      dup3\n        /* \"#utility.yul\":5882:5901   */\n      mstore\n        /* \"#utility.yul\":5934:5938   */\n      0x20\n        /* \"#utility.yul\":5929:5932   */\n      dup3\n        /* \"#utility.yul\":5925:5939   */\n      add\n        /* \"#utility.yul\":5910:5939   */\n      swap1\n      pop\n        /* \"#utility.yul\":5776:5945   */\n      swap3\n      swap2\n      pop\n      pop\n      jump\t// out\n        /* \"#utility.yul\":5951:6115   */\n    tag_86:\n        /* \"#utility.yul\":6091:6107   */\n      0x75736572206e6f7420666f756e64000000000000000000000000000000000000\n        /* \"#utility.yul\":6087:6088   */\n      0x00\n        /* \"#utility.yul\":6079:6085   */\n      dup3\n        /* \"#utility.yul\":6075:6089   */\n      add\n        /* \"#utility.yul\":6068:6108   */\n      mstore\n        /* \"#utility.yul\":5951:6115   */\n      pop\n      jump\t// out\n        /* \"#utility.yul\":6121:6487   */\n    tag_87:\n        /* \"#utility.yul\":6263:6266   */\n      0x00\n        /* \"#utility.yul\":6284:6351   */\n      tag_194\n        /* \"#utility.yul\":6348:6350   */\n      0x0e\n        /* \"#utility.yul\":6343:6346   */\n      dup4\n        /* \"#utility.yul\":6284:6351   */\n      tag_85\n      jump\t// in\n    tag_194:\n        /* \"#utility.yul\":6277:6351   */\n      swap2\n      pop\n        /* \"#utility.yul\":6360:6453   */\n      tag_195\n        /* \"#utility.yul\":6449:6452   */\n      dup3\n        /* \"#utility.yul\":6360:6453   */\n      tag_86\n      jump\t// in\n    tag_195:\n        /* \"#utility.yul\":6478:6480   */\n      0x20\n        /* \"#utility.yul\":6473:6476   */\n      dup3\n        /* \"#utility.yul\":6469:6481   */\n      add\n        /* \"#utility.yul\":6462:6481   */\n      swap1\n      pop\n        /* \"#utility.yul\":6121:6487   */\n      swap2\n      swap1\n      pop\n      jump\t// out\n        /* \"#utility.yul\":6493:6912   */\n    tag_26:\n        /* \"#utility.yul\":6659:6663   */\n      0x00\n        /* \"#utility.yul\":6697:6699   */\n      0x20\n        /* \"#utility.yul\":6686:6695   */\n      dup3\n        /* \"#utility.yul\":6682:6700   */\n      add\n        /* \"#utility.yul\":6674:6700   */\n      swap1\n      pop\n        /* \"#utility.yul\":6746:6755   */\n      dup2\n        /* \"#utility.yul\":6740:6744   */\n      dup2\n        /* \"#utility.yul\":6736:6756   */\n      sub\n        /* \"#utility.yul\":6732:6733   */\n      0x00\n        /* \"#utility.yul\":6721:6730   */\n      dup4\n        /* \"#utility.yul\":6717:6734   */\n      add\n        /* \"#utility.yul\":6710:6757   */\n      mstore\n        /* \"#utility.yul\":6774:6905   */\n      tag_197\n        /* \"#utility.yul\":6900:6904   */\n      dup2\n        /* \"#utility.yul\":6774:6905   */\n      tag_87\n      jump\t// in\n    tag_197:\n        /* \"#utility.yul\":6766:6905   */\n      swap1\n      pop\n        /* \"#utility.yul\":6493:6912   */\n      swap2\n      swap1\n      pop\n      jump\t// out\n        /* \"#utility.yul\":6918:7017   */\n    tag_88:\n        /* \"#utility.yul\":6970:6976   */\n      0x00\n        /* \"#utility.yul\":7004:7009   */\n      dup2\n        /* \"#utility.yul\":6998:7010   */\n      mload\n        /* \"#utility.yul\":6988:7010   */\n      swap1\n      pop\n        /* \"#utility.yul\":6918:7017   */\n      swap2\n      swap1\n      pop\n      jump\t// out\n        /* \"#utility.yul\":7023:7203   */\n    tag_89:\n        /* \"#utility.yul\":7071:7148   */\n      0x4e487b7100000000000000000000000000000000000000000000000000000000\n        /* \"#utility.yul\":7068:7069   */\n      0x00\n        /* \"#utility.yul\":7061:7149   */\n      mstore\n        /* \"#utility.yul\":7168:7172   */\n      0x22\n        /* \"#utility.yul\":7165:7166   */\n      0x04\n        /* \"#utility.yul\":7158:7173   */\n      mstore\n        /* \"#utility.yul\":7192:7196   */\n      0x24\n        /* \"#utility.yul\":7189:7190   */\n      0x00\n        /* \"#utility.yul\":7182:7197   */\n      revert\n        /* \"#utility.yul\":7209:7529   */\n    tag_90:\n        /* \"#utility.yul\":7253:7259   */\n      0x00\n        /* \"#utility.yul\":7290:7291   */\n      0x02\n        /* \"#utility.yul\":7284:7288   */\n      dup3\n        /* \"#utility.yul\":7280:7292   */\n      div\n        /* \"#utility.yul\":7270:7292   */\n      swap1\n      pop\n        /* \"#utility.yul\":7337:7338   */\n      0x01\n        /* \"#utility.yul\":7331:7335   */\n      dup3\n        /* \"#utility.yul\":7327:7339   */\n      and\n        /* \"#utility.yul\":7358:7376   */\n      dup1\n        /* \"#utility.yul\":7348:7429   */\n      tag_201\n      jumpi\n        /* \"#utility.yul\":7414:7418   */\n      0x7f\n        /* \"#utility.yul\":7406:7412   */\n      dup3\n        /* \"#utility.yul\":7402:7419   */\n      and\n        /* \"#utility.yul\":7392:7419   */\n      swap2\n      pop\n        /* \"#utility.yul\":7348:7429   */\n    tag_201:\n        /* \"#utility.yul\":7476:7478   */\n      0x20\n        /* \"#utility.yul\":7468:7474   */\n      dup3\n        /* \"#utility.yul\":7465:7479   */\n      lt\n        /* \"#utility.yul\":7445:7463   */\n      dup2\n        /* \"#utility.yul\":7442:7480   */\n      sub\n        /* \"#utility.yul\":7439:7523   */\n      tag_202\n      jumpi\n        /* \"#utility.yul\":7495:7513   */\n      tag_203\n      tag_89\n      jump\t// in\n    tag_203:\n        /* \"#utility.yul\":7439:7523   */\n    tag_202:\n        /* \"#utility.yul\":7260:7529   */\n      pop\n        /* \"#utility.yul\":7209:7529   */\n      swap2\n      swap1\n      pop\n      jump\t// out\n        /* \"#utility.yul\":7535:7676   */\n    tag_91:\n        /* \"#utility.yul\":7584:7588   */\n      0x00\n        /* \"#utility.yul\":7607:7610   */\n      dup2\n        /* \"#utility.yul\":7599:7610   */\n      swap1\n      pop\n        /* \"#utility.yul\":7630:7633   */\n      dup2\n        /* \"#utility.yul\":7627:7628   */\n      0x00\n        /* \"#utility.yul\":7620:7634   */\n      mstore\n        /* \"#utility.yul\":7664:7668   */\n      0x20\n        /* \"#utility.yul\":7661:7662   */\n      0x00\n        /* \"#utility.yul\":7651:7669   */\n      keccak256\n        /* \"#utility.yul\":7643:7669   */\n      swap1\n      pop\n        /* \"#utility.yul\":7535:7676   */\n      swap2\n      swap1\n      pop\n      jump\t// out\n        /* \"#utility.yul\":7682:7775   */\n    tag_92:\n        /* \"#utility.yul\":7719:7725   */\n      0x00\n        /* \"#utility.yul\":7766:7768   */\n      0x20\n        /* \"#utility.yul\":7761:7763   */\n      0x1f\n        /* \"#utility.yul\":7754:7759   */\n      dup4\n        /* \"#utility.yul\":7750:7764   */\n      add\n        /* \"#utility.yul\":7746:7769   */\n      div\n        /* \"#utility.yul\":7736:7769   */\n      swap1\n      pop\n        /* \"#utility.yul\":7682:7775   */\n      swap2\n      swap1\n      pop\n      jump\t// out\n        /* \"#utility.yul\":7781:7888   */\n    tag_93:\n        /* \"#utility.yul\":7825:7833   */\n      0x00\n        /* \"#utility.yul\":7875:7880   */\n      dup3\n        /* \"#utility.yul\":7869:7873   */\n      dup3\n        /* \"#utility.yul\":7865:7881   */\n      shl\n        /* \"#utility.yul\":7844:7881   */\n      swap1\n      pop\n        /* \"#utility.yul\":7781:7888   */\n      swap3\n      swap2\n      pop\n      pop\n      jump\t// out\n        /* \"#utility.yul\":7894:8287   */\n    tag_94:\n        /* \"#utility.yul\":7963:7969   */\n      0x00\n        /* \"#utility.yul\":8013:8014   */\n      0x08\n        /* \"#utility.yul\":8001:8011   */\n      dup4\n        /* \"#utility.yul\":7997:8015   */\n      mul\n        /* \"#utility.yul\":8036:8133   */\n      tag_208\n        /* \"#utility.yul\":8066:8132   */\n      0xffffffffffffffffffffffffffffffffffffffffffffffffffffffffffffffff\n        /* \"#utility.yul\":8055:8064   */\n      dup3\n        /* \"#utility.yul\":8036:8133   */\n      tag_93\n      jump\t// in\n    tag_208:\n        /* \"#utility.yul\":8154:8193   */\n      tag_209\n        /* \"#utility.yul\":8184:8192   */\n      dup7\n        /* \"#utility.yul\":8173:8182   */\n      dup4\n        /* \"#utility.yul\":8154:8193   */\n      tag_93\n      jump\t// in\n    tag_209:\n        /* \"#utility.yul\":8142:8193   */\n      swap6\n      pop\n        /* \"#utility.yul\":8226:8230   */\n      dup1\n        /* \"#utility.yul\":8222:8231   */\n      not\n        /* \"#utility.yul\":8215:8220   */\n      dup5\n        /* \"#utility.yul\":8211:8232   */\n      and\n        /* \"#utility.yul\":8202:8232   */\n      swap4\n      pop\n        /* \"#utility.yul\":8275:8279   */\n      dup1\n        /* \"#utility.yul\":8265:8273   */\n      dup7\n        /* \"#utility.yul\":8261:8280   */\n      and\n        /* \"#utility.yul\":8254:8259   */\n      dup5\n        /* \"#utility.yul\":8251:8281   */\n      or\n        /* \"#utility.yul\":8241:8281   */\n      swap3\n      pop\n        /* \"#utility.yul\":7970:8287   */\n      pop\n      pop\n        /* \"#utility.yul\":7894:8287   */\n      swap4\n      swap3\n      pop\n      pop\n      pop\n      jump\t// out\n        /* \"#utility.yul\":8293:8353   */\n    tag_95:\n        /* \"#utility.yul\":8321:8324   */\n      0x00\n        /* \"#utility.yul\":8342:8347   */\n      dup2\n        /* \"#utility.yul\":8335:8347   */\n      swap1\n      pop\n        /* \"#utility.yul\":8293:8353   */\n      swap2\n      swap1\n      pop\n      jump\t// out\n        /* \"#utility.yul\":8359:8501   */\n    tag_96:\n        /* \"#utility.yul\":8409:8418   */\n      0x00\n        /* \"#utility.yul\":8442:8495   */\n      tag_212\n        /* \"#utility.yul\":8460:8494   */\n      tag_213\n        /* \"#utility.yul\":8469:8493   */\n      tag_214\n        /* \"#utility.yul\":8487:8492   */\n      dup5\n        /* \"#utility.yul\":8469:8493   */\n      tag_74\n      jump\t// in\n    tag_214:\n        /* \"#utility.yul\":8460:8494   */\n      tag_95\n      jump\t// in\n    tag_213:\n        /* \"#utility.yul\":8442:8495   */\n      tag_74\n      jump\t// in\n    tag_212:\n        /* \"#utility.yul\":8429:8495   */\n      swap1\n      pop\n        /* \"#utility.yul\":8359:8501   */\n      swap2\n      swap1\n      pop\n      jump\t// out\n        /* \"#utility.yul\":8507:8582   */\n    tag_97:\n        /* \"#utility.yul\":8550:8553   */\n      0x00\n        /* \"#utility.yul\":8571:8576   */\n      dup2\n        /* \"#utility.yul\":8564:8576   */\n      swap1\n      pop\n        /* \"#utility.yul\":8507:8582   */\n      swap2\n      swap1\n      pop\n      jump\t// out\n        /* \"#utility.yul\":8588:8857   */\n    tag_98:\n        /* \"#utility.yul\":8698:8737   */\n      tag_217\n        /* \"#utility.yul\":8729:8736   */\n      dup4\n        /* \"#utility.yul\":8698:8737   */\n      tag_96\n      jump\t// in\n    tag_217:\n        /* \"#utility.yul\":8759:8850   */\n      tag_218\n        /* \"#utility.yul\":8808:8849   */\n      tag_219\n        /* \"#utility.yul\":8832:8848   */\n      dup3\n        /* \"#utility.yul\":8808:8849   */\n      tag_97\n      jump\t// in\n    tag_219:\n        /* \"#utility.yul\":8800:8806   */\n      dup5\n        /* \"#utility.yul\":8793:8797   */\n      dup5\n        /* \"#utility.yul\":8787:8798   */\n      sload\n        /* \"#utility.yul\":8759:8850   */\n      tag_94\n      jump\t// in\n    tag_218:\n        /* \"#utility.yul\":8753:8757   */\n      dup3\n        /* \"#utility.yul\":8746:8851   */\n      sstore\n        /* \"#utility.yul\":8664:8857   */\n      pop\n        /* \"#utility.yul\":8588:8857   */\n      pop\n      pop\n      pop\n      jump\t// out\n        /* \"#utility.yul\":8863:8936   */\n    tag_99:\n        /* \"#utility.yul\":8908:8911   */\n      0x00\n        /* \"#utility.yul\":8929:8930   */\n      0x00\n        /* \"#utility.yul\":8922:8930   */\n      swap1\n      pop\n        /* \"#utility.yul\":8863:8936   */\n      swap1\n      jump\t// out\n        /* \"#utility.yul\":8942:9131   */\n    tag_100:\n        /* \"#utility.yul\":9019:9051   */\n      tag_222\n      tag_99\n      jump\t// in\n    tag_222:\n        /* \"#utility.yul\":9060:9125   */\n      tag_223\n        /* \"#utility.yul\":9118:9124   */\n      dup2\n        /* \"#utility.yul\":9110:9116   */\n      dup5\n        /* \"#utility.yul\":9104:9108   */\n      dup5\n        /* \"#utility.yul\":9060:9125   */\n      tag_98\n      jump\t// in\n    tag_223:\n        /* \"#utility.yul\":8995:9131   */\n      pop\n        /* \"#utility.yul\":8942:9131   */\n      pop\n      pop\n      jump\t// out\n        /* \"#utility.yul\":9137:9323   */\n    tag_101:\n        /* \"#utility.yul\":9197:9317   */\n    tag_225:\n        /* \"#utility.yul\":9214:9217   */\n      dup2\n        /* \"#utility.yul\":9207:9212   */\n      dup2\n        /* \"#utility.yul\":9204:9218   */\n      lt\n        /* \"#utility.yul\":9197:9317   */\n      iszero\n      tag_227\n      jumpi\n        /* \"#utility.yul\":9268:9307   */\n      tag_228\n        /* \"#utility.yul\":9305:9306   */\n      0x00\n        /* \"#utility.yul\":9298:9303   */\n      dup3\n        /* \"#utility.yul\":9268:9307   */\n      tag_100\n      jump\t// in\n    tag_228:\n        /* \"#utility.yul\":9241:9242   */\n      0x01\n        /* \"#utility.yul\":9234:9239   */\n      dup2\n        /* \"#utility.yul\":9230:9243   */\n      add\n        /* \"#utility.yul\":9221:9243   */\n      swap1\n      pop\n        /* \"#utility.yul\":9197:9317   */\n      jump(tag_225)\n    tag_227:\n        /* \"#utility.yul\":9137:9323   */\n      pop\n      pop\n      jump\t// out\n        /* \"#utility.yul\":9329:9872   */\n    tag_102:\n        /* \"#utility.yul\":9430:9432   */\n      0x1f\n        /* \"#utility.yul\":9425:9428   */\n      dup3\n        /* \"#utility.yul\":9422:9433   */\n      gt\n        /* \"#utility.yul\":9419:9865   */\n      iszero\n      tag_230\n      jumpi\n        /* \"#utility.yul\":9464:9502   */\n      tag_231\n        /* \"#utility.yul\":9496:9501   */\n      dup2\n        /* \"#utility.yul\":9464:9502   */\n      tag_91\n      jump\t// in\n    tag_231:\n        /* \"#utility.yul\":9548:9577   */\n      tag_232\n        /* \"#utility.yul\":9566:9576   */\n      dup5\n        /* \"#utility.yul\":9548:9577   */\n      tag_92\n      jump\t// in\n    tag_232:\n        /* \"#utility.yul\":9538:9546   */\n      dup2\n        /* \"#utility.yul\":9534:9578   */\n      add\n        /* \"#utility.yul\":9731:9733   */\n      0x20\n        /* \"#utility.yul\":9719:9729   */\n      dup6\n        /* \"#utility.yul\":9716:9734   */\n      lt\n        /* \"#utility.yul\":9713:9762   */\n      iszero\n      tag_233\n      jumpi\n        /* \"#utility.yul\":9752:9760   */\n      dup2\n        /* \"#utility.yul\":9737:9760   */\n      swap1\n      pop\n        /* \"#utility.yul\":9713:9762   */\n    tag_233:\n        /* \"#utility.yul\":9775:9855   */\n      tag_234\n        /* \"#utility.yul\":9831:9853   */\n      tag_235\n        /* \"#utility.yul\":9849:9852   */\n      dup6\n        /* \"#utility.yul\":9831:9853   */\n      tag_92\n      jump\t// in\n    tag_235:\n        /* \"#utility.yul\":9821:9829   */\n      dup4\n        /* \"#utility.yul\":9817:9854   */\n      add\n        /* \"#utility.yul\":9804:9815   */\n      dup3\n        /* \"#utility.yul\":9775:9855   */\n      tag_101\n      jump\t// in\n    tag_234:\n        /* \"#utility.yul\":9434:9865   */\n      pop\n      pop\n        /* \"#utility.yul\":9419:9865   */\n    tag_230:\n        /* \"#utility.yul\":9329:9872   */\n      pop\n      pop\n      pop\n      jump\t// out\n        /* \"#utility.yul\":9878:9995   */\n    tag_103:\n        /* \"#utility.yul\":9932:9940   */\n      0x00\n        /* \"#utility.yul\":9982:9987   */\n      dup3\n        /* \"#utility.yul\":9976:9980   */\n      dup3\n        /* \"#utility.yul\":9972:9988   */\n      shr\n        /* \"#utility.yul\":9951:9988   */\n      swap1\n      pop\n        /* \"#utility.yul\":9878:9995   */\n      swap3\n      swap2\n      pop\n      pop\n      jump\t// out\n        /* \"#utility.yul\":10001:10170   */\n    tag_104:\n        /* \"#utility.yul\":10045:10051   */\n      0x00\n        /* \"#utility.yul\":10078:10129   */\n      tag_238\n        /* \"#utility.yul\":10126:10127   */\n      0x00\n        /* \"#utility.yul\":10122:10128   */\n      not\n        /* \"#utility.yul\":10114:10119   */\n      dup5\n        /* \"#utility.yul\":10111:10112   */\n      0x08\n        /* \"#utility.yul\":10107:10120   */\n      mul\n        /* \"#utility.yul\":10078:10129   */\n      tag_103\n      jump\t// in\n    tag_238:\n        /* \"#utility.yul\":10074:10130   */\n      not\n        /* \"#utility.yul\":10159:10163   */\n      dup1\n        /* \"#utility.yul\":10153:10157   */\n      dup4\n        /* \"#utility.yul\":10149:10164   */\n      and\n        /* \"#utility.yul\":10139:10164   */\n      swap2\n      pop\n        /* \"#utility.yul\":10052:10170   */\n      pop\n        /* \"#utility.yul\":10001:10170   */\n      swap3\n      swap2\n      pop\n      pop\n      jump\t// out\n        /* \"#utility.yul\":10175:10470   */\n    tag_105:\n        /* \"#utility.yul\":10251:10255   */\n      0x00\n        /* \"#utility.yul\":10397:10426   */\n      tag_240\n        /* \"#utility.yul\":10422:10425   */\n      dup4\n        /* \"#utility.yul\":10416:10420   */\n      dup4\n        /* \"#utility.yul\":10397:10426   */\n      tag_104\n      jump\t// in\n    tag_240:\n        /* \"#utility.yul\":10389:10426   */\n      swap2\n      pop\n        /* \"#utility.yul\":10459:10462   */\n      dup3\n        /* \"#utility.yul\":10456:10457   */\n      0x02\n        /* \"#utility.yul\":10452:10463   */\n      mul\n        /* \"#utility.yul\":10446:10450   */\n      dup3\n        /* \"#utility.yul\":10443:10464   */\n      or\n        /* \"#utility.yul\":10435:10464   */\n      swap1\n      pop\n        /* \"#utility.yul\":10175:10470   */\n      swap3\n      swap2\n      pop\n      pop\n      jump\t// out\n        /* \"#utility.yul\":10475:11870   */\n    tag_28:\n        /* \"#utility.yul\":10592:10629   */\n      tag_242\n        /* \"#utility.yul\":10625:10628   */\n      dup3\n        /* \"#utility.yul\":10592:10629   */\n      tag_88\n      jump\t// in\n    tag_242:\n        /* \"#utility.yul\":10694:10712   */\n      0xffffffffffffffff\n        /* \"#utility.yul\":10686:10692   */\n      dup2\n        /* \"#utility.yul\":10683:10713   */\n      gt\n        /* \"#utility.yul\":10680:10736   */\n      iszero\n      tag_243\n      jumpi\n        /* \"#utility.yul\":10716:10734   */\n      tag_244\n      tag_67\n      jump\t// in\n    tag_244:\n        /* \"#utility.yul\":10680:10736   */\n    tag_243:\n        /* \"#utility.yul\":10760:10798   */\n      tag_245\n        /* \"#utility.yul\":10792:10796   */\n      dup3\n        /* \"#utility.yul\":10786:10797   */\n      sload\n        /* \"#utility.yul\":10760:10798   */\n      tag_90\n      jump\t// in\n    tag_245:\n        /* \"#utility.yul\":10845:10912   */\n      tag_246\n        /* \"#utility.yul\":10905:10911   */\n      dup3\n        /* \"#utility.yul\":10897:10903   */\n      dup3\n        /* \"#utility.yul\":10891:10895   */\n      dup6\n        /* \"#utility.yul\":10845:10912   */\n      tag_102\n      jump\t// in\n    tag_246:\n        /* \"#utility.yul\":10939:10940   */\n      0x00\n        /* \"#utility.yul\":10963:10967   */\n      0x20\n        /* \"#utility.yul\":10950:10967   */\n      swap1\n      pop\n        /* \"#utility.yul\":10995:10997   */\n      0x1f\n        /* \"#utility.yul\":10987:10993   */\n      dup4\n        /* \"#utility.yul\":10984:10998   */\n      gt\n        /* \"#utility.yul\":11012:11013   */\n      0x01\n        /* \"#utility.yul\":11007:11625   */\n      dup2\n      eq\n      tag_248\n      jumpi\n        /* \"#utility.yul\":11669:11670   */\n      0x00\n        /* \"#utility.yul\":11686:11692   */\n      dup5\n        /* \"#utility.yul\":11683:11760   */\n      iszero\n      tag_249\n      jumpi\n        /* \"#utility.yul\":11735:11744   */\n      dup3\n        /* \"#utility.yul\":11730:11733   */\n      dup8\n        /* \"#utility.yul\":11726:11745   */\n      add\n        /* \"#utility.yul\":11720:11746   */\n      mload\n        /* \"#utility.yul\":11711:11746   */\n      swap1\n      pop\n        /* \"#utility.yul\":11683:11760   */\n    tag_249:\n        /* \"#utility.yul\":11786:11853   */\n      tag_250\n        /* \"#utility.yul\":11846:11852   */\n      dup6\n        /* \"#utility.yul\":11839:11844   */\n      dup3\n        /* \"#utility.yul\":11786:11853   */\n      tag_105\n      jump\t// in\n    tag_250:\n        /* \"#utility.yul\":11780:11784   */\n      dup7\n        /* \"#utility.yul\":11773:11854   */\n      sstore\n        /* \"#utility.yul\":11642:11864   */\n      pop\n        /* \"#utility.yul\":10977:11864   */\n      jump(tag_247)\n        /* \"#utility.yul\":11007:11625   */\n    tag_248:\n        /* \"#utility.yul\":11059:11063   */\n      0x1f\n        /* \"#utility.yul\":11055:11064   */\n      not\n        /* \"#utility.yul\":11047:11053   */\n      dup5\n        /* \"#utility.yul\":11043:11065   */\n      and\n        /* \"#utility.yul\":11093:11130   */\n      tag_251\n        /* \"#utility.yul\":11125:11129   */\n      dup7\n        /* \"#utility.yul\":11093:11130   */\n      tag_91\n      jump\t// in\n    tag_251:\n        /* \"#utility.yul\":11152:11153   */\n      0x00\n        /* \"#utility.yul\":11166:11374   */\n    tag_252:\n        /* \"#utility.yul\":11180:11187   */\n      dup3\n        /* \"#utility.yul\":11177:11178   */\n      dup2\n        /* \"#utility.yul\":11174:11188   */\n      lt\n        /* \"#utility.yul\":11166:11374   */\n      iszero\n      tag_254\n      jumpi\n        /* \"#utility.yul\":11259:11268   */\n      dup5\n        /* \"#utility.yul\":11254:11257   */\n      dup10\n        /* \"#utility.yul\":11250:11269   */\n      add\n        /* \"#utility.yul\":11244:11270   */\n      mload\n        /* \"#utility.yul\":11236:11242   */\n      dup3\n        /* \"#utility.yul\":11229:11271   */\n      sstore\n        /* \"#utility.yul\":11310:11311   */\n      0x01\n        /* \"#utility.yul\":11302:11308   */\n      dup3\n        /* \"#utility.yul\":11298:11312   */\n      add\n        /* \"#utility.yul\":11288:11312   */\n      swap2\n      pop\n        /* \"#utility.yul\":11357:11359   */\n      0x20\n        /* \"#utility.yul\":11346:11355   */\n      dup6\n        /* \"#utility.yul\":11342:11360   */\n      add\n        /* \"#utility.yul\":11329:11360   */\n      swap5\n      pop\n        /* \"#utility.yul\":11203:11207   */\n      0x20\n        /* \"#utility.yul\":11200:11201   */\n      dup2\n        /* \"#utility.yul\":11196:11208   */\n      add\n        /* \"#utility.yul\":11191:11208   */\n      swap1\n      pop\n        /* \"#utility.yul\":11166:11374   */\n      jump(tag_252)\n    tag_254:\n        /* \"#utility.yul\":11402:11408   */\n      dup7\n        /* \"#utility.yul\":11393:11400   */\n      dup4\n        /* \"#utility.yul\":11390:11409   */\n      lt\n        /* \"#utility.yul\":11387:11566   */\n      iszero\n      tag_255\n      jumpi\n        /* \"#utility.yul\":11460:11469   */\n      dup5\n        /* \"#utility.yul\":11455:11458   */\n      dup10\n        /* \"#utility.yul\":11451:11470   */\n      add\n        /* \"#utility.yul\":11445:11471   */\n      mload\n        /* \"#utility.yul\":11503:11551   */\n      tag_256\n        /* \"#utility.yul\":11545:11549   */\n      0x1f\n        /* \"#utility.yul\":11537:11543   */\n      dup10\n        /* \"#utility.yul\":11533:11550   */\n      and\n        /* \"#utility.yul\":11522:11531   */\n      dup3\n        /* \"#utility.yul\":11503:11551   */\n      tag_104\n      jump\t// in\n    tag_256:\n        /* \"#utility.yul\":11495:11501   */\n      dup4\n        /* \"#utility.yul\":11488:11552   */\n      sstore\n        /* \"#utility.yul\":11410:11566   */\n      pop\n        /* \"#utility.yul\":11387:11566   */\n    tag_255:\n        /* \"#utility.yul\":11612:11613   */\n      0x01\n        /* \"#utility.yul\":11608:11609   */\n      0x02\n        /* \"#utility.yul\":11600:11606   */\n      dup9\n        /* \"#utility.yul\":11596:11610   */\n      mul\n        /* \"#utility.yul\":11592:11614   */\n      add\n        /* \"#utility.yul\":11586:11590   */\n      dup9\n        /* \"#utility.yul\":11579:11615   */\n      sstore\n        /* \"#utility.yul\":11014:11625   */\n      pop\n      pop\n      pop\n        /* \"#utility.yul\":10977:11864   */\n    tag_247:\n      pop\n        /* \"#utility.yul\":10567:11870   */\n      pop\n      pop\n      pop\n        /* \"#utility.yul\":10475:11870   */\n      pop\n      pop\n      jump\t// out\n        /* \"#utility.yul\":11876:11994   */\n    tag_106:\n        /* \"#utility.yul\":11963:11987   */\n      tag_258\n        /* \"#utility.yul\":11981:11986   */\n      dup2\n        /* \"#utility.yul\":11963:11987   */\n      tag_77\n      jump\t// in\n    tag_258:\n        /* \"#utility.yul\":11958:11961   */\n      dup3\n        /* \"#utility.yul\":11951:11988   */\n      mstore\n        /* \"#utility.yul\":11876:11994   */\n      pop\n      pop\n      jump\t// out\n        /* \"#utility.yul\":12000:12139   */\n    tag_107:\n        /* \"#utility.yul\":12089:12095   */\n      dup3\n        /* \"#utility.yul\":12084:12087   */\n      dup2\n        /* \"#utility.yul\":12079:12082   */\n      dup4\n        /* \"#utility.yul\":12073:12096   */\n      mcopy\n        /* \"#utility.yul\":12130:12131   */\n      0x00\n        /* \"#utility.yul\":12121:12127   */\n      dup4\n        /* \"#utility.yul\":12116:12119   */\n      dup4\n        /* \"#utility.yul\":12112:12128   */\n      add\n        /* \"#utility.yul\":12105:12132   */\n      mstore\n        /* \"#utility.yul\":12000:12139   */\n      pop\n      pop\n      pop\n      jump\t// out\n        /* \"#utility.yul\":12145:12522   */\n    tag_108:\n        /* \"#utility.yul\":12233:12236   */\n      0x00\n        /* \"#utility.yul\":12261:12300   */\n      tag_261\n        /* \"#utility.yul\":12294:12299   */\n      dup3\n        /* \"#utility.yul\":12261:12300   */\n      tag_88\n      jump\t// in\n    tag_261:\n        /* \"#utility.yul\":12316:12387   */\n      tag_262\n        /* \"#utility.yul\":12380:12386   */\n      dup2\n        /* \"#utility.yul\":12375:12378   */\n      dup6\n        /* \"#utility.yul\":12316:12387   */\n      tag_85\n      jump\t// in\n    tag_262:\n        /* \"#utility.yul\":12309:12387   */\n      swap4\n      pop\n        /* \"#utility.yul\":12396:12461   */\n      tag_263\n        /* \"#utility.yul\":12454:12460   */\n      dup2\n        /* \"#utility.yul\":12449:12452   */\n      dup6\n        /* \"#utility.yul\":12442:12446   */\n      0x20\n        /* \"#utility.yul\":12435:12440   */\n      dup7\n        /* \"#utility.yul\":12431:12447   */\n      add\n        /* \"#utility.yul\":12396:12461   */\n      tag_107\n      jump\t// in\n    tag_263:\n        /* \"#utility.yul\":12486:12515   */\n      tag_264\n        /* \"#utility.yul\":12508:12514   */\n      dup2\n        /* \"#utility.yul\":12486:12515   */\n      tag_66\n      jump\t// in\n    tag_264:\n        /* \"#utility.yul\":12481:12484   */\n      dup5\n        /* \"#utility.yul\":12477:12516   */\n      add\n        /* \"#utility.yul\":12470:12516   */\n      swap2\n      pop\n        /* \"#utility.yul\":12237:12522   */\n      pop\n        /* \"#utility.yul\":12145:12522   */\n      swap3\n      swap2\n      pop\n      pop\n      jump\t// out\n        /* \"#utility.yul\":12528:12951   */\n    tag_30:\n        /* \"#utility.yul\":12669:12673   */\n      0x00\n        /* \"#utility.yul\":12707:12709   */\n      0x40\n        /* \"#utility.yul\":12696:12705   */\n      dup3\n        /* \"#utility.yul\":12692:12710   */\n      add\n        /* \"#utility.yul\":12684:12710   */\n      swap1\n      pop\n        /* \"#utility.yul\":12720:12791   */\n      tag_266\n        /* \"#utility.yul\":12788:12789   */\n      0x00\n        /* \"#utility.yul\":12777:12786   */\n      dup4\n        /* \"#utility.yul\":12773:12790   */\n      add\n        /* \"#utility.yul\":12764:12770   */\n      dup6\n        /* \"#utility.yul\":12720:12791   */\n      tag_106\n      jump\t// in\n    tag_266:\n        /* \"#utility.yul\":12838:12847   */\n      dup2\n        /* \"#utility.yul\":12832:12836   */\n      dup2\n        /* \"#utility.yul\":12828:12848   */\n      sub\n        /* \"#utility.yul\":12823:12825   */\n      0x20\n        /* \"#utility.yul\":12812:12821   */\n      dup4\n        /* \"#utility.yul\":12808:12826   */\n      add\n        /* \"#utility.yul\":12801:12849   */\n      mstore\n        /* \"#utility.yul\":12866:12944   */\n      tag_267\n        /* \"#utility.yul\":12939:12943   */\n      dup2\n        /* \"#utility.yul\":12930:12936   */\n      dup5\n        /* \"#utility.yul\":12866:12944   */\n      tag_108\n      jump\t// in\n    tag_267:\n        /* \"#utility.yul\":12858:12944   */\n      swap1\n      pop\n        /* \"#utility.yul\":12528:12951   */\n      swap4\n      swap3\n      pop\n      pop\n      pop\n      jump\t// out\n        /* \"#utility.yul\":12957:13128   */\n    tag_109:\n        /* \"#utility.yul\":13097:13120   */\n      0x4f6e6c79204f776e657220697320616c6c6f7765640000000000000000000000\n        /* \"#utility.yul\":13093:13094   */\n      0x00\n        /* \"#utility.yul\":13085:13091   */\n      dup3\n        /* \"#utility.yul\":13081:13095   */\n      add\n        /* \"#utility.yul\":13074:13121   */\n      mstore\n        /* \"#utility.yul\":12957:13128   */\n      pop\n      jump\t// out\n        /* \"#utility.yul\":13134:13500   */\n    tag_110:\n        /* \"#utility.yul\":13276:13279   */\n      0x00\n        /* \"#utility.yul\":13297:13364   */\n      tag_270\n        /* \"#utility.yul\":13361:13363   */\n      0x15\n        /* \"#utility.yul\":13356:13359   */\n      dup4\n        /* \"#utility.yul\":13297:13364   */\n      tag_85\n      jump\t// in\n    tag_270:\n        /* \"#utility.yul\":13290:13364   */\n      swap2\n      pop\n        /* \"#utility.yul\":13373:13466   */\n      tag_271\n        /* \"#utility.yul\":13462:13465   */\n      dup3\n        /* \"#utility.yul\":13373:13466   */\n      tag_109\n      jump\t// in\n    tag_271:\n        /* \"#utility.yul\":13491:13493   */\n      0x20\n        /* \"#utility.yul\":13486:13489   */\n      dup3\n        /* \"#utility.yul\":13482:13494   */\n      add\n        /* \"#utility.yul\":13475:13494   */\n      swap1\n      pop\n        /* \"#utility.yul\":13134:13500   */\n      swap2\n      swap1\n      pop\n      jump\t// out\n        /* \"#utility.yul\":13506:13925   */\n    tag_35:\n        /* \"#utility.yul\":13672:13676   */\n      0x00\n        /* \"#utility.yul\":13710:13712   */\n      0x20\n        /* \"#utility.yul\":13699:13708   */\n      dup3\n        /* \"#utility.yul\":13695:13713   */\n      add\n        /* \"#utility.yul\":13687:13713   */\n      swap1\n      pop\n        /* \"#utility.yul\":13759:13768   */\n      dup2\n        /* \"#utility.yul\":13753:13757   */\n      dup2\n        /* \"#utility.yul\":13749:13769   */\n      sub\n        /* \"#utility.yul\":13745:13746   */\n      0x00\n        /* \"#utility.yul\":13734:13743   */\n      dup4\n        /* \"#utility.yul\":13730:13747   */\n      add\n        /* \"#utility.yul\":13723:13770   */\n      mstore\n        /* \"#utility.yul\":13787:13918   */\n      tag_273\n        /* \"#utility.yul\":13913:13917   */\n      dup2\n        /* \"#utility.yul\":13787:13918   */\n      tag_110\n      jump\t// in\n    tag_273:\n        /* \"#utility.yul\":13779:13918   */\n      swap1\n      pop\n        /* \"#utility.yul\":13506:13925   */\n      swap2\n      swap1\n      pop\n      jump\t// out\n        /* \"#utility.yul\":13931:14095   */\n    tag_111:\n        /* \"#utility.yul\":14071:14087   */\n      0x55736572206e6f7420666f756e64000000000000000000000000000000000000\n        /* \"#utility.yul\":14067:14068   */\n      0x00\n        /* \"#utility.yul\":14059:14065   */\n      dup3\n        /* \"#utility.yul\":14055:14069   */\n      add\n        /* \"#utility.yul\":14048:14088   */\n      mstore\n        /* \"#utility.yul\":13931:14095   */\n      pop\n      jump\t// out\n        /* \"#utility.yul\":14101:14467   */\n    tag_112:\n        /* \"#utility.yul\":14243:14246   */\n      0x00\n        /* \"#utility.yul\":14264:14331   */\n      tag_276\n        /* \"#utility.yul\":14328:14330   */\n      0x0e\n        /* \"#utility.yul\":14323:14326   */\n      dup4\n        /* \"#utility.yul\":14264:14331   */\n      tag_85\n      jump\t// in\n    tag_276:\n        /* \"#utility.yul\":14257:14331   */\n      swap2\n      pop\n        /* \"#utility.yul\":14340:14433   */\n      tag_277\n        /* \"#utility.yul\":14429:14432   */\n      dup3\n        /* \"#utility.yul\":14340:14433   */\n      tag_111\n      jump\t// in\n    tag_277:\n        /* \"#utility.yul\":14458:14460   */\n      0x20\n        /* \"#utility.yul\":14453:14456   */\n      dup3\n        /* \"#utility.yul\":14449:14461   */\n      add\n        /* \"#utility.yul\":14442:14461   */\n      swap1\n      pop\n        /* \"#utility.yul\":14101:14467   */\n      swap2\n      swap1\n      pop\n      jump\t// out\n        /* \"#utility.yul\":14473:14892   */\n    tag_39:\n        /* \"#utility.yul\":14639:14643   */\n      0x00\n        /* \"#utility.yul\":14677:14679   */\n      0x20\n        /* \"#utility.yul\":14666:14675   */\n      dup3\n        /* \"#utility.yul\":14662:14680   */\n      add\n        /* \"#utility.yul\":14654:14680   */\n      swap1\n      pop\n        /* \"#utility.yul\":14726:14735   */\n      dup2\n        /* \"#utility.yul\":14720:14724   */\n      dup2\n        /* \"#utility.yul\":14716:14736   */\n      sub\n        /* \"#utility.yul\":14712:14713   */\n      0x00\n        /* \"#utility.yul\":14701:14710   */\n      dup4\n        /* \"#utility.yul\":14697:14714   */\n      add\n        /* \"#utility.yul\":14690:14737   */\n      mstore\n        /* \"#utility.yul\":14754:14885   */\n      tag_279\n        /* \"#utility.yul\":14880:14884   */\n      dup2\n        /* \"#utility.yul\":14754:14885   */\n      tag_112\n      jump\t// in\n    tag_279:\n        /* \"#utility.yul\":14746:14885   */\n      swap1\n      pop\n        /* \"#utility.yul\":14473:14892   */\n      swap2\n      swap1\n      pop\n      jump\t// out\n        /* \"#utility.yul\":14898:15078   */\n    tag_43:\n        /* \"#utility.yul\":14946:15023   */\n      0x4e487b7100000000000000000000000000000000000000000000000000000000\n        /* \"#utility.yul\":14943:14944   */\n      0x00\n        /* \"#utility.yul\":14936:15024   */\n      mstore\n        /* \"#utility.yul\":15043:15047   */\n      0x21\n        /* \"#utility.yul\":15040:15041   */\n      0x04\n        /* \"#utility.yul\":15033:15048   */\n      mstore\n        /* \"#utility.yul\":15067:15071   */\n      0x24\n        /* \"#utility.yul\":15064:15065   */\n      0x00\n        /* \"#utility.yul\":15057:15072   */\n      revert\n        /* \"#utility.yul\":15084:15203   */\n    tag_113:\n        /* \"#utility.yul\":15171:15172   */\n      0x03\n        /* \"#utility.yul\":15164:15169   */\n      dup2\n        /* \"#utility.yul\":15161:15173   */\n      lt\n        /* \"#utility.yul\":15151:15197   */\n      tag_282\n      jumpi\n        /* \"#utility.yul\":15177:15195   */\n      tag_283\n      tag_43\n      jump\t// in\n    tag_283:\n        /* \"#utility.yul\":15151:15197   */\n    tag_282:\n        /* \"#utility.yul\":15084:15203   */\n      pop\n      jump\t// out\n        /* \"#utility.yul\":15209:15348   */\n    tag_114:\n        /* \"#utility.yul\":15260:15267   */\n      0x00\n        /* \"#utility.yul\":15289:15294   */\n      dup2\n        /* \"#utility.yul\":15278:15294   */\n      swap1\n      pop\n        /* \"#utility.yul\":15295:15342   */\n      tag_285\n        /* \"#utility.yul\":15336:15341   */\n      dup3\n        /* \"#utility.yul\":15295:15342   */\n      tag_113\n      jump\t// in\n    tag_285:\n        /* \"#utility.yul\":15209:15348   */\n      swap2\n      swap1\n      pop\n      jump\t// out\n        /* \"#utility.yul\":15354:15493   */\n    tag_115:\n        /* \"#utility.yul\":15416:15425   */\n      0x00\n        /* \"#utility.yul\":15449:15487   */\n      tag_287\n        /* \"#utility.yul\":15481:15486   */\n      dup3\n        /* \"#utility.yul\":15449:15487   */\n      tag_114\n      jump\t// in\n    tag_287:\n        /* \"#utility.yul\":15436:15487   */\n      swap1\n      pop\n        /* \"#utility.yul\":15354:15493   */\n      swap2\n      swap1\n      pop\n      jump\t// out\n        /* \"#utility.yul\":15499:15654   */\n    tag_116:\n        /* \"#utility.yul\":15598:15647   */\n      tag_289\n        /* \"#utility.yul\":15641:15646   */\n      dup2\n        /* \"#utility.yul\":15598:15647   */\n      tag_115\n      jump\t// in\n    tag_289:\n        /* \"#utility.yul\":15593:15596   */\n      dup3\n        /* \"#utility.yul\":15586:15648   */\n      mstore\n        /* \"#utility.yul\":15499:15654   */\n      pop\n      pop\n      jump\t// out\n        /* \"#utility.yul\":15660:16016   */\n    tag_48:\n        /* \"#utility.yul\":15793:15797   */\n      0x00\n        /* \"#utility.yul\":15831:15833   */\n      0x40\n        /* \"#utility.yul\":15820:15829   */\n      dup3\n        /* \"#utility.yul\":15816:15834   */\n      add\n        /* \"#utility.yul\":15808:15834   */\n      swap1\n      pop\n        /* \"#utility.yul\":15844:15915   */\n      tag_291\n        /* \"#utility.yul\":15912:15913   */\n      0x00\n        /* \"#utility.yul\":15901:15910   */\n      dup4\n        /* \"#utility.yul\":15897:15914   */\n      add\n        /* \"#utility.yul\":15888:15894   */\n      dup6\n        /* \"#utility.yul\":15844:15915   */\n      tag_106\n      jump\t// in\n    tag_291:\n        /* \"#utility.yul\":15925:16009   */\n      tag_292\n        /* \"#utility.yul\":16005:16007   */\n      0x20\n        /* \"#utility.yul\":15994:16003   */\n      dup4\n        /* \"#utility.yul\":15990:16008   */\n      add\n        /* \"#utility.yul\":15981:15987   */\n      dup5\n        /* \"#utility.yul\":15925:16009   */\n      tag_116\n      jump\t// in\n    tag_292:\n        /* \"#utility.yul\":15660:16016   */\n      swap4\n      swap3\n      pop\n      pop\n      pop\n      jump\t// out\n        /* \"#utility.yul\":16022:16190   */\n    tag_117:\n        /* \"#utility.yul\":16162:16182   */\n      0x7573657220616c72656164792065786974730000000000000000000000000000\n        /* \"#utility.yul\":16158:16159   */\n      0x00\n        /* \"#utility.yul\":16150:16156   */\n      dup3\n        /* \"#utility.yul\":16146:16160   */\n      add\n        /* \"#utility.yul\":16139:16183   */\n      mstore\n        /* \"#utility.yul\":16022:16190   */\n      pop\n      jump\t// out\n        /* \"#utility.yul\":16196:16562   */\n    tag_118:\n        /* \"#utility.yul\":16338:16341   */\n      0x00\n        /* \"#utility.yul\":16359:16426   */\n      tag_295\n        /* \"#utility.yul\":16423:16425   */\n      0x12\n        /* \"#utility.yul\":16418:16421   */\n      dup4\n        /* \"#utility.yul\":16359:16426   */\n      tag_85\n      jump\t// in\n    tag_295:\n        /* \"#utility.yul\":16352:16426   */\n      swap2\n      pop\n        /* \"#utility.yul\":16435:16528   */\n      tag_296\n        /* \"#utility.yul\":16524:16527   */\n      dup3\n        /* \"#utility.yul\":16435:16528   */\n      tag_117\n      jump\t// in\n    tag_296:\n        /* \"#utility.yul\":16553:16555   */\n      0x20\n        /* \"#utility.yul\":16548:16551   */\n      dup3\n        /* \"#utility.yul\":16544:16556   */\n      add\n        /* \"#utility.yul\":16537:16556   */\n      swap1\n      pop\n        /* \"#utility.yul\":16196:16562   */\n      swap2\n      swap1\n      pop\n      jump\t// out\n        /* \"#utility.yul\":16568:16987   */\n    tag_52:\n        /* \"#utility.yul\":16734:16738   */\n      0x00\n        /* \"#utility.yul\":16772:16774   */\n      0x20\n        /* \"#utility.yul\":16761:16770   */\n      dup3\n        /* \"#utility.yul\":16757:16775   */\n      add\n        /* \"#utility.yul\":16749:16775   */\n      swap1\n      pop\n        /* \"#utility.yul\":16821:16830   */\n      dup2\n        /* \"#utility.yul\":16815:16819   */\n      dup2\n        /* \"#utility.yul\":16811:16831   */\n      sub\n        /* \"#utility.yul\":16807:16808   */\n      0x00\n        /* \"#utility.yul\":16796:16805   */\n      dup4\n        /* \"#utility.yul\":16792:16809   */\n      add\n        /* \"#utility.yul\":16785:16832   */\n      mstore\n        /* \"#utility.yul\":16849:16980   */\n      tag_298\n        /* \"#utility.yul\":16975:16979   */\n      dup2\n        /* \"#utility.yul\":16849:16980   */\n      tag_118\n      jump\t// in\n    tag_298:\n        /* \"#utility.yul\":16841:16980   */\n      swap1\n      pop\n        /* \"#utility.yul\":16568:16987   */\n      swap2\n      swap1\n      pop\n      jump\t// out\n        /* \"#utility.yul\":16993:17526   */\n    tag_60:\n        /* \"#utility.yul\":17162:17166   */\n      0x00\n        /* \"#utility.yul\":17200:17202   */\n      0x60\n        /* \"#utility.yul\":17189:17198   */\n      dup3\n        /* \"#utility.yul\":17185:17203   */\n      add\n        /* \"#utility.yul\":17177:17203   */\n      swap1\n      pop\n        /* \"#utility.yul\":17213:17284   */\n      tag_300\n        /* \"#utility.yul\":17281:17282   */\n      0x00\n        /* \"#utility.yul\":17270:17279   */\n      dup4\n        /* \"#utility.yul\":17266:17283   */\n      add\n        /* \"#utility.yul\":17257:17263   */\n      dup7\n        /* \"#utility.yul\":17213:17284   */\n      tag_106\n      jump\t// in\n    tag_300:\n        /* \"#utility.yul\":17294:17366   */\n      tag_301\n        /* \"#utility.yul\":17362:17364   */\n      0x20\n        /* \"#utility.yul\":17351:17360   */\n      dup4\n        /* \"#utility.yul\":17347:17365   */\n      add\n        /* \"#utility.yul\":17338:17344   */\n      dup6\n        /* \"#utility.yul\":17294:17366   */\n      tag_75\n      jump\t// in\n    tag_301:\n        /* \"#utility.yul\":17413:17422   */\n      dup2\n        /* \"#utility.yul\":17407:17411   */\n      dup2\n        /* \"#utility.yul\":17403:17423   */\n      sub\n        /* \"#utility.yul\":17398:17400   */\n      0x40\n        /* \"#utility.yul\":17387:17396   */\n      dup4\n        /* \"#utility.yul\":17383:17401   */\n      add\n        /* \"#utility.yul\":17376:17424   */\n      mstore\n        /* \"#utility.yul\":17441:17519   */\n      tag_302\n        /* \"#utility.yul\":17514:17518   */\n      dup2\n        /* \"#utility.yul\":17505:17511   */\n      dup5\n        /* \"#utility.yul\":17441:17519   */\n      tag_108\n      jump\t// in\n    tag_302:\n        /* \"#utility.yul\":17433:17519   */\n      swap1\n      pop\n        /* \"#utility.yul\":16993:17526   */\n      swap5\n      swap4\n      pop\n      pop\n      pop\n      pop\n      jump\t// out\n\n    auxdata: 0xa26469706673582212201e07ad766c69100dd13821246bf0c8b042b536b2ab025f594b0479140df5ee2b64736f6c634300081f0033\n}\n",
				"bytecode": {
					"linkReferences": {},
					"object": "6080604052348015600e575f5ffd5b50335f5f6101000a81548173ffffffffffffffffffffffffffffffffffffffff021916908373ffffffffffffffffffffffffffffffffffffffff160217905550610fca8061005b5f395ff3fe608060405234801561000f575f5ffd5b506004361061004a575f3560e01c80630b4f12f61461004e57806312065fe01461006a5780637444144b14610088578063d51af2bf146100a4575b5f5ffd5b610068600480360381019061006391906107ec565b6100c0565b005b6100726101d3565b60405161007f919061084b565b60405180910390f35b6100a2600480360381019061009d91906108f3565b6101da565b005b6100be60048036038101906100b9919061095b565b61045e565b005b60025f3373ffffffffffffffffffffffffffffffffffffffff1673ffffffffffffffffffffffffffffffffffffffff1681526020019081526020015f205f9054906101000a900460ff16610149576040517f08c379a000000000000000000000000000000000000000000000000000000000815260040161014090610a0f565b60405180910390fd5b8060015f3373ffffffffffffffffffffffffffffffffffffffff1673ffffffffffffffffffffffffffffffffffffffff1681526020019081526020015f2060010190816101969190610c34565b507fc0e7f7eebb6ca89e1f6a471cd34bd13814915d40b1a55011c90c9157054753bd33826040516101c8929190610d58565b60405180910390a150565b5f47905090565b5f5f9054906101000a900473ffffffffffffffffffffffffffffffffffffffff1673ffffffffffffffffffffffffffffffffffffffff163373ffffffffffffffffffffffffffffffffffffffff1614610268576040517f08c379a000000000000000000000000000000000000000000000000000000000815260040161025f90610dd0565b60405180910390fd5b60025f3373ffffffffffffffffffffffffffffffffffffffff1673ffffffffffffffffffffffffffffffffffffffff1681526020019081526020015f205f9054906101000a900460ff166102f1576040517f08c379a00000000000000000000000000000000000000000000000000000000081526004016102e890610e38565b60405180910390fd5b600115158115150361036a576001805f8473ffffffffffffffffffffffffffffffffffffffff1673ffffffffffffffffffffffffffffffffffffffff1681526020019081526020015f2060020160146101000a81548160ff021916908360028111156103605761035f610e56565b5b02179055506103d4565b600260015f8473ffffffffffffffffffffffffffffffffffffffff1673ffffffffffffffffffffffffffffffffffffffff1681526020019081526020015f2060020160146101000a81548160ff021916908360028111156103ce576103cd610e56565b5b02179055505b7fff63e7a8542301248e2fce1e678bd1316e2e708bc00d4eee011e978dd84ebd068260015f8573ffffffffffffffffffffffffffffffffffffffff1673ffffffffffffffffffffffffffffffffffffffff1681526020019081526020015f2060020160149054906101000a900460ff16604051610452929190610ec9565b60405180910390a15050565b6001151560025f3373ffffffffffffffffffffffffffffffffffffffff1673ffffffffffffffffffffffffffffffffffffffff1681526020019081526020015f205f9054906101000a900460ff161515036104ee576040517f08c379a00000000000000000000000000000000000000000000000000000000081526004016104e590610f3a565b60405180910390fd5b60405180608001604052808381526020018281526020013373ffffffffffffffffffffffffffffffffffffffff1681526020015f600281111561053457610533610e56565b5b81525060015f3373ffffffffffffffffffffffffffffffffffffffff1673ffffffffffffffffffffffffffffffffffffffff1681526020019081526020015f205f820151815f015560208201518160010190816105919190610c34565b506040820151816002015f6101000a81548173ffffffffffffffffffffffffffffffffffffffff021916908373ffffffffffffffffffffffffffffffffffffffff16021790555060608201518160020160146101000a81548160ff0219169083600281111561060357610602610e56565b5b0217905550905050600160025f3373ffffffffffffffffffffffffffffffffffffffff1673ffffffffffffffffffffffffffffffffffffffff1681526020019081526020015f205f6101000a81548160ff0219169083151502179055507ff193d23a73141bedb2f741fb47b8a1c94464dc45008d414759dedcb284e1591033838360405161069393929190610f58565b60405180910390a15050565b5f604051905090565b5f5ffd5b5f5ffd5b5f5ffd5b5f5ffd5b5f601f19601f8301169050919050565b7f4e487b71000000000000000000000000000000000000000000000000000000005f52604160045260245ffd5b6106fe826106b8565b810181811067ffffffffffffffff8211171561071d5761071c6106c8565b5b80604052505050565b5f61072f61069f565b905061073b82826106f5565b919050565b5f67ffffffffffffffff82111561075a576107596106c8565b5b610763826106b8565b9050602081019050919050565b828183375f83830152505050565b5f61079061078b84610740565b610726565b9050828152602081018484840111156107ac576107ab6106b4565b5b6107b7848285610770565b509392505050565b5f82601f8301126107d3576107d26106b0565b5b81356107e384826020860161077e565b91505092915050565b5f60208284031215610801576108006106a8565b5b5f82013567ffffffffffffffff81111561081e5761081d6106ac565b5b61082a848285016107bf565b91505092915050565b5f819050919050565b61084581610833565b82525050565b5f60208201905061085e5f83018461083c565b92915050565b5f73ffffffffffffffffffffffffffffffffffffffff82169050919050565b5f61088d82610864565b9050919050565b61089d81610883565b81146108a7575f5ffd5b50565b5f813590506108b881610894565b92915050565b5f8115159050919050565b6108d2816108be565b81146108dc575f5ffd5b50565b5f813590506108ed816108c9565b92915050565b5f5f60408385031215610909576109086106a8565b5b5f610916858286016108aa565b9250506020610927858286016108df565b9150509250929050565b61093a81610833565b8114610944575f5ffd5b50565b5f8135905061095581610931565b92915050565b5f5f60408385031215610971576109706106a8565b5b5f61097e85828601610947565b925050602083013567ffffffffffffffff81111561099f5761099e6106ac565b5b6109ab858286016107bf565b9150509250929050565b5f82825260208201905092915050565b7f75736572206e6f7420666f756e640000000000000000000000000000000000005f82015250565b5f6109f9600e836109b5565b9150610a04826109c5565b602082019050919050565b5f6020820190508181035f830152610a26816109ed565b9050919050565b5f81519050919050565b7f4e487b71000000000000000000000000000000000000000000000000000000005f52602260045260245ffd5b5f6002820490506001821680610a7b57607f821691505b602082108103610a8e57610a8d610a37565b5b50919050565b5f819050815f5260205f209050919050565b5f6020601f8301049050919050565b5f82821b905092915050565b5f60088302610af07fffffffffffffffffffffffffffffffffffffffffffffffffffffffffffffffff82610ab5565b610afa8683610ab5565b95508019841693508086168417925050509392505050565b5f819050919050565b5f610b35610b30610b2b84610833565b610b12565b610833565b9050919050565b5f819050919050565b610b4e83610b1b565b610b62610b5a82610b3c565b848454610ac1565b825550505050565b5f5f905090565b610b79610b6a565b610b84818484610b45565b505050565b5b81811015610ba757610b9c5f82610b71565b600181019050610b8a565b5050565b601f821115610bec57610bbd81610a94565b610bc684610aa6565b81016020851015610bd5578190505b610be9610be185610aa6565b830182610b89565b50505b505050565b5f82821c905092915050565b5f610c0c5f1984600802610bf1565b1980831691505092915050565b5f610c248383610bfd565b9150826002028217905092915050565b610c3d82610a2d565b67ffffffffffffffff811115610c5657610c556106c8565b5b610c608254610a64565b610c6b828285610bab565b5f60209050601f831160018114610c9c575f8415610c8a578287015190505b610c948582610c19565b865550610cfb565b601f198416610caa86610a94565b5f5b82811015610cd157848901518255600182019150602085019450602081019050610cac565b86831015610cee5784890151610cea601f891682610bfd565b8355505b6001600288020188555050505b505050505050565b610d0c81610883565b82525050565b8281835e5f83830152505050565b5f610d2a82610a2d565b610d3481856109b5565b9350610d44818560208601610d12565b610d4d816106b8565b840191505092915050565b5f604082019050610d6b5f830185610d03565b8181036020830152610d7d8184610d20565b90509392505050565b7f4f6e6c79204f776e657220697320616c6c6f77656400000000000000000000005f82015250565b5f610dba6015836109b5565b9150610dc582610d86565b602082019050919050565b5f6020820190508181035f830152610de781610dae565b9050919050565b7f55736572206e6f7420666f756e640000000000000000000000000000000000005f82015250565b5f610e22600e836109b5565b9150610e2d82610dee565b602082019050919050565b5f6020820190508181035f830152610e4f81610e16565b9050919050565b7f4e487b71000000000000000000000000000000000000000000000000000000005f52602160045260245ffd5b60038110610e9457610e93610e56565b5b50565b5f819050610ea482610e83565b919050565b5f610eb382610e97565b9050919050565b610ec381610ea9565b82525050565b5f604082019050610edc5f830185610d03565b610ee96020830184610eba565b9392505050565b7f7573657220616c726561647920657869747300000000000000000000000000005f82015250565b5f610f246012836109b5565b9150610f2f82610ef0565b602082019050919050565b5f6020820190508181035f830152610f5181610f18565b9050919050565b5f606082019050610f6b5f830186610d03565b610f78602083018561083c565b8181036040830152610f8a8184610d20565b905094935050505056fea26469706673582212201e07ad766c69100dd13821246bf0c8b042b536b2ab025f594b0479140df5ee2b64736f6c634300081f0033",
					"opcodes": "PUSH1 0x80 PUSH1 0x40 MSTORE CALLVALUE DUP1 ISZERO PUSH1 0xE JUMPI PUSH0 PUSH0 REVERT JUMPDEST POP CALLER PUSH0 PUSH0 PUSH2 0x100 EXP DUP2 SLOAD DUP2 PUSH20 0xFFFFFFFFFFFFFFFFFFFFFFFFFFFFFFFFFFFFFFFF MUL NOT AND SWAP1 DUP4 PUSH20 0xFFFFFFFFFFFFFFFFFFFFFFFFFFFFFFFFFFFFFFFF AND MUL OR SWAP1 SSTORE POP PUSH2 0xFCA DUP1 PUSH2 0x5B PUSH0 CODECOPY PUSH0 RETURN INVALID PUSH1 0x80 PUSH1 0x40 MSTORE CALLVALUE DUP1 ISZERO PUSH2 0xF JUMPI PUSH0 PUSH0 REVERT JUMPDEST POP PUSH1 0x4 CALLDATASIZE LT PUSH2 0x4A JUMPI PUSH0 CALLDATALOAD PUSH1 0xE0 SHR DUP1 PUSH4 0xB4F12F6 EQ PUSH2 0x4E JUMPI DUP1 PUSH4 0x12065FE0 EQ PUSH2 0x6A JUMPI DUP1 PUSH4 0x7444144B EQ PUSH2 0x88 JUMPI DUP1 PUSH4 0xD51AF2BF EQ PUSH2 0xA4 JUMPI JUMPDEST PUSH0 PUSH0 REVERT JUMPDEST PUSH2 0x68 PUSH1 0x4 DUP1 CALLDATASIZE SUB DUP2 ADD SWAP1 PUSH2 0x63 SWAP2 SWAP1 PUSH2 0x7EC JUMP JUMPDEST PUSH2 0xC0 JUMP JUMPDEST STOP JUMPDEST PUSH2 0x72 PUSH2 0x1D3 JUMP JUMPDEST PUSH1 0x40 MLOAD PUSH2 0x7F SWAP2 SWAP1 PUSH2 0x84B JUMP JUMPDEST PUSH1 0x40 MLOAD DUP1 SWAP2 SUB SWAP1 RETURN JUMPDEST PUSH2 0xA2 PUSH1 0x4 DUP1 CALLDATASIZE SUB DUP2 ADD SWAP1 PUSH2 0x9D SWAP2 SWAP1 PUSH2 0x8F3 JUMP JUMPDEST PUSH2 0x1DA JUMP JUMPDEST STOP JUMPDEST PUSH2 0xBE PUSH1 0x4 DUP1 CALLDATASIZE SUB DUP2 ADD SWAP1 PUSH2 0xB9 SWAP2 SWAP1 PUSH2 0x95B JUMP JUMPDEST PUSH2 0x45E JUMP JUMPDEST STOP JUMPDEST PUSH1 0x2 PUSH0 CALLER PUSH20 0xFFFFFFFFFFFFFFFFFFFFFFFFFFFFFFFFFFFFFFFF AND PUSH20 0xFFFFFFFFFFFFFFFFFFFFFFFFFFFFFFFFFFFFFFFF AND DUP2 MSTORE PUSH1 0x20 ADD SWAP1 DUP2 MSTORE PUSH1 0x20 ADD PUSH0 KECCAK256 PUSH0 SWAP1 SLOAD SWAP1 PUSH2 0x100 EXP SWAP1 DIV PUSH1 0xFF AND PUSH2 0x149 JUMPI PUSH1 0x40 MLOAD PUSH32 0x8C379A000000000000000000000000000000000000000000000000000000000 DUP2 MSTORE PUSH1 0x4 ADD PUSH2 0x140 SWAP1 PUSH2 0xA0F JUMP JUMPDEST PUSH1 0x40 MLOAD DUP1 SWAP2 SUB SWAP1 REVERT JUMPDEST DUP1 PUSH1 0x1 PUSH0 CALLER PUSH20 0xFFFFFFFFFFFFFFFFFFFFFFFFFFFFFFFFFFFFFFFF AND PUSH20 0xFFFFFFFFFFFFFFFFFFFFFFFFFFFFFFFFFFFFFFFF AND DUP2 MSTORE PUSH1 0x20 ADD SWAP1 DUP2 MSTORE PUSH1 0x20 ADD PUSH0 KECCAK256 PUSH1 0x1 ADD SWAP1 DUP2 PUSH2 0x196 SWAP2 SWAP1 PUSH2 0xC34 JUMP JUMPDEST POP PUSH32 0xC0E7F7EEBB6CA89E1F6A471CD34BD13814915D40B1A55011C90C9157054753BD CALLER DUP3 PUSH1 0x40 MLOAD PUSH2 0x1C8 SWAP3 SWAP2 SWAP1 PUSH2 0xD58 JUMP JUMPDEST PUSH1 0x40 MLOAD DUP1 SWAP2 SUB SWAP1 LOG1 POP JUMP JUMPDEST PUSH0 SELFBALANCE SWAP1 POP SWAP1 JUMP JUMPDEST PUSH0 PUSH0 SWAP1 SLOAD SWAP1 PUSH2 0x100 EXP SWAP1 DIV PUSH20 0xFFFFFFFFFFFFFFFFFFFFFFFFFFFFFFFFFFFFFFFF AND PUSH20 0xFFFFFFFFFFFFFFFFFFFFFFFFFFFFFFFFFFFFFFFF AND CALLER PUSH20 0xFFFFFFFFFFFFFFFFFFFFFFFFFFFFFFFFFFFFFFFF AND EQ PUSH2 0x268 JUMPI PUSH1 0x40 MLOAD PUSH32 0x8C379A000000000000000000000000000000000000000000000000000000000 DUP2 MSTORE PUSH1 0x4 ADD PUSH2 0x25F SWAP1 PUSH2 0xDD0 JUMP JUMPDEST PUSH1 0x40 MLOAD DUP1 SWAP2 SUB SWAP1 REVERT JUMPDEST PUSH1 0x2 PUSH0 CALLER PUSH20 0xFFFFFFFFFFFFFFFFFFFFFFFFFFFFFFFFFFFFFFFF AND PUSH20 0xFFFFFFFFFFFFFFFFFFFFFFFFFFFFFFFFFFFFFFFF AND DUP2 MSTORE PUSH1 0x20 ADD SWAP1 DUP2 MSTORE PUSH1 0x20 ADD PUSH0 KECCAK256 PUSH0 SWAP1 SLOAD SWAP1 PUSH2 0x100 EXP SWAP1 DIV PUSH1 0xFF AND PUSH2 0x2F1 JUMPI PUSH1 0x40 MLOAD PUSH32 0x8C379A000000000000000000000000000000000000000000000000000000000 DUP2 MSTORE PUSH1 0x4 ADD PUSH2 0x2E8 SWAP1 PUSH2 0xE38 JUMP JUMPDEST PUSH1 0x40 MLOAD DUP1 SWAP2 SUB SWAP1 REVERT JUMPDEST PUSH1 0x1 ISZERO ISZERO DUP2 ISZERO ISZERO SUB PUSH2 0x36A JUMPI PUSH1 0x1 DUP1 PUSH0 DUP5 PUSH20 0xFFFFFFFFFFFFFFFFFFFFFFFFFFFFFFFFFFFFFFFF AND PUSH20 0xFFFFFFFFFFFFFFFFFFFFFFFFFFFFFFFFFFFFFFFF AND DUP2 MSTORE PUSH1 0x20 ADD SWAP1 DUP2 MSTORE PUSH1 0x20 ADD PUSH0 KECCAK256 PUSH1 0x2 ADD PUSH1 0x14 PUSH2 0x100 EXP DUP2 SLOAD DUP2 PUSH1 0xFF MUL NOT AND SWAP1 DUP4 PUSH1 0x2 DUP2 GT ISZERO PUSH2 0x360 JUMPI PUSH2 0x35F PUSH2 0xE56 JUMP JUMPDEST JUMPDEST MUL OR SWAP1 SSTORE POP PUSH2 0x3D4 JUMP JUMPDEST PUSH1 0x2 PUSH1 0x1 PUSH0 DUP5 PUSH20 0xFFFFFFFFFFFFFFFFFFFFFFFFFFFFFFFFFFFFFFFF AND PUSH20 0xFFFFFFFFFFFFFFFFFFFFFFFFFFFFFFFFFFFFFFFF AND DUP2 MSTORE PUSH1 0x20 ADD SWAP1 DUP2 MSTORE PUSH1 0x20 ADD PUSH0 KECCAK256 PUSH1 0x2 ADD PUSH1 0x14 PUSH2 0x100 EXP DUP2 SLOAD DUP2 PUSH1 0xFF MUL NOT AND SWAP1 DUP4 PUSH1 0x2 DUP2 GT ISZERO PUSH2 0x3CE JUMPI PUSH2 0x3CD PUSH2 0xE56 JUMP JUMPDEST JUMPDEST MUL OR SWAP1 SSTORE POP JUMPDEST PUSH32 0xFF63E7A8542301248E2FCE1E678BD1316E2E708BC00D4EEE011E978DD84EBD06 DUP3 PUSH1 0x1 PUSH0 DUP6 PUSH20 0xFFFFFFFFFFFFFFFFFFFFFFFFFFFFFFFFFFFFFFFF AND PUSH20 0xFFFFFFFFFFFFFFFFFFFFFFFFFFFFFFFFFFFFFFFF AND DUP2 MSTORE PUSH1 0x20 ADD SWAP1 DUP2 MSTORE PUSH1 0x20 ADD PUSH0 KECCAK256 PUSH1 0x2 ADD PUSH1 0x14 SWAP1 SLOAD SWAP1 PUSH2 0x100 EXP SWAP1 DIV PUSH1 0xFF AND PUSH1 0x40 MLOAD PUSH2 0x452 SWAP3 SWAP2 SWAP1 PUSH2 0xEC9 JUMP JUMPDEST PUSH1 0x40 MLOAD DUP1 SWAP2 SUB SWAP1 LOG1 POP POP JUMP JUMPDEST PUSH1 0x1 ISZERO ISZERO PUSH1 0x2 PUSH0 CALLER PUSH20 0xFFFFFFFFFFFFFFFFFFFFFFFFFFFFFFFFFFFFFFFF AND PUSH20 0xFFFFFFFFFFFFFFFFFFFFFFFFFFFFFFFFFFFFFFFF AND DUP2 MSTORE PUSH1 0x20 ADD SWAP1 DUP2 MSTORE PUSH1 0x20 ADD PUSH0 KECCAK256 PUSH0 SWAP1 SLOAD SWAP1 PUSH2 0x100 EXP SWAP1 DIV PUSH1 0xFF AND ISZERO ISZERO SUB PUSH2 0x4EE JUMPI PUSH1 0x40 MLOAD PUSH32 0x8C379A000000000000000000000000000000000000000000000000000000000 DUP2 MSTORE PUSH1 0x4 ADD PUSH2 0x4E5 SWAP1 PUSH2 0xF3A JUMP JUMPDEST PUSH1 0x40 MLOAD DUP1 SWAP2 SUB SWAP1 REVERT JUMPDEST PUSH1 0x40 MLOAD DUP1 PUSH1 0x80 ADD PUSH1 0x40 MSTORE DUP1 DUP4 DUP2 MSTORE PUSH1 0x20 ADD DUP3 DUP2 MSTORE PUSH1 0x20 ADD CALLER PUSH20 0xFFFFFFFFFFFFFFFFFFFFFFFFFFFFFFFFFFFFFFFF AND DUP2 MSTORE PUSH1 0x20 ADD PUSH0 PUSH1 0x2 DUP2 GT ISZERO PUSH2 0x534 JUMPI PUSH2 0x533 PUSH2 0xE56 JUMP JUMPDEST JUMPDEST DUP2 MSTORE POP PUSH1 0x1 PUSH0 CALLER PUSH20 0xFFFFFFFFFFFFFFFFFFFFFFFFFFFFFFFFFFFFFFFF AND PUSH20 0xFFFFFFFFFFFFFFFFFFFFFFFFFFFFFFFFFFFFFFFF AND DUP2 MSTORE PUSH1 0x20 ADD SWAP1 DUP2 MSTORE PUSH1 0x20 ADD PUSH0 KECCAK256 PUSH0 DUP3 ADD MLOAD DUP2 PUSH0 ADD SSTORE PUSH1 0x20 DUP3 ADD MLOAD DUP2 PUSH1 0x1 ADD SWAP1 DUP2 PUSH2 0x591 SWAP2 SWAP1 PUSH2 0xC34 JUMP JUMPDEST POP PUSH1 0x40 DUP3 ADD MLOAD DUP2 PUSH1 0x2 ADD PUSH0 PUSH2 0x100 EXP DUP2 SLOAD DUP2 PUSH20 0xFFFFFFFFFFFFFFFFFFFFFFFFFFFFFFFFFFFFFFFF MUL NOT AND SWAP1 DUP4 PUSH20 0xFFFFFFFFFFFFFFFFFFFFFFFFFFFFFFFFFFFFFFFF AND MUL OR SWAP1 SSTORE POP PUSH1 0x60 DUP3 ADD MLOAD DUP2 PUSH1 0x2 ADD PUSH1 0x14 PUSH2 0x100 EXP DUP2 SLOAD DUP2 PUSH1 0xFF MUL NOT AND SWAP1 DUP4 PUSH1 0x2 DUP2 GT ISZERO PUSH2 0x603 JUMPI PUSH2 0x602 PUSH2 0xE56 JUMP JUMPDEST JUMPDEST MUL OR SWAP1 SSTORE POP SWAP1 POP POP PUSH1 0x1 PUSH1 0x2 PUSH0 CALLER PUSH20 0xFFFFFFFFFFFFFFFFFFFFFFFFFFFFFFFFFFFFFFFF AND PUSH20 0xFFFFFFFFFFFFFFFFFFFFFFFFFFFFFFFFFFFFFFFF AND DUP2 MSTORE PUSH1 0x20 ADD SWAP1 DUP2 MSTORE PUSH1 0x20 ADD PUSH0 KECCAK256 PUSH0 PUSH2 0x100 EXP DUP2 SLOAD DUP2 PUSH1 0xFF MUL NOT AND SWAP1 DUP4 ISZERO ISZERO MUL OR SWAP1 SSTORE POP PUSH32 0xF193D23A73141BEDB2F741FB47B8A1C94464DC45008D414759DEDCB284E15910 CALLER DUP4 DUP4 PUSH1 0x40 MLOAD PUSH2 0x693 SWAP4 SWAP3 SWAP2 SWAP1 PUSH2 0xF58 JUMP JUMPDEST PUSH1 0x40 MLOAD DUP1 SWAP2 SUB SWAP1 LOG1 POP POP JUMP JUMPDEST PUSH0 PUSH1 0x40 MLOAD SWAP1 POP SWAP1 JUMP JUMPDEST PUSH0 PUSH0 REVERT JUMPDEST PUSH0 PUSH0 REVERT JUMPDEST PUSH0 PUSH0 REVERT JUMPDEST PUSH0 PUSH0 REVERT JUMPDEST PUSH0 PUSH1 0x1F NOT PUSH1 0x1F DUP4 ADD AND SWAP1 POP SWAP2 SWAP1 POP JUMP JUMPDEST PUSH32 0x4E487B7100000000000000000000000000000000000000000000000000000000 PUSH0 MSTORE PUSH1 0x41 PUSH1 0x4 MSTORE PUSH1 0x24 PUSH0 REVERT JUMPDEST PUSH2 0x6FE DUP3 PUSH2 0x6B8 JUMP JUMPDEST DUP2 ADD DUP2 DUP2 LT PUSH8 0xFFFFFFFFFFFFFFFF DUP3 GT OR ISZERO PUSH2 0x71D JUMPI PUSH2 0x71C PUSH2 0x6C8 JUMP JUMPDEST JUMPDEST DUP1 PUSH1 0x40 MSTORE POP POP POP JUMP JUMPDEST PUSH0 PUSH2 0x72F PUSH2 0x69F JUMP JUMPDEST SWAP1 POP PUSH2 0x73B DUP3 DUP3 PUSH2 0x6F5 JUMP JUMPDEST SWAP2 SWAP1 POP JUMP JUMPDEST PUSH0 PUSH8 0xFFFFFFFFFFFFFFFF DUP3 GT ISZERO PUSH2 0x75A JUMPI PUSH2 0x759 PUSH2 0x6C8 JUMP JUMPDEST JUMPDEST PUSH2 0x763 DUP3 PUSH2 0x6B8 JUMP JUMPDEST SWAP1 POP PUSH1 0x20 DUP2 ADD SWAP1 POP SWAP2 SWAP1 POP JUMP JUMPDEST DUP3 DUP2 DUP4 CALLDATACOPY PUSH0 DUP4 DUP4 ADD MSTORE POP POP POP JUMP JUMPDEST PUSH0 PUSH2 0x790 PUSH2 0x78B DUP5 PUSH2 0x740 JUMP JUMPDEST PUSH2 0x726 JUMP JUMPDEST SWAP1 POP DUP3 DUP2 MSTORE PUSH1 0x20 DUP2 ADD DUP5 DUP5 DUP5 ADD GT ISZERO PUSH2 0x7AC JUMPI PUSH2 0x7AB PUSH2 0x6B4 JUMP JUMPDEST JUMPDEST PUSH2 0x7B7 DUP5 DUP3 DUP6 PUSH2 0x770 JUMP JUMPDEST POP SWAP4 SWAP3 POP POP POP JUMP JUMPDEST PUSH0 DUP3 PUSH1 0x1F DUP4 ADD SLT PUSH2 0x7D3 JUMPI PUSH2 0x7D2 PUSH2 0x6B0 JUMP JUMPDEST JUMPDEST DUP2 CALLDATALOAD PUSH2 0x7E3 DUP5 DUP3 PUSH1 0x20 DUP7 ADD PUSH2 0x77E JUMP JUMPDEST SWAP2 POP POP SWAP3 SWAP2 POP POP JUMP JUMPDEST PUSH0 PUSH1 0x20 DUP3 DUP5 SUB SLT ISZERO PUSH2 0x801 JUMPI PUSH2 0x800 PUSH2 0x6A8 JUMP JUMPDEST JUMPDEST PUSH0 DUP3 ADD CALLDATALOAD PUSH8 0xFFFFFFFFFFFFFFFF DUP2 GT ISZERO PUSH2 0x81E JUMPI PUSH2 0x81D PUSH2 0x6AC JUMP JUMPDEST JUMPDEST PUSH2 0x82A DUP5 DUP3 DUP6 ADD PUSH2 0x7BF JUMP JUMPDEST SWAP2 POP POP SWAP3 SWAP2 POP POP JUMP JUMPDEST PUSH0 DUP2 SWAP1 POP SWAP2 SWAP1 POP JUMP JUMPDEST PUSH2 0x845 DUP2 PUSH2 0x833 JUMP JUMPDEST DUP3 MSTORE POP POP JUMP JUMPDEST PUSH0 PUSH1 0x20 DUP3 ADD SWAP1 POP PUSH2 0x85E PUSH0 DUP4 ADD DUP5 PUSH2 0x83C JUMP JUMPDEST SWAP3 SWAP2 POP POP JUMP JUMPDEST PUSH0 PUSH20 0xFFFFFFFFFFFFFFFFFFFFFFFFFFFFFFFFFFFFFFFF DUP3 AND SWAP1 POP SWAP2 SWAP1 POP JUMP JUMPDEST PUSH0 PUSH2 0x88D DUP3 PUSH2 0x864 JUMP JUMPDEST SWAP1 POP SWAP2 SWAP1 POP JUMP JUMPDEST PUSH2 0x89D DUP2 PUSH2 0x883 JUMP JUMPDEST DUP2 EQ PUSH2 0x8A7 JUMPI PUSH0 PUSH0 REVERT JUMPDEST POP JUMP JUMPDEST PUSH0 DUP2 CALLDATALOAD SWAP1 POP PUSH2 0x8B8 DUP2 PUSH2 0x894 JUMP JUMPDEST SWAP3 SWAP2 POP POP JUMP JUMPDEST PUSH0 DUP2 ISZERO ISZERO SWAP1 POP SWAP2 SWAP1 POP JUMP JUMPDEST PUSH2 0x8D2 DUP2 PUSH2 0x8BE JUMP JUMPDEST DUP2 EQ PUSH2 0x8DC JUMPI PUSH0 PUSH0 REVERT JUMPDEST POP JUMP JUMPDEST PUSH0 DUP2 CALLDATALOAD SWAP1 POP PUSH2 0x8ED DUP2 PUSH2 0x8C9 JUMP JUMPDEST SWAP3 SWAP2 POP POP JUMP JUMPDEST PUSH0 PUSH0 PUSH1 0x40 DUP4 DUP6 SUB SLT ISZERO PUSH2 0x909 JUMPI PUSH2 0x908 PUSH2 0x6A8 JUMP JUMPDEST JUMPDEST PUSH0 PUSH2 0x916 DUP6 DUP3 DUP7 ADD PUSH2 0x8AA JUMP JUMPDEST SWAP3 POP POP PUSH1 0x20 PUSH2 0x927 DUP6 DUP3 DUP7 ADD PUSH2 0x8DF JUMP JUMPDEST SWAP2 POP POP SWAP3 POP SWAP3 SWAP1 POP JUMP JUMPDEST PUSH2 0x93A DUP2 PUSH2 0x833 JUMP JUMPDEST DUP2 EQ PUSH2 0x944 JUMPI PUSH0 PUSH0 REVERT JUMPDEST POP JUMP JUMPDEST PUSH0 DUP2 CALLDATALOAD SWAP1 POP PUSH2 0x955 DUP2 PUSH2 0x931 JUMP JUMPDEST SWAP3 SWAP2 POP POP JUMP JUMPDEST PUSH0 PUSH0 PUSH1 0x40 DUP4 DUP6 SUB SLT ISZERO PUSH2 0x971 JUMPI PUSH2 0x970 PUSH2 0x6A8 JUMP JUMPDEST JUMPDEST PUSH0 PUSH2 0x97E DUP6 DUP3 DUP7 ADD PUSH2 0x947 JUMP JUMPDEST SWAP3 POP POP PUSH1 0x20 DUP4 ADD CALLDATALOAD PUSH8 0xFFFFFFFFFFFFFFFF DUP2 GT ISZERO PUSH2 0x99F JUMPI PUSH2 0x99E PUSH2 0x6AC JUMP JUMPDEST JUMPDEST PUSH2 0x9AB DUP6 DUP3 DUP7 ADD PUSH2 0x7BF JUMP JUMPDEST SWAP2 POP POP SWAP3 POP SWAP3 SWAP1 POP JUMP JUMPDEST PUSH0 DUP3 DUP3 MSTORE PUSH1 0x20 DUP3 ADD SWAP1 POP SWAP3 SWAP2 POP POP JUMP JUMPDEST PUSH32 0x75736572206E6F7420666F756E64000000000000000000000000000000000000 PUSH0 DUP3 ADD MSTORE POP JUMP JUMPDEST PUSH0 PUSH2 0x9F9 PUSH1 0xE DUP4 PUSH2 0x9B5 JUMP JUMPDEST SWAP2 POP PUSH2 0xA04 DUP3 PUSH2 0x9C5 JUMP JUMPDEST PUSH1 0x20 DUP3 ADD SWAP1 POP SWAP2 SWAP1 POP JUMP JUMPDEST PUSH0 PUSH1 0x20 DUP3 ADD SWAP1 POP DUP2 DUP2 SUB PUSH0 DUP4 ADD MSTORE PUSH2 0xA26 DUP2 PUSH2 0x9ED JUMP JUMPDEST SWAP1 POP SWAP2 SWAP1 POP JUMP JUMPDEST PUSH0 DUP2 MLOAD SWAP1 POP SWAP2 SWAP1 POP JUMP JUMPDEST PUSH32 0x4E487B7100000000000000000000000000000000000000000000000000000000 PUSH0 MSTORE PUSH1 0x22 PUSH1 0x4 MSTORE PUSH1 0x24 PUSH0 REVERT JUMPDEST PUSH0 PUSH1 0x2 DUP3 DIV SWAP1 POP PUSH1 0x1 DUP3 AND DUP1 PUSH2 0xA7B JUMPI PUSH1 0x7F DUP3 AND SWAP2 POP JUMPDEST PUSH1 0x20 DUP3 LT DUP2 SUB PUSH2 0xA8E JUMPI PUSH2 0xA8D PUSH2 0xA37 JUMP JUMPDEST JUMPDEST POP SWAP2 SWAP1 POP JUMP JUMPDEST PUSH0 DUP2 SWAP1 POP DUP2 PUSH0 MSTORE PUSH1 0x20 PUSH0 KECCAK256 SWAP1 POP SWAP2 SWAP1 POP JUMP JUMPDEST PUSH0 PUSH1 0x20 PUSH1 0x1F DUP4 ADD DIV SWAP1 POP SWAP2 SWAP1 POP JUMP JUMPDEST PUSH0 DUP3 DUP3 SHL SWAP1 POP SWAP3 SWAP2 POP POP JUMP JUMPDEST PUSH0 PUSH1 0x8 DUP4 MUL PUSH2 0xAF0 PUSH32 0xFFFFFFFFFFFFFFFFFFFFFFFFFFFFFFFFFFFFFFFFFFFFFFFFFFFFFFFFFFFFFFFF DUP3 PUSH2 0xAB5 JUMP JUMPDEST PUSH2 0xAFA DUP7 DUP4 PUSH2 0xAB5 JUMP JUMPDEST SWAP6 POP DUP1 NOT DUP5 AND SWAP4 POP DUP1 DUP7 AND DUP5 OR SWAP3 POP POP POP SWAP4 SWAP3 POP POP POP JUMP JUMPDEST PUSH0 DUP2 SWAP1 POP SWAP2 SWAP1 POP JUMP JUMPDEST PUSH0 PUSH2 0xB35 PUSH2 0xB30 PUSH2 0xB2B DUP5 PUSH2 0x833 JUMP JUMPDEST PUSH2 0xB12 JUMP JUMPDEST PUSH2 0x833 JUMP JUMPDEST SWAP1 POP SWAP2 SWAP1 POP JUMP JUMPDEST PUSH0 DUP2 SWAP1 POP SWAP2 SWAP1 POP JUMP JUMPDEST PUSH2 0xB4E DUP4 PUSH2 0xB1B JUMP JUMPDEST PUSH2 0xB62 PUSH2 0xB5A DUP3 PUSH2 0xB3C JUMP JUMPDEST DUP5 DUP5 SLOAD PUSH2 0xAC1 JUMP JUMPDEST DUP3 SSTORE POP POP POP POP JUMP JUMPDEST PUSH0 PUSH0 SWAP1 POP SWAP1 JUMP JUMPDEST PUSH2 0xB79 PUSH2 0xB6A JUMP JUMPDEST PUSH2 0xB84 DUP2 DUP5 DUP5 PUSH2 0xB45 JUMP JUMPDEST POP POP POP JUMP JUMPDEST JUMPDEST DUP2 DUP2 LT ISZERO PUSH2 0xBA7 JUMPI PUSH2 0xB9C PUSH0 DUP3 PUSH2 0xB71 JUMP JUMPDEST PUSH1 0x1 DUP2 ADD SWAP1 POP PUSH2 0xB8A JUMP JUMPDEST POP POP JUMP JUMPDEST PUSH1 0x1F DUP3 GT ISZERO PUSH2 0xBEC JUMPI PUSH2 0xBBD DUP2 PUSH2 0xA94 JUMP JUMPDEST PUSH2 0xBC6 DUP5 PUSH2 0xAA6 JUMP JUMPDEST DUP2 ADD PUSH1 0x20 DUP6 LT ISZERO PUSH2 0xBD5 JUMPI DUP2 SWAP1 POP JUMPDEST PUSH2 0xBE9 PUSH2 0xBE1 DUP6 PUSH2 0xAA6 JUMP JUMPDEST DUP4 ADD DUP3 PUSH2 0xB89 JUMP JUMPDEST POP POP JUMPDEST POP POP POP JUMP JUMPDEST PUSH0 DUP3 DUP3 SHR SWAP1 POP SWAP3 SWAP2 POP POP JUMP JUMPDEST PUSH0 PUSH2 0xC0C PUSH0 NOT DUP5 PUSH1 0x8 MUL PUSH2 0xBF1 JUMP JUMPDEST NOT DUP1 DUP4 AND SWAP2 POP POP SWAP3 SWAP2 POP POP JUMP JUMPDEST PUSH0 PUSH2 0xC24 DUP4 DUP4 PUSH2 0xBFD JUMP JUMPDEST SWAP2 POP DUP3 PUSH1 0x2 MUL DUP3 OR SWAP1 POP SWAP3 SWAP2 POP POP JUMP JUMPDEST PUSH2 0xC3D DUP3 PUSH2 0xA2D JUMP JUMPDEST PUSH8 0xFFFFFFFFFFFFFFFF DUP2 GT ISZERO PUSH2 0xC56 JUMPI PUSH2 0xC55 PUSH2 0x6C8 JUMP JUMPDEST JUMPDEST PUSH2 0xC60 DUP3 SLOAD PUSH2 0xA64 JUMP JUMPDEST PUSH2 0xC6B DUP3 DUP3 DUP6 PUSH2 0xBAB JUMP JUMPDEST PUSH0 PUSH1 0x20 SWAP1 POP PUSH1 0x1F DUP4 GT PUSH1 0x1 DUP2 EQ PUSH2 0xC9C JUMPI PUSH0 DUP5 ISZERO PUSH2 0xC8A JUMPI DUP3 DUP8 ADD MLOAD SWAP1 POP JUMPDEST PUSH2 0xC94 DUP6 DUP3 PUSH2 0xC19 JUMP JUMPDEST DUP7 SSTORE POP PUSH2 0xCFB JUMP JUMPDEST PUSH1 0x1F NOT DUP5 AND PUSH2 0xCAA DUP7 PUSH2 0xA94 JUMP JUMPDEST PUSH0 JUMPDEST DUP3 DUP2 LT ISZERO PUSH2 0xCD1 JUMPI DUP5 DUP10 ADD MLOAD DUP3 SSTORE PUSH1 0x1 DUP3 ADD SWAP2 POP PUSH1 0x20 DUP6 ADD SWAP5 POP PUSH1 0x20 DUP2 ADD SWAP1 POP PUSH2 0xCAC JUMP JUMPDEST DUP7 DUP4 LT ISZERO PUSH2 0xCEE JUMPI DUP5 DUP10 ADD MLOAD PUSH2 0xCEA PUSH1 0x1F DUP10 AND DUP3 PUSH2 0xBFD JUMP JUMPDEST DUP4 SSTORE POP JUMPDEST PUSH1 0x1 PUSH1 0x2 DUP9 MUL ADD DUP9 SSTORE POP POP POP JUMPDEST POP POP POP POP POP POP JUMP JUMPDEST PUSH2 0xD0C DUP2 PUSH2 0x883 JUMP JUMPDEST DUP3 MSTORE POP POP JUMP JUMPDEST DUP3 DUP2 DUP4 MCOPY PUSH0 DUP4 DUP4 ADD MSTORE POP POP POP JUMP JUMPDEST PUSH0 PUSH2 0xD2A DUP3 PUSH2 0xA2D JUMP JUMPDEST PUSH2 0xD34 DUP2 DUP6 PUSH2 0x9B5 JUMP JUMPDEST SWAP4 POP PUSH2 0xD44 DUP2 DUP6 PUSH1 0x20 DUP7 ADD PUSH2 0xD12 JUMP JUMPDEST PUSH2 0xD4D DUP2 PUSH2 0x6B8 JUMP JUMPDEST DUP5 ADD SWAP2 POP POP SWAP3 SWAP2 POP POP JUMP JUMPDEST PUSH0 PUSH1 0x40 DUP3 ADD SWAP1 POP PUSH2 0xD6B PUSH0 DUP4 ADD DUP6 PUSH2 0xD03 JUMP JUMPDEST DUP2 DUP2 SUB PUSH1 0x20 DUP4 ADD MSTORE PUSH2 0xD7D DUP2 DUP5 PUSH2 0xD20 JUMP JUMPDEST SWAP1 POP SWAP4 SWAP3 POP POP POP JUMP JUMPDEST PUSH32 0x4F6E6C79204F776E657220697320616C6C6F7765640000000000000000000000 PUSH0 DUP3 ADD MSTORE POP JUMP JUMPDEST PUSH0 PUSH2 0xDBA PUSH1 0x15 DUP4 PUSH2 0x9B5 JUMP JUMPDEST SWAP2 POP PUSH2 0xDC5 DUP3 PUSH2 0xD86 JUMP JUMPDEST PUSH1 0x20 DUP3 ADD SWAP1 POP SWAP2 SWAP1 POP JUMP JUMPDEST PUSH0 PUSH1 0x20 DUP3 ADD SWAP1 POP DUP2 DUP2 SUB PUSH0 DUP4 ADD MSTORE PUSH2 0xDE7 DUP2 PUSH2 0xDAE JUMP JUMPDEST SWAP1 POP SWAP2 SWAP1 POP JUMP JUMPDEST PUSH32 0x55736572206E6F7420666F756E64000000000000000000000000000000000000 PUSH0 DUP3 ADD MSTORE POP JUMP JUMPDEST PUSH0 PUSH2 0xE22 PUSH1 0xE DUP4 PUSH2 0x9B5 JUMP JUMPDEST SWAP2 POP PUSH2 0xE2D DUP3 PUSH2 0xDEE JUMP JUMPDEST PUSH1 0x20 DUP3 ADD SWAP1 POP SWAP2 SWAP1 POP JUMP JUMPDEST PUSH0 PUSH1 0x20 DUP3 ADD SWAP1 POP DUP2 DUP2 SUB PUSH0 DUP4 ADD MSTORE PUSH2 0xE4F DUP2 PUSH2 0xE16 JUMP JUMPDEST SWAP1 POP SWAP2 SWAP1 POP JUMP JUMPDEST PUSH32 0x4E487B7100000000000000000000000000000000000000000000000000000000 PUSH0 MSTORE PUSH1 0x21 PUSH1 0x4 MSTORE PUSH1 0x24 PUSH0 REVERT JUMPDEST PUSH1 0x3 DUP2 LT PUSH2 0xE94 JUMPI PUSH2 0xE93 PUSH2 0xE56 JUMP JUMPDEST JUMPDEST POP JUMP JUMPDEST PUSH0 DUP2 SWAP1 POP PUSH2 0xEA4 DUP3 PUSH2 0xE83 JUMP JUMPDEST SWAP2 SWAP1 POP JUMP JUMPDEST PUSH0 PUSH2 0xEB3 DUP3 PUSH2 0xE97 JUMP JUMPDEST SWAP1 POP SWAP2 SWAP1 POP JUMP JUMPDEST PUSH2 0xEC3 DUP2 PUSH2 0xEA9 JUMP JUMPDEST DUP3 MSTORE POP POP JUMP JUMPDEST PUSH0 PUSH1 0x40 DUP3 ADD SWAP1 POP PUSH2 0xEDC PUSH0 DUP4 ADD DUP6 PUSH2 0xD03 JUMP JUMPDEST PUSH2 0xEE9 PUSH1 0x20 DUP4 ADD DUP5 PUSH2 0xEBA JUMP JUMPDEST SWAP4 SWAP3 POP POP POP JUMP JUMPDEST PUSH32 0x7573657220616C72656164792065786974730000000000000000000000000000 PUSH0 DUP3 ADD MSTORE POP JUMP JUMPDEST PUSH0 PUSH2 0xF24 PUSH1 0x12 DUP4 PUSH2 0x9B5 JUMP JUMPDEST SWAP2 POP PUSH2 0xF2F DUP3 PUSH2 0xEF0 JUMP JUMPDEST PUSH1 0x20 DUP3 ADD SWAP1 POP SWAP2 SWAP1 POP JUMP JUMPDEST PUSH0 PUSH1 0x20 DUP3 ADD SWAP1 POP DUP2 DUP2 SUB PUSH0 DUP4 ADD MSTORE PUSH2 0xF51 DUP2 PUSH2 0xF18 JUMP JUMPDEST SWAP1 POP SWAP2 SWAP1 POP JUMP JUMPDEST PUSH0 PUSH1 0x60 DUP3 ADD SWAP1 POP PUSH2 0xF6B PUSH0 DUP4 ADD DUP7 PUSH2 0xD03 JUMP JUMPDEST PUSH2 0xF78 PUSH1 0x20 DUP4 ADD DUP6 PUSH2 0x83C JUMP JUMPDEST DUP2 DUP2 SUB PUSH1 0x40 DUP4 ADD MSTORE PUSH2 0xF8A DUP2 DUP5 PUSH2 0xD20 JUMP JUMPDEST SWAP1 POP SWAP5 SWAP4 POP POP POP POP JUMP INVALID LOG2 PUSH5 0x6970667358 0x22 SLT KECCAK256 CLZ SMOD 0xAD PUSH23 0x6C69100DD13821246BF0C8B042B536B2AB025F594B0479 EQ 0xD CREATE2 RETURNCONTRACT 0x2B PUSH5 0x736F6C6343 STOP ADDMOD 0x1F STOP CALLER "
				},
				"gasEstimates": {
					"creation": {
						"codeDepositCost": "808400",
						"executionCost": "25106",
						"totalCost": "833506"
					},
					"external": {
						"addUser(uint256,string)": "infinite",
						"getBalance()": "334",
						"updateStatus(address,bool)": "infinite",
						"updateUser(string)": "infinite"
					}
				},
				"methodIdentifiers": {
					"addUser(uint256,string)": "d51af2bf",
					"getBalance()": "12065fe0",
					"updateStatus(address,bool)": "7444144b",
					"updateUser(string)": "0b4f12f6"
				}
			},
			"storageLayout": {
				"storage": [
					{
						"astId": 3,
						"contract": "Assignments_model/CapstonePro.sol:capstonePro",
						"label": "owner",
						"offset": 0,
						"slot": "0",
						"type": "t_address"
					},
					{
						"astId": 43,
						"contract": "Assignments_model/CapstonePro.sol:capstonePro",
						"label": "user",
						"offset": 0,
						"slot": "1",
						"type": "t_mapping(t_address,t_struct(User)38_storage)"
					},
					{
						"astId": 47,
						"contract": "Assignments_model/CapstonePro.sol:capstonePro",
						"label": "exists",
						"offset": 0,
						"slot": "2",
						"type": "t_mapping(t_address,t_bool)"
					}
				],
				"types": {
					"t_address": {
						"encoding": "inplace",
						"label": "address",
						"numberOfBytes": "20"
					},
					"t_bool": {
						"encoding": "inplace",
						"label": "bool",
						"numberOfBytes": "1"
					},
					"t_enum(OrderStatus)28": {
						"encoding": "inplace",
						"label": "enum capstonePro.OrderStatus",
						"numberOfBytes": "1"
					},
					"t_mapping(t_address,t_bool)": {
						"encoding": "mapping",
						"key": "t_address",
						"label": "mapping(address => bool)",
						"numberOfBytes": "32",
						"value": "t_bool"
					},
					"t_mapping(t_address,t_struct(User)38_storage)": {
						"encoding": "mapping",
						"key": "t_address",
						"label": "mapping(address => struct capstonePro.User)",
						"numberOfBytes": "32",
						"value": "t_struct(User)38_storage"
					},
					"t_string_storage": {
						"encoding": "bytes",
						"label": "string",
						"numberOfBytes": "32"
					},
					"t_struct(User)38_storage": {
						"encoding": "inplace",
						"label": "struct capstonePro.User",
						"members": [
							{
								"astId": 30,
								"contract": "Assignments_model/CapstonePro.sol:capstonePro",
								"label": "id",
								"offset": 0,
								"slot": "0",
								"type": "t_uint256"
							},
							{
								"astId": 32,
								"contract": "Assignments_model/CapstonePro.sol:capstonePro",
								"label": "name",
								"offset": 0,
								"slot": "1",
								"type": "t_string_storage"
							},
							{
								"astId": 34,
								"contract": "Assignments_model/CapstonePro.sol:capstonePro",
								"label": "wallet",
								"offset": 0,
								"slot": "2",
								"type": "t_address"
							},
							{
								"astId": 37,
								"contract": "Assignments_model/CapstonePro.sol:capstonePro",
								"label": "status",
								"offset": 20,
								"slot": "2",
								"type": "t_enum(OrderStatus)28"
							}
						],
						"numberOfBytes": "96"
					},
					"t_uint256": {
						"encoding": "inplace",
						"label": "uint256",
						"numberOfBytes": "32"
					}
				}
			},
			"userdoc": {
				"kind": "user",
				"methods": {},
				"version": 1
			}
		}
	}
}