{
	"models/voting.sol": {
		"Voting": {
			"abi": [
				{
					"inputs": [],
					"stateMutability": "nonpayable",
					"type": "constructor"
				},
				{
					"anonymous": false,
					"inputs": [
						{
							"indexed": false,
							"internalType": "uint256",
							"name": "id",
							"type": "uint256"
						},
						{
							"indexed": false,
							"internalType": "string",
							"name": "name",
							"type": "string"
						}
					],
					"name": "CandidateAdd",
					"type": "event"
				},
				{
					"anonymous": false,
					"inputs": [
						{
							"indexed": false,
							"internalType": "address",
							"name": "voter",
							"type": "address"
						},
						{
							"indexed": false,
							"internalType": "uint256",
							"name": "candidateId",
							"type": "uint256"
						}
					],
					"name": "Voted",
					"type": "event"
				},
				{
					"inputs": [
						{
							"internalType": "string",
							"name": "_name",
							"type": "string"
						}
					],
					"name": "addCandidate",
					"outputs": [],
					"stateMutability": "nonpayable",
					"type": "function"
				},
				{
					"inputs": [],
					"name": "candidateCount",
					"outputs": [
						{
							"internalType": "uint256",
							"name": "",
							"type": "uint256"
						}
					],
					"stateMutability": "view",
					"type": "function"
				},
				{
					"inputs": [
						{
							"internalType": "uint256",
							"name": "",
							"type": "uint256"
						}
					],
					"name": "candidates",
					"outputs": [
						{
							"internalType": "uint256",
							"name": "id",
							"type": "uint256"
						},
						{
							"internalType": "string",
							"name": "name",
							"type": "string"
						},
						{
							"internalType": "uint256",
							"name": "voteCount",
							"type": "uint256"
						}
					],
					"stateMutability": "view",
					"type": "function"
				},
				{
					"inputs": [],
					"name": "endVoting",
					"outputs": [],
					"stateMutability": "nonpayable",
					"type": "function"
				},
				{
					"inputs": [],
					"name": "getWinner",
					"outputs": [
						{
							"internalType": "string",
							"name": "winnerName",
							"type": "string"
						}
					],
					"stateMutability": "view",
					"type": "function"
				},
				{
					"inputs": [
						{
							"internalType": "address",
							"name": "",
							"type": "address"
						}
					],
					"name": "hasVoted",
					"outputs": [
						{
							"internalType": "bool",
							"name": "",
							"type": "bool"
						}
					],
					"stateMutability": "view",
					"type": "function"
				},
				{
					"inputs": [],
					"name": "owner",
					"outputs": [
						{
							"internalType": "address",
							"name": "",
							"type": "address"
						}
					],
					"stateMutability": "view",
					"type": "function"
				},
				{
					"inputs": [],
					"name": "startVoting",
					"outputs": [],
					"stateMutability": "nonpayable",
					"type": "function"
				},
				{
					"inputs": [],
					"name": "status",
					"outputs": [
						{
							"internalType": "enum Voting.VotingStatus",
							"name": "",
							"type": "uint8"
						}
					],
					"stateMutability": "view",
					"type": "function"
				},
				{
					"inputs": [
						{
							"internalType": "uint256",
							"name": "_candidateId",
							"type": "uint256"
						}
					],
					"name": "vote",
					"outputs": [],
					"stateMutability": "nonpayable",
					"type": "function"
				}
			],
			"devdoc": {
				"kind": "dev",
				"methods": {},
				"version": 1
			},
			"evm": {
				"assembly": "    /* \"models/voting.sol\":60:2242  contract Voting{... */\n  mstore(0x40, 0x80)\n    /* \"models/voting.sol\":195:289  constructor() {... */\n  callvalue\n  dup1\n  iszero\n  tag_1\n  jumpi\n  revert(0x00, 0x00)\ntag_1:\n  pop\n    /* \"models/voting.sol\":228:238  msg.sender */\n  caller\n    /* \"models/voting.sol\":220:225  owner */\n  0x00\n  0x01\n    /* \"models/voting.sol\":220:238  owner = msg.sender */\n  0x0100\n  exp\n  dup2\n  sload\n  dup2\n  0xffffffffffffffffffffffffffffffffffffffff\n  mul\n  not\n  and\n  swap1\n  dup4\n  0xffffffffffffffffffffffffffffffffffffffff\n  and\n  mul\n  or\n  swap1\n  sstore\n  pop\n    /* \"models/voting.sol\":258:281  VotingStatus.NotStarted */\n  0x00\n    /* \"models/voting.sol\":249:255  status */\n  0x00\n  0x00\n    /* \"models/voting.sol\":249:281  status = VotingStatus.NotStarted */\n  0x0100\n  exp\n  dup2\n  sload\n  dup2\n  0xff\n  mul\n  not\n  and\n  swap1\n  dup4\n  0x02\n  dup2\n  gt\n  iszero\n  tag_4\n  jumpi\n  tag_5\n  tag_6\n  jump\t// in\ntag_5:\ntag_4:\n  mul\n  or\n  swap1\n  sstore\n  pop\n    /* \"models/voting.sol\":60:2242  contract Voting{... */\n  jump(tag_7)\n    /* \"#utility.yul\":7:187   */\ntag_6:\n    /* \"#utility.yul\":55:132   */\n  0x4e487b7100000000000000000000000000000000000000000000000000000000\n    /* \"#utility.yul\":52:53   */\n  0x00\n    /* \"#utility.yul\":45:133   */\n  mstore\n    /* \"#utility.yul\":152:156   */\n  0x21\n    /* \"#utility.yul\":149:150   */\n  0x04\n    /* \"#utility.yul\":142:157   */\n  mstore\n    /* \"#utility.yul\":176:180   */\n  0x24\n    /* \"#utility.yul\":173:174   */\n  0x00\n    /* \"#utility.yul\":166:181   */\n  revert\n    /* \"models/voting.sol\":60:2242  contract Voting{... */\ntag_7:\n  dataSize(sub_0)\n  dup1\n  dataOffset(sub_0)\n  0x00\n  codecopy\n  0x00\n  return\nstop\n\nsub_0: assembly {\n        /* \"models/voting.sol\":60:2242  contract Voting{... */\n      mstore(0x40, 0x80)\n      callvalue\n      dup1\n      iszero\n      tag_1\n      jumpi\n      revert(0x00, 0x00)\n    tag_1:\n      pop\n      jumpi(tag_2, lt(calldatasize, 0x04))\n      shr(0xe0, calldataload(0x00))\n      dup1\n      0x462e91ec\n      gt\n      tag_13\n      jumpi\n      dup1\n      0x462e91ec\n      eq\n      tag_8\n      jumpi\n      dup1\n      0x8da5cb5b\n      eq\n      tag_9\n      jumpi\n      dup1\n      0x8e7ea5b2\n      eq\n      tag_10\n      jumpi\n      dup1\n      0xa9a981a3\n      eq\n      tag_11\n      jumpi\n      dup1\n      0xc3403ddf\n      eq\n      tag_12\n      jumpi\n      jump(tag_2)\n    tag_13:\n      dup1\n      0x0121b93f\n      eq\n      tag_3\n      jumpi\n      dup1\n      0x09eef43e\n      eq\n      tag_4\n      jumpi\n      dup1\n      0x1ec6b60a\n      eq\n      tag_5\n      jumpi\n      dup1\n      0x200d2ed2\n      eq\n      tag_6\n      jumpi\n      dup1\n      0x3477ee2e\n      eq\n      tag_7\n      jumpi\n    tag_2:\n      revert(0x00, 0x00)\n        /* \"models/voting.sol\":1401:1751  function vote(uint _candidateId) public votingActive{... */\n    tag_3:\n      tag_14\n      0x04\n      dup1\n      calldatasize\n      sub\n      dup2\n      add\n      swap1\n      tag_15\n      swap2\n      swap1\n      tag_16\n      jump\t// in\n    tag_15:\n      tag_17\n      jump\t// in\n    tag_14:\n      stop\n        /* \"models/voting.sol\":458:499  mapping (address => bool) public hasVoted */\n    tag_4:\n      tag_18\n      0x04\n      dup1\n      calldatasize\n      sub\n      dup2\n      add\n      swap1\n      tag_19\n      swap2\n      swap1\n      tag_20\n      jump\t// in\n    tag_19:\n      tag_21\n      jump\t// in\n    tag_18:\n      mload(0x40)\n      tag_22\n      swap2\n      swap1\n      tag_23\n      jump\t// in\n    tag_22:\n      mload(0x40)\n      dup1\n      swap2\n      sub\n      swap1\n      return\n        /* \"models/voting.sol\":1174:1261  function startVoting() public onlyOwner{... */\n    tag_5:\n      tag_24\n      tag_25\n      jump\t// in\n    tag_24:\n      stop\n        /* \"models/voting.sol\":133:159  VotingStatus public status */\n    tag_6:\n      tag_26\n      tag_27\n      jump\t// in\n    tag_26:\n      mload(0x40)\n      tag_28\n      swap2\n      swap1\n      tag_29\n      jump\t// in\n    tag_28:\n      mload(0x40)\n      dup1\n      swap2\n      sub\n      swap1\n      return\n        /* \"models/voting.sol\":406:451  mapping (uint => Candidate) public candidates */\n    tag_7:\n      tag_30\n      0x04\n      dup1\n      calldatasize\n      sub\n      dup2\n      add\n      swap1\n      tag_31\n      swap2\n      swap1\n      tag_16\n      jump\t// in\n    tag_31:\n      tag_32\n      jump\t// in\n    tag_30:\n      mload(0x40)\n      tag_33\n      swap4\n      swap3\n      swap2\n      swap1\n      tag_34\n      jump\t// in\n    tag_33:\n      mload(0x40)\n      dup1\n      swap2\n      sub\n      swap1\n      return\n        /* \"models/voting.sol\":925:1145  function addCandidate(string memory _name) public onlyOwner{... */\n    tag_8:\n      tag_35\n      0x04\n      dup1\n      calldatasize\n      sub\n      dup2\n      add\n      swap1\n      tag_36\n      swap2\n      swap1\n      tag_37\n      jump\t// in\n    tag_36:\n      tag_38\n      jump\t// in\n    tag_35:\n      stop\n        /* \"models/voting.sol\":168:188  address public owner */\n    tag_9:\n      tag_39\n      tag_40\n      jump\t// in\n    tag_39:\n      mload(0x40)\n      tag_41\n      swap2\n      swap1\n      tag_42\n      jump\t// in\n    tag_41:\n      mload(0x40)\n      dup1\n      swap2\n      sub\n      swap1\n      return\n        /* \"models/voting.sol\":1774:2239  function getWinner() public view returns(string memory winnerName){... */\n    tag_10:\n      tag_43\n      tag_44\n      jump\t// in\n    tag_43:\n      mload(0x40)\n      tag_45\n      swap2\n      swap1\n      tag_46\n      jump\t// in\n    tag_45:\n      mload(0x40)\n      dup1\n      swap2\n      sub\n      swap1\n      return\n        /* \"models/voting.sol\":506:532  uint public candidateCount */\n    tag_11:\n      tag_47\n      tag_48\n      jump\t// in\n    tag_47:\n      mload(0x40)\n      tag_49\n      swap2\n      swap1\n      tag_50\n      jump\t// in\n    tag_49:\n      mload(0x40)\n      dup1\n      swap2\n      sub\n      swap1\n      return\n        /* \"models/voting.sol\":1286:1369  function endVoting() public onlyOwner{... */\n    tag_12:\n      tag_51\n      tag_52\n      jump\t// in\n    tag_51:\n      stop\n        /* \"models/voting.sol\":1401:1751  function vote(uint _candidateId) public votingActive{... */\n    tag_17:\n        /* \"models/voting.sol\":830:850  VotingStatus.Started */\n      0x01\n        /* \"models/voting.sol\":820:850  status == VotingStatus.Started */\n      0x02\n      dup2\n      gt\n      iszero\n      tag_54\n      jumpi\n      tag_55\n      tag_56\n      jump\t// in\n    tag_55:\n    tag_54:\n        /* \"models/voting.sol\":820:826  status */\n      0x00\n      0x00\n      swap1\n      sload\n      swap1\n      0x0100\n      exp\n      swap1\n      div\n      0xff\n      and\n        /* \"models/voting.sol\":820:850  status == VotingStatus.Started */\n      0x02\n      dup2\n      gt\n      iszero\n      tag_57\n      jumpi\n      tag_58\n      tag_56\n      jump\t// in\n    tag_58:\n    tag_57:\n      eq\n        /* \"models/voting.sol\":812:874  require(status == VotingStatus.Started,\"Voting is not Active\") */\n      tag_59\n      jumpi\n      mload(0x40)\n      0x08c379a000000000000000000000000000000000000000000000000000000000\n      dup2\n      mstore\n      0x04\n      add\n      tag_60\n      swap1\n      tag_61\n      jump\t// in\n    tag_60:\n      mload(0x40)\n      dup1\n      swap2\n      sub\n      swap1\n      revert\n    tag_59:\n        /* \"models/voting.sol\":1473:1481  hasVoted */\n      0x02\n        /* \"models/voting.sol\":1473:1493  hasVoted[msg.sender] */\n      0x00\n        /* \"models/voting.sol\":1482:1492  msg.sender */\n      caller\n        /* \"models/voting.sol\":1473:1493  hasVoted[msg.sender] */\n      0xffffffffffffffffffffffffffffffffffffffff\n      and\n      0xffffffffffffffffffffffffffffffffffffffff\n      and\n      dup2\n      mstore\n      0x20\n      add\n      swap1\n      dup2\n      mstore\n      0x20\n      add\n      0x00\n      keccak256\n      0x00\n      swap1\n      sload\n      swap1\n      0x0100\n      exp\n      swap1\n      div\n      0xff\n      and\n        /* \"models/voting.sol\":1472:1493  !hasVoted[msg.sender] */\n      iszero\n        /* \"models/voting.sol\":1464:1511  require(!hasVoted[msg.sender],\" Already voted\") */\n      tag_63\n      jumpi\n      mload(0x40)\n      0x08c379a000000000000000000000000000000000000000000000000000000000\n      dup2\n      mstore\n      0x04\n      add\n      tag_64\n      swap1\n      tag_65\n      jump\t// in\n    tag_64:\n      mload(0x40)\n      dup1\n      swap2\n      sub\n      swap1\n      revert\n    tag_63:\n        /* \"models/voting.sol\":1544:1545  0 */\n      0x00\n        /* \"models/voting.sol\":1530:1542  _candidateId */\n      dup2\n        /* \"models/voting.sol\":1530:1545  _candidateId >0 */\n      gt\n        /* \"models/voting.sol\":1530:1579  _candidateId >0 && _candidateId <= candidateCount */\n      dup1\n      iszero\n      tag_66\n      jumpi\n      pop\n        /* \"models/voting.sol\":1565:1579  candidateCount */\n      sload(0x03)\n        /* \"models/voting.sol\":1549:1561  _candidateId */\n      dup2\n        /* \"models/voting.sol\":1549:1579  _candidateId <= candidateCount */\n      gt\n      iszero\n        /* \"models/voting.sol\":1530:1579  _candidateId >0 && _candidateId <= candidateCount */\n    tag_66:\n        /* \"models/voting.sol\":1522:1601  require(_candidateId >0 && _candidateId <= candidateCount,' invalid Candidate') */\n      tag_67\n      jumpi\n      mload(0x40)\n      0x08c379a000000000000000000000000000000000000000000000000000000000\n      dup2\n      mstore\n      0x04\n      add\n      tag_68\n      swap1\n      tag_69\n      jump\t// in\n    tag_68:\n      mload(0x40)\n      dup1\n      swap2\n      sub\n      swap1\n      revert\n    tag_67:\n        /* \"models/voting.sol\":1622:1632  candidates */\n      0x01\n        /* \"models/voting.sol\":1622:1646  candidates[_candidateId] */\n      0x00\n        /* \"models/voting.sol\":1633:1645  _candidateId */\n      dup3\n        /* \"models/voting.sol\":1622:1646  candidates[_candidateId] */\n      dup2\n      mstore\n      0x20\n      add\n      swap1\n      dup2\n      mstore\n      0x20\n      add\n      0x00\n      keccak256\n        /* \"models/voting.sol\":1622:1656  candidates[_candidateId].voteCount */\n      0x02\n      add\n      0x00\n        /* \"models/voting.sol\":1622:1658  candidates[_candidateId].voteCount++ */\n      dup2\n      sload\n      dup1\n      swap3\n      swap2\n      swap1\n      tag_70\n      swap1\n      tag_71\n      jump\t// in\n    tag_70:\n      swap2\n      swap1\n      pop\n      sstore\n      pop\n        /* \"models/voting.sol\":1692:1696  true */\n      0x01\n        /* \"models/voting.sol\":1669:1677  hasVoted */\n      0x02\n        /* \"models/voting.sol\":1669:1689  hasVoted[msg.sender] */\n      0x00\n        /* \"models/voting.sol\":1678:1688  msg.sender */\n      caller\n        /* \"models/voting.sol\":1669:1689  hasVoted[msg.sender] */\n      0xffffffffffffffffffffffffffffffffffffffff\n      and\n      0xffffffffffffffffffffffffffffffffffffffff\n      and\n      dup2\n      mstore\n      0x20\n      add\n      swap1\n      dup2\n      mstore\n      0x20\n      add\n      0x00\n      keccak256\n      0x00\n        /* \"models/voting.sol\":1669:1696  hasVoted[msg.sender] = true */\n      0x0100\n      exp\n      dup2\n      sload\n      dup2\n      0xff\n      mul\n      not\n      and\n      swap1\n      dup4\n      iszero\n      iszero\n      mul\n      or\n      swap1\n      sstore\n      pop\n        /* \"models/voting.sol\":1712:1743  Voted(msg.sender, _candidateId) */\n      0x4d99b957a2bc29a30ebd96a7be8e68fe50a3c701db28a91436490b7d53870ca4\n        /* \"models/voting.sol\":1718:1728  msg.sender */\n      caller\n        /* \"models/voting.sol\":1730:1742  _candidateId */\n      dup3\n        /* \"models/voting.sol\":1712:1743  Voted(msg.sender, _candidateId) */\n      mload(0x40)\n      tag_72\n      swap3\n      swap2\n      swap1\n      tag_73\n      jump\t// in\n    tag_72:\n      mload(0x40)\n      dup1\n      swap2\n      sub\n      swap1\n      log1\n        /* \"models/voting.sol\":1401:1751  function vote(uint _candidateId) public votingActive{... */\n      pop\n      jump\t// out\n        /* \"models/voting.sol\":458:499  mapping (address => bool) public hasVoted */\n    tag_21:\n      mstore(0x20, 0x02)\n      dup1\n      0x00\n      mstore\n      keccak256(0x00, 0x40)\n      0x00\n      swap2\n      pop\n      sload\n      swap1\n      0x0100\n      exp\n      swap1\n      div\n      0xff\n      and\n      dup2\n      jump\t// out\n        /* \"models/voting.sol\":1174:1261  function startVoting() public onlyOwner{... */\n    tag_25:\n        /* \"models/voting.sol\":725:730  owner */\n      0x00\n      0x01\n      swap1\n      sload\n      swap1\n      0x0100\n      exp\n      swap1\n      div\n      0xffffffffffffffffffffffffffffffffffffffff\n      and\n        /* \"models/voting.sol\":711:730  msg.sender == owner */\n      0xffffffffffffffffffffffffffffffffffffffff\n      and\n        /* \"models/voting.sol\":711:721  msg.sender */\n      caller\n        /* \"models/voting.sol\":711:730  msg.sender == owner */\n      0xffffffffffffffffffffffffffffffffffffffff\n      and\n      eq\n        /* \"models/voting.sol\":703:752  require(msg.sender == owner, \" owner is allowed\") */\n      tag_75\n      jumpi\n      mload(0x40)\n      0x08c379a000000000000000000000000000000000000000000000000000000000\n      dup2\n      mstore\n      0x04\n      add\n      tag_76\n      swap1\n      tag_77\n      jump\t// in\n    tag_76:\n      mload(0x40)\n      dup1\n      swap2\n      sub\n      swap1\n      revert\n    tag_75:\n        /* \"models/voting.sol\":1233:1253  VotingStatus.Started */\n      0x01\n        /* \"models/voting.sol\":1224:1230  status */\n      0x00\n      0x00\n        /* \"models/voting.sol\":1224:1253  status = VotingStatus.Started */\n      0x0100\n      exp\n      dup2\n      sload\n      dup2\n      0xff\n      mul\n      not\n      and\n      swap1\n      dup4\n      0x02\n      dup2\n      gt\n      iszero\n      tag_79\n      jumpi\n      tag_80\n      tag_56\n      jump\t// in\n    tag_80:\n    tag_79:\n      mul\n      or\n      swap1\n      sstore\n      pop\n        /* \"models/voting.sol\":1174:1261  function startVoting() public onlyOwner{... */\n      jump\t// out\n        /* \"models/voting.sol\":133:159  VotingStatus public status */\n    tag_27:\n      0x00\n      0x00\n      swap1\n      sload\n      swap1\n      0x0100\n      exp\n      swap1\n      div\n      0xff\n      and\n      dup2\n      jump\t// out\n        /* \"models/voting.sol\":406:451  mapping (uint => Candidate) public candidates */\n    tag_32:\n      mstore(0x20, 0x01)\n      dup1\n      0x00\n      mstore\n      keccak256(0x00, 0x40)\n      0x00\n      swap2\n      pop\n      swap1\n      pop\n      dup1\n      0x00\n      add\n      sload\n      swap1\n      dup1\n      0x01\n      add\n      dup1\n      sload\n      tag_81\n      swap1\n      tag_82\n      jump\t// in\n    tag_81:\n      dup1\n      0x1f\n      add\n      0x20\n      dup1\n      swap2\n      div\n      mul\n      0x20\n      add\n      mload(0x40)\n      swap1\n      dup2\n      add\n      0x40\n      mstore\n      dup1\n      swap3\n      swap2\n      swap1\n      dup2\n      dup2\n      mstore\n      0x20\n      add\n      dup3\n      dup1\n      sload\n      tag_83\n      swap1\n      tag_82\n      jump\t// in\n    tag_83:\n      dup1\n      iszero\n      tag_84\n      jumpi\n      dup1\n      0x1f\n      lt\n      tag_85\n      jumpi\n      0x0100\n      dup1\n      dup4\n      sload\n      div\n      mul\n      dup4\n      mstore\n      swap2\n      0x20\n      add\n      swap2\n      jump(tag_84)\n    tag_85:\n      dup3\n      add\n      swap2\n      swap1\n      0x00\n      mstore\n      keccak256(0x00, 0x20)\n      swap1\n    tag_86:\n      dup2\n      sload\n      dup2\n      mstore\n      swap1\n      0x01\n      add\n      swap1\n      0x20\n      add\n      dup1\n      dup4\n      gt\n      tag_86\n      jumpi\n      dup3\n      swap1\n      sub\n      0x1f\n      and\n      dup3\n      add\n      swap2\n    tag_84:\n      pop\n      pop\n      pop\n      pop\n      pop\n      swap1\n      dup1\n      0x02\n      add\n      sload\n      swap1\n      pop\n      dup4\n      jump\t// out\n        /* \"models/voting.sol\":925:1145  function addCandidate(string memory _name) public onlyOwner{... */\n    tag_38:\n        /* \"models/voting.sol\":725:730  owner */\n      0x00\n      0x01\n      swap1\n      sload\n      swap1\n      0x0100\n      exp\n      swap1\n      div\n      0xffffffffffffffffffffffffffffffffffffffff\n      and\n        /* \"models/voting.sol\":711:730  msg.sender == owner */\n      0xffffffffffffffffffffffffffffffffffffffff\n      and\n        /* \"models/voting.sol\":711:721  msg.sender */\n      caller\n        /* \"models/voting.sol\":711:730  msg.sender == owner */\n      0xffffffffffffffffffffffffffffffffffffffff\n      and\n      eq\n        /* \"models/voting.sol\":703:752  require(msg.sender == owner, \" owner is allowed\") */\n      tag_88\n      jumpi\n      mload(0x40)\n      0x08c379a000000000000000000000000000000000000000000000000000000000\n      dup2\n      mstore\n      0x04\n      add\n      tag_89\n      swap1\n      tag_77\n      jump\t// in\n    tag_89:\n      mload(0x40)\n      dup1\n      swap2\n      sub\n      swap1\n      revert\n    tag_88:\n        /* \"models/voting.sol\":995:1009  candidateCount */\n      0x03\n      0x00\n        /* \"models/voting.sol\":995:1011  candidateCount++ */\n      dup2\n      sload\n      dup1\n      swap3\n      swap2\n      swap1\n      tag_91\n      swap1\n      tag_71\n      jump\t// in\n    tag_91:\n      swap2\n      swap1\n      pop\n      sstore\n      pop\n        /* \"models/voting.sol\":1051:1086  Candidate(candidateCount, _name, 0) */\n      mload(0x40)\n      dup1\n      0x60\n      add\n      0x40\n      mstore\n      dup1\n        /* \"models/voting.sol\":1061:1075  candidateCount */\n      sload(0x03)\n        /* \"models/voting.sol\":1051:1086  Candidate(candidateCount, _name, 0) */\n      dup2\n      mstore\n      0x20\n      add\n        /* \"models/voting.sol\":1077:1082  _name */\n      dup3\n        /* \"models/voting.sol\":1051:1086  Candidate(candidateCount, _name, 0) */\n      dup2\n      mstore\n      0x20\n      add\n        /* \"models/voting.sol\":1084:1085  0 */\n      0x00\n        /* \"models/voting.sol\":1051:1086  Candidate(candidateCount, _name, 0) */\n      dup2\n      mstore\n      pop\n        /* \"models/voting.sol\":1022:1032  candidates */\n      0x01\n        /* \"models/voting.sol\":1022:1048  candidates[candidateCount] */\n      0x00\n        /* \"models/voting.sol\":1033:1047  candidateCount */\n      sload(0x03)\n        /* \"models/voting.sol\":1022:1048  candidates[candidateCount] */\n      dup2\n      mstore\n      0x20\n      add\n      swap1\n      dup2\n      mstore\n      0x20\n      add\n      0x00\n      keccak256\n        /* \"models/voting.sol\":1022:1086  candidates[candidateCount] = Candidate(candidateCount, _name, 0) */\n      0x00\n      dup3\n      add\n      mload\n      dup2\n      0x00\n      add\n      sstore\n      0x20\n      dup3\n      add\n      mload\n      dup2\n      0x01\n      add\n      swap1\n      dup2\n      tag_92\n      swap2\n      swap1\n      tag_93\n      jump\t// in\n    tag_92:\n      pop\n      0x40\n      dup3\n      add\n      mload\n      dup2\n      0x02\n      add\n      sstore\n      swap1\n      pop\n      pop\n        /* \"models/voting.sol\":1102:1137  CandidateAdd(candidateCount, _name) */\n      0xd50043a6a3553def16e768c2c5ca6a70fcaf367a1b2111b3555c44ff680bf9cf\n        /* \"models/voting.sol\":1115:1129  candidateCount */\n      sload(0x03)\n        /* \"models/voting.sol\":1131:1136  _name */\n      dup3\n        /* \"models/voting.sol\":1102:1137  CandidateAdd(candidateCount, _name) */\n      mload(0x40)\n      tag_94\n      swap3\n      swap2\n      swap1\n      tag_95\n      jump\t// in\n    tag_94:\n      mload(0x40)\n      dup1\n      swap2\n      sub\n      swap1\n      log1\n        /* \"models/voting.sol\":925:1145  function addCandidate(string memory _name) public onlyOwner{... */\n      pop\n      jump\t// out\n        /* \"models/voting.sol\":168:188  address public owner */\n    tag_40:\n      0x00\n      0x01\n      swap1\n      sload\n      swap1\n      0x0100\n      exp\n      swap1\n      div\n      0xffffffffffffffffffffffffffffffffffffffff\n      and\n      dup2\n      jump\t// out\n        /* \"models/voting.sol\":1774:2239  function getWinner() public view returns(string memory winnerName){... */\n    tag_44:\n        /* \"models/voting.sol\":1815:1839  string memory winnerName */\n      0x60\n        /* \"models/voting.sol\":1869:1887  VotingStatus.Ended */\n      0x02\n        /* \"models/voting.sol\":1859:1887  status == VotingStatus.Ended */\n      dup1\n      dup2\n      gt\n      iszero\n      tag_97\n      jumpi\n      tag_98\n      tag_56\n      jump\t// in\n    tag_98:\n    tag_97:\n        /* \"models/voting.sol\":1859:1865  status */\n      0x00\n      0x00\n      swap1\n      sload\n      swap1\n      0x0100\n      exp\n      swap1\n      div\n      0xff\n      and\n        /* \"models/voting.sol\":1859:1887  status == VotingStatus.Ended */\n      0x02\n      dup2\n      gt\n      iszero\n      tag_99\n      jumpi\n      tag_100\n      tag_56\n      jump\t// in\n    tag_100:\n    tag_99:\n      eq\n        /* \"models/voting.sol\":1851:1917  require(status == VotingStatus.Ended, \"Voting is still inprocess\") */\n      tag_101\n      jumpi\n      mload(0x40)\n      0x08c379a000000000000000000000000000000000000000000000000000000000\n      dup2\n      mstore\n      0x04\n      add\n      tag_102\n      swap1\n      tag_103\n      jump\t// in\n    tag_102:\n      mload(0x40)\n      dup1\n      swap2\n      sub\n      swap1\n      revert\n    tag_101:\n        /* \"models/voting.sol\":1928:1941  uint maxVotes */\n      0x00\n        /* \"models/voting.sol\":1944:1945  0 */\n      0x00\n        /* \"models/voting.sol\":1928:1945  uint maxVotes = 0 */\n      swap1\n      pop\n        /* \"models/voting.sol\":1956:1969  uint winnerId */\n      0x00\n        /* \"models/voting.sol\":1972:1973  0 */\n      0x00\n        /* \"models/voting.sol\":1956:1973  uint winnerId = 0 */\n      swap1\n      pop\n        /* \"models/voting.sol\":1991:1997  uint i */\n      0x00\n        /* \"models/voting.sol\":1998:1999  1 */\n      0x01\n        /* \"models/voting.sol\":1991:1999  uint i=1 */\n      swap1\n      pop\n        /* \"models/voting.sol\":1986:2189  for (uint i=1; i<=candidateCount; i++){... */\n    tag_104:\n        /* \"models/voting.sol\":2004:2018  candidateCount */\n      sload(0x03)\n        /* \"models/voting.sol\":2001:2002  i */\n      dup2\n        /* \"models/voting.sol\":2001:2018  i<=candidateCount */\n      gt\n        /* \"models/voting.sol\":1986:2189  for (uint i=1; i<=candidateCount; i++){... */\n      tag_105\n      jumpi\n        /* \"models/voting.sol\":2069:2077  maxVotes */\n      dup3\n        /* \"models/voting.sol\":2043:2053  candidates */\n      0x01\n        /* \"models/voting.sol\":2043:2056  candidates[i] */\n      0x00\n        /* \"models/voting.sol\":2054:2055  i */\n      dup4\n        /* \"models/voting.sol\":2043:2056  candidates[i] */\n      dup2\n      mstore\n      0x20\n      add\n      swap1\n      dup2\n      mstore\n      0x20\n      add\n      0x00\n      keccak256\n        /* \"models/voting.sol\":2043:2066  candidates[i].voteCount */\n      0x02\n      add\n      sload\n        /* \"models/voting.sol\":2043:2077  candidates[i].voteCount > maxVotes */\n      gt\n        /* \"models/voting.sol\":2039:2178  if (candidates[i].voteCount > maxVotes){... */\n      iszero\n      tag_107\n      jumpi\n        /* \"models/voting.sol\":2108:2118  candidates */\n      0x01\n        /* \"models/voting.sol\":2108:2121  candidates[i] */\n      0x00\n        /* \"models/voting.sol\":2119:2120  i */\n      dup3\n        /* \"models/voting.sol\":2108:2121  candidates[i] */\n      dup2\n      mstore\n      0x20\n      add\n      swap1\n      dup2\n      mstore\n      0x20\n      add\n      0x00\n      keccak256\n        /* \"models/voting.sol\":2108:2131  candidates[i].voteCount */\n      0x02\n      add\n      sload\n        /* \"models/voting.sol\":2097:2131  maxVotes = candidates[i].voteCount */\n      swap3\n      pop\n        /* \"models/voting.sol\":2161:2162  i */\n      dup1\n        /* \"models/voting.sol\":2150:2162  winnerId = i */\n      swap2\n      pop\n        /* \"models/voting.sol\":2039:2178  if (candidates[i].voteCount > maxVotes){... */\n    tag_107:\n        /* \"models/voting.sol\":2020:2023  i++ */\n      dup1\n      dup1\n      tag_108\n      swap1\n      tag_71\n      jump\t// in\n    tag_108:\n      swap2\n      pop\n      pop\n        /* \"models/voting.sol\":1986:2189  for (uint i=1; i<=candidateCount; i++){... */\n      jump(tag_104)\n    tag_105:\n      pop\n        /* \"models/voting.sol\":2206:2216  candidates */\n      0x01\n        /* \"models/voting.sol\":2206:2226  candidates[winnerId] */\n      0x00\n        /* \"models/voting.sol\":2217:2225  winnerId */\n      dup3\n        /* \"models/voting.sol\":2206:2226  candidates[winnerId] */\n      dup2\n      mstore\n      0x20\n      add\n      swap1\n      dup2\n      mstore\n      0x20\n      add\n      0x00\n      keccak256\n        /* \"models/voting.sol\":2206:2231  candidates[winnerId].name */\n      0x01\n      add\n        /* \"models/voting.sol\":2199:2231  return candidates[winnerId].name */\n      dup1\n      sload\n      tag_109\n      swap1\n      tag_82\n      jump\t// in\n    tag_109:\n      dup1\n      0x1f\n      add\n      0x20\n      dup1\n      swap2\n      div\n      mul\n      0x20\n      add\n      mload(0x40)\n      swap1\n      dup2\n      add\n      0x40\n      mstore\n      dup1\n      swap3\n      swap2\n      swap1\n      dup2\n      dup2\n      mstore\n      0x20\n      add\n      dup3\n      dup1\n      sload\n      tag_110\n      swap1\n      tag_82\n      jump\t// in\n    tag_110:\n      dup1\n      iszero\n      tag_111\n      jumpi\n      dup1\n      0x1f\n      lt\n      tag_112\n      jumpi\n      0x0100\n      dup1\n      dup4\n      sload\n      div\n      mul\n      dup4\n      mstore\n      swap2\n      0x20\n      add\n      swap2\n      jump(tag_111)\n    tag_112:\n      dup3\n      add\n      swap2\n      swap1\n      0x00\n      mstore\n      keccak256(0x00, 0x20)\n      swap1\n    tag_113:\n      dup2\n      sload\n      dup2\n      mstore\n      swap1\n      0x01\n      add\n      swap1\n      0x20\n      add\n      dup1\n      dup4\n      gt\n      tag_113\n      jumpi\n      dup3\n      swap1\n      sub\n      0x1f\n      and\n      dup3\n      add\n      swap2\n    tag_111:\n      pop\n      pop\n      pop\n      pop\n      pop\n      swap3\n      pop\n      pop\n      pop\n        /* \"models/voting.sol\":1774:2239  function getWinner() public view returns(string memory winnerName){... */\n      swap1\n      jump\t// out\n        /* \"models/voting.sol\":506:532  uint public candidateCount */\n    tag_48:\n      sload(0x03)\n      dup2\n      jump\t// out\n        /* \"models/voting.sol\":1286:1369  function endVoting() public onlyOwner{... */\n    tag_52:\n        /* \"models/voting.sol\":725:730  owner */\n      0x00\n      0x01\n      swap1\n      sload\n      swap1\n      0x0100\n      exp\n      swap1\n      div\n      0xffffffffffffffffffffffffffffffffffffffff\n      and\n        /* \"models/voting.sol\":711:730  msg.sender == owner */\n      0xffffffffffffffffffffffffffffffffffffffff\n      and\n        /* \"models/voting.sol\":711:721  msg.sender */\n      caller\n        /* \"models/voting.sol\":711:730  msg.sender == owner */\n      0xffffffffffffffffffffffffffffffffffffffff\n      and\n      eq\n        /* \"models/voting.sol\":703:752  require(msg.sender == owner, \" owner is allowed\") */\n      tag_115\n      jumpi\n      mload(0x40)\n      0x08c379a000000000000000000000000000000000000000000000000000000000\n      dup2\n      mstore\n      0x04\n      add\n      tag_116\n      swap1\n      tag_77\n      jump\t// in\n    tag_116:\n      mload(0x40)\n      dup1\n      swap2\n      sub\n      swap1\n      revert\n    tag_115:\n        /* \"models/voting.sol\":1343:1361  VotingStatus.Ended */\n      0x02\n        /* \"models/voting.sol\":1334:1340  status */\n      0x00\n      0x00\n        /* \"models/voting.sol\":1334:1361  status = VotingStatus.Ended */\n      0x0100\n      exp\n      dup2\n      sload\n      dup2\n      0xff\n      mul\n      not\n      and\n      swap1\n      dup4\n      0x02\n      dup2\n      gt\n      iszero\n      tag_118\n      jumpi\n      tag_119\n      tag_56\n      jump\t// in\n    tag_119:\n    tag_118:\n      mul\n      or\n      swap1\n      sstore\n      pop\n        /* \"models/voting.sol\":1286:1369  function endVoting() public onlyOwner{... */\n      jump\t// out\n        /* \"#utility.yul\":7:82   */\n    tag_120:\n        /* \"#utility.yul\":40:46   */\n      0x00\n        /* \"#utility.yul\":73:75   */\n      0x40\n        /* \"#utility.yul\":67:76   */\n      mload\n        /* \"#utility.yul\":57:76   */\n      swap1\n      pop\n        /* \"#utility.yul\":7:82   */\n      swap1\n      jump\t// out\n        /* \"#utility.yul\":88:205   */\n    tag_121:\n        /* \"#utility.yul\":197:198   */\n      0x00\n        /* \"#utility.yul\":194:195   */\n      0x00\n        /* \"#utility.yul\":187:199   */\n      revert\n        /* \"#utility.yul\":211:328   */\n    tag_122:\n        /* \"#utility.yul\":320:321   */\n      0x00\n        /* \"#utility.yul\":317:318   */\n      0x00\n        /* \"#utility.yul\":310:322   */\n      revert\n        /* \"#utility.yul\":334:411   */\n    tag_123:\n        /* \"#utility.yul\":371:378   */\n      0x00\n        /* \"#utility.yul\":400:405   */\n      dup2\n        /* \"#utility.yul\":389:405   */\n      swap1\n      pop\n        /* \"#utility.yul\":334:411   */\n      swap2\n      swap1\n      pop\n      jump\t// out\n        /* \"#utility.yul\":417:539   */\n    tag_124:\n        /* \"#utility.yul\":490:514   */\n      tag_185\n        /* \"#utility.yul\":508:513   */\n      dup2\n        /* \"#utility.yul\":490:514   */\n      tag_123\n      jump\t// in\n    tag_185:\n        /* \"#utility.yul\":483:488   */\n      dup2\n        /* \"#utility.yul\":480:515   */\n      eq\n        /* \"#utility.yul\":470:533   */\n      tag_186\n      jumpi\n        /* \"#utility.yul\":529:530   */\n      0x00\n        /* \"#utility.yul\":526:527   */\n      0x00\n        /* \"#utility.yul\":519:531   */\n      revert\n        /* \"#utility.yul\":470:533   */\n    tag_186:\n        /* \"#utility.yul\":417:539   */\n      pop\n      jump\t// out\n        /* \"#utility.yul\":545:684   */\n    tag_125:\n        /* \"#utility.yul\":591:596   */\n      0x00\n        /* \"#utility.yul\":629:635   */\n      dup2\n        /* \"#utility.yul\":616:636   */\n      calldataload\n        /* \"#utility.yul\":607:636   */\n      swap1\n      pop\n        /* \"#utility.yul\":645:678   */\n      tag_188\n        /* \"#utility.yul\":672:677   */\n      dup2\n        /* \"#utility.yul\":645:678   */\n      tag_124\n      jump\t// in\n    tag_188:\n        /* \"#utility.yul\":545:684   */\n      swap3\n      swap2\n      pop\n      pop\n      jump\t// out\n        /* \"#utility.yul\":690:1019   */\n    tag_16:\n        /* \"#utility.yul\":749:755   */\n      0x00\n        /* \"#utility.yul\":798:800   */\n      0x20\n        /* \"#utility.yul\":786:795   */\n      dup3\n        /* \"#utility.yul\":777:784   */\n      dup5\n        /* \"#utility.yul\":773:796   */\n      sub\n        /* \"#utility.yul\":769:801   */\n      slt\n        /* \"#utility.yul\":766:885   */\n      iszero\n      tag_190\n      jumpi\n        /* \"#utility.yul\":804:883   */\n      tag_191\n      tag_121\n      jump\t// in\n    tag_191:\n        /* \"#utility.yul\":766:885   */\n    tag_190:\n        /* \"#utility.yul\":924:925   */\n      0x00\n        /* \"#utility.yul\":949:1002   */\n      tag_192\n        /* \"#utility.yul\":994:1001   */\n      dup5\n        /* \"#utility.yul\":985:991   */\n      dup3\n        /* \"#utility.yul\":974:983   */\n      dup6\n        /* \"#utility.yul\":970:992   */\n      add\n        /* \"#utility.yul\":949:1002   */\n      tag_125\n      jump\t// in\n    tag_192:\n        /* \"#utility.yul\":939:1002   */\n      swap2\n      pop\n        /* \"#utility.yul\":895:1012   */\n      pop\n        /* \"#utility.yul\":690:1019   */\n      swap3\n      swap2\n      pop\n      pop\n      jump\t// out\n        /* \"#utility.yul\":1025:1151   */\n    tag_126:\n        /* \"#utility.yul\":1062:1069   */\n      0x00\n        /* \"#utility.yul\":1102:1144   */\n      0xffffffffffffffffffffffffffffffffffffffff\n        /* \"#utility.yul\":1095:1100   */\n      dup3\n        /* \"#utility.yul\":1091:1145   */\n      and\n        /* \"#utility.yul\":1080:1145   */\n      swap1\n      pop\n        /* \"#utility.yul\":1025:1151   */\n      swap2\n      swap1\n      pop\n      jump\t// out\n        /* \"#utility.yul\":1157:1253   */\n    tag_127:\n        /* \"#utility.yul\":1194:1201   */\n      0x00\n        /* \"#utility.yul\":1223:1247   */\n      tag_195\n        /* \"#utility.yul\":1241:1246   */\n      dup3\n        /* \"#utility.yul\":1223:1247   */\n      tag_126\n      jump\t// in\n    tag_195:\n        /* \"#utility.yul\":1212:1247   */\n      swap1\n      pop\n        /* \"#utility.yul\":1157:1253   */\n      swap2\n      swap1\n      pop\n      jump\t// out\n        /* \"#utility.yul\":1259:1381   */\n    tag_128:\n        /* \"#utility.yul\":1332:1356   */\n      tag_197\n        /* \"#utility.yul\":1350:1355   */\n      dup2\n        /* \"#utility.yul\":1332:1356   */\n      tag_127\n      jump\t// in\n    tag_197:\n        /* \"#utility.yul\":1325:1330   */\n      dup2\n        /* \"#utility.yul\":1322:1357   */\n      eq\n        /* \"#utility.yul\":1312:1375   */\n      tag_198\n      jumpi\n        /* \"#utility.yul\":1371:1372   */\n      0x00\n        /* \"#utility.yul\":1368:1369   */\n      0x00\n        /* \"#utility.yul\":1361:1373   */\n      revert\n        /* \"#utility.yul\":1312:1375   */\n    tag_198:\n        /* \"#utility.yul\":1259:1381   */\n      pop\n      jump\t// out\n        /* \"#utility.yul\":1387:1526   */\n    tag_129:\n        /* \"#utility.yul\":1433:1438   */\n      0x00\n        /* \"#utility.yul\":1471:1477   */\n      dup2\n        /* \"#utility.yul\":1458:1478   */\n      calldataload\n        /* \"#utility.yul\":1449:1478   */\n      swap1\n      pop\n        /* \"#utility.yul\":1487:1520   */\n      tag_200\n        /* \"#utility.yul\":1514:1519   */\n      dup2\n        /* \"#utility.yul\":1487:1520   */\n      tag_128\n      jump\t// in\n    tag_200:\n        /* \"#utility.yul\":1387:1526   */\n      swap3\n      swap2\n      pop\n      pop\n      jump\t// out\n        /* \"#utility.yul\":1532:1861   */\n    tag_20:\n        /* \"#utility.yul\":1591:1597   */\n      0x00\n        /* \"#utility.yul\":1640:1642   */\n      0x20\n        /* \"#utility.yul\":1628:1637   */\n      dup3\n        /* \"#utility.yul\":1619:1626   */\n      dup5\n        /* \"#utility.yul\":1615:1638   */\n      sub\n        /* \"#utility.yul\":1611:1643   */\n      slt\n        /* \"#utility.yul\":1608:1727   */\n      iszero\n      tag_202\n      jumpi\n        /* \"#utility.yul\":1646:1725   */\n      tag_203\n      tag_121\n      jump\t// in\n    tag_203:\n        /* \"#utility.yul\":1608:1727   */\n    tag_202:\n        /* \"#utility.yul\":1766:1767   */\n      0x00\n        /* \"#utility.yul\":1791:1844   */\n      tag_204\n        /* \"#utility.yul\":1836:1843   */\n      dup5\n        /* \"#utility.yul\":1827:1833   */\n      dup3\n        /* \"#utility.yul\":1816:1825   */\n      dup6\n        /* \"#utility.yul\":1812:1834   */\n      add\n        /* \"#utility.yul\":1791:1844   */\n      tag_129\n      jump\t// in\n    tag_204:\n        /* \"#utility.yul\":1781:1844   */\n      swap2\n      pop\n        /* \"#utility.yul\":1737:1854   */\n      pop\n        /* \"#utility.yul\":1532:1861   */\n      swap3\n      swap2\n      pop\n      pop\n      jump\t// out\n        /* \"#utility.yul\":1867:1957   */\n    tag_130:\n        /* \"#utility.yul\":1901:1908   */\n      0x00\n        /* \"#utility.yul\":1944:1949   */\n      dup2\n        /* \"#utility.yul\":1937:1950   */\n      iszero\n        /* \"#utility.yul\":1930:1951   */\n      iszero\n        /* \"#utility.yul\":1919:1951   */\n      swap1\n      pop\n        /* \"#utility.yul\":1867:1957   */\n      swap2\n      swap1\n      pop\n      jump\t// out\n        /* \"#utility.yul\":1963:2072   */\n    tag_131:\n        /* \"#utility.yul\":2044:2065   */\n      tag_207\n        /* \"#utility.yul\":2059:2064   */\n      dup2\n        /* \"#utility.yul\":2044:2065   */\n      tag_130\n      jump\t// in\n    tag_207:\n        /* \"#utility.yul\":2039:2042   */\n      dup3\n        /* \"#utility.yul\":2032:2066   */\n      mstore\n        /* \"#utility.yul\":1963:2072   */\n      pop\n      pop\n      jump\t// out\n        /* \"#utility.yul\":2078:2288   */\n    tag_23:\n        /* \"#utility.yul\":2165:2169   */\n      0x00\n        /* \"#utility.yul\":2203:2205   */\n      0x20\n        /* \"#utility.yul\":2192:2201   */\n      dup3\n        /* \"#utility.yul\":2188:2206   */\n      add\n        /* \"#utility.yul\":2180:2206   */\n      swap1\n      pop\n        /* \"#utility.yul\":2216:2281   */\n      tag_209\n        /* \"#utility.yul\":2278:2279   */\n      0x00\n        /* \"#utility.yul\":2267:2276   */\n      dup4\n        /* \"#utility.yul\":2263:2280   */\n      add\n        /* \"#utility.yul\":2254:2260   */\n      dup5\n        /* \"#utility.yul\":2216:2281   */\n      tag_131\n      jump\t// in\n    tag_209:\n        /* \"#utility.yul\":2078:2288   */\n      swap3\n      swap2\n      pop\n      pop\n      jump\t// out\n        /* \"#utility.yul\":2294:2474   */\n    tag_56:\n        /* \"#utility.yul\":2342:2419   */\n      0x4e487b7100000000000000000000000000000000000000000000000000000000\n        /* \"#utility.yul\":2339:2340   */\n      0x00\n        /* \"#utility.yul\":2332:2420   */\n      mstore\n        /* \"#utility.yul\":2439:2443   */\n      0x21\n        /* \"#utility.yul\":2436:2437   */\n      0x04\n        /* \"#utility.yul\":2429:2444   */\n      mstore\n        /* \"#utility.yul\":2463:2467   */\n      0x24\n        /* \"#utility.yul\":2460:2461   */\n      0x00\n        /* \"#utility.yul\":2453:2468   */\n      revert\n        /* \"#utility.yul\":2480:2599   */\n    tag_132:\n        /* \"#utility.yul\":2567:2568   */\n      0x03\n        /* \"#utility.yul\":2560:2565   */\n      dup2\n        /* \"#utility.yul\":2557:2569   */\n      lt\n        /* \"#utility.yul\":2547:2593   */\n      tag_212\n      jumpi\n        /* \"#utility.yul\":2573:2591   */\n      tag_213\n      tag_56\n      jump\t// in\n    tag_213:\n        /* \"#utility.yul\":2547:2593   */\n    tag_212:\n        /* \"#utility.yul\":2480:2599   */\n      pop\n      jump\t// out\n        /* \"#utility.yul\":2605:2744   */\n    tag_133:\n        /* \"#utility.yul\":2656:2663   */\n      0x00\n        /* \"#utility.yul\":2685:2690   */\n      dup2\n        /* \"#utility.yul\":2674:2690   */\n      swap1\n      pop\n        /* \"#utility.yul\":2691:2738   */\n      tag_215\n        /* \"#utility.yul\":2732:2737   */\n      dup3\n        /* \"#utility.yul\":2691:2738   */\n      tag_132\n      jump\t// in\n    tag_215:\n        /* \"#utility.yul\":2605:2744   */\n      swap2\n      swap1\n      pop\n      jump\t// out\n        /* \"#utility.yul\":2750:2889   */\n    tag_134:\n        /* \"#utility.yul\":2812:2821   */\n      0x00\n        /* \"#utility.yul\":2845:2883   */\n      tag_217\n        /* \"#utility.yul\":2877:2882   */\n      dup3\n        /* \"#utility.yul\":2845:2883   */\n      tag_133\n      jump\t// in\n    tag_217:\n        /* \"#utility.yul\":2832:2883   */\n      swap1\n      pop\n        /* \"#utility.yul\":2750:2889   */\n      swap2\n      swap1\n      pop\n      jump\t// out\n        /* \"#utility.yul\":2895:3050   */\n    tag_135:\n        /* \"#utility.yul\":2994:3043   */\n      tag_219\n        /* \"#utility.yul\":3037:3042   */\n      dup2\n        /* \"#utility.yul\":2994:3043   */\n      tag_134\n      jump\t// in\n    tag_219:\n        /* \"#utility.yul\":2989:2992   */\n      dup3\n        /* \"#utility.yul\":2982:3044   */\n      mstore\n        /* \"#utility.yul\":2895:3050   */\n      pop\n      pop\n      jump\t// out\n        /* \"#utility.yul\":3056:3302   */\n    tag_29:\n        /* \"#utility.yul\":3161:3165   */\n      0x00\n        /* \"#utility.yul\":3199:3201   */\n      0x20\n        /* \"#utility.yul\":3188:3197   */\n      dup3\n        /* \"#utility.yul\":3184:3202   */\n      add\n        /* \"#utility.yul\":3176:3202   */\n      swap1\n      pop\n        /* \"#utility.yul\":3212:3295   */\n      tag_221\n        /* \"#utility.yul\":3292:3293   */\n      0x00\n        /* \"#utility.yul\":3281:3290   */\n      dup4\n        /* \"#utility.yul\":3277:3294   */\n      add\n        /* \"#utility.yul\":3268:3274   */\n      dup5\n        /* \"#utility.yul\":3212:3295   */\n      tag_135\n      jump\t// in\n    tag_221:\n        /* \"#utility.yul\":3056:3302   */\n      swap3\n      swap2\n      pop\n      pop\n      jump\t// out\n        /* \"#utility.yul\":3308:3426   */\n    tag_136:\n        /* \"#utility.yul\":3395:3419   */\n      tag_223\n        /* \"#utility.yul\":3413:3418   */\n      dup2\n        /* \"#utility.yul\":3395:3419   */\n      tag_123\n      jump\t// in\n    tag_223:\n        /* \"#utility.yul\":3390:3393   */\n      dup3\n        /* \"#utility.yul\":3383:3420   */\n      mstore\n        /* \"#utility.yul\":3308:3426   */\n      pop\n      pop\n      jump\t// out\n        /* \"#utility.yul\":3432:3531   */\n    tag_137:\n        /* \"#utility.yul\":3484:3490   */\n      0x00\n        /* \"#utility.yul\":3518:3523   */\n      dup2\n        /* \"#utility.yul\":3512:3524   */\n      mload\n        /* \"#utility.yul\":3502:3524   */\n      swap1\n      pop\n        /* \"#utility.yul\":3432:3531   */\n      swap2\n      swap1\n      pop\n      jump\t// out\n        /* \"#utility.yul\":3537:3706   */\n    tag_138:\n        /* \"#utility.yul\":3621:3632   */\n      0x00\n        /* \"#utility.yul\":3655:3661   */\n      dup3\n        /* \"#utility.yul\":3650:3653   */\n      dup3\n        /* \"#utility.yul\":3643:3662   */\n      mstore\n        /* \"#utility.yul\":3695:3699   */\n      0x20\n        /* \"#utility.yul\":3690:3693   */\n      dup3\n        /* \"#utility.yul\":3686:3700   */\n      add\n        /* \"#utility.yul\":3671:3700   */\n      swap1\n      pop\n        /* \"#utility.yul\":3537:3706   */\n      swap3\n      swap2\n      pop\n      pop\n      jump\t// out\n        /* \"#utility.yul\":3712:3851   */\n    tag_139:\n        /* \"#utility.yul\":3801:3807   */\n      dup3\n        /* \"#utility.yul\":3796:3799   */\n      dup2\n        /* \"#utility.yul\":3791:3794   */\n      dup4\n        /* \"#utility.yul\":3785:3808   */\n      mcopy\n        /* \"#utility.yul\":3842:3843   */\n      0x00\n        /* \"#utility.yul\":3833:3839   */\n      dup4\n        /* \"#utility.yul\":3828:3831   */\n      dup4\n        /* \"#utility.yul\":3824:3840   */\n      add\n        /* \"#utility.yul\":3817:3844   */\n      mstore\n        /* \"#utility.yul\":3712:3851   */\n      pop\n      pop\n      pop\n      jump\t// out\n        /* \"#utility.yul\":3857:3959   */\n    tag_140:\n        /* \"#utility.yul\":3898:3904   */\n      0x00\n        /* \"#utility.yul\":3949:3951   */\n      0x1f\n        /* \"#utility.yul\":3945:3952   */\n      not\n        /* \"#utility.yul\":3940:3942   */\n      0x1f\n        /* \"#utility.yul\":3933:3938   */\n      dup4\n        /* \"#utility.yul\":3929:3943   */\n      add\n        /* \"#utility.yul\":3925:3953   */\n      and\n        /* \"#utility.yul\":3915:3953   */\n      swap1\n      pop\n        /* \"#utility.yul\":3857:3959   */\n      swap2\n      swap1\n      pop\n      jump\t// out\n        /* \"#utility.yul\":3965:4342   */\n    tag_141:\n        /* \"#utility.yul\":4053:4056   */\n      0x00\n        /* \"#utility.yul\":4081:4120   */\n      tag_229\n        /* \"#utility.yul\":4114:4119   */\n      dup3\n        /* \"#utility.yul\":4081:4120   */\n      tag_137\n      jump\t// in\n    tag_229:\n        /* \"#utility.yul\":4136:4207   */\n      tag_230\n        /* \"#utility.yul\":4200:4206   */\n      dup2\n        /* \"#utility.yul\":4195:4198   */\n      dup6\n        /* \"#utility.yul\":4136:4207   */\n      tag_138\n      jump\t// in\n    tag_230:\n        /* \"#utility.yul\":4129:4207   */\n      swap4\n      pop\n        /* \"#utility.yul\":4216:4281   */\n      tag_231\n        /* \"#utility.yul\":4274:4280   */\n      dup2\n        /* \"#utility.yul\":4269:4272   */\n      dup6\n        /* \"#utility.yul\":4262:4266   */\n      0x20\n        /* \"#utility.yul\":4255:4260   */\n      dup7\n        /* \"#utility.yul\":4251:4267   */\n      add\n        /* \"#utility.yul\":4216:4281   */\n      tag_139\n      jump\t// in\n    tag_231:\n        /* \"#utility.yul\":4306:4335   */\n      tag_232\n        /* \"#utility.yul\":4328:4334   */\n      dup2\n        /* \"#utility.yul\":4306:4335   */\n      tag_140\n      jump\t// in\n    tag_232:\n        /* \"#utility.yul\":4301:4304   */\n      dup5\n        /* \"#utility.yul\":4297:4336   */\n      add\n        /* \"#utility.yul\":4290:4336   */\n      swap2\n      pop\n        /* \"#utility.yul\":4057:4342   */\n      pop\n        /* \"#utility.yul\":3965:4342   */\n      swap3\n      swap2\n      pop\n      pop\n      jump\t// out\n        /* \"#utility.yul\":4348:4881   */\n    tag_34:\n        /* \"#utility.yul\":4517:4521   */\n      0x00\n        /* \"#utility.yul\":4555:4557   */\n      0x60\n        /* \"#utility.yul\":4544:4553   */\n      dup3\n        /* \"#utility.yul\":4540:4558   */\n      add\n        /* \"#utility.yul\":4532:4558   */\n      swap1\n      pop\n        /* \"#utility.yul\":4568:4639   */\n      tag_234\n        /* \"#utility.yul\":4636:4637   */\n      0x00\n        /* \"#utility.yul\":4625:4634   */\n      dup4\n        /* \"#utility.yul\":4621:4638   */\n      add\n        /* \"#utility.yul\":4612:4618   */\n      dup7\n        /* \"#utility.yul\":4568:4639   */\n      tag_136\n      jump\t// in\n    tag_234:\n        /* \"#utility.yul\":4686:4695   */\n      dup2\n        /* \"#utility.yul\":4680:4684   */\n      dup2\n        /* \"#utility.yul\":4676:4696   */\n      sub\n        /* \"#utility.yul\":4671:4673   */\n      0x20\n        /* \"#utility.yul\":4660:4669   */\n      dup4\n        /* \"#utility.yul\":4656:4674   */\n      add\n        /* \"#utility.yul\":4649:4697   */\n      mstore\n        /* \"#utility.yul\":4714:4792   */\n      tag_235\n        /* \"#utility.yul\":4787:4791   */\n      dup2\n        /* \"#utility.yul\":4778:4784   */\n      dup6\n        /* \"#utility.yul\":4714:4792   */\n      tag_141\n      jump\t// in\n    tag_235:\n        /* \"#utility.yul\":4706:4792   */\n      swap1\n      pop\n        /* \"#utility.yul\":4802:4874   */\n      tag_236\n        /* \"#utility.yul\":4870:4872   */\n      0x40\n        /* \"#utility.yul\":4859:4868   */\n      dup4\n        /* \"#utility.yul\":4855:4873   */\n      add\n        /* \"#utility.yul\":4846:4852   */\n      dup5\n        /* \"#utility.yul\":4802:4874   */\n      tag_136\n      jump\t// in\n    tag_236:\n        /* \"#utility.yul\":4348:4881   */\n      swap5\n      swap4\n      pop\n      pop\n      pop\n      pop\n      jump\t// out\n        /* \"#utility.yul\":4887:5004   */\n    tag_142:\n        /* \"#utility.yul\":4996:4997   */\n      0x00\n        /* \"#utility.yul\":4993:4994   */\n      0x00\n        /* \"#utility.yul\":4986:4998   */\n      revert\n        /* \"#utility.yul\":5010:5127   */\n    tag_143:\n        /* \"#utility.yul\":5119:5120   */\n      0x00\n        /* \"#utility.yul\":5116:5117   */\n      0x00\n        /* \"#utility.yul\":5109:5121   */\n      revert\n        /* \"#utility.yul\":5133:5313   */\n    tag_144:\n        /* \"#utility.yul\":5181:5258   */\n      0x4e487b7100000000000000000000000000000000000000000000000000000000\n        /* \"#utility.yul\":5178:5179   */\n      0x00\n        /* \"#utility.yul\":5171:5259   */\n      mstore\n        /* \"#utility.yul\":5278:5282   */\n      0x41\n        /* \"#utility.yul\":5275:5276   */\n      0x04\n        /* \"#utility.yul\":5268:5283   */\n      mstore\n        /* \"#utility.yul\":5302:5306   */\n      0x24\n        /* \"#utility.yul\":5299:5300   */\n      0x00\n        /* \"#utility.yul\":5292:5307   */\n      revert\n        /* \"#utility.yul\":5319:5600   */\n    tag_145:\n        /* \"#utility.yul\":5402:5429   */\n      tag_241\n        /* \"#utility.yul\":5424:5428   */\n      dup3\n        /* \"#utility.yul\":5402:5429   */\n      tag_140\n      jump\t// in\n    tag_241:\n        /* \"#utility.yul\":5394:5400   */\n      dup2\n        /* \"#utility.yul\":5390:5430   */\n      add\n        /* \"#utility.yul\":5532:5538   */\n      dup2\n        /* \"#utility.yul\":5520:5530   */\n      dup2\n        /* \"#utility.yul\":5517:5539   */\n      lt\n        /* \"#utility.yul\":5496:5514   */\n      0xffffffffffffffff\n        /* \"#utility.yul\":5484:5494   */\n      dup3\n        /* \"#utility.yul\":5481:5515   */\n      gt\n        /* \"#utility.yul\":5478:5540   */\n      or\n        /* \"#utility.yul\":5475:5563   */\n      iszero\n      tag_242\n      jumpi\n        /* \"#utility.yul\":5543:5561   */\n      tag_243\n      tag_144\n      jump\t// in\n    tag_243:\n        /* \"#utility.yul\":5475:5563   */\n    tag_242:\n        /* \"#utility.yul\":5583:5593   */\n      dup1\n        /* \"#utility.yul\":5579:5581   */\n      0x40\n        /* \"#utility.yul\":5572:5594   */\n      mstore\n        /* \"#utility.yul\":5362:5600   */\n      pop\n        /* \"#utility.yul\":5319:5600   */\n      pop\n      pop\n      jump\t// out\n        /* \"#utility.yul\":5606:5735   */\n    tag_146:\n        /* \"#utility.yul\":5640:5646   */\n      0x00\n        /* \"#utility.yul\":5667:5687   */\n      tag_245\n      tag_120\n      jump\t// in\n    tag_245:\n        /* \"#utility.yul\":5657:5687   */\n      swap1\n      pop\n        /* \"#utility.yul\":5696:5729   */\n      tag_246\n        /* \"#utility.yul\":5724:5728   */\n      dup3\n        /* \"#utility.yul\":5716:5722   */\n      dup3\n        /* \"#utility.yul\":5696:5729   */\n      tag_145\n      jump\t// in\n    tag_246:\n        /* \"#utility.yul\":5606:5735   */\n      swap2\n      swap1\n      pop\n      jump\t// out\n        /* \"#utility.yul\":5741:6049   */\n    tag_147:\n        /* \"#utility.yul\":5803:5807   */\n      0x00\n        /* \"#utility.yul\":5893:5911   */\n      0xffffffffffffffff\n        /* \"#utility.yul\":5885:5891   */\n      dup3\n        /* \"#utility.yul\":5882:5912   */\n      gt\n        /* \"#utility.yul\":5879:5935   */\n      iszero\n      tag_248\n      jumpi\n        /* \"#utility.yul\":5915:5933   */\n      tag_249\n      tag_144\n      jump\t// in\n    tag_249:\n        /* \"#utility.yul\":5879:5935   */\n    tag_248:\n        /* \"#utility.yul\":5953:5982   */\n      tag_250\n        /* \"#utility.yul\":5975:5981   */\n      dup3\n        /* \"#utility.yul\":5953:5982   */\n      tag_140\n      jump\t// in\n    tag_250:\n        /* \"#utility.yul\":5945:5982   */\n      swap1\n      pop\n        /* \"#utility.yul\":6037:6041   */\n      0x20\n        /* \"#utility.yul\":6031:6035   */\n      dup2\n        /* \"#utility.yul\":6027:6042   */\n      add\n        /* \"#utility.yul\":6019:6042   */\n      swap1\n      pop\n        /* \"#utility.yul\":5741:6049   */\n      swap2\n      swap1\n      pop\n      jump\t// out\n        /* \"#utility.yul\":6055:6203   */\n    tag_148:\n        /* \"#utility.yul\":6153:6159   */\n      dup3\n        /* \"#utility.yul\":6148:6151   */\n      dup2\n        /* \"#utility.yul\":6143:6146   */\n      dup4\n        /* \"#utility.yul\":6130:6160   */\n      calldatacopy\n        /* \"#utility.yul\":6194:6195   */\n      0x00\n        /* \"#utility.yul\":6185:6191   */\n      dup4\n        /* \"#utility.yul\":6180:6183   */\n      dup4\n        /* \"#utility.yul\":6176:6192   */\n      add\n        /* \"#utility.yul\":6169:6196   */\n      mstore\n        /* \"#utility.yul\":6055:6203   */\n      pop\n      pop\n      pop\n      jump\t// out\n        /* \"#utility.yul\":6209:6634   */\n    tag_149:\n        /* \"#utility.yul\":6287:6292   */\n      0x00\n        /* \"#utility.yul\":6312:6378   */\n      tag_253\n        /* \"#utility.yul\":6328:6377   */\n      tag_254\n        /* \"#utility.yul\":6370:6376   */\n      dup5\n        /* \"#utility.yul\":6328:6377   */\n      tag_147\n      jump\t// in\n    tag_254:\n        /* \"#utility.yul\":6312:6378   */\n      tag_146\n      jump\t// in\n    tag_253:\n        /* \"#utility.yul\":6303:6378   */\n      swap1\n      pop\n        /* \"#utility.yul\":6401:6407   */\n      dup3\n        /* \"#utility.yul\":6394:6399   */\n      dup2\n        /* \"#utility.yul\":6387:6408   */\n      mstore\n        /* \"#utility.yul\":6439:6443   */\n      0x20\n        /* \"#utility.yul\":6432:6437   */\n      dup2\n        /* \"#utility.yul\":6428:6444   */\n      add\n        /* \"#utility.yul\":6477:6480   */\n      dup5\n        /* \"#utility.yul\":6468:6474   */\n      dup5\n        /* \"#utility.yul\":6463:6466   */\n      dup5\n        /* \"#utility.yul\":6459:6475   */\n      add\n        /* \"#utility.yul\":6456:6481   */\n      gt\n        /* \"#utility.yul\":6453:6565   */\n      iszero\n      tag_255\n      jumpi\n        /* \"#utility.yul\":6484:6563   */\n      tag_256\n      tag_143\n      jump\t// in\n    tag_256:\n        /* \"#utility.yul\":6453:6565   */\n    tag_255:\n        /* \"#utility.yul\":6574:6628   */\n      tag_257\n        /* \"#utility.yul\":6621:6627   */\n      dup5\n        /* \"#utility.yul\":6616:6619   */\n      dup3\n        /* \"#utility.yul\":6611:6614   */\n      dup6\n        /* \"#utility.yul\":6574:6628   */\n      tag_148\n      jump\t// in\n    tag_257:\n        /* \"#utility.yul\":6293:6634   */\n      pop\n        /* \"#utility.yul\":6209:6634   */\n      swap4\n      swap3\n      pop\n      pop\n      pop\n      jump\t// out\n        /* \"#utility.yul\":6654:6994   */\n    tag_150:\n        /* \"#utility.yul\":6710:6715   */\n      0x00\n        /* \"#utility.yul\":6759:6762   */\n      dup3\n        /* \"#utility.yul\":6752:6756   */\n      0x1f\n        /* \"#utility.yul\":6744:6750   */\n      dup4\n        /* \"#utility.yul\":6740:6757   */\n      add\n        /* \"#utility.yul\":6736:6763   */\n      slt\n        /* \"#utility.yul\":6726:6848   */\n      tag_259\n      jumpi\n        /* \"#utility.yul\":6767:6846   */\n      tag_260\n      tag_142\n      jump\t// in\n    tag_260:\n        /* \"#utility.yul\":6726:6848   */\n    tag_259:\n        /* \"#utility.yul\":6884:6890   */\n      dup2\n        /* \"#utility.yul\":6871:6891   */\n      calldataload\n        /* \"#utility.yul\":6909:6988   */\n      tag_261\n        /* \"#utility.yul\":6984:6987   */\n      dup5\n        /* \"#utility.yul\":6976:6982   */\n      dup3\n        /* \"#utility.yul\":6969:6973   */\n      0x20\n        /* \"#utility.yul\":6961:6967   */\n      dup7\n        /* \"#utility.yul\":6957:6974   */\n      add\n        /* \"#utility.yul\":6909:6988   */\n      tag_149\n      jump\t// in\n    tag_261:\n        /* \"#utility.yul\":6900:6988   */\n      swap2\n      pop\n        /* \"#utility.yul\":6716:6994   */\n      pop\n        /* \"#utility.yul\":6654:6994   */\n      swap3\n      swap2\n      pop\n      pop\n      jump\t// out\n        /* \"#utility.yul\":7000:7509   */\n    tag_37:\n        /* \"#utility.yul\":7069:7075   */\n      0x00\n        /* \"#utility.yul\":7118:7120   */\n      0x20\n        /* \"#utility.yul\":7106:7115   */\n      dup3\n        /* \"#utility.yul\":7097:7104   */\n      dup5\n        /* \"#utility.yul\":7093:7116   */\n      sub\n        /* \"#utility.yul\":7089:7121   */\n      slt\n        /* \"#utility.yul\":7086:7205   */\n      iszero\n      tag_263\n      jumpi\n        /* \"#utility.yul\":7124:7203   */\n      tag_264\n      tag_121\n      jump\t// in\n    tag_264:\n        /* \"#utility.yul\":7086:7205   */\n    tag_263:\n        /* \"#utility.yul\":7272:7273   */\n      0x00\n        /* \"#utility.yul\":7261:7270   */\n      dup3\n        /* \"#utility.yul\":7257:7274   */\n      add\n        /* \"#utility.yul\":7244:7275   */\n      calldataload\n        /* \"#utility.yul\":7302:7320   */\n      0xffffffffffffffff\n        /* \"#utility.yul\":7294:7300   */\n      dup2\n        /* \"#utility.yul\":7291:7321   */\n      gt\n        /* \"#utility.yul\":7288:7405   */\n      iszero\n      tag_265\n      jumpi\n        /* \"#utility.yul\":7324:7403   */\n      tag_266\n      tag_122\n      jump\t// in\n    tag_266:\n        /* \"#utility.yul\":7288:7405   */\n    tag_265:\n        /* \"#utility.yul\":7429:7492   */\n      tag_267\n        /* \"#utility.yul\":7484:7491   */\n      dup5\n        /* \"#utility.yul\":7475:7481   */\n      dup3\n        /* \"#utility.yul\":7464:7473   */\n      dup6\n        /* \"#utility.yul\":7460:7482   */\n      add\n        /* \"#utility.yul\":7429:7492   */\n      tag_150\n      jump\t// in\n    tag_267:\n        /* \"#utility.yul\":7419:7492   */\n      swap2\n      pop\n        /* \"#utility.yul\":7215:7502   */\n      pop\n        /* \"#utility.yul\":7000:7509   */\n      swap3\n      swap2\n      pop\n      pop\n      jump\t// out\n        /* \"#utility.yul\":7515:7633   */\n    tag_151:\n        /* \"#utility.yul\":7602:7626   */\n      tag_269\n        /* \"#utility.yul\":7620:7625   */\n      dup2\n        /* \"#utility.yul\":7602:7626   */\n      tag_127\n      jump\t// in\n    tag_269:\n        /* \"#utility.yul\":7597:7600   */\n      dup3\n        /* \"#utility.yul\":7590:7627   */\n      mstore\n        /* \"#utility.yul\":7515:7633   */\n      pop\n      pop\n      jump\t// out\n        /* \"#utility.yul\":7639:7861   */\n    tag_42:\n        /* \"#utility.yul\":7732:7736   */\n      0x00\n        /* \"#utility.yul\":7770:7772   */\n      0x20\n        /* \"#utility.yul\":7759:7768   */\n      dup3\n        /* \"#utility.yul\":7755:7773   */\n      add\n        /* \"#utility.yul\":7747:7773   */\n      swap1\n      pop\n        /* \"#utility.yul\":7783:7854   */\n      tag_271\n        /* \"#utility.yul\":7851:7852   */\n      0x00\n        /* \"#utility.yul\":7840:7849   */\n      dup4\n        /* \"#utility.yul\":7836:7853   */\n      add\n        /* \"#utility.yul\":7827:7833   */\n      dup5\n        /* \"#utility.yul\":7783:7854   */\n      tag_151\n      jump\t// in\n    tag_271:\n        /* \"#utility.yul\":7639:7861   */\n      swap3\n      swap2\n      pop\n      pop\n      jump\t// out\n        /* \"#utility.yul\":7867:8180   */\n    tag_46:\n        /* \"#utility.yul\":7980:7984   */\n      0x00\n        /* \"#utility.yul\":8018:8020   */\n      0x20\n        /* \"#utility.yul\":8007:8016   */\n      dup3\n        /* \"#utility.yul\":8003:8021   */\n      add\n        /* \"#utility.yul\":7995:8021   */\n      swap1\n      pop\n        /* \"#utility.yul\":8067:8076   */\n      dup2\n        /* \"#utility.yul\":8061:8065   */\n      dup2\n        /* \"#utility.yul\":8057:8077   */\n      sub\n        /* \"#utility.yul\":8053:8054   */\n      0x00\n        /* \"#utility.yul\":8042:8051   */\n      dup4\n        /* \"#utility.yul\":8038:8055   */\n      add\n        /* \"#utility.yul\":8031:8078   */\n      mstore\n        /* \"#utility.yul\":8095:8173   */\n      tag_273\n        /* \"#utility.yul\":8168:8172   */\n      dup2\n        /* \"#utility.yul\":8159:8165   */\n      dup5\n        /* \"#utility.yul\":8095:8173   */\n      tag_141\n      jump\t// in\n    tag_273:\n        /* \"#utility.yul\":8087:8173   */\n      swap1\n      pop\n        /* \"#utility.yul\":7867:8180   */\n      swap3\n      swap2\n      pop\n      pop\n      jump\t// out\n        /* \"#utility.yul\":8186:8408   */\n    tag_50:\n        /* \"#utility.yul\":8279:8283   */\n      0x00\n        /* \"#utility.yul\":8317:8319   */\n      0x20\n        /* \"#utility.yul\":8306:8315   */\n      dup3\n        /* \"#utility.yul\":8302:8320   */\n      add\n        /* \"#utility.yul\":8294:8320   */\n      swap1\n      pop\n        /* \"#utility.yul\":8330:8401   */\n      tag_275\n        /* \"#utility.yul\":8398:8399   */\n      0x00\n        /* \"#utility.yul\":8387:8396   */\n      dup4\n        /* \"#utility.yul\":8383:8400   */\n      add\n        /* \"#utility.yul\":8374:8380   */\n      dup5\n        /* \"#utility.yul\":8330:8401   */\n      tag_136\n      jump\t// in\n    tag_275:\n        /* \"#utility.yul\":8186:8408   */\n      swap3\n      swap2\n      pop\n      pop\n      jump\t// out\n        /* \"#utility.yul\":8414:8584   */\n    tag_152:\n        /* \"#utility.yul\":8554:8576   */\n      0x566f74696e67206973206e6f7420416374697665000000000000000000000000\n        /* \"#utility.yul\":8550:8551   */\n      0x00\n        /* \"#utility.yul\":8542:8548   */\n      dup3\n        /* \"#utility.yul\":8538:8552   */\n      add\n        /* \"#utility.yul\":8531:8577   */\n      mstore\n        /* \"#utility.yul\":8414:8584   */\n      pop\n      jump\t// out\n        /* \"#utility.yul\":8590:8956   */\n    tag_153:\n        /* \"#utility.yul\":8732:8735   */\n      0x00\n        /* \"#utility.yul\":8753:8820   */\n      tag_278\n        /* \"#utility.yul\":8817:8819   */\n      0x14\n        /* \"#utility.yul\":8812:8815   */\n      dup4\n        /* \"#utility.yul\":8753:8820   */\n      tag_138\n      jump\t// in\n    tag_278:\n        /* \"#utility.yul\":8746:8820   */\n      swap2\n      pop\n        /* \"#utility.yul\":8829:8922   */\n      tag_279\n        /* \"#utility.yul\":8918:8921   */\n      dup3\n        /* \"#utility.yul\":8829:8922   */\n      tag_152\n      jump\t// in\n    tag_279:\n        /* \"#utility.yul\":8947:8949   */\n      0x20\n        /* \"#utility.yul\":8942:8945   */\n      dup3\n        /* \"#utility.yul\":8938:8950   */\n      add\n        /* \"#utility.yul\":8931:8950   */\n      swap1\n      pop\n        /* \"#utility.yul\":8590:8956   */\n      swap2\n      swap1\n      pop\n      jump\t// out\n        /* \"#utility.yul\":8962:9381   */\n    tag_61:\n        /* \"#utility.yul\":9128:9132   */\n      0x00\n        /* \"#utility.yul\":9166:9168   */\n      0x20\n        /* \"#utility.yul\":9155:9164   */\n      dup3\n        /* \"#utility.yul\":9151:9169   */\n      add\n        /* \"#utility.yul\":9143:9169   */\n      swap1\n      pop\n        /* \"#utility.yul\":9215:9224   */\n      dup2\n        /* \"#utility.yul\":9209:9213   */\n      dup2\n        /* \"#utility.yul\":9205:9225   */\n      sub\n        /* \"#utility.yul\":9201:9202   */\n      0x00\n        /* \"#utility.yul\":9190:9199   */\n      dup4\n        /* \"#utility.yul\":9186:9203   */\n      add\n        /* \"#utility.yul\":9179:9226   */\n      mstore\n        /* \"#utility.yul\":9243:9374   */\n      tag_281\n        /* \"#utility.yul\":9369:9373   */\n      dup2\n        /* \"#utility.yul\":9243:9374   */\n      tag_153\n      jump\t// in\n    tag_281:\n        /* \"#utility.yul\":9235:9374   */\n      swap1\n      pop\n        /* \"#utility.yul\":8962:9381   */\n      swap2\n      swap1\n      pop\n      jump\t// out\n        /* \"#utility.yul\":9387:9551   */\n    tag_154:\n        /* \"#utility.yul\":9527:9543   */\n      0x20416c726561647920766f746564000000000000000000000000000000000000\n        /* \"#utility.yul\":9523:9524   */\n      0x00\n        /* \"#utility.yul\":9515:9521   */\n      dup3\n        /* \"#utility.yul\":9511:9525   */\n      add\n        /* \"#utility.yul\":9504:9544   */\n      mstore\n        /* \"#utility.yul\":9387:9551   */\n      pop\n      jump\t// out\n        /* \"#utility.yul\":9557:9923   */\n    tag_155:\n        /* \"#utility.yul\":9699:9702   */\n      0x00\n        /* \"#utility.yul\":9720:9787   */\n      tag_284\n        /* \"#utility.yul\":9784:9786   */\n      0x0e\n        /* \"#utility.yul\":9779:9782   */\n      dup4\n        /* \"#utility.yul\":9720:9787   */\n      tag_138\n      jump\t// in\n    tag_284:\n        /* \"#utility.yul\":9713:9787   */\n      swap2\n      pop\n        /* \"#utility.yul\":9796:9889   */\n      tag_285\n        /* \"#utility.yul\":9885:9888   */\n      dup3\n        /* \"#utility.yul\":9796:9889   */\n      tag_154\n      jump\t// in\n    tag_285:\n        /* \"#utility.yul\":9914:9916   */\n      0x20\n        /* \"#utility.yul\":9909:9912   */\n      dup3\n        /* \"#utility.yul\":9905:9917   */\n      add\n        /* \"#utility.yul\":9898:9917   */\n      swap1\n      pop\n        /* \"#utility.yul\":9557:9923   */\n      swap2\n      swap1\n      pop\n      jump\t// out\n        /* \"#utility.yul\":9929:10348   */\n    tag_65:\n        /* \"#utility.yul\":10095:10099   */\n      0x00\n        /* \"#utility.yul\":10133:10135   */\n      0x20\n        /* \"#utility.yul\":10122:10131   */\n      dup3\n        /* \"#utility.yul\":10118:10136   */\n      add\n        /* \"#utility.yul\":10110:10136   */\n      swap1\n      pop\n        /* \"#utility.yul\":10182:10191   */\n      dup2\n        /* \"#utility.yul\":10176:10180   */\n      dup2\n        /* \"#utility.yul\":10172:10192   */\n      sub\n        /* \"#utility.yul\":10168:10169   */\n      0x00\n        /* \"#utility.yul\":10157:10166   */\n      dup4\n        /* \"#utility.yul\":10153:10170   */\n      add\n        /* \"#utility.yul\":10146:10193   */\n      mstore\n        /* \"#utility.yul\":10210:10341   */\n      tag_287\n        /* \"#utility.yul\":10336:10340   */\n      dup2\n        /* \"#utility.yul\":10210:10341   */\n      tag_155\n      jump\t// in\n    tag_287:\n        /* \"#utility.yul\":10202:10341   */\n      swap1\n      pop\n        /* \"#utility.yul\":9929:10348   */\n      swap2\n      swap1\n      pop\n      jump\t// out\n        /* \"#utility.yul\":10354:10522   */\n    tag_156:\n        /* \"#utility.yul\":10494:10514   */\n      0x20696e76616c69642043616e6469646174650000000000000000000000000000\n        /* \"#utility.yul\":10490:10491   */\n      0x00\n        /* \"#utility.yul\":10482:10488   */\n      dup3\n        /* \"#utility.yul\":10478:10492   */\n      add\n        /* \"#utility.yul\":10471:10515   */\n      mstore\n        /* \"#utility.yul\":10354:10522   */\n      pop\n      jump\t// out\n        /* \"#utility.yul\":10528:10894   */\n    tag_157:\n        /* \"#utility.yul\":10670:10673   */\n      0x00\n        /* \"#utility.yul\":10691:10758   */\n      tag_290\n        /* \"#utility.yul\":10755:10757   */\n      0x12\n        /* \"#utility.yul\":10750:10753   */\n      dup4\n        /* \"#utility.yul\":10691:10758   */\n      tag_138\n      jump\t// in\n    tag_290:\n        /* \"#utility.yul\":10684:10758   */\n      swap2\n      pop\n        /* \"#utility.yul\":10767:10860   */\n      tag_291\n        /* \"#utility.yul\":10856:10859   */\n      dup3\n        /* \"#utility.yul\":10767:10860   */\n      tag_156\n      jump\t// in\n    tag_291:\n        /* \"#utility.yul\":10885:10887   */\n      0x20\n        /* \"#utility.yul\":10880:10883   */\n      dup3\n        /* \"#utility.yul\":10876:10888   */\n      add\n        /* \"#utility.yul\":10869:10888   */\n      swap1\n      pop\n        /* \"#utility.yul\":10528:10894   */\n      swap2\n      swap1\n      pop\n      jump\t// out\n        /* \"#utility.yul\":10900:11319   */\n    tag_69:\n        /* \"#utility.yul\":11066:11070   */\n      0x00\n        /* \"#utility.yul\":11104:11106   */\n      0x20\n        /* \"#utility.yul\":11093:11102   */\n      dup3\n        /* \"#utility.yul\":11089:11107   */\n      add\n        /* \"#utility.yul\":11081:11107   */\n      swap1\n      pop\n        /* \"#utility.yul\":11153:11162   */\n      dup2\n        /* \"#utility.yul\":11147:11151   */\n      dup2\n        /* \"#utility.yul\":11143:11163   */\n      sub\n        /* \"#utility.yul\":11139:11140   */\n      0x00\n        /* \"#utility.yul\":11128:11137   */\n      dup4\n        /* \"#utility.yul\":11124:11141   */\n      add\n        /* \"#utility.yul\":11117:11164   */\n      mstore\n        /* \"#utility.yul\":11181:11312   */\n      tag_293\n        /* \"#utility.yul\":11307:11311   */\n      dup2\n        /* \"#utility.yul\":11181:11312   */\n      tag_157\n      jump\t// in\n    tag_293:\n        /* \"#utility.yul\":11173:11312   */\n      swap1\n      pop\n        /* \"#utility.yul\":10900:11319   */\n      swap2\n      swap1\n      pop\n      jump\t// out\n        /* \"#utility.yul\":11325:11505   */\n    tag_158:\n        /* \"#utility.yul\":11373:11450   */\n      0x4e487b7100000000000000000000000000000000000000000000000000000000\n        /* \"#utility.yul\":11370:11371   */\n      0x00\n        /* \"#utility.yul\":11363:11451   */\n      mstore\n        /* \"#utility.yul\":11470:11474   */\n      0x11\n        /* \"#utility.yul\":11467:11468   */\n      0x04\n        /* \"#utility.yul\":11460:11475   */\n      mstore\n        /* \"#utility.yul\":11494:11498   */\n      0x24\n        /* \"#utility.yul\":11491:11492   */\n      0x00\n        /* \"#utility.yul\":11484:11499   */\n      revert\n        /* \"#utility.yul\":11511:11744   */\n    tag_71:\n        /* \"#utility.yul\":11550:11553   */\n      0x00\n        /* \"#utility.yul\":11573:11597   */\n      tag_296\n        /* \"#utility.yul\":11591:11596   */\n      dup3\n        /* \"#utility.yul\":11573:11597   */\n      tag_123\n      jump\t// in\n    tag_296:\n        /* \"#utility.yul\":11564:11597   */\n      swap2\n      pop\n        /* \"#utility.yul\":11619:11685   */\n      0xffffffffffffffffffffffffffffffffffffffffffffffffffffffffffffffff\n        /* \"#utility.yul\":11612:11617   */\n      dup3\n        /* \"#utility.yul\":11609:11686   */\n      sub\n        /* \"#utility.yul\":11606:11709   */\n      tag_297\n      jumpi\n        /* \"#utility.yul\":11689:11707   */\n      tag_298\n      tag_158\n      jump\t// in\n    tag_298:\n        /* \"#utility.yul\":11606:11709   */\n    tag_297:\n        /* \"#utility.yul\":11736:11737   */\n      0x01\n        /* \"#utility.yul\":11729:11734   */\n      dup3\n        /* \"#utility.yul\":11725:11738   */\n      add\n        /* \"#utility.yul\":11718:11738   */\n      swap1\n      pop\n        /* \"#utility.yul\":11511:11744   */\n      swap2\n      swap1\n      pop\n      jump\t// out\n        /* \"#utility.yul\":11750:12082   */\n    tag_73:\n        /* \"#utility.yul\":11871:11875   */\n      0x00\n        /* \"#utility.yul\":11909:11911   */\n      0x40\n        /* \"#utility.yul\":11898:11907   */\n      dup3\n        /* \"#utility.yul\":11894:11912   */\n      add\n        /* \"#utility.yul\":11886:11912   */\n      swap1\n      pop\n        /* \"#utility.yul\":11922:11993   */\n      tag_300\n        /* \"#utility.yul\":11990:11991   */\n      0x00\n        /* \"#utility.yul\":11979:11988   */\n      dup4\n        /* \"#utility.yul\":11975:11992   */\n      add\n        /* \"#utility.yul\":11966:11972   */\n      dup6\n        /* \"#utility.yul\":11922:11993   */\n      tag_151\n      jump\t// in\n    tag_300:\n        /* \"#utility.yul\":12003:12075   */\n      tag_301\n        /* \"#utility.yul\":12071:12073   */\n      0x20\n        /* \"#utility.yul\":12060:12069   */\n      dup4\n        /* \"#utility.yul\":12056:12074   */\n      add\n        /* \"#utility.yul\":12047:12053   */\n      dup5\n        /* \"#utility.yul\":12003:12075   */\n      tag_136\n      jump\t// in\n    tag_301:\n        /* \"#utility.yul\":11750:12082   */\n      swap4\n      swap3\n      pop\n      pop\n      pop\n      jump\t// out\n        /* \"#utility.yul\":12088:12255   */\n    tag_159:\n        /* \"#utility.yul\":12228:12247   */\n      0x206f776e657220697320616c6c6f776564000000000000000000000000000000\n        /* \"#utility.yul\":12224:12225   */\n      0x00\n        /* \"#utility.yul\":12216:12222   */\n      dup3\n        /* \"#utility.yul\":12212:12226   */\n      add\n        /* \"#utility.yul\":12205:12248   */\n      mstore\n        /* \"#utility.yul\":12088:12255   */\n      pop\n      jump\t// out\n        /* \"#utility.yul\":12261:12627   */\n    tag_160:\n        /* \"#utility.yul\":12403:12406   */\n      0x00\n        /* \"#utility.yul\":12424:12491   */\n      tag_304\n        /* \"#utility.yul\":12488:12490   */\n      0x11\n        /* \"#utility.yul\":12483:12486   */\n      dup4\n        /* \"#utility.yul\":12424:12491   */\n      tag_138\n      jump\t// in\n    tag_304:\n        /* \"#utility.yul\":12417:12491   */\n      swap2\n      pop\n        /* \"#utility.yul\":12500:12593   */\n      tag_305\n        /* \"#utility.yul\":12589:12592   */\n      dup3\n        /* \"#utility.yul\":12500:12593   */\n      tag_159\n      jump\t// in\n    tag_305:\n        /* \"#utility.yul\":12618:12620   */\n      0x20\n        /* \"#utility.yul\":12613:12616   */\n      dup3\n        /* \"#utility.yul\":12609:12621   */\n      add\n        /* \"#utility.yul\":12602:12621   */\n      swap1\n      pop\n        /* \"#utility.yul\":12261:12627   */\n      swap2\n      swap1\n      pop\n      jump\t// out\n        /* \"#utility.yul\":12633:13052   */\n    tag_77:\n        /* \"#utility.yul\":12799:12803   */\n      0x00\n        /* \"#utility.yul\":12837:12839   */\n      0x20\n        /* \"#utility.yul\":12826:12835   */\n      dup3\n        /* \"#utility.yul\":12822:12840   */\n      add\n        /* \"#utility.yul\":12814:12840   */\n      swap1\n      pop\n        /* \"#utility.yul\":12886:12895   */\n      dup2\n        /* \"#utility.yul\":12880:12884   */\n      dup2\n        /* \"#utility.yul\":12876:12896   */\n      sub\n        /* \"#utility.yul\":12872:12873   */\n      0x00\n        /* \"#utility.yul\":12861:12870   */\n      dup4\n        /* \"#utility.yul\":12857:12874   */\n      add\n        /* \"#utility.yul\":12850:12897   */\n      mstore\n        /* \"#utility.yul\":12914:13045   */\n      tag_307\n        /* \"#utility.yul\":13040:13044   */\n      dup2\n        /* \"#utility.yul\":12914:13045   */\n      tag_160\n      jump\t// in\n    tag_307:\n        /* \"#utility.yul\":12906:13045   */\n      swap1\n      pop\n        /* \"#utility.yul\":12633:13052   */\n      swap2\n      swap1\n      pop\n      jump\t// out\n        /* \"#utility.yul\":13058:13238   */\n    tag_161:\n        /* \"#utility.yul\":13106:13183   */\n      0x4e487b7100000000000000000000000000000000000000000000000000000000\n        /* \"#utility.yul\":13103:13104   */\n      0x00\n        /* \"#utility.yul\":13096:13184   */\n      mstore\n        /* \"#utility.yul\":13203:13207   */\n      0x22\n        /* \"#utility.yul\":13200:13201   */\n      0x04\n        /* \"#utility.yul\":13193:13208   */\n      mstore\n        /* \"#utility.yul\":13227:13231   */\n      0x24\n        /* \"#utility.yul\":13224:13225   */\n      0x00\n        /* \"#utility.yul\":13217:13232   */\n      revert\n        /* \"#utility.yul\":13244:13564   */\n    tag_82:\n        /* \"#utility.yul\":13288:13294   */\n      0x00\n        /* \"#utility.yul\":13325:13326   */\n      0x02\n        /* \"#utility.yul\":13319:13323   */\n      dup3\n        /* \"#utility.yul\":13315:13327   */\n      div\n        /* \"#utility.yul\":13305:13327   */\n      swap1\n      pop\n        /* \"#utility.yul\":13372:13373   */\n      0x01\n        /* \"#utility.yul\":13366:13370   */\n      dup3\n        /* \"#utility.yul\":13362:13374   */\n      and\n        /* \"#utility.yul\":13393:13411   */\n      dup1\n        /* \"#utility.yul\":13383:13464   */\n      tag_310\n      jumpi\n        /* \"#utility.yul\":13449:13453   */\n      0x7f\n        /* \"#utility.yul\":13441:13447   */\n      dup3\n        /* \"#utility.yul\":13437:13454   */\n      and\n        /* \"#utility.yul\":13427:13454   */\n      swap2\n      pop\n        /* \"#utility.yul\":13383:13464   */\n    tag_310:\n        /* \"#utility.yul\":13511:13513   */\n      0x20\n        /* \"#utility.yul\":13503:13509   */\n      dup3\n        /* \"#utility.yul\":13500:13514   */\n      lt\n        /* \"#utility.yul\":13480:13498   */\n      dup2\n        /* \"#utility.yul\":13477:13515   */\n      sub\n        /* \"#utility.yul\":13474:13558   */\n      tag_311\n      jumpi\n        /* \"#utility.yul\":13530:13548   */\n      tag_312\n      tag_161\n      jump\t// in\n    tag_312:\n        /* \"#utility.yul\":13474:13558   */\n    tag_311:\n        /* \"#utility.yul\":13295:13564   */\n      pop\n        /* \"#utility.yul\":13244:13564   */\n      swap2\n      swap1\n      pop\n      jump\t// out\n        /* \"#utility.yul\":13570:13711   */\n    tag_162:\n        /* \"#utility.yul\":13619:13623   */\n      0x00\n        /* \"#utility.yul\":13642:13645   */\n      dup2\n        /* \"#utility.yul\":13634:13645   */\n      swap1\n      pop\n        /* \"#utility.yul\":13665:13668   */\n      dup2\n        /* \"#utility.yul\":13662:13663   */\n      0x00\n        /* \"#utility.yul\":13655:13669   */\n      mstore\n        /* \"#utility.yul\":13699:13703   */\n      0x20\n        /* \"#utility.yul\":13696:13697   */\n      0x00\n        /* \"#utility.yul\":13686:13704   */\n      keccak256\n        /* \"#utility.yul\":13678:13704   */\n      swap1\n      pop\n        /* \"#utility.yul\":13570:13711   */\n      swap2\n      swap1\n      pop\n      jump\t// out\n        /* \"#utility.yul\":13717:13810   */\n    tag_163:\n        /* \"#utility.yul\":13754:13760   */\n      0x00\n        /* \"#utility.yul\":13801:13803   */\n      0x20\n        /* \"#utility.yul\":13796:13798   */\n      0x1f\n        /* \"#utility.yul\":13789:13794   */\n      dup4\n        /* \"#utility.yul\":13785:13799   */\n      add\n        /* \"#utility.yul\":13781:13804   */\n      div\n        /* \"#utility.yul\":13771:13804   */\n      swap1\n      pop\n        /* \"#utility.yul\":13717:13810   */\n      swap2\n      swap1\n      pop\n      jump\t// out\n        /* \"#utility.yul\":13816:13923   */\n    tag_164:\n        /* \"#utility.yul\":13860:13868   */\n      0x00\n        /* \"#utility.yul\":13910:13915   */\n      dup3\n        /* \"#utility.yul\":13904:13908   */\n      dup3\n        /* \"#utility.yul\":13900:13916   */\n      shl\n        /* \"#utility.yul\":13879:13916   */\n      swap1\n      pop\n        /* \"#utility.yul\":13816:13923   */\n      swap3\n      swap2\n      pop\n      pop\n      jump\t// out\n        /* \"#utility.yul\":13929:14322   */\n    tag_165:\n        /* \"#utility.yul\":13998:14004   */\n      0x00\n        /* \"#utility.yul\":14048:14049   */\n      0x08\n        /* \"#utility.yul\":14036:14046   */\n      dup4\n        /* \"#utility.yul\":14032:14050   */\n      mul\n        /* \"#utility.yul\":14071:14168   */\n      tag_317\n        /* \"#utility.yul\":14101:14167   */\n      0xffffffffffffffffffffffffffffffffffffffffffffffffffffffffffffffff\n        /* \"#utility.yul\":14090:14099   */\n      dup3\n        /* \"#utility.yul\":14071:14168   */\n      tag_164\n      jump\t// in\n    tag_317:\n        /* \"#utility.yul\":14189:14228   */\n      tag_318\n        /* \"#utility.yul\":14219:14227   */\n      dup7\n        /* \"#utility.yul\":14208:14217   */\n      dup4\n        /* \"#utility.yul\":14189:14228   */\n      tag_164\n      jump\t// in\n    tag_318:\n        /* \"#utility.yul\":14177:14228   */\n      swap6\n      pop\n        /* \"#utility.yul\":14261:14265   */\n      dup1\n        /* \"#utility.yul\":14257:14266   */\n      not\n        /* \"#utility.yul\":14250:14255   */\n      dup5\n        /* \"#utility.yul\":14246:14267   */\n      and\n        /* \"#utility.yul\":14237:14267   */\n      swap4\n      pop\n        /* \"#utility.yul\":14310:14314   */\n      dup1\n        /* \"#utility.yul\":14300:14308   */\n      dup7\n        /* \"#utility.yul\":14296:14315   */\n      and\n        /* \"#utility.yul\":14289:14294   */\n      dup5\n        /* \"#utility.yul\":14286:14316   */\n      or\n        /* \"#utility.yul\":14276:14316   */\n      swap3\n      pop\n        /* \"#utility.yul\":14005:14322   */\n      pop\n      pop\n        /* \"#utility.yul\":13929:14322   */\n      swap4\n      swap3\n      pop\n      pop\n      pop\n      jump\t// out\n        /* \"#utility.yul\":14328:14388   */\n    tag_166:\n        /* \"#utility.yul\":14356:14359   */\n      0x00\n        /* \"#utility.yul\":14377:14382   */\n      dup2\n        /* \"#utility.yul\":14370:14382   */\n      swap1\n      pop\n        /* \"#utility.yul\":14328:14388   */\n      swap2\n      swap1\n      pop\n      jump\t// out\n        /* \"#utility.yul\":14394:14536   */\n    tag_167:\n        /* \"#utility.yul\":14444:14453   */\n      0x00\n        /* \"#utility.yul\":14477:14530   */\n      tag_321\n        /* \"#utility.yul\":14495:14529   */\n      tag_322\n        /* \"#utility.yul\":14504:14528   */\n      tag_323\n        /* \"#utility.yul\":14522:14527   */\n      dup5\n        /* \"#utility.yul\":14504:14528   */\n      tag_123\n      jump\t// in\n    tag_323:\n        /* \"#utility.yul\":14495:14529   */\n      tag_166\n      jump\t// in\n    tag_322:\n        /* \"#utility.yul\":14477:14530   */\n      tag_123\n      jump\t// in\n    tag_321:\n        /* \"#utility.yul\":14464:14530   */\n      swap1\n      pop\n        /* \"#utility.yul\":14394:14536   */\n      swap2\n      swap1\n      pop\n      jump\t// out\n        /* \"#utility.yul\":14542:14617   */\n    tag_168:\n        /* \"#utility.yul\":14585:14588   */\n      0x00\n        /* \"#utility.yul\":14606:14611   */\n      dup2\n        /* \"#utility.yul\":14599:14611   */\n      swap1\n      pop\n        /* \"#utility.yul\":14542:14617   */\n      swap2\n      swap1\n      pop\n      jump\t// out\n        /* \"#utility.yul\":14623:14892   */\n    tag_169:\n        /* \"#utility.yul\":14733:14772   */\n      tag_326\n        /* \"#utility.yul\":14764:14771   */\n      dup4\n        /* \"#utility.yul\":14733:14772   */\n      tag_167\n      jump\t// in\n    tag_326:\n        /* \"#utility.yul\":14794:14885   */\n      tag_327\n        /* \"#utility.yul\":14843:14884   */\n      tag_328\n        /* \"#utility.yul\":14867:14883   */\n      dup3\n        /* \"#utility.yul\":14843:14884   */\n      tag_168\n      jump\t// in\n    tag_328:\n        /* \"#utility.yul\":14835:14841   */\n      dup5\n        /* \"#utility.yul\":14828:14832   */\n      dup5\n        /* \"#utility.yul\":14822:14833   */\n      sload\n        /* \"#utility.yul\":14794:14885   */\n      tag_165\n      jump\t// in\n    tag_327:\n        /* \"#utility.yul\":14788:14792   */\n      dup3\n        /* \"#utility.yul\":14781:14886   */\n      sstore\n        /* \"#utility.yul\":14699:14892   */\n      pop\n        /* \"#utility.yul\":14623:14892   */\n      pop\n      pop\n      pop\n      jump\t// out\n        /* \"#utility.yul\":14898:14971   */\n    tag_170:\n        /* \"#utility.yul\":14943:14946   */\n      0x00\n        /* \"#utility.yul\":14964:14965   */\n      0x00\n        /* \"#utility.yul\":14957:14965   */\n      swap1\n      pop\n        /* \"#utility.yul\":14898:14971   */\n      swap1\n      jump\t// out\n        /* \"#utility.yul\":14977:15166   */\n    tag_171:\n        /* \"#utility.yul\":15054:15086   */\n      tag_331\n      tag_170\n      jump\t// in\n    tag_331:\n        /* \"#utility.yul\":15095:15160   */\n      tag_332\n        /* \"#utility.yul\":15153:15159   */\n      dup2\n        /* \"#utility.yul\":15145:15151   */\n      dup5\n        /* \"#utility.yul\":15139:15143   */\n      dup5\n        /* \"#utility.yul\":15095:15160   */\n      tag_169\n      jump\t// in\n    tag_332:\n        /* \"#utility.yul\":15030:15166   */\n      pop\n        /* \"#utility.yul\":14977:15166   */\n      pop\n      pop\n      jump\t// out\n        /* \"#utility.yul\":15172:15358   */\n    tag_172:\n        /* \"#utility.yul\":15232:15352   */\n    tag_334:\n        /* \"#utility.yul\":15249:15252   */\n      dup2\n        /* \"#utility.yul\":15242:15247   */\n      dup2\n        /* \"#utility.yul\":15239:15253   */\n      lt\n        /* \"#utility.yul\":15232:15352   */\n      iszero\n      tag_336\n      jumpi\n        /* \"#utility.yul\":15303:15342   */\n      tag_337\n        /* \"#utility.yul\":15340:15341   */\n      0x00\n        /* \"#utility.yul\":15333:15338   */\n      dup3\n        /* \"#utility.yul\":15303:15342   */\n      tag_171\n      jump\t// in\n    tag_337:\n        /* \"#utility.yul\":15276:15277   */\n      0x01\n        /* \"#utility.yul\":15269:15274   */\n      dup2\n        /* \"#utility.yul\":15265:15278   */\n      add\n        /* \"#utility.yul\":15256:15278   */\n      swap1\n      pop\n        /* \"#utility.yul\":15232:15352   */\n      jump(tag_334)\n    tag_336:\n        /* \"#utility.yul\":15172:15358   */\n      pop\n      pop\n      jump\t// out\n        /* \"#utility.yul\":15364:15907   */\n    tag_173:\n        /* \"#utility.yul\":15465:15467   */\n      0x1f\n        /* \"#utility.yul\":15460:15463   */\n      dup3\n        /* \"#utility.yul\":15457:15468   */\n      gt\n        /* \"#utility.yul\":15454:15900   */\n      iszero\n      tag_339\n      jumpi\n        /* \"#utility.yul\":15499:15537   */\n      tag_340\n        /* \"#utility.yul\":15531:15536   */\n      dup2\n        /* \"#utility.yul\":15499:15537   */\n      tag_162\n      jump\t// in\n    tag_340:\n        /* \"#utility.yul\":15583:15612   */\n      tag_341\n        /* \"#utility.yul\":15601:15611   */\n      dup5\n        /* \"#utility.yul\":15583:15612   */\n      tag_163\n      jump\t// in\n    tag_341:\n        /* \"#utility.yul\":15573:15581   */\n      dup2\n        /* \"#utility.yul\":15569:15613   */\n      add\n        /* \"#utility.yul\":15766:15768   */\n      0x20\n        /* \"#utility.yul\":15754:15764   */\n      dup6\n        /* \"#utility.yul\":15751:15769   */\n      lt\n        /* \"#utility.yul\":15748:15797   */\n      iszero\n      tag_342\n      jumpi\n        /* \"#utility.yul\":15787:15795   */\n      dup2\n        /* \"#utility.yul\":15772:15795   */\n      swap1\n      pop\n        /* \"#utility.yul\":15748:15797   */\n    tag_342:\n        /* \"#utility.yul\":15810:15890   */\n      tag_343\n        /* \"#utility.yul\":15866:15888   */\n      tag_344\n        /* \"#utility.yul\":15884:15887   */\n      dup6\n        /* \"#utility.yul\":15866:15888   */\n      tag_163\n      jump\t// in\n    tag_344:\n        /* \"#utility.yul\":15856:15864   */\n      dup4\n        /* \"#utility.yul\":15852:15889   */\n      add\n        /* \"#utility.yul\":15839:15850   */\n      dup3\n        /* \"#utility.yul\":15810:15890   */\n      tag_172\n      jump\t// in\n    tag_343:\n        /* \"#utility.yul\":15469:15900   */\n      pop\n      pop\n        /* \"#utility.yul\":15454:15900   */\n    tag_339:\n        /* \"#utility.yul\":15364:15907   */\n      pop\n      pop\n      pop\n      jump\t// out\n        /* \"#utility.yul\":15913:16030   */\n    tag_174:\n        /* \"#utility.yul\":15967:15975   */\n      0x00\n        /* \"#utility.yul\":16017:16022   */\n      dup3\n        /* \"#utility.yul\":16011:16015   */\n      dup3\n        /* \"#utility.yul\":16007:16023   */\n      shr\n        /* \"#utility.yul\":15986:16023   */\n      swap1\n      pop\n        /* \"#utility.yul\":15913:16030   */\n      swap3\n      swap2\n      pop\n      pop\n      jump\t// out\n        /* \"#utility.yul\":16036:16205   */\n    tag_175:\n        /* \"#utility.yul\":16080:16086   */\n      0x00\n        /* \"#utility.yul\":16113:16164   */\n      tag_347\n        /* \"#utility.yul\":16161:16162   */\n      0x00\n        /* \"#utility.yul\":16157:16163   */\n      not\n        /* \"#utility.yul\":16149:16154   */\n      dup5\n        /* \"#utility.yul\":16146:16147   */\n      0x08\n        /* \"#utility.yul\":16142:16155   */\n      mul\n        /* \"#utility.yul\":16113:16164   */\n      tag_174\n      jump\t// in\n    tag_347:\n        /* \"#utility.yul\":16109:16165   */\n      not\n        /* \"#utility.yul\":16194:16198   */\n      dup1\n        /* \"#utility.yul\":16188:16192   */\n      dup4\n        /* \"#utility.yul\":16184:16199   */\n      and\n        /* \"#utility.yul\":16174:16199   */\n      swap2\n      pop\n        /* \"#utility.yul\":16087:16205   */\n      pop\n        /* \"#utility.yul\":16036:16205   */\n      swap3\n      swap2\n      pop\n      pop\n      jump\t// out\n        /* \"#utility.yul\":16210:16505   */\n    tag_176:\n        /* \"#utility.yul\":16286:16290   */\n      0x00\n        /* \"#utility.yul\":16432:16461   */\n      tag_349\n        /* \"#utility.yul\":16457:16460   */\n      dup4\n        /* \"#utility.yul\":16451:16455   */\n      dup4\n        /* \"#utility.yul\":16432:16461   */\n      tag_175\n      jump\t// in\n    tag_349:\n        /* \"#utility.yul\":16424:16461   */\n      swap2\n      pop\n        /* \"#utility.yul\":16494:16497   */\n      dup3\n        /* \"#utility.yul\":16491:16492   */\n      0x02\n        /* \"#utility.yul\":16487:16498   */\n      mul\n        /* \"#utility.yul\":16481:16485   */\n      dup3\n        /* \"#utility.yul\":16478:16499   */\n      or\n        /* \"#utility.yul\":16470:16499   */\n      swap1\n      pop\n        /* \"#utility.yul\":16210:16505   */\n      swap3\n      swap2\n      pop\n      pop\n      jump\t// out\n        /* \"#utility.yul\":16510:17905   */\n    tag_93:\n        /* \"#utility.yul\":16627:16664   */\n      tag_351\n        /* \"#utility.yul\":16660:16663   */\n      dup3\n        /* \"#utility.yul\":16627:16664   */\n      tag_137\n      jump\t// in\n    tag_351:\n        /* \"#utility.yul\":16729:16747   */\n      0xffffffffffffffff\n        /* \"#utility.yul\":16721:16727   */\n      dup2\n        /* \"#utility.yul\":16718:16748   */\n      gt\n        /* \"#utility.yul\":16715:16771   */\n      iszero\n      tag_352\n      jumpi\n        /* \"#utility.yul\":16751:16769   */\n      tag_353\n      tag_144\n      jump\t// in\n    tag_353:\n        /* \"#utility.yul\":16715:16771   */\n    tag_352:\n        /* \"#utility.yul\":16795:16833   */\n      tag_354\n        /* \"#utility.yul\":16827:16831   */\n      dup3\n        /* \"#utility.yul\":16821:16832   */\n      sload\n        /* \"#utility.yul\":16795:16833   */\n      tag_82\n      jump\t// in\n    tag_354:\n        /* \"#utility.yul\":16880:16947   */\n      tag_355\n        /* \"#utility.yul\":16940:16946   */\n      dup3\n        /* \"#utility.yul\":16932:16938   */\n      dup3\n        /* \"#utility.yul\":16926:16930   */\n      dup6\n        /* \"#utility.yul\":16880:16947   */\n      tag_173\n      jump\t// in\n    tag_355:\n        /* \"#utility.yul\":16974:16975   */\n      0x00\n        /* \"#utility.yul\":16998:17002   */\n      0x20\n        /* \"#utility.yul\":16985:17002   */\n      swap1\n      pop\n        /* \"#utility.yul\":17030:17032   */\n      0x1f\n        /* \"#utility.yul\":17022:17028   */\n      dup4\n        /* \"#utility.yul\":17019:17033   */\n      gt\n        /* \"#utility.yul\":17047:17048   */\n      0x01\n        /* \"#utility.yul\":17042:17660   */\n      dup2\n      eq\n      tag_357\n      jumpi\n        /* \"#utility.yul\":17704:17705   */\n      0x00\n        /* \"#utility.yul\":17721:17727   */\n      dup5\n        /* \"#utility.yul\":17718:17795   */\n      iszero\n      tag_358\n      jumpi\n        /* \"#utility.yul\":17770:17779   */\n      dup3\n        /* \"#utility.yul\":17765:17768   */\n      dup8\n        /* \"#utility.yul\":17761:17780   */\n      add\n        /* \"#utility.yul\":17755:17781   */\n      mload\n        /* \"#utility.yul\":17746:17781   */\n      swap1\n      pop\n        /* \"#utility.yul\":17718:17795   */\n    tag_358:\n        /* \"#utility.yul\":17821:17888   */\n      tag_359\n        /* \"#utility.yul\":17881:17887   */\n      dup6\n        /* \"#utility.yul\":17874:17879   */\n      dup3\n        /* \"#utility.yul\":17821:17888   */\n      tag_176\n      jump\t// in\n    tag_359:\n        /* \"#utility.yul\":17815:17819   */\n      dup7\n        /* \"#utility.yul\":17808:17889   */\n      sstore\n        /* \"#utility.yul\":17677:17899   */\n      pop\n        /* \"#utility.yul\":17012:17899   */\n      jump(tag_356)\n        /* \"#utility.yul\":17042:17660   */\n    tag_357:\n        /* \"#utility.yul\":17094:17098   */\n      0x1f\n        /* \"#utility.yul\":17090:17099   */\n      not\n        /* \"#utility.yul\":17082:17088   */\n      dup5\n        /* \"#utility.yul\":17078:17100   */\n      and\n        /* \"#utility.yul\":17128:17165   */\n      tag_360\n        /* \"#utility.yul\":17160:17164   */\n      dup7\n        /* \"#utility.yul\":17128:17165   */\n      tag_162\n      jump\t// in\n    tag_360:\n        /* \"#utility.yul\":17187:17188   */\n      0x00\n        /* \"#utility.yul\":17201:17409   */\n    tag_361:\n        /* \"#utility.yul\":17215:17222   */\n      dup3\n        /* \"#utility.yul\":17212:17213   */\n      dup2\n        /* \"#utility.yul\":17209:17223   */\n      lt\n        /* \"#utility.yul\":17201:17409   */\n      iszero\n      tag_363\n      jumpi\n        /* \"#utility.yul\":17294:17303   */\n      dup5\n        /* \"#utility.yul\":17289:17292   */\n      dup10\n        /* \"#utility.yul\":17285:17304   */\n      add\n        /* \"#utility.yul\":17279:17305   */\n      mload\n        /* \"#utility.yul\":17271:17277   */\n      dup3\n        /* \"#utility.yul\":17264:17306   */\n      sstore\n        /* \"#utility.yul\":17345:17346   */\n      0x01\n        /* \"#utility.yul\":17337:17343   */\n      dup3\n        /* \"#utility.yul\":17333:17347   */\n      add\n        /* \"#utility.yul\":17323:17347   */\n      swap2\n      pop\n        /* \"#utility.yul\":17392:17394   */\n      0x20\n        /* \"#utility.yul\":17381:17390   */\n      dup6\n        /* \"#utility.yul\":17377:17395   */\n      add\n        /* \"#utility.yul\":17364:17395   */\n      swap5\n      pop\n        /* \"#utility.yul\":17238:17242   */\n      0x20\n        /* \"#utility.yul\":17235:17236   */\n      dup2\n        /* \"#utility.yul\":17231:17243   */\n      add\n        /* \"#utility.yul\":17226:17243   */\n      swap1\n      pop\n        /* \"#utility.yul\":17201:17409   */\n      jump(tag_361)\n    tag_363:\n        /* \"#utility.yul\":17437:17443   */\n      dup7\n        /* \"#utility.yul\":17428:17435   */\n      dup4\n        /* \"#utility.yul\":17425:17444   */\n      lt\n        /* \"#utility.yul\":17422:17601   */\n      iszero\n      tag_364\n      jumpi\n        /* \"#utility.yul\":17495:17504   */\n      dup5\n        /* \"#utility.yul\":17490:17493   */\n      dup10\n        /* \"#utility.yul\":17486:17505   */\n      add\n        /* \"#utility.yul\":17480:17506   */\n      mload\n        /* \"#utility.yul\":17538:17586   */\n      tag_365\n        /* \"#utility.yul\":17580:17584   */\n      0x1f\n        /* \"#utility.yul\":17572:17578   */\n      dup10\n        /* \"#utility.yul\":17568:17585   */\n      and\n        /* \"#utility.yul\":17557:17566   */\n      dup3\n        /* \"#utility.yul\":17538:17586   */\n      tag_175\n      jump\t// in\n    tag_365:\n        /* \"#utility.yul\":17530:17536   */\n      dup4\n        /* \"#utility.yul\":17523:17587   */\n      sstore\n        /* \"#utility.yul\":17445:17601   */\n      pop\n        /* \"#utility.yul\":17422:17601   */\n    tag_364:\n        /* \"#utility.yul\":17647:17648   */\n      0x01\n        /* \"#utility.yul\":17643:17644   */\n      0x02\n        /* \"#utility.yul\":17635:17641   */\n      dup9\n        /* \"#utility.yul\":17631:17645   */\n      mul\n        /* \"#utility.yul\":17627:17649   */\n      add\n        /* \"#utility.yul\":17621:17625   */\n      dup9\n        /* \"#utility.yul\":17614:17650   */\n      sstore\n        /* \"#utility.yul\":17049:17660   */\n      pop\n      pop\n      pop\n        /* \"#utility.yul\":17012:17899   */\n    tag_356:\n      pop\n        /* \"#utility.yul\":16602:17905   */\n      pop\n      pop\n      pop\n        /* \"#utility.yul\":16510:17905   */\n      pop\n      pop\n      jump\t// out\n        /* \"#utility.yul\":17911:18334   */\n    tag_95:\n        /* \"#utility.yul\":18052:18056   */\n      0x00\n        /* \"#utility.yul\":18090:18092   */\n      0x40\n        /* \"#utility.yul\":18079:18088   */\n      dup3\n        /* \"#utility.yul\":18075:18093   */\n      add\n        /* \"#utility.yul\":18067:18093   */\n      swap1\n      pop\n        /* \"#utility.yul\":18103:18174   */\n      tag_367\n        /* \"#utility.yul\":18171:18172   */\n      0x00\n        /* \"#utility.yul\":18160:18169   */\n      dup4\n        /* \"#utility.yul\":18156:18173   */\n      add\n        /* \"#utility.yul\":18147:18153   */\n      dup6\n        /* \"#utility.yul\":18103:18174   */\n      tag_136\n      jump\t// in\n    tag_367:\n        /* \"#utility.yul\":18221:18230   */\n      dup2\n        /* \"#utility.yul\":18215:18219   */\n      dup2\n        /* \"#utility.yul\":18211:18231   */\n      sub\n        /* \"#utility.yul\":18206:18208   */\n      0x20\n        /* \"#utility.yul\":18195:18204   */\n      dup4\n        /* \"#utility.yul\":18191:18209   */\n      add\n        /* \"#utility.yul\":18184:18232   */\n      mstore\n        /* \"#utility.yul\":18249:18327   */\n      tag_368\n        /* \"#utility.yul\":18322:18326   */\n      dup2\n        /* \"#utility.yul\":18313:18319   */\n      dup5\n        /* \"#utility.yul\":18249:18327   */\n      tag_141\n      jump\t// in\n    tag_368:\n        /* \"#utility.yul\":18241:18327   */\n      swap1\n      pop\n        /* \"#utility.yul\":17911:18334   */\n      swap4\n      swap3\n      pop\n      pop\n      pop\n      jump\t// out\n        /* \"#utility.yul\":18340:18515   */\n    tag_177:\n        /* \"#utility.yul\":18480:18507   */\n      0x566f74696e67206973207374696c6c20696e70726f6365737300000000000000\n        /* \"#utility.yul\":18476:18477   */\n      0x00\n        /* \"#utility.yul\":18468:18474   */\n      dup3\n        /* \"#utility.yul\":18464:18478   */\n      add\n        /* \"#utility.yul\":18457:18508   */\n      mstore\n        /* \"#utility.yul\":18340:18515   */\n      pop\n      jump\t// out\n        /* \"#utility.yul\":18521:18887   */\n    tag_178:\n        /* \"#utility.yul\":18663:18666   */\n      0x00\n        /* \"#utility.yul\":18684:18751   */\n      tag_371\n        /* \"#utility.yul\":18748:18750   */\n      0x19\n        /* \"#utility.yul\":18743:18746   */\n      dup4\n        /* \"#utility.yul\":18684:18751   */\n      tag_138\n      jump\t// in\n    tag_371:\n        /* \"#utility.yul\":18677:18751   */\n      swap2\n      pop\n        /* \"#utility.yul\":18760:18853   */\n      tag_372\n        /* \"#utility.yul\":18849:18852   */\n      dup3\n        /* \"#utility.yul\":18760:18853   */\n      tag_177\n      jump\t// in\n    tag_372:\n        /* \"#utility.yul\":18878:18880   */\n      0x20\n        /* \"#utility.yul\":18873:18876   */\n      dup3\n        /* \"#utility.yul\":18869:18881   */\n      add\n        /* \"#utility.yul\":18862:18881   */\n      swap1\n      pop\n        /* \"#utility.yul\":18521:18887   */\n      swap2\n      swap1\n      pop\n      jump\t// out\n        /* \"#utility.yul\":18893:19312   */\n    tag_103:\n        /* \"#utility.yul\":19059:19063   */\n      0x00\n        /* \"#utility.yul\":19097:19099   */\n      0x20\n        /* \"#utility.yul\":19086:19095   */\n      dup3\n        /* \"#utility.yul\":19082:19100   */\n      add\n        /* \"#utility.yul\":19074:19100   */\n      swap1\n      pop\n        /* \"#utility.yul\":19146:19155   */\n      dup2\n        /* \"#utility.yul\":19140:19144   */\n      dup2\n        /* \"#utility.yul\":19136:19156   */\n      sub\n        /* \"#utility.yul\":19132:19133   */\n      0x00\n        /* \"#utility.yul\":19121:19130   */\n      dup4\n        /* \"#utility.yul\":19117:19134   */\n      add\n        /* \"#utility.yul\":19110:19157   */\n      mstore\n        /* \"#utility.yul\":19174:19305   */\n      tag_374\n        /* \"#utility.yul\":19300:19304   */\n      dup2\n        /* \"#utility.yul\":19174:19305   */\n      tag_178\n      jump\t// in\n    tag_374:\n        /* \"#utility.yul\":19166:19305   */\n      swap1\n      pop\n        /* \"#utility.yul\":18893:19312   */\n      swap2\n      swap1\n      pop\n      jump\t// out\n\n    auxdata: 0xa26469706673582212206ad18a7f4d9d506c1527eb994fa4cddd7137fbfe5aba6597634265238dec7dfb64736f6c634300081f0033\n}\n",
				"bytecode": {
					"linkReferences": {},
					"object": "6080604052348015600e575f5ffd5b50335f60016101000a81548173ffffffffffffffffffffffffffffffffffffffff021916908373ffffffffffffffffffffffffffffffffffffffff1602179055505f5f5f6101000a81548160ff02191690836002811115606f57606e6078565b5b021790555060a5565b7f4e487b71000000000000000000000000000000000000000000000000000000005f52602160045260245ffd5b611314806100b25f395ff3fe608060405234801561000f575f5ffd5b506004361061009c575f3560e01c8063462e91ec11610064578063462e91ec146101465780638da5cb5b146101625780638e7ea5b214610180578063a9a981a31461019e578063c3403ddf146101bc5761009c565b80630121b93f146100a057806309eef43e146100bc5780631ec6b60a146100ec578063200d2ed2146100f65780633477ee2e14610114575b5f5ffd5b6100ba60048036038101906100b59190610943565b6101c6565b005b6100d660048036038101906100d191906109c8565b6103ce565b6040516100e39190610a0d565b60405180910390f35b6100f46103eb565b005b6100fe6104a5565b60405161010b9190610a99565b60405180910390f35b61012e60048036038101906101299190610943565b6104b6565b60405161013d93929190610b31565b60405180910390f35b610160600480360381019061015b9190610c99565b610562565b005b61016a6106a1565b6040516101779190610cef565b60405180910390f35b6101886106c6565b6040516101959190610d08565b60405180910390f35b6101a661083f565b6040516101b39190610d28565b60405180910390f35b6101c4610845565b005b600160028111156101da576101d9610a26565b5b5f5f9054906101000a900460ff1660028111156101fa576101f9610a26565b5b1461023a576040517f08c379a000000000000000000000000000000000000000000000000000000000815260040161023190610d8b565b60405180910390fd5b60025f3373ffffffffffffffffffffffffffffffffffffffff1673ffffffffffffffffffffffffffffffffffffffff1681526020019081526020015f205f9054906101000a900460ff16156102c4576040517f08c379a00000000000000000000000000000000000000000000000000000000081526004016102bb90610df3565b60405180910390fd5b5f811180156102d557506003548111155b610314576040517f08c379a000000000000000000000000000000000000000000000000000000000815260040161030b90610e5b565b60405180910390fd5b60015f8281526020019081526020015f206002015f81548092919061033890610ea6565b9190505550600160025f3373ffffffffffffffffffffffffffffffffffffffff1673ffffffffffffffffffffffffffffffffffffffff1681526020019081526020015f205f6101000a81548160ff0219169083151502179055507f4d99b957a2bc29a30ebd96a7be8e68fe50a3c701db28a91436490b7d53870ca433826040516103c3929190610eed565b60405180910390a150565b6002602052805f5260405f205f915054906101000a900460ff1681565b5f60019054906101000a900473ffffffffffffffffffffffffffffffffffffffff1673ffffffffffffffffffffffffffffffffffffffff163373ffffffffffffffffffffffffffffffffffffffff161461047a576040517f08c379a000000000000000000000000000000000000000000000000000000000815260040161047190610f5e565b60405180910390fd5b60015f5f6101000a81548160ff0219169083600281111561049e5761049d610a26565b5b0217905550565b5f5f9054906101000a900460ff1681565b6001602052805f5260405f205f91509050805f0154908060010180546104db90610fa9565b80601f016020809104026020016040519081016040528092919081815260200182805461050790610fa9565b80156105525780601f1061052957610100808354040283529160200191610552565b820191905f5260205f20905b81548152906001019060200180831161053557829003601f168201915b5050505050908060020154905083565b5f60019054906101000a900473ffffffffffffffffffffffffffffffffffffffff1673ffffffffffffffffffffffffffffffffffffffff163373ffffffffffffffffffffffffffffffffffffffff16146105f1576040517f08c379a00000000000000000000000000000000000000000000000000000000081526004016105e890610f5e565b60405180910390fd5b60035f81548092919061060390610ea6565b9190505550604051806060016040528060035481526020018281526020015f81525060015f60035481526020019081526020015f205f820151815f015560208201518160010190816106559190611179565b50604082015181600201559050507fd50043a6a3553def16e768c2c5ca6a70fcaf367a1b2111b3555c44ff680bf9cf60035482604051610696929190611248565b60405180910390a150565b5f60019054906101000a900473ffffffffffffffffffffffffffffffffffffffff1681565b60606002808111156106db576106da610a26565b5b5f5f9054906101000a900460ff1660028111156106fb576106fa610a26565b5b1461073b576040517f08c379a0000000000000000000000000000000000000000000000000000000008152600401610732906112c0565b60405180910390fd5b5f5f90505f5f90505f600190505b600354811161079c578260015f8381526020019081526020015f206002015411156107895760015f8281526020019081526020015f206002015492508091505b808061079490610ea6565b915050610749565b5060015f8281526020019081526020015f2060010180546107bc90610fa9565b80601f01602080910402602001604051908101604052809291908181526020018280546107e890610fa9565b80156108335780601f1061080a57610100808354040283529160200191610833565b820191905f5260205f20905b81548152906001019060200180831161081657829003601f168201915b50505050509250505090565b60035481565b5f60019054906101000a900473ffffffffffffffffffffffffffffffffffffffff1673ffffffffffffffffffffffffffffffffffffffff163373ffffffffffffffffffffffffffffffffffffffff16146108d4576040517f08c379a00000000000000000000000000000000000000000000000000000000081526004016108cb90610f5e565b60405180910390fd5b60025f5f6101000a81548160ff021916908360028111156108f8576108f7610a26565b5b0217905550565b5f604051905090565b5f5ffd5b5f5ffd5b5f819050919050565b61092281610910565b811461092c575f5ffd5b50565b5f8135905061093d81610919565b92915050565b5f6020828403121561095857610957610908565b5b5f6109658482850161092f565b91505092915050565b5f73ffffffffffffffffffffffffffffffffffffffff82169050919050565b5f6109978261096e565b9050919050565b6109a78161098d565b81146109b1575f5ffd5b50565b5f813590506109c28161099e565b92915050565b5f602082840312156109dd576109dc610908565b5b5f6109ea848285016109b4565b91505092915050565b5f8115159050919050565b610a07816109f3565b82525050565b5f602082019050610a205f8301846109fe565b92915050565b7f4e487b71000000000000000000000000000000000000000000000000000000005f52602160045260245ffd5b60038110610a6457610a63610a26565b5b50565b5f819050610a7482610a53565b919050565b5f610a8382610a67565b9050919050565b610a9381610a79565b82525050565b5f602082019050610aac5f830184610a8a565b92915050565b610abb81610910565b82525050565b5f81519050919050565b5f82825260208201905092915050565b8281835e5f83830152505050565b5f601f19601f8301169050919050565b5f610b0382610ac1565b610b0d8185610acb565b9350610b1d818560208601610adb565b610b2681610ae9565b840191505092915050565b5f606082019050610b445f830186610ab2565b8181036020830152610b568185610af9565b9050610b656040830184610ab2565b949350505050565b5f5ffd5b5f5ffd5b7f4e487b71000000000000000000000000000000000000000000000000000000005f52604160045260245ffd5b610bab82610ae9565b810181811067ffffffffffffffff82111715610bca57610bc9610b75565b5b80604052505050565b5f610bdc6108ff565b9050610be88282610ba2565b919050565b5f67ffffffffffffffff821115610c0757610c06610b75565b5b610c1082610ae9565b9050602081019050919050565b828183375f83830152505050565b5f610c3d610c3884610bed565b610bd3565b905082815260208101848484011115610c5957610c58610b71565b5b610c64848285610c1d565b509392505050565b5f82601f830112610c8057610c7f610b6d565b5b8135610c90848260208601610c2b565b91505092915050565b5f60208284031215610cae57610cad610908565b5b5f82013567ffffffffffffffff811115610ccb57610cca61090c565b5b610cd784828501610c6c565b91505092915050565b610ce98161098d565b82525050565b5f602082019050610d025f830184610ce0565b92915050565b5f6020820190508181035f830152610d208184610af9565b905092915050565b5f602082019050610d3b5f830184610ab2565b92915050565b7f566f74696e67206973206e6f74204163746976650000000000000000000000005f82015250565b5f610d75601483610acb565b9150610d8082610d41565b602082019050919050565b5f6020820190508181035f830152610da281610d69565b9050919050565b7f20416c726561647920766f7465640000000000000000000000000000000000005f82015250565b5f610ddd600e83610acb565b9150610de882610da9565b602082019050919050565b5f6020820190508181035f830152610e0a81610dd1565b9050919050565b7f20696e76616c69642043616e64696461746500000000000000000000000000005f82015250565b5f610e45601283610acb565b9150610e5082610e11565b602082019050919050565b5f6020820190508181035f830152610e7281610e39565b9050919050565b7f4e487b71000000000000000000000000000000000000000000000000000000005f52601160045260245ffd5b5f610eb082610910565b91507fffffffffffffffffffffffffffffffffffffffffffffffffffffffffffffffff8203610ee257610ee1610e79565b5b600182019050919050565b5f604082019050610f005f830185610ce0565b610f0d6020830184610ab2565b9392505050565b7f206f776e657220697320616c6c6f7765640000000000000000000000000000005f82015250565b5f610f48601183610acb565b9150610f5382610f14565b602082019050919050565b5f6020820190508181035f830152610f7581610f3c565b9050919050565b7f4e487b71000000000000000000000000000000000000000000000000000000005f52602260045260245ffd5b5f6002820490506001821680610fc057607f821691505b602082108103610fd357610fd2610f7c565b5b50919050565b5f819050815f5260205f209050919050565b5f6020601f8301049050919050565b5f82821b905092915050565b5f600883026110357fffffffffffffffffffffffffffffffffffffffffffffffffffffffffffffffff82610ffa565b61103f8683610ffa565b95508019841693508086168417925050509392505050565b5f819050919050565b5f61107a61107561107084610910565b611057565b610910565b9050919050565b5f819050919050565b61109383611060565b6110a761109f82611081565b848454611006565b825550505050565b5f5f905090565b6110be6110af565b6110c981848461108a565b505050565b5b818110156110ec576110e15f826110b6565b6001810190506110cf565b5050565b601f8211156111315761110281610fd9565b61110b84610feb565b8101602085101561111a578190505b61112e61112685610feb565b8301826110ce565b50505b505050565b5f82821c905092915050565b5f6111515f1984600802611136565b1980831691505092915050565b5f6111698383611142565b9150826002028217905092915050565b61118282610ac1565b67ffffffffffffffff81111561119b5761119a610b75565b5b6111a58254610fa9565b6111b08282856110f0565b5f60209050601f8311600181146111e1575f84156111cf578287015190505b6111d9858261115e565b865550611240565b601f1984166111ef86610fd9565b5f5b82811015611216578489015182556001820191506020850194506020810190506111f1565b86831015611233578489015161122f601f891682611142565b8355505b6001600288020188555050505b505050505050565b5f60408201905061125b5f830185610ab2565b818103602083015261126d8184610af9565b90509392505050565b7f566f74696e67206973207374696c6c20696e70726f63657373000000000000005f82015250565b5f6112aa601983610acb565b91506112b582611276565b602082019050919050565b5f6020820190508181035f8301526112d78161129e565b905091905056fea26469706673582212206ad18a7f4d9d506c1527eb994fa4cddd7137fbfe5aba6597634265238dec7dfb64736f6c634300081f0033",
					"opcodes": "PUSH1 0x80 PUSH1 0x40 MSTORE CALLVALUE DUP1 ISZERO PUSH1 0xE JUMPI PUSH0 PUSH0 REVERT JUMPDEST POP CALLER PUSH0 PUSH1 0x1 PUSH2 0x100 EXP DUP2 SLOAD DUP2 PUSH20 0xFFFFFFFFFFFFFFFFFFFFFFFFFFFFFFFFFFFFFFFF MUL NOT AND SWAP1 DUP4 PUSH20 0xFFFFFFFFFFFFFFFFFFFFFFFFFFFFFFFFFFFFFFFF AND MUL OR SWAP1 SSTORE POP PUSH0 PUSH0 PUSH0 PUSH2 0x100 EXP DUP2 SLOAD DUP2 PUSH1 0xFF MUL NOT AND SWAP1 DUP4 PUSH1 0x2 DUP2 GT ISZERO PUSH1 0x6F JUMPI PUSH1 0x6E PUSH1 0x78 JUMP JUMPDEST JUMPDEST MUL OR SWAP1 SSTORE POP PUSH1 0xA5 JUMP JUMPDEST PUSH32 0x4E487B7100000000000000000000000000000000000000000000000000000000 PUSH0 MSTORE PUSH1 0x21 PUSH1 0x4 MSTORE PUSH1 0x24 PUSH0 REVERT JUMPDEST PUSH2 0x1314 DUP1 PUSH2 0xB2 PUSH0 CODECOPY PUSH0 RETURN INVALID PUSH1 0x80 PUSH1 0x40 MSTORE CALLVALUE DUP1 ISZERO PUSH2 0xF JUMPI PUSH0 PUSH0 REVERT JUMPDEST POP PUSH1 0x4 CALLDATASIZE LT PUSH2 0x9C JUMPI PUSH0 CALLDATALOAD PUSH1 0xE0 SHR DUP1 PUSH4 0x462E91EC GT PUSH2 0x64 JUMPI DUP1 PUSH4 0x462E91EC EQ PUSH2 0x146 JUMPI DUP1 PUSH4 0x8DA5CB5B EQ PUSH2 0x162 JUMPI DUP1 PUSH4 0x8E7EA5B2 EQ PUSH2 0x180 JUMPI DUP1 PUSH4 0xA9A981A3 EQ PUSH2 0x19E JUMPI DUP1 PUSH4 0xC3403DDF EQ PUSH2 0x1BC JUMPI PUSH2 0x9C JUMP JUMPDEST DUP1 PUSH4 0x121B93F EQ PUSH2 0xA0 JUMPI DUP1 PUSH4 0x9EEF43E EQ PUSH2 0xBC JUMPI DUP1 PUSH4 0x1EC6B60A EQ PUSH2 0xEC JUMPI DUP1 PUSH4 0x200D2ED2 EQ PUSH2 0xF6 JUMPI DUP1 PUSH4 0x3477EE2E EQ PUSH2 0x114 JUMPI JUMPDEST PUSH0 PUSH0 REVERT JUMPDEST PUSH2 0xBA PUSH1 0x4 DUP1 CALLDATASIZE SUB DUP2 ADD SWAP1 PUSH2 0xB5 SWAP2 SWAP1 PUSH2 0x943 JUMP JUMPDEST PUSH2 0x1C6 JUMP JUMPDEST STOP JUMPDEST PUSH2 0xD6 PUSH1 0x4 DUP1 CALLDATASIZE SUB DUP2 ADD SWAP1 PUSH2 0xD1 SWAP2 SWAP1 PUSH2 0x9C8 JUMP JUMPDEST PUSH2 0x3CE JUMP JUMPDEST PUSH1 0x40 MLOAD PUSH2 0xE3 SWAP2 SWAP1 PUSH2 0xA0D JUMP JUMPDEST PUSH1 0x40 MLOAD DUP1 SWAP2 SUB SWAP1 RETURN JUMPDEST PUSH2 0xF4 PUSH2 0x3EB JUMP JUMPDEST STOP JUMPDEST PUSH2 0xFE PUSH2 0x4A5 JUMP JUMPDEST PUSH1 0x40 MLOAD PUSH2 0x10B SWAP2 SWAP1 PUSH2 0xA99 JUMP JUMPDEST PUSH1 0x40 MLOAD DUP1 SWAP2 SUB SWAP1 RETURN JUMPDEST PUSH2 0x12E PUSH1 0x4 DUP1 CALLDATASIZE SUB DUP2 ADD SWAP1 PUSH2 0x129 SWAP2 SWAP1 PUSH2 0x943 JUMP JUMPDEST PUSH2 0x4B6 JUMP JUMPDEST PUSH1 0x40 MLOAD PUSH2 0x13D SWAP4 SWAP3 SWAP2 SWAP1 PUSH2 0xB31 JUMP JUMPDEST PUSH1 0x40 MLOAD DUP1 SWAP2 SUB SWAP1 RETURN JUMPDEST PUSH2 0x160 PUSH1 0x4 DUP1 CALLDATASIZE SUB DUP2 ADD SWAP1 PUSH2 0x15B SWAP2 SWAP1 PUSH2 0xC99 JUMP JUMPDEST PUSH2 0x562 JUMP JUMPDEST STOP JUMPDEST PUSH2 0x16A PUSH2 0x6A1 JUMP JUMPDEST PUSH1 0x40 MLOAD PUSH2 0x177 SWAP2 SWAP1 PUSH2 0xCEF JUMP JUMPDEST PUSH1 0x40 MLOAD DUP1 SWAP2 SUB SWAP1 RETURN JUMPDEST PUSH2 0x188 PUSH2 0x6C6 JUMP JUMPDEST PUSH1 0x40 MLOAD PUSH2 0x195 SWAP2 SWAP1 PUSH2 0xD08 JUMP JUMPDEST PUSH1 0x40 MLOAD DUP1 SWAP2 SUB SWAP1 RETURN JUMPDEST PUSH2 0x1A6 PUSH2 0x83F JUMP JUMPDEST PUSH1 0x40 MLOAD PUSH2 0x1B3 SWAP2 SWAP1 PUSH2 0xD28 JUMP JUMPDEST PUSH1 0x40 MLOAD DUP1 SWAP2 SUB SWAP1 RETURN JUMPDEST PUSH2 0x1C4 PUSH2 0x845 JUMP JUMPDEST STOP JUMPDEST PUSH1 0x1 PUSH1 0x2 DUP2 GT ISZERO PUSH2 0x1DA JUMPI PUSH2 0x1D9 PUSH2 0xA26 JUMP JUMPDEST JUMPDEST PUSH0 PUSH0 SWAP1 SLOAD SWAP1 PUSH2 0x100 EXP SWAP1 DIV PUSH1 0xFF AND PUSH1 0x2 DUP2 GT ISZERO PUSH2 0x1FA JUMPI PUSH2 0x1F9 PUSH2 0xA26 JUMP JUMPDEST JUMPDEST EQ PUSH2 0x23A JUMPI PUSH1 0x40 MLOAD PUSH32 0x8C379A000000000000000000000000000000000000000000000000000000000 DUP2 MSTORE PUSH1 0x4 ADD PUSH2 0x231 SWAP1 PUSH2 0xD8B JUMP JUMPDEST PUSH1 0x40 MLOAD DUP1 SWAP2 SUB SWAP1 REVERT JUMPDEST PUSH1 0x2 PUSH0 CALLER PUSH20 0xFFFFFFFFFFFFFFFFFFFFFFFFFFFFFFFFFFFFFFFF AND PUSH20 0xFFFFFFFFFFFFFFFFFFFFFFFFFFFFFFFFFFFFFFFF AND DUP2 MSTORE PUSH1 0x20 ADD SWAP1 DUP2 MSTORE PUSH1 0x20 ADD PUSH0 KECCAK256 PUSH0 SWAP1 SLOAD SWAP1 PUSH2 0x100 EXP SWAP1 DIV PUSH1 0xFF AND ISZERO PUSH2 0x2C4 JUMPI PUSH1 0x40 MLOAD PUSH32 0x8C379A000000000000000000000000000000000000000000000000000000000 DUP2 MSTORE PUSH1 0x4 ADD PUSH2 0x2BB SWAP1 PUSH2 0xDF3 JUMP JUMPDEST PUSH1 0x40 MLOAD DUP1 SWAP2 SUB SWAP1 REVERT JUMPDEST PUSH0 DUP2 GT DUP1 ISZERO PUSH2 0x2D5 JUMPI POP PUSH1 0x3 SLOAD DUP2 GT ISZERO JUMPDEST PUSH2 0x314 JUMPI PUSH1 0x40 MLOAD PUSH32 0x8C379A000000000000000000000000000000000000000000000000000000000 DUP2 MSTORE PUSH1 0x4 ADD PUSH2 0x30B SWAP1 PUSH2 0xE5B JUMP JUMPDEST PUSH1 0x40 MLOAD DUP1 SWAP2 SUB SWAP1 REVERT JUMPDEST PUSH1 0x1 PUSH0 DUP3 DUP2 MSTORE PUSH1 0x20 ADD SWAP1 DUP2 MSTORE PUSH1 0x20 ADD PUSH0 KECCAK256 PUSH1 0x2 ADD PUSH0 DUP2 SLOAD DUP1 SWAP3 SWAP2 SWAP1 PUSH2 0x338 SWAP1 PUSH2 0xEA6 JUMP JUMPDEST SWAP2 SWAP1 POP SSTORE POP PUSH1 0x1 PUSH1 0x2 PUSH0 CALLER PUSH20 0xFFFFFFFFFFFFFFFFFFFFFFFFFFFFFFFFFFFFFFFF AND PUSH20 0xFFFFFFFFFFFFFFFFFFFFFFFFFFFFFFFFFFFFFFFF AND DUP2 MSTORE PUSH1 0x20 ADD SWAP1 DUP2 MSTORE PUSH1 0x20 ADD PUSH0 KECCAK256 PUSH0 PUSH2 0x100 EXP DUP2 SLOAD DUP2 PUSH1 0xFF MUL NOT AND SWAP1 DUP4 ISZERO ISZERO MUL OR SWAP1 SSTORE POP PUSH32 0x4D99B957A2BC29A30EBD96A7BE8E68FE50A3C701DB28A91436490B7D53870CA4 CALLER DUP3 PUSH1 0x40 MLOAD PUSH2 0x3C3 SWAP3 SWAP2 SWAP1 PUSH2 0xEED JUMP JUMPDEST PUSH1 0x40 MLOAD DUP1 SWAP2 SUB SWAP1 LOG1 POP JUMP JUMPDEST PUSH1 0x2 PUSH1 0x20 MSTORE DUP1 PUSH0 MSTORE PUSH1 0x40 PUSH0 KECCAK256 PUSH0 SWAP2 POP SLOAD SWAP1 PUSH2 0x100 EXP SWAP1 DIV PUSH1 0xFF AND DUP2 JUMP JUMPDEST PUSH0 PUSH1 0x1 SWAP1 SLOAD SWAP1 PUSH2 0x100 EXP SWAP1 DIV PUSH20 0xFFFFFFFFFFFFFFFFFFFFFFFFFFFFFFFFFFFFFFFF AND PUSH20 0xFFFFFFFFFFFFFFFFFFFFFFFFFFFFFFFFFFFFFFFF AND CALLER PUSH20 0xFFFFFFFFFFFFFFFFFFFFFFFFFFFFFFFFFFFFFFFF AND EQ PUSH2 0x47A JUMPI PUSH1 0x40 MLOAD PUSH32 0x8C379A000000000000000000000000000000000000000000000000000000000 DUP2 MSTORE PUSH1 0x4 ADD PUSH2 0x471 SWAP1 PUSH2 0xF5E JUMP JUMPDEST PUSH1 0x40 MLOAD DUP1 SWAP2 SUB SWAP1 REVERT JUMPDEST PUSH1 0x1 PUSH0 PUSH0 PUSH2 0x100 EXP DUP2 SLOAD DUP2 PUSH1 0xFF MUL NOT AND SWAP1 DUP4 PUSH1 0x2 DUP2 GT ISZERO PUSH2 0x49E JUMPI PUSH2 0x49D PUSH2 0xA26 JUMP JUMPDEST JUMPDEST MUL OR SWAP1 SSTORE POP JUMP JUMPDEST PUSH0 PUSH0 SWAP1 SLOAD SWAP1 PUSH2 0x100 EXP SWAP1 DIV PUSH1 0xFF AND DUP2 JUMP JUMPDEST PUSH1 0x1 PUSH1 0x20 MSTORE DUP1 PUSH0 MSTORE PUSH1 0x40 PUSH0 KECCAK256 PUSH0 SWAP2 POP SWAP1 POP DUP1 PUSH0 ADD SLOAD SWAP1 DUP1 PUSH1 0x1 ADD DUP1 SLOAD PUSH2 0x4DB SWAP1 PUSH2 0xFA9 JUMP JUMPDEST DUP1 PUSH1 0x1F ADD PUSH1 0x20 DUP1 SWAP2 DIV MUL PUSH1 0x20 ADD PUSH1 0x40 MLOAD SWAP1 DUP2 ADD PUSH1 0x40 MSTORE DUP1 SWAP3 SWAP2 SWAP1 DUP2 DUP2 MSTORE PUSH1 0x20 ADD DUP3 DUP1 SLOAD PUSH2 0x507 SWAP1 PUSH2 0xFA9 JUMP JUMPDEST DUP1 ISZERO PUSH2 0x552 JUMPI DUP1 PUSH1 0x1F LT PUSH2 0x529 JUMPI PUSH2 0x100 DUP1 DUP4 SLOAD DIV MUL DUP4 MSTORE SWAP2 PUSH1 0x20 ADD SWAP2 PUSH2 0x552 JUMP JUMPDEST DUP3 ADD SWAP2 SWAP1 PUSH0 MSTORE PUSH1 0x20 PUSH0 KECCAK256 SWAP1 JUMPDEST DUP2 SLOAD DUP2 MSTORE SWAP1 PUSH1 0x1 ADD SWAP1 PUSH1 0x20 ADD DUP1 DUP4 GT PUSH2 0x535 JUMPI DUP3 SWAP1 SUB PUSH1 0x1F AND DUP3 ADD SWAP2 JUMPDEST POP POP POP POP POP SWAP1 DUP1 PUSH1 0x2 ADD SLOAD SWAP1 POP DUP4 JUMP JUMPDEST PUSH0 PUSH1 0x1 SWAP1 SLOAD SWAP1 PUSH2 0x100 EXP SWAP1 DIV PUSH20 0xFFFFFFFFFFFFFFFFFFFFFFFFFFFFFFFFFFFFFFFF AND PUSH20 0xFFFFFFFFFFFFFFFFFFFFFFFFFFFFFFFFFFFFFFFF AND CALLER PUSH20 0xFFFFFFFFFFFFFFFFFFFFFFFFFFFFFFFFFFFFFFFF AND EQ PUSH2 0x5F1 JUMPI PUSH1 0x40 MLOAD PUSH32 0x8C379A000000000000000000000000000000000000000000000000000000000 DUP2 MSTORE PUSH1 0x4 ADD PUSH2 0x5E8 SWAP1 PUSH2 0xF5E JUMP JUMPDEST PUSH1 0x40 MLOAD DUP1 SWAP2 SUB SWAP1 REVERT JUMPDEST PUSH1 0x3 PUSH0 DUP2 SLOAD DUP1 SWAP3 SWAP2 SWAP1 PUSH2 0x603 SWAP1 PUSH2 0xEA6 JUMP JUMPDEST SWAP2 SWAP1 POP SSTORE POP PUSH1 0x40 MLOAD DUP1 PUSH1 0x60 ADD PUSH1 0x40 MSTORE DUP1 PUSH1 0x3 SLOAD DUP2 MSTORE PUSH1 0x20 ADD DUP3 DUP2 MSTORE PUSH1 0x20 ADD PUSH0 DUP2 MSTORE POP PUSH1 0x1 PUSH0 PUSH1 0x3 SLOAD DUP2 MSTORE PUSH1 0x20 ADD SWAP1 DUP2 MSTORE PUSH1 0x20 ADD PUSH0 KECCAK256 PUSH0 DUP3 ADD MLOAD DUP2 PUSH0 ADD SSTORE PUSH1 0x20 DUP3 ADD MLOAD DUP2 PUSH1 0x1 ADD SWAP1 DUP2 PUSH2 0x655 SWAP2 SWAP1 PUSH2 0x1179 JUMP JUMPDEST POP PUSH1 0x40 DUP3 ADD MLOAD DUP2 PUSH1 0x2 ADD SSTORE SWAP1 POP POP PUSH32 0xD50043A6A3553DEF16E768C2C5CA6A70FCAF367A1B2111B3555C44FF680BF9CF PUSH1 0x3 SLOAD DUP3 PUSH1 0x40 MLOAD PUSH2 0x696 SWAP3 SWAP2 SWAP1 PUSH2 0x1248 JUMP JUMPDEST PUSH1 0x40 MLOAD DUP1 SWAP2 SUB SWAP1 LOG1 POP JUMP JUMPDEST PUSH0 PUSH1 0x1 SWAP1 SLOAD SWAP1 PUSH2 0x100 EXP SWAP1 DIV PUSH20 0xFFFFFFFFFFFFFFFFFFFFFFFFFFFFFFFFFFFFFFFF AND DUP2 JUMP JUMPDEST PUSH1 0x60 PUSH1 0x2 DUP1 DUP2 GT ISZERO PUSH2 0x6DB JUMPI PUSH2 0x6DA PUSH2 0xA26 JUMP JUMPDEST JUMPDEST PUSH0 PUSH0 SWAP1 SLOAD SWAP1 PUSH2 0x100 EXP SWAP1 DIV PUSH1 0xFF AND PUSH1 0x2 DUP2 GT ISZERO PUSH2 0x6FB JUMPI PUSH2 0x6FA PUSH2 0xA26 JUMP JUMPDEST JUMPDEST EQ PUSH2 0x73B JUMPI PUSH1 0x40 MLOAD PUSH32 0x8C379A000000000000000000000000000000000000000000000000000000000 DUP2 MSTORE PUSH1 0x4 ADD PUSH2 0x732 SWAP1 PUSH2 0x12C0 JUMP JUMPDEST PUSH1 0x40 MLOAD DUP1 SWAP2 SUB SWAP1 REVERT JUMPDEST PUSH0 PUSH0 SWAP1 POP PUSH0 PUSH0 SWAP1 POP PUSH0 PUSH1 0x1 SWAP1 POP JUMPDEST PUSH1 0x3 SLOAD DUP2 GT PUSH2 0x79C JUMPI DUP3 PUSH1 0x1 PUSH0 DUP4 DUP2 MSTORE PUSH1 0x20 ADD SWAP1 DUP2 MSTORE PUSH1 0x20 ADD PUSH0 KECCAK256 PUSH1 0x2 ADD SLOAD GT ISZERO PUSH2 0x789 JUMPI PUSH1 0x1 PUSH0 DUP3 DUP2 MSTORE PUSH1 0x20 ADD SWAP1 DUP2 MSTORE PUSH1 0x20 ADD PUSH0 KECCAK256 PUSH1 0x2 ADD SLOAD SWAP3 POP DUP1 SWAP2 POP JUMPDEST DUP1 DUP1 PUSH2 0x794 SWAP1 PUSH2 0xEA6 JUMP JUMPDEST SWAP2 POP POP PUSH2 0x749 JUMP JUMPDEST POP PUSH1 0x1 PUSH0 DUP3 DUP2 MSTORE PUSH1 0x20 ADD SWAP1 DUP2 MSTORE PUSH1 0x20 ADD PUSH0 KECCAK256 PUSH1 0x1 ADD DUP1 SLOAD PUSH2 0x7BC SWAP1 PUSH2 0xFA9 JUMP JUMPDEST DUP1 PUSH1 0x1F ADD PUSH1 0x20 DUP1 SWAP2 DIV MUL PUSH1 0x20 ADD PUSH1 0x40 MLOAD SWAP1 DUP2 ADD PUSH1 0x40 MSTORE DUP1 SWAP3 SWAP2 SWAP1 DUP2 DUP2 MSTORE PUSH1 0x20 ADD DUP3 DUP1 SLOAD PUSH2 0x7E8 SWAP1 PUSH2 0xFA9 JUMP JUMPDEST DUP1 ISZERO PUSH2 0x833 JUMPI DUP1 PUSH1 0x1F LT PUSH2 0x80A JUMPI PUSH2 0x100 DUP1 DUP4 SLOAD DIV MUL DUP4 MSTORE SWAP2 PUSH1 0x20 ADD SWAP2 PUSH2 0x833 JUMP JUMPDEST DUP3 ADD SWAP2 SWAP1 PUSH0 MSTORE PUSH1 0x20 PUSH0 KECCAK256 SWAP1 JUMPDEST DUP2 SLOAD DUP2 MSTORE SWAP1 PUSH1 0x1 ADD SWAP1 PUSH1 0x20 ADD DUP1 DUP4 GT PUSH2 0x816 JUMPI DUP3 SWAP1 SUB PUSH1 0x1F AND DUP3 ADD SWAP2 JUMPDEST POP POP POP POP POP SWAP3 POP POP POP SWAP1 JUMP JUMPDEST PUSH1 0x3 SLOAD DUP2 JUMP JUMPDEST PUSH0 PUSH1 0x1 SWAP1 SLOAD SWAP1 PUSH2 0x100 EXP SWAP1 DIV PUSH20 0xFFFFFFFFFFFFFFFFFFFFFFFFFFFFFFFFFFFFFFFF AND PUSH20 0xFFFFFFFFFFFFFFFFFFFFFFFFFFFFFFFFFFFFFFFF AND CALLER PUSH20 0xFFFFFFFFFFFFFFFFFFFFFFFFFFFFFFFFFFFFFFFF AND EQ PUSH2 0x8D4 JUMPI PUSH1 0x40 MLOAD PUSH32 0x8C379A000000000000000000000000000000000000000000000000000000000 DUP2 MSTORE PUSH1 0x4 ADD PUSH2 0x8CB SWAP1 PUSH2 0xF5E JUMP JUMPDEST PUSH1 0x40 MLOAD DUP1 SWAP2 SUB SWAP1 REVERT JUMPDEST PUSH1 0x2 PUSH0 PUSH0 PUSH2 0x100 EXP DUP2 SLOAD DUP2 PUSH1 0xFF MUL NOT AND SWAP1 DUP4 PUSH1 0x2 DUP2 GT ISZERO PUSH2 0x8F8 JUMPI PUSH2 0x8F7 PUSH2 0xA26 JUMP JUMPDEST JUMPDEST MUL OR SWAP1 SSTORE POP JUMP JUMPDEST PUSH0 PUSH1 0x40 MLOAD SWAP1 POP SWAP1 JUMP JUMPDEST PUSH0 PUSH0 REVERT JUMPDEST PUSH0 PUSH0 REVERT JUMPDEST PUSH0 DUP2 SWAP1 POP SWAP2 SWAP1 POP JUMP JUMPDEST PUSH2 0x922 DUP2 PUSH2 0x910 JUMP JUMPDEST DUP2 EQ PUSH2 0x92C JUMPI PUSH0 PUSH0 REVERT JUMPDEST POP JUMP JUMPDEST PUSH0 DUP2 CALLDATALOAD SWAP1 POP PUSH2 0x93D DUP2 PUSH2 0x919 JUMP JUMPDEST SWAP3 SWAP2 POP POP JUMP JUMPDEST PUSH0 PUSH1 0x20 DUP3 DUP5 SUB SLT ISZERO PUSH2 0x958 JUMPI PUSH2 0x957 PUSH2 0x908 JUMP JUMPDEST JUMPDEST PUSH0 PUSH2 0x965 DUP5 DUP3 DUP6 ADD PUSH2 0x92F JUMP JUMPDEST SWAP2 POP POP SWAP3 SWAP2 POP POP JUMP JUMPDEST PUSH0 PUSH20 0xFFFFFFFFFFFFFFFFFFFFFFFFFFFFFFFFFFFFFFFF DUP3 AND SWAP1 POP SWAP2 SWAP1 POP JUMP JUMPDEST PUSH0 PUSH2 0x997 DUP3 PUSH2 0x96E JUMP JUMPDEST SWAP1 POP SWAP2 SWAP1 POP JUMP JUMPDEST PUSH2 0x9A7 DUP2 PUSH2 0x98D JUMP JUMPDEST DUP2 EQ PUSH2 0x9B1 JUMPI PUSH0 PUSH0 REVERT JUMPDEST POP JUMP JUMPDEST PUSH0 DUP2 CALLDATALOAD SWAP1 POP PUSH2 0x9C2 DUP2 PUSH2 0x99E JUMP JUMPDEST SWAP3 SWAP2 POP POP JUMP JUMPDEST PUSH0 PUSH1 0x20 DUP3 DUP5 SUB SLT ISZERO PUSH2 0x9DD JUMPI PUSH2 0x9DC PUSH2 0x908 JUMP JUMPDEST JUMPDEST PUSH0 PUSH2 0x9EA DUP5 DUP3 DUP6 ADD PUSH2 0x9B4 JUMP JUMPDEST SWAP2 POP POP SWAP3 SWAP2 POP POP JUMP JUMPDEST PUSH0 DUP2 ISZERO ISZERO SWAP1 POP SWAP2 SWAP1 POP JUMP JUMPDEST PUSH2 0xA07 DUP2 PUSH2 0x9F3 JUMP JUMPDEST DUP3 MSTORE POP POP JUMP JUMPDEST PUSH0 PUSH1 0x20 DUP3 ADD SWAP1 POP PUSH2 0xA20 PUSH0 DUP4 ADD DUP5 PUSH2 0x9FE JUMP JUMPDEST SWAP3 SWAP2 POP POP JUMP JUMPDEST PUSH32 0x4E487B7100000000000000000000000000000000000000000000000000000000 PUSH0 MSTORE PUSH1 0x21 PUSH1 0x4 MSTORE PUSH1 0x24 PUSH0 REVERT JUMPDEST PUSH1 0x3 DUP2 LT PUSH2 0xA64 JUMPI PUSH2 0xA63 PUSH2 0xA26 JUMP JUMPDEST JUMPDEST POP JUMP JUMPDEST PUSH0 DUP2 SWAP1 POP PUSH2 0xA74 DUP3 PUSH2 0xA53 JUMP JUMPDEST SWAP2 SWAP1 POP JUMP JUMPDEST PUSH0 PUSH2 0xA83 DUP3 PUSH2 0xA67 JUMP JUMPDEST SWAP1 POP SWAP2 SWAP1 POP JUMP JUMPDEST PUSH2 0xA93 DUP2 PUSH2 0xA79 JUMP JUMPDEST DUP3 MSTORE POP POP JUMP JUMPDEST PUSH0 PUSH1 0x20 DUP3 ADD SWAP1 POP PUSH2 0xAAC PUSH0 DUP4 ADD DUP5 PUSH2 0xA8A JUMP JUMPDEST SWAP3 SWAP2 POP POP JUMP JUMPDEST PUSH2 0xABB DUP2 PUSH2 0x910 JUMP JUMPDEST DUP3 MSTORE POP POP JUMP JUMPDEST PUSH0 DUP2 MLOAD SWAP1 POP SWAP2 SWAP1 POP JUMP JUMPDEST PUSH0 DUP3 DUP3 MSTORE PUSH1 0x20 DUP3 ADD SWAP1 POP SWAP3 SWAP2 POP POP JUMP JUMPDEST DUP3 DUP2 DUP4 MCOPY PUSH0 DUP4 DUP4 ADD MSTORE POP POP POP JUMP JUMPDEST PUSH0 PUSH1 0x1F NOT PUSH1 0x1F DUP4 ADD AND SWAP1 POP SWAP2 SWAP1 POP JUMP JUMPDEST PUSH0 PUSH2 0xB03 DUP3 PUSH2 0xAC1 JUMP JUMPDEST PUSH2 0xB0D DUP2 DUP6 PUSH2 0xACB JUMP JUMPDEST SWAP4 POP PUSH2 0xB1D DUP2 DUP6 PUSH1 0x20 DUP7 ADD PUSH2 0xADB JUMP JUMPDEST PUSH2 0xB26 DUP2 PUSH2 0xAE9 JUMP JUMPDEST DUP5 ADD SWAP2 POP POP SWAP3 SWAP2 POP POP JUMP JUMPDEST PUSH0 PUSH1 0x60 DUP3 ADD SWAP1 POP PUSH2 0xB44 PUSH0 DUP4 ADD DUP7 PUSH2 0xAB2 JUMP JUMPDEST DUP2 DUP2 SUB PUSH1 0x20 DUP4 ADD MSTORE PUSH2 0xB56 DUP2 DUP6 PUSH2 0xAF9 JUMP JUMPDEST SWAP1 POP PUSH2 0xB65 PUSH1 0x40 DUP4 ADD DUP5 PUSH2 0xAB2 JUMP JUMPDEST SWAP5 SWAP4 POP POP POP POP JUMP JUMPDEST PUSH0 PUSH0 REVERT JUMPDEST PUSH0 PUSH0 REVERT JUMPDEST PUSH32 0x4E487B7100000000000000000000000000000000000000000000000000000000 PUSH0 MSTORE PUSH1 0x41 PUSH1 0x4 MSTORE PUSH1 0x24 PUSH0 REVERT JUMPDEST PUSH2 0xBAB DUP3 PUSH2 0xAE9 JUMP JUMPDEST DUP2 ADD DUP2 DUP2 LT PUSH8 0xFFFFFFFFFFFFFFFF DUP3 GT OR ISZERO PUSH2 0xBCA JUMPI PUSH2 0xBC9 PUSH2 0xB75 JUMP JUMPDEST JUMPDEST DUP1 PUSH1 0x40 MSTORE POP POP POP JUMP JUMPDEST PUSH0 PUSH2 0xBDC PUSH2 0x8FF JUMP JUMPDEST SWAP1 POP PUSH2 0xBE8 DUP3 DUP3 PUSH2 0xBA2 JUMP JUMPDEST SWAP2 SWAP1 POP JUMP JUMPDEST PUSH0 PUSH8 0xFFFFFFFFFFFFFFFF DUP3 GT ISZERO PUSH2 0xC07 JUMPI PUSH2 0xC06 PUSH2 0xB75 JUMP JUMPDEST JUMPDEST PUSH2 0xC10 DUP3 PUSH2 0xAE9 JUMP JUMPDEST SWAP1 POP PUSH1 0x20 DUP2 ADD SWAP1 POP SWAP2 SWAP1 POP JUMP JUMPDEST DUP3 DUP2 DUP4 CALLDATACOPY PUSH0 DUP4 DUP4 ADD MSTORE POP POP POP JUMP JUMPDEST PUSH0 PUSH2 0xC3D PUSH2 0xC38 DUP5 PUSH2 0xBED JUMP JUMPDEST PUSH2 0xBD3 JUMP JUMPDEST SWAP1 POP DUP3 DUP2 MSTORE PUSH1 0x20 DUP2 ADD DUP5 DUP5 DUP5 ADD GT ISZERO PUSH2 0xC59 JUMPI PUSH2 0xC58 PUSH2 0xB71 JUMP JUMPDEST JUMPDEST PUSH2 0xC64 DUP5 DUP3 DUP6 PUSH2 0xC1D JUMP JUMPDEST POP SWAP4 SWAP3 POP POP POP JUMP JUMPDEST PUSH0 DUP3 PUSH1 0x1F DUP4 ADD SLT PUSH2 0xC80 JUMPI PUSH2 0xC7F PUSH2 0xB6D JUMP JUMPDEST JUMPDEST DUP2 CALLDATALOAD PUSH2 0xC90 DUP5 DUP3 PUSH1 0x20 DUP7 ADD PUSH2 0xC2B JUMP JUMPDEST SWAP2 POP POP SWAP3 SWAP2 POP POP JUMP JUMPDEST PUSH0 PUSH1 0x20 DUP3 DUP5 SUB SLT ISZERO PUSH2 0xCAE JUMPI PUSH2 0xCAD PUSH2 0x908 JUMP JUMPDEST JUMPDEST PUSH0 DUP3 ADD CALLDATALOAD PUSH8 0xFFFFFFFFFFFFFFFF DUP2 GT ISZERO PUSH2 0xCCB JUMPI PUSH2 0xCCA PUSH2 0x90C JUMP JUMPDEST JUMPDEST PUSH2 0xCD7 DUP5 DUP3 DUP6 ADD PUSH2 0xC6C JUMP JUMPDEST SWAP2 POP POP SWAP3 SWAP2 POP POP JUMP JUMPDEST PUSH2 0xCE9 DUP2 PUSH2 0x98D JUMP JUMPDEST DUP3 MSTORE POP POP JUMP JUMPDEST PUSH0 PUSH1 0x20 DUP3 ADD SWAP1 POP PUSH2 0xD02 PUSH0 DUP4 ADD DUP5 PUSH2 0xCE0 JUMP JUMPDEST SWAP3 SWAP2 POP POP JUMP JUMPDEST PUSH0 PUSH1 0x20 DUP3 ADD SWAP1 POP DUP2 DUP2 SUB PUSH0 DUP4 ADD MSTORE PUSH2 0xD20 DUP2 DUP5 PUSH2 0xAF9 JUMP JUMPDEST SWAP1 POP SWAP3 SWAP2 POP POP JUMP JUMPDEST PUSH0 PUSH1 0x20 DUP3 ADD SWAP1 POP PUSH2 0xD3B PUSH0 DUP4 ADD DUP5 PUSH2 0xAB2 JUMP JUMPDEST SWAP3 SWAP2 POP POP JUMP JUMPDEST PUSH32 0x566F74696E67206973206E6F7420416374697665000000000000000000000000 PUSH0 DUP3 ADD MSTORE POP JUMP JUMPDEST PUSH0 PUSH2 0xD75 PUSH1 0x14 DUP4 PUSH2 0xACB JUMP JUMPDEST SWAP2 POP PUSH2 0xD80 DUP3 PUSH2 0xD41 JUMP JUMPDEST PUSH1 0x20 DUP3 ADD SWAP1 POP SWAP2 SWAP1 POP JUMP JUMPDEST PUSH0 PUSH1 0x20 DUP3 ADD SWAP1 POP DUP2 DUP2 SUB PUSH0 DUP4 ADD MSTORE PUSH2 0xDA2 DUP2 PUSH2 0xD69 JUMP JUMPDEST SWAP1 POP SWAP2 SWAP1 POP JUMP JUMPDEST PUSH32 0x20416C726561647920766F746564000000000000000000000000000000000000 PUSH0 DUP3 ADD MSTORE POP JUMP JUMPDEST PUSH0 PUSH2 0xDDD PUSH1 0xE DUP4 PUSH2 0xACB JUMP JUMPDEST SWAP2 POP PUSH2 0xDE8 DUP3 PUSH2 0xDA9 JUMP JUMPDEST PUSH1 0x20 DUP3 ADD SWAP1 POP SWAP2 SWAP1 POP JUMP JUMPDEST PUSH0 PUSH1 0x20 DUP3 ADD SWAP1 POP DUP2 DUP2 SUB PUSH0 DUP4 ADD MSTORE PUSH2 0xE0A DUP2 PUSH2 0xDD1 JUMP JUMPDEST SWAP1 POP SWAP2 SWAP1 POP JUMP JUMPDEST PUSH32 0x20696E76616C69642043616E6469646174650000000000000000000000000000 PUSH0 DUP3 ADD MSTORE POP JUMP JUMPDEST PUSH0 PUSH2 0xE45 PUSH1 0x12 DUP4 PUSH2 0xACB JUMP JUMPDEST SWAP2 POP PUSH2 0xE50 DUP3 PUSH2 0xE11 JUMP JUMPDEST PUSH1 0x20 DUP3 ADD SWAP1 POP SWAP2 SWAP1 POP JUMP JUMPDEST PUSH0 PUSH1 0x20 DUP3 ADD SWAP1 POP DUP2 DUP2 SUB PUSH0 DUP4 ADD MSTORE PUSH2 0xE72 DUP2 PUSH2 0xE39 JUMP JUMPDEST SWAP1 POP SWAP2 SWAP1 POP JUMP JUMPDEST PUSH32 0x4E487B7100000000000000000000000000000000000000000000000000000000 PUSH0 MSTORE PUSH1 0x11 PUSH1 0x4 MSTORE PUSH1 0x24 PUSH0 REVERT JUMPDEST PUSH0 PUSH2 0xEB0 DUP3 PUSH2 0x910 JUMP JUMPDEST SWAP2 POP PUSH32 0xFFFFFFFFFFFFFFFFFFFFFFFFFFFFFFFFFFFFFFFFFFFFFFFFFFFFFFFFFFFFFFFF DUP3 SUB PUSH2 0xEE2 JUMPI PUSH2 0xEE1 PUSH2 0xE79 JUMP JUMPDEST JUMPDEST PUSH1 0x1 DUP3 ADD SWAP1 POP SWAP2 SWAP1 POP JUMP JUMPDEST PUSH0 PUSH1 0x40 DUP3 ADD SWAP1 POP PUSH2 0xF00 PUSH0 DUP4 ADD DUP6 PUSH2 0xCE0 JUMP JUMPDEST PUSH2 0xF0D PUSH1 0x20 DUP4 ADD DUP5 PUSH2 0xAB2 JUMP JUMPDEST SWAP4 SWAP3 POP POP POP JUMP JUMPDEST PUSH32 0x206F776E657220697320616C6C6F776564000000000000000000000000000000 PUSH0 DUP3 ADD MSTORE POP JUMP JUMPDEST PUSH0 PUSH2 0xF48 PUSH1 0x11 DUP4 PUSH2 0xACB JUMP JUMPDEST SWAP2 POP PUSH2 0xF53 DUP3 PUSH2 0xF14 JUMP JUMPDEST PUSH1 0x20 DUP3 ADD SWAP1 POP SWAP2 SWAP1 POP JUMP JUMPDEST PUSH0 PUSH1 0x20 DUP3 ADD SWAP1 POP DUP2 DUP2 SUB PUSH0 DUP4 ADD MSTORE PUSH2 0xF75 DUP2 PUSH2 0xF3C JUMP JUMPDEST SWAP1 POP SWAP2 SWAP1 POP JUMP JUMPDEST PUSH32 0x4E487B7100000000000000000000000000000000000000000000000000000000 PUSH0 MSTORE PUSH1 0x22 PUSH1 0x4 MSTORE PUSH1 0x24 PUSH0 REVERT JUMPDEST PUSH0 PUSH1 0x2 DUP3 DIV SWAP1 POP PUSH1 0x1 DUP3 AND DUP1 PUSH2 0xFC0 JUMPI PUSH1 0x7F DUP3 AND SWAP2 POP JUMPDEST PUSH1 0x20 DUP3 LT DUP2 SUB PUSH2 0xFD3 JUMPI PUSH2 0xFD2 PUSH2 0xF7C JUMP JUMPDEST JUMPDEST POP SWAP2 SWAP1 POP JUMP JUMPDEST PUSH0 DUP2 SWAP1 POP DUP2 PUSH0 MSTORE PUSH1 0x20 PUSH0 KECCAK256 SWAP1 POP SWAP2 SWAP1 POP JUMP JUMPDEST PUSH0 PUSH1 0x20 PUSH1 0x1F DUP4 ADD DIV SWAP1 POP SWAP2 SWAP1 POP JUMP JUMPDEST PUSH0 DUP3 DUP3 SHL SWAP1 POP SWAP3 SWAP2 POP POP JUMP JUMPDEST PUSH0 PUSH1 0x8 DUP4 MUL PUSH2 0x1035 PUSH32 0xFFFFFFFFFFFFFFFFFFFFFFFFFFFFFFFFFFFFFFFFFFFFFFFFFFFFFFFFFFFFFFFF DUP3 PUSH2 0xFFA JUMP JUMPDEST PUSH2 0x103F DUP7 DUP4 PUSH2 0xFFA JUMP JUMPDEST SWAP6 POP DUP1 NOT DUP5 AND SWAP4 POP DUP1 DUP7 AND DUP5 OR SWAP3 POP POP POP SWAP4 SWAP3 POP POP POP JUMP JUMPDEST PUSH0 DUP2 SWAP1 POP SWAP2 SWAP1 POP JUMP JUMPDEST PUSH0 PUSH2 0x107A PUSH2 0x1075 PUSH2 0x1070 DUP5 PUSH2 0x910 JUMP JUMPDEST PUSH2 0x1057 JUMP JUMPDEST PUSH2 0x910 JUMP JUMPDEST SWAP1 POP SWAP2 SWAP1 POP JUMP JUMPDEST PUSH0 DUP2 SWAP1 POP SWAP2 SWAP1 POP JUMP JUMPDEST PUSH2 0x1093 DUP4 PUSH2 0x1060 JUMP JUMPDEST PUSH2 0x10A7 PUSH2 0x109F DUP3 PUSH2 0x1081 JUMP JUMPDEST DUP5 DUP5 SLOAD PUSH2 0x1006 JUMP JUMPDEST DUP3 SSTORE POP POP POP POP JUMP JUMPDEST PUSH0 PUSH0 SWAP1 POP SWAP1 JUMP JUMPDEST PUSH2 0x10BE PUSH2 0x10AF JUMP JUMPDEST PUSH2 0x10C9 DUP2 DUP5 DUP5 PUSH2 0x108A JUMP JUMPDEST POP POP POP JUMP JUMPDEST JUMPDEST DUP2 DUP2 LT ISZERO PUSH2 0x10EC JUMPI PUSH2 0x10E1 PUSH0 DUP3 PUSH2 0x10B6 JUMP JUMPDEST PUSH1 0x1 DUP2 ADD SWAP1 POP PUSH2 0x10CF JUMP JUMPDEST POP POP JUMP JUMPDEST PUSH1 0x1F DUP3 GT ISZERO PUSH2 0x1131 JUMPI PUSH2 0x1102 DUP2 PUSH2 0xFD9 JUMP JUMPDEST PUSH2 0x110B DUP5 PUSH2 0xFEB JUMP JUMPDEST DUP2 ADD PUSH1 0x20 DUP6 LT ISZERO PUSH2 0x111A JUMPI DUP2 SWAP1 POP JUMPDEST PUSH2 0x112E PUSH2 0x1126 DUP6 PUSH2 0xFEB JUMP JUMPDEST DUP4 ADD DUP3 PUSH2 0x10CE JUMP JUMPDEST POP POP JUMPDEST POP POP POP JUMP JUMPDEST PUSH0 DUP3 DUP3 SHR SWAP1 POP SWAP3 SWAP2 POP POP JUMP JUMPDEST PUSH0 PUSH2 0x1151 PUSH0 NOT DUP5 PUSH1 0x8 MUL PUSH2 0x1136 JUMP JUMPDEST NOT DUP1 DUP4 AND SWAP2 POP POP SWAP3 SWAP2 POP POP JUMP JUMPDEST PUSH0 PUSH2 0x1169 DUP4 DUP4 PUSH2 0x1142 JUMP JUMPDEST SWAP2 POP DUP3 PUSH1 0x2 MUL DUP3 OR SWAP1 POP SWAP3 SWAP2 POP POP JUMP JUMPDEST PUSH2 0x1182 DUP3 PUSH2 0xAC1 JUMP JUMPDEST PUSH8 0xFFFFFFFFFFFFFFFF DUP2 GT ISZERO PUSH2 0x119B JUMPI PUSH2 0x119A PUSH2 0xB75 JUMP JUMPDEST JUMPDEST PUSH2 0x11A5 DUP3 SLOAD PUSH2 0xFA9 JUMP JUMPDEST PUSH2 0x11B0 DUP3 DUP3 DUP6 PUSH2 0x10F0 JUMP JUMPDEST PUSH0 PUSH1 0x20 SWAP1 POP PUSH1 0x1F DUP4 GT PUSH1 0x1 DUP2 EQ PUSH2 0x11E1 JUMPI PUSH0 DUP5 ISZERO PUSH2 0x11CF JUMPI DUP3 DUP8 ADD MLOAD SWAP1 POP JUMPDEST PUSH2 0x11D9 DUP6 DUP3 PUSH2 0x115E JUMP JUMPDEST DUP7 SSTORE POP PUSH2 0x1240 JUMP JUMPDEST PUSH1 0x1F NOT DUP5 AND PUSH2 0x11EF DUP7 PUSH2 0xFD9 JUMP JUMPDEST PUSH0 JUMPDEST DUP3 DUP2 LT ISZERO PUSH2 0x1216 JUMPI DUP5 DUP10 ADD MLOAD DUP3 SSTORE PUSH1 0x1 DUP3 ADD SWAP2 POP PUSH1 0x20 DUP6 ADD SWAP5 POP PUSH1 0x20 DUP2 ADD SWAP1 POP PUSH2 0x11F1 JUMP JUMPDEST DUP7 DUP4 LT ISZERO PUSH2 0x1233 JUMPI DUP5 DUP10 ADD MLOAD PUSH2 0x122F PUSH1 0x1F DUP10 AND DUP3 PUSH2 0x1142 JUMP JUMPDEST DUP4 SSTORE POP JUMPDEST PUSH1 0x1 PUSH1 0x2 DUP9 MUL ADD DUP9 SSTORE POP POP POP JUMPDEST POP POP POP POP POP POP JUMP JUMPDEST PUSH0 PUSH1 0x40 DUP3 ADD SWAP1 POP PUSH2 0x125B PUSH0 DUP4 ADD DUP6 PUSH2 0xAB2 JUMP JUMPDEST DUP2 DUP2 SUB PUSH1 0x20 DUP4 ADD MSTORE PUSH2 0x126D DUP2 DUP5 PUSH2 0xAF9 JUMP JUMPDEST SWAP1 POP SWAP4 SWAP3 POP POP POP JUMP JUMPDEST PUSH32 0x566F74696E67206973207374696C6C20696E70726F6365737300000000000000 PUSH0 DUP3 ADD MSTORE POP JUMP JUMPDEST PUSH0 PUSH2 0x12AA PUSH1 0x19 DUP4 PUSH2 0xACB JUMP JUMPDEST SWAP2 POP PUSH2 0x12B5 DUP3 PUSH2 0x1276 JUMP JUMPDEST PUSH1 0x20 DUP3 ADD SWAP1 POP SWAP2 SWAP1 POP JUMP JUMPDEST PUSH0 PUSH1 0x20 DUP3 ADD SWAP1 POP DUP2 DUP2 SUB PUSH0 DUP4 ADD MSTORE PUSH2 0x12D7 DUP2 PUSH2 0x129E JUMP JUMPDEST SWAP1 POP SWAP2 SWAP1 POP JUMP INVALID LOG2 PUSH5 0x6970667358 0x22 SLT KECCAK256 PUSH11 0xD18A7F4D9D506C1527EB99 0x4F LOG4 0xCD 0xDD PUSH18 0x37FBFE5ABA6597634265238DEC7DFB64736F PUSH13 0x634300081F0033000000000000 "
				},
				"gasEstimates": {
					"creation": {
						"codeDepositCost": "976800",
						"executionCost": "49623",
						"totalCost": "1026423"
					},
					"external": {
						"addCandidate(string)": "infinite",
						"candidateCount()": "2491",
						"candidates(uint256)": "infinite",
						"endVoting()": "26735",
						"getWinner()": "infinite",
						"hasVoted(address)": "2856",
						"owner()": "2580",
						"startVoting()": "26692",
						"status()": "2620",
						"vote(uint256)": "infinite"
					}
				},
				"methodIdentifiers": {
					"addCandidate(string)": "462e91ec",
					"candidateCount()": "a9a981a3",
					"candidates(uint256)": "3477ee2e",
					"endVoting()": "c3403ddf",
					"getWinner()": "8e7ea5b2",
					"hasVoted(address)": "09eef43e",
					"owner()": "8da5cb5b",
					"startVoting()": "1ec6b60a",
					"status()": "200d2ed2",
					"vote(uint256)": "0121b93f"
				}
			},
			"storageLayout": {
				"storage": [
					{
						"astId": 8,
						"contract": "models/voting.sol:Voting",
						"label": "status",
						"offset": 0,
						"slot": "0",
						"type": "t_enum(VotingStatus)5"
					},
					{
						"astId": 10,
						"contract": "models/voting.sol:Voting",
						"label": "owner",
						"offset": 1,
						"slot": "0",
						"type": "t_address"
					},
					{
						"astId": 36,
						"contract": "models/voting.sol:Voting",
						"label": "candidates",
						"offset": 0,
						"slot": "1",
						"type": "t_mapping(t_uint256,t_struct(Candidate)31_storage)"
					},
					{
						"astId": 40,
						"contract": "models/voting.sol:Voting",
						"label": "hasVoted",
						"offset": 0,
						"slot": "2",
						"type": "t_mapping(t_address,t_bool)"
					},
					{
						"astId": 42,
						"contract": "models/voting.sol:Voting",
						"label": "candidateCount",
						"offset": 0,
						"slot": "3",
						"type": "t_uint256"
					}
				],
				"types": {
					"t_address": {
						"encoding": "inplace",
						"label": "address",
						"numberOfBytes": "20"
					},
					"t_bool": {
						"encoding": "inplace",
						"label": "bool",
						"numberOfBytes": "1"
					},
					"t_enum(VotingStatus)5": {
						"encoding": "inplace",
						"label": "enum Voting.VotingStatus",
						"numberOfBytes": "1"
					},
					"t_mapping(t_address,t_bool)": {
						"encoding": "mapping",
						"key": "t_address",
						"label": "mapping(address => bool)",
						"numberOfBytes": "32",
						"value": "t_bool"
					},
					"t_mapping(t_uint256,t_struct(Candidate)31_storage)": {
						"encoding": "mapping",
						"key": "t_uint256",
						"label": "mapping(uint256 => struct Voting.Candidate)",
						"numberOfBytes": "32",
						"value": "t_struct(Candidate)31_storage"
					},
					"t_string_storage": {
						"encoding": "bytes",
						"label": "string",
						"numberOfBytes": "32"
					},
					"t_struct(Candidate)31_storage": {
						"encoding": "inplace",
						"label": "struct Voting.Candidate",
						"members": [
							{
								"astId": 26,
								"contract": "models/voting.sol:Voting",
								"label": "id",
								"offset": 0,
								"slot": "0",
								"type": "t_uint256"
							},
							{
								"astId": 28,
								"contract": "models/voting.sol:Voting",
								"label": "name",
								"offset": 0,
								"slot": "1",
								"type": "t_string_storage"
							},
							{
								"astId": 30,
								"contract": "models/voting.sol:Voting",
								"label": "voteCount",
								"offset": 0,
								"slot": "2",
								"type": "t_uint256"
							}
						],
						"numberOfBytes": "96"
					},
					"t_uint256": {
						"encoding": "inplace",
						"label": "uint256",
						"numberOfBytes": "32"
					}
				}
			},
			"userdoc": {
				"kind": "user",
				"methods": {},
				"version": 1
			}
		}
	}
}