{
	"data": {
		"bytecode": {
			"linkReferences": {},
			"object": "6080604052348015600e575f5ffd5b506104208061001c5f395ff3fe608060405234801561000f575f5ffd5b506004361061004a575f3560e01c80632e7c409b1461004e5780637afbe4f11461007e578063b048546f146100ae578063f8eac151146100de575b5f5ffd5b610068600480360381019061006391906101db565b61010e565b6040516100759190610228565b60405180910390f35b610098600480360381019061009391906101db565b610123565b6040516100a59190610228565b60405180910390f35b6100c860048036038101906100c391906101db565b610138565b6040516100d59190610228565b60405180910390f35b6100f860048036038101906100f391906101db565b61018f565b6040516101059190610228565b60405180910390f35b5f818361011b919061026e565b905092915050565b5f818361013091906102a1565b905092915050565b5f5f820361017b576040517f08c379a00000000000000000000000000000000000000000000000000000000081526004016101729061032e565b60405180910390fd5b81836101879190610379565b905092915050565b5f818361019c91906103a9565b905092915050565b5f5ffd5b5f819050919050565b6101ba816101a8565b81146101c4575f5ffd5b50565b5f813590506101d5816101b1565b92915050565b5f5f604083850312156101f1576101f06101a4565b5b5f6101fe858286016101c7565b925050602061020f858286016101c7565b9150509250929050565b610222816101a8565b82525050565b5f60208201905061023b5f830184610219565b92915050565b7f4e487b71000000000000000000000000000000000000000000000000000000005f52601160045260245ffd5b5f610278826101a8565b9150610283836101a8565b925082820390508181111561029b5761029a610241565b5b92915050565b5f6102ab826101a8565b91506102b6836101a8565b92508282019050808211156102ce576102cd610241565b5b92915050565b5f82825260208201905092915050565b7f63616e277420646976696465206279205a65726f0000000000000000000000005f82015250565b5f6103186014836102d4565b9150610323826102e4565b602082019050919050565b5f6020820190508181035f8301526103458161030c565b9050919050565b7f4e487b71000000000000000000000000000000000000000000000000000000005f52601260045260245ffd5b5f610383826101a8565b915061038e836101a8565b92508261039e5761039d61034c565b5b828204905092915050565b5f6103b3826101a8565b91506103be836101a8565b92508282026103cc816101a8565b915082820484148315176103e3576103e2610241565b5b509291505056fea2646970667358221220f5ed8199f3e0137c628a03406f4420ea71c644333206feb9b538013f8b2ba43c64736f6c634300081f0033",
			"opcodes": "PUSH1 0x80 PUSH1 0x40 MSTORE CALLVALUE DUP1 ISZERO PUSH1 0xE JUMPI PUSH0 PUSH0 REVERT JUMPDEST POP PUSH2 0x420 DUP1 PUSH2 0x1C PUSH0 CODECOPY PUSH0 RETURN INVALID PUSH1 0x80 PUSH1 0x40 MSTORE CALLVALUE DUP1 ISZERO PUSH2 0xF JUMPI PUSH0 PUSH0 REVERT JUMPDEST POP PUSH1 0x4 CALLDATASIZE LT PUSH2 0x4A JUMPI PUSH0 CALLDATALOAD PUSH1 0xE0 SHR DUP1 PUSH4 0x2E7C409B EQ PUSH2 0x4E JUMPI DUP1 PUSH4 0x7AFBE4F1 EQ PUSH2 0x7E JUMPI DUP1 PUSH4 0xB048546F EQ PUSH2 0xAE JUMPI DUP1 PUSH4 0xF8EAC151 EQ PUSH2 0xDE JUMPI JUMPDEST PUSH0 PUSH0 REVERT JUMPDEST PUSH2 0x68 PUSH1 0x4 DUP1 CALLDATASIZE SUB DUP2 ADD SWAP1 PUSH2 0x63 SWAP2 SWAP1 PUSH2 0x1DB JUMP JUMPDEST PUSH2 0x10E JUMP JUMPDEST PUSH1 0x40 MLOAD PUSH2 0x75 SWAP2 SWAP1 PUSH2 0x228 JUMP JUMPDEST PUSH1 0x40 MLOAD DUP1 SWAP2 SUB SWAP1 RETURN JUMPDEST PUSH2 0x98 PUSH1 0x4 DUP1 CALLDATASIZE SUB DUP2 ADD SWAP1 PUSH2 0x93 SWAP2 SWAP1 PUSH2 0x1DB JUMP JUMPDEST PUSH2 0x123 JUMP JUMPDEST PUSH1 0x40 MLOAD PUSH2 0xA5 SWAP2 SWAP1 PUSH2 0x228 JUMP JUMPDEST PUSH1 0x40 MLOAD DUP1 SWAP2 SUB SWAP1 RETURN JUMPDEST PUSH2 0xC8 PUSH1 0x4 DUP1 CALLDATASIZE SUB DUP2 ADD SWAP1 PUSH2 0xC3 SWAP2 SWAP1 PUSH2 0x1DB JUMP JUMPDEST PUSH2 0x138 JUMP JUMPDEST PUSH1 0x40 MLOAD PUSH2 0xD5 SWAP2 SWAP1 PUSH2 0x228 JUMP JUMPDEST PUSH1 0x40 MLOAD DUP1 SWAP2 SUB SWAP1 RETURN JUMPDEST PUSH2 0xF8 PUSH1 0x4 DUP1 CALLDATASIZE SUB DUP2 ADD SWAP1 PUSH2 0xF3 SWAP2 SWAP1 PUSH2 0x1DB JUMP JUMPDEST PUSH2 0x18F JUMP JUMPDEST PUSH1 0x40 MLOAD PUSH2 0x105 SWAP2 SWAP1 PUSH2 0x228 JUMP JUMPDEST PUSH1 0x40 MLOAD DUP1 SWAP2 SUB SWAP1 RETURN JUMPDEST PUSH0 DUP2 DUP4 PUSH2 0x11B SWAP2 SWAP1 PUSH2 0x26E JUMP JUMPDEST SWAP1 POP SWAP3 SWAP2 POP POP JUMP JUMPDEST PUSH0 DUP2 DUP4 PUSH2 0x130 SWAP2 SWAP1 PUSH2 0x2A1 JUMP JUMPDEST SWAP1 POP SWAP3 SWAP2 POP POP JUMP JUMPDEST PUSH0 PUSH0 DUP3 SUB PUSH2 0x17B JUMPI PUSH1 0x40 MLOAD PUSH32 0x8C379A000000000000000000000000000000000000000000000000000000000 DUP2 MSTORE PUSH1 0x4 ADD PUSH2 0x172 SWAP1 PUSH2 0x32E JUMP JUMPDEST PUSH1 0x40 MLOAD DUP1 SWAP2 SUB SWAP1 REVERT JUMPDEST DUP2 DUP4 PUSH2 0x187 SWAP2 SWAP1 PUSH2 0x379 JUMP JUMPDEST SWAP1 POP SWAP3 SWAP2 POP POP JUMP JUMPDEST PUSH0 DUP2 DUP4 PUSH2 0x19C SWAP2 SWAP1 PUSH2 0x3A9 JUMP JUMPDEST SWAP1 POP SWAP3 SWAP2 POP POP JUMP JUMPDEST PUSH0 PUSH0 REVERT JUMPDEST PUSH0 DUP2 SWAP1 POP SWAP2 SWAP1 POP JUMP JUMPDEST PUSH2 0x1BA DUP2 PUSH2 0x1A8 JUMP JUMPDEST DUP2 EQ PUSH2 0x1C4 JUMPI PUSH0 PUSH0 REVERT JUMPDEST POP JUMP JUMPDEST PUSH0 DUP2 CALLDATALOAD SWAP1 POP PUSH2 0x1D5 DUP2 PUSH2 0x1B1 JUMP JUMPDEST SWAP3 SWAP2 POP POP JUMP JUMPDEST PUSH0 PUSH0 PUSH1 0x40 DUP4 DUP6 SUB SLT ISZERO PUSH2 0x1F1 JUMPI PUSH2 0x1F0 PUSH2 0x1A4 JUMP JUMPDEST JUMPDEST PUSH0 PUSH2 0x1FE DUP6 DUP3 DUP7 ADD PUSH2 0x1C7 JUMP JUMPDEST SWAP3 POP POP PUSH1 0x20 PUSH2 0x20F DUP6 DUP3 DUP7 ADD PUSH2 0x1C7 JUMP JUMPDEST SWAP2 POP POP SWAP3 POP SWAP3 SWAP1 POP JUMP JUMPDEST PUSH2 0x222 DUP2 PUSH2 0x1A8 JUMP JUMPDEST DUP3 MSTORE POP POP JUMP JUMPDEST PUSH0 PUSH1 0x20 DUP3 ADD SWAP1 POP PUSH2 0x23B PUSH0 DUP4 ADD DUP5 PUSH2 0x219 JUMP JUMPDEST SWAP3 SWAP2 POP POP JUMP JUMPDEST PUSH32 0x4E487B7100000000000000000000000000000000000000000000000000000000 PUSH0 MSTORE PUSH1 0x11 PUSH1 0x4 MSTORE PUSH1 0x24 PUSH0 REVERT JUMPDEST PUSH0 PUSH2 0x278 DUP3 PUSH2 0x1A8 JUMP JUMPDEST SWAP2 POP PUSH2 0x283 DUP4 PUSH2 0x1A8 JUMP JUMPDEST SWAP3 POP DUP3 DUP3 SUB SWAP1 POP DUP2 DUP2 GT ISZERO PUSH2 0x29B JUMPI PUSH2 0x29A PUSH2 0x241 JUMP JUMPDEST JUMPDEST SWAP3 SWAP2 POP POP JUMP JUMPDEST PUSH0 PUSH2 0x2AB DUP3 PUSH2 0x1A8 JUMP JUMPDEST SWAP2 POP PUSH2 0x2B6 DUP4 PUSH2 0x1A8 JUMP JUMPDEST SWAP3 POP DUP3 DUP3 ADD SWAP1 POP DUP1 DUP3 GT ISZERO PUSH2 0x2CE JUMPI PUSH2 0x2CD PUSH2 0x241 JUMP JUMPDEST JUMPDEST SWAP3 SWAP2 POP POP JUMP JUMPDEST PUSH0 DUP3 DUP3 MSTORE PUSH1 0x20 DUP3 ADD SWAP1 POP SWAP3 SWAP2 POP POP JUMP JUMPDEST PUSH32 0x63616E277420646976696465206279205A65726F000000000000000000000000 PUSH0 DUP3 ADD MSTORE POP JUMP JUMPDEST PUSH0 PUSH2 0x318 PUSH1 0x14 DUP4 PUSH2 0x2D4 JUMP JUMPDEST SWAP2 POP PUSH2 0x323 DUP3 PUSH2 0x2E4 JUMP JUMPDEST PUSH1 0x20 DUP3 ADD SWAP1 POP SWAP2 SWAP1 POP JUMP JUMPDEST PUSH0 PUSH1 0x20 DUP3 ADD SWAP1 POP DUP2 DUP2 SUB PUSH0 DUP4 ADD MSTORE PUSH2 0x345 DUP2 PUSH2 0x30C JUMP JUMPDEST SWAP1 POP SWAP2 SWAP1 POP JUMP JUMPDEST PUSH32 0x4E487B7100000000000000000000000000000000000000000000000000000000 PUSH0 MSTORE PUSH1 0x12 PUSH1 0x4 MSTORE PUSH1 0x24 PUSH0 REVERT JUMPDEST PUSH0 PUSH2 0x383 DUP3 PUSH2 0x1A8 JUMP JUMPDEST SWAP2 POP PUSH2 0x38E DUP4 PUSH2 0x1A8 JUMP JUMPDEST SWAP3 POP DUP3 PUSH2 0x39E JUMPI PUSH2 0x39D PUSH2 0x34C JUMP JUMPDEST JUMPDEST DUP3 DUP3 DIV SWAP1 POP SWAP3 SWAP2 POP POP JUMP JUMPDEST PUSH0 PUSH2 0x3B3 DUP3 PUSH2 0x1A8 JUMP JUMPDEST SWAP2 POP PUSH2 0x3BE DUP4 PUSH2 0x1A8 JUMP JUMPDEST SWAP3 POP DUP3 DUP3 MUL PUSH2 0x3CC DUP2 PUSH2 0x1A8 JUMP JUMPDEST SWAP2 POP DUP3 DUP3 DIV DUP5 EQ DUP4 ISZERO OR PUSH2 0x3E3 JUMPI PUSH2 0x3E2 PUSH2 0x241 JUMP JUMPDEST JUMPDEST POP SWAP3 SWAP2 POP POP JUMP INVALID LOG2 PUSH5 0x6970667358 0x22 SLT KECCAK256 CREATE2 0xED DUP2 SWAP10 RETURN RJUMP 0x137C PUSH3 0x8A0340 PUSH16 0x4420EA71C644333206FEB9B538013F8B 0x2B LOG4 EXTCODECOPY PUSH5 0x736F6C6343 STOP ADDMOD 0x1F STOP CALLER "
		},
		"gasEstimates": {
			"creation": {
				"codeDepositCost": "211200",
				"executionCost": "249",
				"totalCost": "211449"
			},
			"external": {
				"Add(uint256,uint256)": "infinite",
				"Divide(uint256,uint256)": "infinite",
				"Multiply(uint256,uint256)": "infinite",
				"Subtract(uint256,uint256)": "infinite"
			}
		},
		"methodIdentifiers": {
			"Add(uint256,uint256)": "7afbe4f1",
			"Divide(uint256,uint256)": "b048546f",
			"Multiply(uint256,uint256)": "f8eac151",
			"Subtract(uint256,uint256)": "2e7c409b"
		}
	},
	"abi": [
		{
			"inputs": [
				{
					"internalType": "uint256",
					"name": "a",
					"type": "uint256"
				},
				{
					"internalType": "uint256",
					"name": "b",
					"type": "uint256"
				}
			],
			"name": "Add",
			"outputs": [
				{
					"internalType": "uint256",
					"name": "",
					"type": "uint256"
				}
			],
			"stateMutability": "pure",
			"type": "function"
		},
		{
			"inputs": [
				{
					"internalType": "uint256",
					"name": "a",
					"type": "uint256"
				},
				{
					"internalType": "uint256",
					"name": "b",
					"type": "uint256"
				}
			],
			"name": "Divide",
			"outputs": [
				{
					"internalType": "uint256",
					"name": "",
					"type": "uint256"
				}
			],
			"stateMutability": "pure",
			"type": "function"
		},
		{
			"inputs": [
				{
					"internalType": "uint256",
					"name": "a",
					"type": "uint256"
				},
				{
					"internalType": "uint256",
					"name": "b",
					"type": "uint256"
				}
			],
			"name": "Multiply",
			"outputs": [
				{
					"internalType": "uint256",
					"name": "",
					"type": "uint256"
				}
			],
			"stateMutability": "pure",
			"type": "function"
		},
		{
			"inputs": [
				{
					"internalType": "uint256",
					"name": "a",
					"type": "uint256"
				},
				{
					"internalType": "uint256",
					"name": "b",
					"type": "uint256"
				}
			],
			"name": "Subtract",
			"outputs": [
				{
					"internalType": "uint256",
					"name": "",
					"type": "uint256"
				}
			],
			"stateMutability": "pure",
			"type": "function"
		}
	]
}